:100000000000012045260000892600008926000006
:1000100089260000892600008926000000000000D3
:100020000000000000000000000000008926000021
:100030008926000000000000892600009D44000081
:1000400089260000892600008926000089260000F4
:1000500089260000892600008926000089260000E4
:1000600089260000892600008926000089260000D4
:1000700089260000892600008926000089260000C4
:1000800089260000892600008926000089260000B4
:1000900089260000892600008926000089260000A4
:1000A0008926000011390000BD39000089260000B2
:1000B0008926000089260000892600008926000084
:1000C0008926000089260000892600008926000074
:1000D0008926000089260000892600008926000064
:0400E000892600006D
:1000E8000348044B834202D0034B03B118477047BF
:1000F8007C0000207C000020000000000548064924
:100108000B1AD90F01EBA301491002D0034B03B11D
:10011800184770477C0000207C0000200000000089
:1001280010B5064C237843B9FFF7DAFF044B13B137
:100138000448AFF300800123237010BD8000002025
:10014800000000005447000008B5044B1BB10449E7
:100158000448AFF30080BDE80840CFE70000000086
:100168008400002054470000A3F5803A704700BF80
:10017800154B002B08BF114B9D46FFF7F5FF0021DB
:100188008B460F461148124A121A00F079F80C4BA8
:10019800002B00D098470B4B002B00D0984700202D
:1001A800002104000D000B4800F016F800F044F898
:1001B8002000290002F0ECFF00F014F8000008000D
:1001C8000000000000000000000001208000002066
:1001D8009802002015020000002301461A4618461E
:1001E80000F0A0B808B5074B044613B1002100F091
:1001F800EFF8054B1868836A03B19847204600F06A
:100208004BF900BFD90300000445000038B5084B7E
:10021800084D5B1B9C1007D0043B1D44013C55F85E
:1002280004399847002CF9D1BDE8384004F04AB9A0
:10023800000000000000000070B50D4E0D4D761B4B
:10024800B61006D0002455F8043B01349847A6425E
:10025800F9D1094E094D761B04F02EF9B61006D0D7
:10026800002455F8043B01349847A642F9D170BDE3
:100278000000000000000000C0440000BC44000072
:10028800830730B548D0541E002A3FD0CAB203466F
:1002980001E0013C3AD303F8012B9D07F9D1032C67
:1002A8002DD9CDB245EA05250F2C45EA054536D9A5
:1002B800A4F1100222F00F0C03F1200EE6444FEADD
:1002C800121C03F1100242E9045542E902551032AA
:1002D8007245F8D10CF1010214F00C0F03EB021275
:1002E80004F00F0C13D0ACF1040323F00303043320
:1002F800134442F8045B9342FBD10CF003042CB185
:10030800CAB21C4403F8012B9C42FBD130BD6446A1
:100318001346002CF4D1F9E703461446BFE71A4602
:10032800A446E0E7F0B5264C256885B0064605B337
:100338006C681F2C41DCA6B1D5F8880048B3D0F80A
:10034800007140F824204FF0010C0CFA04FC00EB7B
:1003580084024CEA0707022EC0F80071C2F8803008
:1003680010D0A31C01346C6045F82310002005B0A0
:10037800F0BD1448144D25600028D9D00068C5F890
:100388008800D5E7D0F8043143EA0C03C0F80431FB
:10039800E7E70E480191CDE9022370B14FF484706C
:1003A800AFF3008048B10027C0E94077DDE90223B8
:1003B8006C680199C5F88800C3E74FF0FF30D6E7AD
:1003C80028010020000000009C0000200000000020
:1003D8002DE9F84FDFF8BCA0DAF800702DED028B9C
:1003E800E7B108EE100A89467D68D7F888806C1E48
:1003F80014D407EB8506043608EB8505B9F1000F20
:1004080010D0B8F1000F02D0EB6F4B450AD0013C79
:10041800631CA5F10405A6F10406EFD1BDEC028B1F
:10042800BDE8F88F7B683268013BA34216BF002302
:100438007C603360002AEAD0D7F804B0B8F1000F26
:100448001AD0D8F80001012303FA04F1014213D0AD
:10045800D8F80401014218D155F8041C18EE100A06
:1004680090477A685A450BD1DAF80030BB42CED0B3
:100478001F46002FB8D1D1E790477A685A45F3D084
:10048800DAF80070002FAFD1C8E755F8040C904790
:10049800E7E700BF28010020FEE700BF00000000DA
:1004A80051EC100B164A21F0004393421FDD00B5B2
:1004B800144A934285B009DD10EE102A0B4601F06C
:1004C800B7FB41EC100B05B05DF804FB684600F083
:1004D80057F8400000F002009DED021B9DED000B57
:1004E800C0F1010000F068FF05B05DF804FB9FED66
:1004F800021B012000F060BF0000000000000000A7
:10050800FB21E93FFFFFEF7F38B52DED028B55EC5E
:10051800104B00F05BFA184BB0EE408AF0EE608AA0
:1005280093F9003001330DD022462B462046294648
:1005380001F0D0FF30B9002200232046294601F0FF
:10054800A1FF30B9B0EE480AF0EE680ABDEC028BA4
:1005580038BD02F06DF80022002321210160104609
:10056800194601F047FE41EC180BB0EE480AF0EED0
:10057800680ABDEC028B38BD6C000020000000004A
:100588002DE9F04F53EC102B2DED048B904923F0FF
:1005980000458D428BB0044640F38C808D498D42D6
:1005A8001F462BDC002F194610EE100A7EA3D3E954
:1005B800002340F3B68101F03BFB874B9D42804608
:1005C800894600F08F807AA3D3E9002301F030FB3D
:1005D80002460B46C4E900234046494601F028FB81
:1005E80073A3D3E9002301F023FBC4E90201012628
:1005F80030460BB0BDEC048BBDE8F08F77498D42D7
:1006080040F3928076498D4261DC2E15A6F216469B
:1006180010EE100AA5EB06519046894601F070FFCE
:1006280001F054FC02460B4640464946CDE90423F6
:1006380001F0FEFA6B4B002201F0B2FC89468046BD
:1006480001F05EFF054601F041FC02460B464046BC
:100658004946CDE9062301F0EBFA624B002201F08E
:100668009FFC02460B46CDE908230022002301F037
:10067800FFFE002800F05381002D0CBF0123022348
:10068800594A0192022200922146324604A800F0FB
:100698006BFA002F0646ABDA6168226801F1004365
:1006A800E168C4E90023A26801F10043C4E9022318
:1006B80046429DE7002000210026C4E90201304699
:1006C80084ED000B0BB0BDEC048BBDE8F08F10EE91
:1006D800100A194601F0ACFA0026C4E90201C4E97F
:1006E800000185E734A3D3E9002301F0A1FA34A37C
:1006F800D3E900238046894601F09AFA02460B4660
:10070800C4E900234046494601F092FA2CA3D3E9F4
:10071800002301F08DFA0126C4E9020130460BB02E
:10072800BDEC048BBDE8F08F01F034F859EC108B68
:1007380010EE100A24A3D3E90023494601F030FC47
:100748002A4B002201F076FA01F0DAFE064601F0A3
:10075800BDFB02460B4643EC182B13A3D3E9002339
:10076800B0EE489AF0EE689A01F01AFC02460B4681
:100778004046494601F05CFA0DA3D3E900238246BE
:100788008B4651EC180B01F00BFC1F2E41EC180B9B
:1007980030DC174B721E53F82230AB422AD0024687
:1007A8000B469BE0AFF3008000004054FB21F93F6B
:1007B8003163621A61B4D03D0000601A61B4D03D63
:1007C8007370032E8A19A33B83C8C96D305FE43F59
:1007D800FB21E93F7BD90240FB21F93FFB2139414D
:1007E800FFFFEF7F00007041D44500000000E03FAC
:1007F800544500002B150393504653EC182B5946CB
:1008080001F016FAC1F30A53C3EB1555102D8046B3
:10081800894669DD64A3D3E9002351EC190B01F083
:10082800BFFB8046894642464B465046594601F032
:10083800FFF902460B465046594692469B4601F040
:10084800F7F942464B4601F0F3F959A3D3E90023DF
:100858008046894651EC190B01F0A2FB42464B46F3
:1008680001F0E6F902460B465046594643EC182B70
:1008780001F0DEF9039AC1F30A53D31A312B8046EB
:10088800894631DD4DA3D3E9002351EC190B01F062
:1008980087FB8046894642464B465046594601F0FA
:1008A800C7F902460B465046594692469B4601F008
:1008B800BFF942464B4601F0BBF942A3D3E90023F6
:1008C8008046894651EC190B01F06AFB42464B46BB
:1008D80001F0AEF902460B4643EC182B5046594638
:1008E80001F0A6F98046894642464B46C4E900898C
:1008F8005046594601F09CF953EC182B01F098F931
:10090800002FC4E90201BFF673AE09F10043C4E940
:10091800008301F10043C4E90203764268E6032339
:10092800AEE601F087F9244B9D428046894616D0F1
:100938001BA3D3E9002301F07DF902460B46C4E965
:1009480000234046494601F073F915A3D3E9002373
:1009580001F070F94FF0FF36C4E9020148E612A32E
:10096800D3E9002301F066F911A3D3E900238046F7
:10097800894601F05FF902460B46C4E90023404668
:10098800494601F055F90AA3D3E9002301F052F9C9
:100998004FF0FF36C4E902012AE600BFAFF300803A
:1009A8003163621A61B4D03D0000601A61B4D03D71
:1009B8007370032E8A19A33BFB21F93F0000002E18
:1009C8008A19A33BC14920259A837B392DE9F04137
:1009D800634A55EC104BAA4300F09F80002D10EE9F
:1009E80010CA2B4654DD291563D0C3F31303A1F2B3
:1009F800FF37C90743F4801304D45B0003EBDC73AF
:100A08004FEA4C0C4FEADC72002602EB43037F10DE
:100A18004FEA4C0C4FF0160E34464FF40012A11852
:100A2800994202DC5B1A8C1816445B00BEF1010E79
:100A380003EBDC734FEA52024FEA4C0CEFD17546D8
:100A480020204FF000420AE044D04FEADC71013820
:100A580001EB43034FEA4C0C4FEA520243D0A34246
:100A680002EB0E01F0DD002901EB020E0ADBA046C5
:100A78001B1B614588BF03F1FF33ACEB010C154428
:100A88004446E2E7BEF1000FF1DB04F10108EFE7AD
:100A980025F00042224338D0002D4ED129464FEA96
:100AA800DC22153913464FEA4C5C002AF7D0D602EF
:100AB80050D400205B00DD02044600F10100F9D5A6
:100AC8001A4663460CFA00FCC0F12000C340091B1B
:100AD80013438AE76145B8D8002901EB020ED1DB40
:100AE80098460023C9E753EA0C0310D1680871102F
:100AF800F30701F17F5101F5001148BF40F00040B4
:100B080001EB0753024643EC102BBDE8F0816A1C49
:100B180016BF681C01364008E9E710EE102A10EEEF
:100B2800100A2B46294601F03BFA22462B4601F0D3
:100B380081F841EC100BBDE8F08110EE102A204638
:100B4800294601F075F802460B4601F053FB41ECCB
:100B5800100BDAE7634620204FF0FF34B6E700BFFA
:100B68000000F07F000000002DE9F04FADF5197D81
:100B78001C4608930B91BA4BA299049053F8211084
:100B88000591631E12F1140F0393C0F24B83B5490C
:100B9800D31E81FB0301DB17C3EBA10307930133CA
:100BA800A3EB8303DB00D3180693079A039BD41A9D
:100BB800059AD6181AD40136A39F264420AD4FF0C3
:100BC80000084FF0000908E057F8240001F07EF90A
:100BD8000134B442E5E8020108D0002CF4DA01340B
:100BE80040464946B442E5E80201F6D1059B002B90
:100BF800C0F2C683089BDDF80C9020AA02EBC30A5A
:100C0800DA000292059A1A440192049A0DF5E07BE3
:100C180002EBC308039B002BC0F2A781049E574632
:100C28000024002577E90223F6E8020101F0B8F96B
:100C380002460B462046294600F0FCFF464504467E
:100C48000D46EFD1019B09F101099945EBE80245F1
:100C58000AF1080ADED1049A029B1344059A01920C
:100C68009B460BAB03EB82030A930CAB03EB8203AB
:100C7800083B0993019A98AB03EBC203002A53E996
:100C8800284529DD0DF5E07A0AEBC2080DF1300997
:100C9800754B00222046294601F082F901F030FC0C
:100CA80001F014F9714B002206460F4601F078F95D
:100CB80002460B462046294600F0BAFF01F020FC08
:100CC80078E9022349F8040B3946304600F0B2FFB0
:100CD800D04504460D46DBD1DDF8189045EC104BA5
:100CE800484600F0E5FD55EC104B00224FF07F53CD
:100CF80010EE100A294601F053F941EC100B00F0F0
:100D080053FD5B4B51EC100B002201F049F90246F0
:100D18000B462046294600F08BFF0D46044601F09D
:100D2800EFFB804601F0D2F80B46024629462046E2
:100D380000F07EFF4B46002B06460F4640F39A8094
:100D4800019A511E0CAAC9F1180352F8212042FA3F
:100D580003F000FA03F3D31AC9F117050CAA43FAF2
:100D680005F5002D42F82130804400F38D800022E3
:100D780000233046394601F07BFB002800F05982F9
:100D8800019B059A03F1FF3A524510DC03F18043B9
:100D98000CAA013B0A9802EB8303002253F80419BA
:100DA800834242EA0102F9D1002A40F0E180059B22
:100DB8000CAA013B52F82330002B40F0D180099A4D
:100DC800012352F8041901330029FAD0019AD318E3
:100DD8000293531C9946019A08990A449046079A27
:100DE80002EB030A0AF1804AA39A0AF1FF3A02EBDE
:100DF8008A0A20AA02EBC80870AA02EBC30301936F
:100E08005AF8040F01F062F80B46039902460029CC
:100E1800C8E90023474608F108081EDB049E0024A1
:100E2800002501E077E90223F6E8020101F0B8F8AD
:100E380002460B462046294600F0FCFE5E45044665
:100E48000D46EFD1019BE3E802450193029B09F1AE
:100E580001099945D4DD01930CE700240025F1E749
:100E6800E0460000ABAAAA2A0000703E00007041CC
:100E7800000020406BD1019B0CAA013B52F8235083
:100E8800ED15002D7FF773AF019B002B08F10108CA
:100E980040F3CD810C9C002C51D1019B012B20D01B
:100EA8000CAB012253F8044F002C4BD0531C0CA957
:100EB800C4F1807441F822400199994210DD0CAACE
:100EC8000CA852F8232000EB830300EB81006FF09D
:100ED8007F4100E01A688A1A43F8042B8342F9D14B
:100EE8000124069B002B0EDD012B00F06C81022BE8
:100EF80009D1019B5A1E0CAB0CA953F82230C3F33D
:100F0800150341F82230022D7FF431AF32463B46BB
:100F1800B749002000F08CFE06460F46002C3FF42F
:100F280026AF06989FEDAE0B00F0C2FC304639465E
:100F380053EC102B00F07CFE06460F4617E7012302
:100F48000022B4E7019901328A42ABD1C9E7A94B23
:100F5800002201F0ABFA002840F05281054606E76E
:100F6800019B01339946029335E70024002569E681
:100F7800069B0395A3F118020CABCDF81C8053F81F
:100F88002A30069273B9019B03F18043023B0CA9F6
:100F980001EB830353F804190AF1FF3A183A0029C0
:100FA800F8D006929FED8E0B069800F081FCBAF1FE
:100FB800000F55EC104BC0F2D98170AB03EBCA0B94
:100FC8000CAA0AF10103069302EB8306DFF82892C4
:100FD8004FEACA0304930BF108074FF0000856F8CC
:100FE800040D00F073FF22462B4600F0D9FF4B4654
:100FF80067E9020142462046294600F0D1FF0CABC2
:101008009E4204460D46EAD148ABCDE9013ADDF8E7
:1010180014A0BAF1000F4FF000092CDB72A3D3E93A
:101028000023DFF8D8815F4600260024002503E06E
:10103800B14510DBF8E80223F7E8020100F0B0FF41
:1010480002460B462046294600F0F4FD0136B2451B
:1010580004460D46ECDA019B029A03EBC9034A45A4
:10106800C3E90045ABF1080B09F1010306D0BAF159
:10107800000F9946D2DA00240025ECE7A29BDDF8A0
:1010880008A0022B1EDC002B00F3098113D1049C5D
:10109800019D08342C440020002174E9022300F04B
:1010A800C9FDA542F9D1039B13B101F100431946CB
:1010B8000B9BC3E90001079B03F007000DF5197DA1
:1010C800BDE8F08FA29B032BF5D1BAF1000F00F019
:1010D8006981019A049BD318D3E9004502EBCA0B36
:1010E8007BE902672046294632463B4600F0A2FDCE
:1010F800A046A94604460D4622462B4630463946A8
:1011080000F096FD4B46424600F094FD019B5B457E
:10111800CBE90201CBE90045E2D1BAF1010F40F376
:101128004181019A049B0AF1005A0AF1FF3A1344DB
:101138004FEACA01D3E9004501F1080A0291924435
:101148000DF5947B7AE902672046294632463B46EC
:1011580000F070FDA046A94604460D4622462B46DF
:101168003046394600F064FD42464B4600F062FDC9
:10117800D345CAE90201CAE90045E3D1029C019BB3
:1011880010341C4403F110050020002174E90223E7
:1011980000F050FDA542F9D1039B002B40F0BD8023
:1011A8000B9CC4E904010198D0E90023C4E9002399
:1011B800D0E90223C4E90223079B03F007000DF5D9
:1011C800197DBDE8F08F019B5A1E0CAB0CA953F892
:1011D8002230C3F3160341F8223094E6AFF30080BF
:1011E800000000000000F03F00000040FB21F93F34
:1011F8000000F03F0000E03F0000703EF8460000AD
:10120800019B002B08F10108C8BF02253FF742AE39
:1012180032463B466549002000F00AFD0225064695
:101228000F46A4E500216FF017030791BBE40024E3
:1012380057E647EC106B069E03957042CDF81C806C
:1012480000F036FB55EC104B594B10EE100A0022FB
:10125800294601F02BF9002855D0564B019F002252
:10126800183620462946069600F09AFE01F048F9FD
:10127800064600F02BFE4E4B002200F091FE0B4676
:1012880002462946204600F0D3FC01F039F907F15F
:10129800010A0CAB43F8270043F82A6082E6019D57
:1012A800069B002005EBC304002174E9022300F02B
:1012B800C1FCA542F9D1039B002B47D10B9BC3E985
:1012C80000010B4601990246D1E9000100F0B0FC8B
:1012D800BAF1000F0DDD4AAD0124F5E8022301340F
:1012E80000F0A8FCA245F8DA039B13B101F1004312
:1012F80019460B9BC3E90201079B03F007000DF594
:10130800197DBDE8F08F2046294601F0F9F8019BC8
:101318000CAA9A4642F8230044E6019E01F10043D4
:1013280074680B993268F568C1E9040304F1004355
:10133800C1E90023B26805F10043C1E90223079B14
:1013480003F007000DF5197DBDE8F08F0B9A01F148
:10135800004353600B46019910600246D1E9000131
:1013680000F066FCBAF1000FB5DCBFE7A29B022BC8
:101378000ADC002B11DC7FF49EAE0020002192E6EF
:10138800089BDB00029366E4A29B032B7FF493AED9
:1013980048AB002000210193FEE648AB0020002165
:1013A800019388E700200021F6E600BF0000F03F27
:1013B800000070410000703E2DE9F04F2DED048BC8
:1013C80059EC108BC24B85B029F000469E428DED3A
:1013D800001B0746CDF80C901DDC10EE100A49469C
:1013E80001F08EF8002842D17B1C42461343334358
:1013F80000F0BE81012F00F0C8814B46B54900209E
:1014080000F0F8FE04460D4645EC104B05B0BDEC67
:10141800048BBDE8F08FB04B9E4228DD039B002B68
:101428000BDADDE9000109F100439946024601F1B2
:101438000043CDE9002310EE108A42464B4684A1B2
:10144800D1E9000100F0F4FBDDE9002304460D4674
:1014580081A1D1E9000100F0EBFB22462B4600F008
:10146800E9FB9FED7F7B8DED007B804689464246F8
:101478004B464046494600F093FD02460B468246DD
:101488008B4600F08DFD524604460D465B464046AD
:10149800494600F085FD74A3D3E9002341EC180BFD
:1014A8002046294600F07CFD71A3D3E9002300F013
:1014B800C1FB22462B4600F073FD6FA3D3E900233E
:1014C80000F0B8FB22462B4600F06AFD6CA3D3E976
:1014D800002300F0AFFB22462B4600F061FD6AA313
:1014E800D3E9002300F0A6FB22462B4600F058FD66
:1014F80067A3D3E9002300F09DFB52465B4600F04A
:101508004FFD65A3D3E9002341EC190B204629467A
:1015180000F046FD62A3D3E9002300F08BFB2246CE
:101528002B4600F03DFD60A3D3E9002300F082FBC9
:1015380022462B4600F034FD5DA3D3E9002300F0DA
:1015480079FB22462B4600F02BFD5BA3D3E9002351
:1015580000F070FB22462B4600F022FD58A3D3E989
:10156800002300F067FB02460B4651EC190B00F014
:1015780061FB53EC182B00F013FDDDE90045224612
:101588002B4600F057FB52465B4600F009FD224609
:101598002B4600F04FFB4CA3D3E9002304460D462D
:1015A80051EC180B00F0FCFC22462B4600F042FBE5
:1015B80082468B465B4640464946524600F03AFB17
:1015C800454B9E4204460D4600F38A80012F36D0D3
:1015D80002460B4600203F4900F00CFE00240F464F
:1015E80042464B4606462946204600F021FB024665
:1015F8000B465046594600F01BFB22463B4600F07E
:10160800CFFC02460B46204629469046994622467C
:101618003B4600F0C5FC314B002200F00BFB0246B4
:101628000B464046494600F005FB32463B4600F073
:10163800B7FC22463B4600F0FDFA04460D4645EC51
:10164800104B05B0BDEC048BBDE8F08FAFF3008004
:10165800182D4454FB21E93F075C143326A6813C2E
:101668000000000000000000D47ABF74702AFB3E1E
:10167800E9A7F0320FB8123F68108D1AF726303FED
:101688001583E0FEC8DB573F93846EE9E326823F6B
:10169800FE41B31BBAA1AB3F735360DBCB75F3BEFE
:1016A800A69237A0887E143F0165F2F2D844433FE2
:1016B800280356C9226D6D3F37D60684F464963FD9
:1016C8007AFE10111111C13F635555555555D53F37
:1016D800FFFF2F3E0000F0BF2794E53F0000F03FDA
:1016E800384600F0F3FB224606460F462B462046B6
:1016F800294600F055FC02460B462046294614466A
:101708001D4632463B4600F095FA02460B462046F7
:10171800294600F06FFD52465B4600F089FA024602
:101728000B464046494600F083FA02460B4600F055
:1017380081FA02460B463046394600F079FA039B97
:101748009B1703F002030446C3F101000D4600F0A5
:10175800BDFB02460B462046294600F021FC044604
:101768000D4645EC104B05B0BDEC048BBDE8F08F81
:1017780049EC108B00F00EF8054953EC102B0020B3
:1017880000F038FD04460D4659E744464D4656E7F5
:101798000000F03F51EC100B10EE102A21F000432E
:1017A80043EC102B704700BF51EC100BF8B5C1F398
:1017B8000A53A3F2FF35132D10EE106A0C4630DCE5
:1017C800002D1EDB384F2F4101EA070303432DD0BC
:1017D80033A3D3E9002300F02DFA0022002300F000
:1017E8006FFE48B1002C04DA4FF4801343FA05F574
:1017F8002C4424EA070400262346324643EC102BE7
:10180800F8BD27A3D3E9002300F014FA002200232F
:1018180000F056FE0028EFD0002C29DB00263446C5
:10182800EAE7332D05DDB5F5806F19D041EC100BD3
:10183800F8BDA3F213434FF0FF37DF400742F5D05E
:1018480017A3D3E9002300F0F5F90022002300F0E4
:1018580037FE0028D0D0002C13DB26EA0706CBE79A
:1018680010EE102A0B4600F0E5F941EC100BF8BD1C
:1018780024F000430D4A1E43002E18BF14460026CC
:10188800BAE7142D08D00123C5F1340503FA05F58C
:10189800AE1928BFE418E0E70134DEE7AFF30080B3
:1018A8009C7500883CE4377EFFFF0F000000F0BF06
:1018B80038B553EC102BC3F30A5104469C4689BB38
:1018C80010EE101A23F0004C5CEA010129D01946E9
:1018D80000223D4B3D4D10EE100A00F061FBAC427A
:1018E80002460B4616DB8C46C1F30A5136392144B1
:1018F80040F2FE70814221DC002947DC11F1350FEE
:1019080034DA4CF250318C4218DC002B26A1D1E994
:10191800000144DB24A3D3E9002300F041FB41ECA0
:10192800100B38BD40F2FF708142E0D110EE100A72
:10193800194600F07FF941EC100B38BD002B1CA1B3
:10194800D1E9000107DB1AA3D3E9002300F028FB43
:1019580041EC100B38BD18A1D1E9000114A3D3E95B
:10196800002300F01DFB41EC100BF3E72CF0FF4CBB
:101978002CF4E00C36314CEA01531046194600228B
:10198800134B00F00DFB41EC100B38BD2CF0FF4C55
:101998002CF4E00C4CEA015343EC102B38BD08A1A1
:1019A800D1E90001B6E700BF59F3F8C21F6EA501DF
:1019B8009C7500883CE4377E9C7500883CE437FEC3
:1019C80059F3F8C21F6EA58100005043B03CFFFFD9
:1019D8000000903C70B54FF0FF0C4CF4E06C1CEA32
:1019E80011541DBF1CEA135594EA0C0F95EA0C0F0D
:1019F80000F0DEF82C4481EA030621EA4C5123EA80
:101A08004C5350EA013518BF52EA033541F48011AE
:101A180043F4801338D0A0FB02CE4FF00005E1FB61
:101A280002E506F00042E0FB03E54FF00006E1FBAB
:101A380003569CF0000F18BF4EF0010EA4F1FF04EE
:101A4800B6F5007F64F5407404D25FEA4E0E6D412E
:101A580046EB060642EAC62141EA55514FEAC5203F
:101A680040EA5E504FEACE2EB4F1FD0C88BFBCF5BB
:101A7800E06F1ED8BEF1004F08BF5FEA500E50F16C
:101A8800000041EB045170BD06F0004646EA010132
:101A980040EA020081EA0301B4EB5C04C2BFD4EB64
:101AA8000C0541EA045170BD41F480114FF0000E5D
:101AB800013C00F3AB8014F1360FDEBF002001F0CB
:101AC800004170BDC4F10004203C35DA0C341BDC45
:101AD80004F11404C4F1200500FA05F320FA04F017
:101AE80001FA05F240EA020001F0004221F000414B
:101AF80010EBD37021FA04F642EB06015EEA430EBE
:101B080008BF20EAD37070BDC4F10C04C4F12005ED
:101B180000FA04F320FA05F001FA04F240EA0200A0
:101B280001F0004110EBD37041F100015EEA430E71
:101B380008BF20EAD37070BDC4F1200500FA05F291
:101B48004EEA020E20FA04F301FA05F243EA020310
:101B580021FA04F001F0004121FA04F220EA02001F
:101B680000EBD3705EEA430E08BF20EAD37070BD65
:101B780094F0000F0FD101F00046400041EB010145
:101B880011F4801F08BF013CF7D041EA060195F027
:101B9800000F18BF704703F00046520043EB0303E1
:101BA80013F4801F08BF013DF7D043EA06037047CE
:101BB80094EA0C0F0CEA135518BF95EA0C0F0CD0D9
:101BC80050EA410618BF52EA4306D1D181EA03011F
:101BD80001F000414FF0000070BD50EA410606BF19
:101BE8001046194652EA430619D094EA0C0F02D15E
:101BF80050EA013613D195EA0C0F05D152EA0336A3
:101C08001CBF104619460AD181EA030101F00041C0
:101C180041F0FE4141F470014FF0000070BD41F009
:101C2800FE4141F4780170BD81F0004102E000BF3F
:101C380083F0004330B54FEA41044FEA430594EA84
:101C4800050F08BF90EA020F1FBF54EA000C55EABF
:101C5800020C7FEA645C7FEA655C00F0E2804FEA90
:101C68005454D4EB5555B8BF6D420CDD2C4480EA72
:101C7800020281EA030382EA000083EA010180EAA2
:101C8800020281EA0303362D88BF30BD11F0004FF0
:101C98004FEA01314FF4801C4CEA113102D0404226
:101CA80061EB410113F0004F4FEA03334CEA133361
:101CB80002D0524263EB430394EA050F00F0A78079
:101CC800A4F10104D5F1200E0DDB02FA0EFC22FA74
:101CD80005F2801841F1000103FA0EF2801843FA68
:101CE80005F359410EE0A5F120050EF1200E012A59
:101CF80003FA0EFC28BF4CF0020C43FA05F3C01897
:101D080051EBE37101F0004507D54FF0000EDCF10F
:101D1800000C7EEB00006EEB0101B1F5801F1BD3B8
:101D2800B1F5001F0CD349085FEA30004FEA3C0CBC
:101D380004F101044FEA445212F5800F80F09A80B2
:101D4800BCF1004F08BF5FEA500C50F1000041EBB6
:101D5800045141EA050130BD5FEA4C0C404141EBBA
:101D68000101013C28BFB1F5801FE9D291F0000FB5
:101D780004BF01460020B1FA81F308BF2033A3F164
:101D88000B03B3F120020CDA0C3208DD02F1140C5B
:101D9800C2F10C0201FA0CF021FA02F10CE002F196
:101DA8001402D8BFC2F1200C01FA02F120FA0CFC8F
:101DB800DCBF41EA0C019040E41AA2BF01EB0451D8
:101DC800294330BD6FEA04041F3C1CDA0C340EDCD6
:101DD80004F11404C4F1200220FA04F001FA02F319
:101DE80040EA030021FA04F345EA030130BDC4F1D7
:101DF8000C04C4F1200220FA02F001FA04F340EACC
:101E08000300294630BD21FA04F0294630BD94F07C
:101E1800000F83F4801306BF81F480110134013D63
:101E28004EE77FEA645C18BF7FEA655C29D094EAD4
:101E3800050F08BF90EA020F05D054EA000C04BF52
:101E48001946104630BD91EA030F1EBF002100203D
:101E580030BD5FEA545C05D14000494128BF41F0DC
:101E6800004130BD14F580043CBF01F5801130BD40
:101E780001F0004545F0FE4141F470014FF00000CB
:101E880030BD7FEA645C1ABF194610467FEA655C7C
:101E98001CBF0B46024650EA013406BF52EA03351E
:101EA80091EA030F41F4002130BD00BF90F0000F0C
:101EB80004BF0021704730B54FF4806404F1320448
:101EC8004FF000054FF0000150E700BF90F0000F01
:101ED80004BF0021704730B54FF4806404F1320428
:101EE80010F0004548BF40424FF000013EE700BFF8
:101EF80042004FEAE2014FEA31014FEA02701FBF88
:101F080012F07F4393F07F4F81F06051704732F0B9
:101F18007F4208BF704793F07F4F04BF41F4002110
:101F2800704730B54FF4607401F0004521F000416E
:101F38001CE700BF50EA010208BF704730B54FF0F8
:101F480000050AE050EA010208BF704730B511F0F9
:101F5800004502D5404261EB41014FF4806404F131
:101F680032045FEA915C3FF4D8AE4FF003025FEAB7
:101F7800DC0C18BF03325FEADC0C18BF033202EB3B
:101F8800DC02C2F1200300FA03FC20FA02F001FA95
:101F980003FE40EA0E0021FA02F11444BDE600BF38
:101FA80070B54FF0FF0C4CF4E06C1CEA11541DBFE7
:101FB8001CEA135594EA0C0F95EA0C0F00F0DEF8B2
:101FC8002C4481EA030621EA4C5123EA4C5350EA97
:101FD800013518BF52EA033541F4801143F48013E8
:101FE80038D0A0FB02CE4FF00005E1FB02E506F079
:101FF8000042E0FB03E54FF00006E1FB03569CF0CE
:10200800000F18BF4EF0010EA4F1FF04B6F5007FD3
:1020180064F5407404D25FEA4E0E6D4146EB060645
:1020280042EAC62141EA55514FEAC52040EA5E50CE
:102038004FEACE2EB4F1FD0C88BFBCF5E06F1ED878
:10204800BEF1004F08BF5FEA500E50F1000041EBAF
:10205800045170BD06F0004646EA010140EA02005C
:1020680081EA0301B4EB5C04C2BFD4EB0C0541EA7E
:10207800045170BD41F480114FF0000E013C00F393
:10208800AB8014F1360FDEBF002001F0004170BDB7
:10209800C4F10004203C35DA0C341BDC04F11404D0
:1020A800C4F1200500FA05F320FA04F001FA05F25C
:1020B80040EA020001F0004221F0004110EBD37029
:1020C80021FA04F642EB06015EEA430E08BF20EA55
:1020D800D37070BDC4F10C04C4F1200500FA04F3F8
:1020E80020FA05F001FA04F240EA020001F000418A
:1020F80010EBD37041F100015EEA430E08BF20EAFD
:10210800D37070BDC4F1200500FA05F24EEA020E44
:1021180020FA04F301FA05F243EA020321FA04F073
:1021280001F0004121FA04F220EA020000EBD3702A
:102138005EEA430E08BF20EAD37070BD94F0000F2A
:102148000FD101F00046400041EB010111F4801F5E
:1021580008BF013CF7D041EA060195F0000F18BF0F
:10216800704703F00046520043EB030313F4801F4B
:1021780008BF013DF7D043EA0603704794EA0C0F05
:102188000CEA135518BF95EA0C0F0CD050EA41061B
:1021980018BF52EA4306D1D181EA030101F0004198
:1021A8004FF0000070BD50EA410606BF10461946C0
:1021B80052EA430619D094EA0C0F02D150EA0136CC
:1021C80013D195EA0C0F05D152EA03361CBF10460D
:1021D80019460AD181EA030101F0004141F0FE41AC
:1021E80041F470014FF0000070BD41F0FE4141F430
:1021F800780170BD70B54FF0FF0C4CF4E06C1CEA30
:1022080011541DBF1CEA135594EA0C0F95EA0C0FE4
:1022180000F0A7F8A4EB050481EA030E52EA03359F
:102228004FEA013100F088804FEA03334FF08055C0
:1022380045EA131343EA12634FEA022245EA1115ED
:1022480045EA10654FEA00260EF000419D4208BF9E
:10225800964244F1FD0404F5407402D25B084FEA4B
:102268003202B61A65EB03055B084FEA32024FF4F7
:1022780080104FF4002CB6EB020E75EB030E22BF54
:10228800B61A754640EA0C005B084FEA3202B6EB14
:10229800020E75EB030E22BFB61A754640EA5C00C3
:1022A8005B084FEA3202B6EB020E75EB030E22BF53
:1022B800B61A754640EA9C005B084FEA3202B6EB54
:1022C800020E75EB030E22BFB61A754640EADC0013
:1022D80055EA060E18D04FEA051545EA16754FEA75
:1022E80006164FEAC30343EA52734FEAC2025FEA93
:1022F8001C1CC0D111F4801F0BD141EA00014FF022
:1023080000004FF0004CB6E711F4801F04BF0143F2
:102318000020B4F1FD0C88BFBCF5E06F3FF6AFAE0E
:10232800B5EB030C04BFB6EB020C5FEA500C50F19E
:10233800000041EB045170BD0EF0004E4EEA113121
:1023480014EB5C04C2BFD4EB0C0541EA045170BD28
:1023580041F480114FF0000E013C90E645EA060E6C
:102368008DE60CEA135594EA0C0F08BF95EA0C0F9A
:102378003FF43BAF94EA0C0F0AD150EA01347FF4E2
:1023880034AF95EA0C0F7FF425AF104619462CE7B9
:1023980095EA0C0F06D152EA03353FF4FDAE10461C
:1023A800194622E750EA410618BF52EA43067FF46D
:1023B800C5AE50EA41047FF40DAF52EA43057FF4FD
:1023C800EBAE12E74FF0FF3C06E000BF4FF0010C08
:1023D80002E000BF4FF0010C4DF804CD4FEA410C6C
:1023E8007FEA6C5C4FEA430C18BF7FEA6C5C1BD039
:1023F80001B050EA410C0CBF52EA430C91EA030FBA
:1024080002BF90EA020F0020704710F1000F91EA16
:10241800030F58BF994208BF90422CBFD8176FEAE4
:10242800E37040F0010070474FEA410C7FEA6C5CB2
:1024380002D150EA013C07D14FEA430C7FEA6C5CB9
:10244800D6D152EA033CD3D05DF8040B704700BFE5
:102458008446104662468C461946634600E000BF33
:1024680001B5FFF7B7FF002848BF10F1000F01BD05
:102478004DF808EDFFF7F4FF0CBF012000205DF8D0
:1024880008FB00BF4DF808EDFFF7EAFF34BF012055
:1024980000205DF808FB00BF4DF808EDFFF7E0FFEE
:1024A80094BF012000205DF808FB00BF4DF808ED3F
:1024B800FFF7CEFF94BF012000205DF808FB00BFA6
:1024C8004DF808EDFFF7C4FF34BF012000205DF888
:1024D80008FB00BF4FEA410C7FEA6C5C02D150EA6E
:1024E800013C0AD14FEA430C7FEA6C5C02D152EA04
:1024F800033C02D14FF0000070474FF001007047D5
:102508004FEA410212F5001215D211D56FF4787313
:10251800B3EB625212D94FEAC12343F0004343EAB6
:10252800505311F0004F23FA02F018BF4042704791
:102538004FF00000704750EA013005D111F000401B
:1025480008BF6FF0004070474FF00000704700BFB1
:102558004A0011D212F5001211D20DD56FF478731A
:10256800B3EB62520ED44FEAC12343F0004343EA6F
:10257800505323FA02F070474FF00000704750EABA
:10258800013002D14FF0FF3070474FF00000704724
:102598004FEA4102B2F1E04324BFB3F5001CDCF17D
:1025A800FE5C0DD901F0004C4FEAC0024CEA5070B5
:1025B800B2F1004F40EB830008BF20F001007047E4
:1025C80011F0804F21D113F13872BCBF01F00040E7
:1025D800704741F480114FEA5252C2F11802C2F119
:1025E800200C10FA0CF320FA02F018BF40F001009A
:1025F8004FEAC1234FEAD32303FA0CFC40EA0C004C
:1026080023FA02F34FEA4303CCE77FEA625307D188
:1026180050EA01331EBF4FF0FE4040F440007047BF
:1026280001F0004040F0FE4040F40000704700BF59
:10263800014B1868704700BF0400002080B582B0C5
:1026480000AF0C4B7B600C4B3B6007E07A68131DB6
:102658007B603B68191D396012681A603B68074A3D
:102668009342F3D300F094F9FDF782FD00BF0837D9
:10267800BD4680BD60470000000000207C000020AF
:1026880080B400AFFEE7000080B489B000AFA44B6F
:102698009B681B0C03F00703FB600122FB6802FA2E
:1026A80003F3FB729E4B9B6803F007037B607B6818
:1026B800052B00F2638101A252F823F0DD26000009
:1026C8005D2700006F2700009D270000BD2800003F
:1026D800CD280000934B1B78DBB2002B31D0904BF8
:1026E80046F65A121A608E4B1B6D8D4A43F0010351
:1026F80013658B4B01221A608A4B1B78DBB2002BC7
:1027080016D0894B1B78DBB2002B08D0FB7A4FF42C
:10271800FA3292FBF3F31A46844B1A602EE1FB7AE5
:102728004FF4FA4292FBF3F31A46804B1A6025E104
:10273800FB7A4FF4004292FBF3F31A467B4B1A6084
:102748001CE1FB7A4FF4004292FBF3F31A46774BF5
:102758001A6013E1FB7A42F2107292FBF3F31A4605
:10276800724B1A600AE1704B1B78DBB2002B08D061
:10277800FB7A4FF4FA3292FBF3F31A466B4B1A606A
:10278800FCE0FB7A4FF4FA4292FBF3F31A46674BEC
:102798001A60F3E0624B5B681BB2C3F309037B82E8
:1027A8005F4B5B6803F4E023B3F5A02F29D0B3F5A2
:1027B800A02F29D8B3F5802F20D0B3F5802F23D8A8
:1027C800B3F5403F17D0B3F5403F1DD8B3F5003FF0
:1027D8000ED0B3F5003F17D8002B03D0B3F5803FD8
:1027E80003D011E0524B7B610EE0524B7B610BE052
:1027F800514B7B6108E0514B7B6105E0504B7B619D
:1028080002E0504B7B6100BFB7F91230002B03D1B7
:10281800464A7B691360B1E07B8A03F48053002B3E
:1028280005D07B8A6FEA03536FEA13537B82464BCA
:102838001B78DBB2002B06D0444B1B68FB61444B72
:10284800DB6EBB6105E0434B1B68FB61404BDB6CF7
:10285800BB617B6907EE903AF8EE676AB7F9123008
:1028680007EE903AB8EEE77AD7ED077A27EE276AAF
:10287800BB69C3F5407307EE903AB8EEE77AD7ED37
:10288800077A67EE277AB7EE007A77EE877AB2EEA4
:10289800007A27EE877AC6EE077AB7EE007A37EE27
:1028A800677AC6EE877AFCEEE77A17EE902A1F4B16
:1028B8001A6063E0FB7A224A92FBF3F31A461B4B39
:1028C8001A605BE0244B1B78DBB2002B4ED0144B14
:1028D80046F65A121A60124B1B6D114A43F0020356
:1028E80013650F4B01221A601B4B1B78DBB2002BC0
:1028F80034D00D4B1B78DBB2002B08D0FB7A4FF499
:10290800FA3292FBF3F31A46084B1A6035E0FB7A69
:102918004FF4FA4292FBF3F31A46044B1A602CE088
:1029280000040140008920423C86204270000020BB
:1029380060E31600C0C62D00808D5B00001BB70049
:1029480000366E01006CDC02D88020428410200022
:10295800001020006410200004892042FB7A0A4AF3
:1029680092FBF3F31A46094B1A6006E0FB7A064A13
:1029780092FBF3F31A46054B1A6000BF00BF2437D9
:10298800BD465DF8047B7047006CDC0270000020D7
:1029980080B400AF294BD3F88830284A43F4700339
:1029A800C2F88830264B4FF4B5429A81254B8022D5
:1029B8005A6100BF244B5B6803F48073002BF9D184
:1029C800214B224A1A6000BF1F4B5B6803F48073D7
:1029D800002BF9D11E4B1B6923F470431C4A43F4A6
:1029E800805313611A4B5B6923F47043184A43F40C
:1029F80080535361174B46F65A121A60154B4FF421
:102A0800A0225A60134B9B6823F00713114A43F026
:102A1800030393600F4B00221A600D4B1B690C4A8D
:102A280043F0300313610A4B5B69094A43F03003F2
:102A3800536100BFBD465DF8047B704700ED00E0C0
:102A480000480040003004E00000014001005A69DD
:102A5800001001400004014080B485B000AF7860E8
:102A680087ED000A7B6893ED037AD7ED007A77EE5D
:102A7800277A7B68C3ED037A7B68D3ED047A97EDF8
:102A8800007A77EE677AC7ED037A7B683A681A614D
:102A98007B6893ED007AD7ED007A27EE277A7B687A
:102AA800D3ED016A7B68D3ED037A66EEA77A37EE39
:102AB800277A7B68D3ED026AD7ED037A66EEA77AA8
:102AC80077EE277AB0EE670A1437BD465DF8047BC7
:102AD800704700000000000080B584B000AF87EDAB
:102AE800010A7868FFF704FA02460B4643EC102BFC
:102AF800FDF7D6FC53EC102B10461946FFF748FD9E
:102B08000346FB60D7ED037AF5EE407AF1EE10FA52
:102B180001D10F4B10E0F868FFF7EAF902460B46BF
:102B280009A1D1E90001FFF765FB02460B461046F3
:102B38001946FFF72DFD034607EE903AB0EE670AF7
:102B48001037BD4680BD00BFA8C64B378941C03F7E
:102B58000024744980B485B000AF78600023FB601E
:102B680002E0FB680133FB607B684CF2503203FBE8
:102B780002F2FB689A42F4DC00BF00BF1437BD467E
:102B88005DF8047B704780B400AF00BFBD465DF8B8
:102B9800047B704780B500AF054B00221A7001F026
:102BA80083FB01F0B5FB00F06FFF00BF80BD00BFE5
:102BB8008402002000000000B0B586B000AF644B6E
:102BC8001B680133624A13605FA3D3E90023C7E996
:102BD8000423604B93ED007A5F4BD3ED007AB4EE9B
:102BE800E77AF1EE10FA2CDD5B4B1B681846FFF70D
:102BF8007FF904460D464FF00002584BD7E904010F
:102C0800FFF7CEF902460B4620462946FFF712F891
:102C180002460B4610461946FFF7BAFC03464E4AD1
:102C280013604D4B93ED007A4A4BD3ED007AB4EE26
:102C3800E77AF1EE10FA3BDD464B1B68464A136013
:102C480036E0444B93ED007A434BD3ED007AB4EE73
:102C5800E77AF1EE10FA2BD53F4B1B681846FFF7C1
:102C680047F904460D464FF000023C4BD7E90401F2
:102C7800FFF796F902460B4620462946FEF7D8FF8D
:102C880002460B4610461946FFF782FC0346324AB5
:102C98001360314B93ED007A2E4BD3ED007AB4EEEE
:102CA800E77AF1EE10FA03D52A4B1B682A4A13601B
:102CB8002B4BFB602B4BD3ED007AB0EE670AFFF786
:102CC8000BFF87ED020AB868FFF712F902460B46B8
:102CD80043EC102BFDF718FC53EC102B104619464B
:102CE800FFF756FC07EE900AF0EEE77AC7ED017A97
:102CF8004FF000033B60184B93ED007AD7ED007A54
:102D080077EE277A17EE900AFFF7F2F802460B469D
:102D180043EC102B01F080F90F4B93ED007AD7EDBF
:102D2800007A77EE677A17EE900AFFF7E1F8024625
:102D38000B4643EC102B01F02FFA00BF1837BD46A5
:102D4800B0BD00BFAFF30080FCA9F1D24D62503F87
:102D58003C0100202C0100203001002000002E4002
:102D6800A69B443B3401002080B584B000AF87EDBA
:102D7800000B0FA3D3E90023D7E90001FFF710F9EF
:102D880002460B46104619460BA3D3E90023FEF76B
:102D980051FF02460B46C7E9022397ED020B00F0EC
:102DA80017FF00BF1037BD4680BD00BFAFF30080DE
:102DB800EC51B81E85EB913F9A9999999999E13F01
:102DC800B0B58EB000AF764B4FF000021A6000230A
:102DD8007B630A233B62002387F83330714B3C4600
:102DE8001D460FCD0FC42B68236000F001FE6E4B0B
:102DF8001B78012B40F0B28097F83330002B00F09D
:102E0800AD806A4800F072FB0023FB627F23BB623F
:102E180043F6FF73FB6100237B620FE0644A7B6A21
:102E280032F813301A46FB69934204D17B6AFB627D
:102E380000237B6305E07B6A01337B627B6A7F2B1F
:102E4800ECDD7B6A802B02D17B6B01337B637F23B4
:102E58007B620FE0564A7B6A32F813301A46FB69E8
:102E6800934204D17B6ABB6200237B6305E07B6AE3
:102E7800013B7B627B6A002BECDA7B6AB3F1FF3F94
:102E880002D17B6B01337B637A6B3B6A9A4202DD2A
:102E9800002387F83330FA6ABB6A1344DA0F134405
:102EA8005B10BB61BB69403B1846FFF70FF84FF05A
:102EB8000002404BFFF79EF902460B4610461946A2
:102EC800FFF766FB03467B61354B4FF07A521A6079
:102ED8003B4697ED050A1846FFF7BEFDF0EE407A2F
:102EE800354BC3ED007A344BD3ED007AB1EE677AF7
:102EF800314BD3ED007A67EE277A17EE900AFEF78A
:102F0800F7FF04460D462C4BD3ED007AF0EEE77A36
:102F180017EE900AFEF7ECFF02460B4620462946BC
:102F2800FFF73EF802460B4614461D46224B1B6827
:102F38001846FEF7DDFF02460B4620462946FFF7F6
:102F480059F902460B4643EC172BB0EE470AF0EE50
:102F5800670AFFF709FF144B00221A7097F83330FD
:102F6800002B7FF444AF0E4B4FF000021A60134B56
:102F78004FF000021A609FED080BFFF7F5FE00F016
:102F88002BFC0346002B3FF432AF012387F8333084
:102F980000237B632BE700BF000000000000000057
:102FA8002C01002020450000840200200845000074
:102FB800840100200000504034010020300100202E
:102FC800B0B590B000AF684B4FF000021A60002314
:102FD800FB630A23BB62002387F83B30634B3C1D2D
:102FE8001D460FCD0FC42B6823605F4B4FF07E52F8
:102FF8001A605F4B1B687B6200F0FAFC5D4B1B7824
:10300800012B40F08F8097F83B30002B00F08A802E
:10301800594800F06BFA00237B637F233B6343F638
:10302800FF733B620023FB620FE0544AFB6A32F8ED
:1030380013301A463B6A934204D1FB6A7B63002330
:10304800FB6305E0FB6A0133FB62FB6A7F2BECDD67
:10305800FB6A802B02D1FB6B0133FB637F23FB628E
:103068000FE0464AFB6A32F813301A463B6A93422D
:1030780004D1FB6A3B630023FB6305E0FB6A013B69
:10308800FB62FB6A002BECDAFB6AB3F1FF3F02D16B
:10309800FB6B0133FB637A6B3B6B1344DA0F13440E
:1030A8005B10FB61FB69403B1846FEF70FFF4FF0D2
:1030B8000002334BFFF79EF802460B4610461946AE
:1030C800FFF766FA0346BB61294B1A687B6AD31A75
:1030D800B3F57A7F04D2244B4FF07E521A6003E096
:1030E800214B4FF000021A603B1D97ED060A184667
:1030F800FFF7B2FCF0EE407A224BC3ED007A214B89
:10310800D3ED007AF1EE677A17EE903A1846FEF79B
:10311800EFFE02460B4643EC102BFFF725FE154B3E
:1031280000221A7097F83B30002B7FF467AF0E4BE4
:103138004FF000021A60144B4FF000021A609FED26
:10314800080BFFF711FE00F047FB0346002B3FF486
:1031580055AF012387F83B300023FB634EE700BFE0
:1031680000000000000000002C0100203445000091
:103178003C01002084020020084500008401002052
:103188000000504034010020300100200000000001
:1031980080B500AF00F097F9294800F0A7F99FED36
:1031A800240B00F041FB034600221946254800F095
:1031B8006BFB9FED210B00F037FB034600221946FD
:1031C800214800F0B7FB00F0ABF900F0DBF900F0A4
:1031D8009FFA00F0D9FC00F0BFFE00F07DFFFFF77A
:1031E800D9FC1A4BDB78DBB2184A23F00103DBB2B7
:1031F800D370164BDB78DBB2144A23F00203DBB240
:10320800D370124BDB78DBB2104A23F00403DBB235
:10321800D37000F0E1FA0346002B01D0FFF7D0FD90
:1032280000F0EEFA0346002BF3D0FFF7C9FEF0E7F3
:1032380000000000000000400000000000408F4037
:10324800484500008F2B0000C12B0000004C0040B7
:1032580080B400AF1E4B1B889BB21D4A43F0C103CC
:103268009BB213801B4B1B681B4AA2FB03231A0C3F
:10327800174B92B2DA80164B1B899BB2144A03F0A3
:103288000F039BB21381154B9B7ADBB2134A43F0B1
:103298000C03DBB29372114B1B7BDBB20F4A23F09A
:1032A8000C03DBB213730A4B1B889BB2084A23F04A
:1032B80001039BB21380064B5B8B9BB2044A23F03D
:1032C8000F039BB2538300BFBD465DF8047B704774
:1032D8000010004070000020C5B3A291004C0040CF
:1032E80080B400AF00BF084B9B8B9BB203F0010377
:1032F800002BF8D0044B9B899BB2DBB21846BD4625
:103308005DF8047B704700BF0010004080B400AF38
:10331800054B9B8B9BB2DBB203F00103DBB2184673
:10332800BD465DF8047B70470010004080B483B050
:1033380000AF0346FB7100BF084B9B8B9BB203F0A9
:103348000203002BF8D0054BFA7992B2DA8100BF5C
:103358000C37BD465DF8047B704700BF0010004085
:1033680080B582B000AF786006E07B685A1C7A604E
:103378001B781846FFF7DAFF7B681B78002BF4D11F
:1033880000BF00BF0837BD4680BD000080B400AF55
:103398001E4B1B889BB21D4A43F0C1039BB213808E
:1033A8001B4B1B681B4AA2FB03231A0C174B92B238
:1033B800DA80164B1B899BB2144A03F00F039BB2A9
:1033C8001381154B9B7ADBB2134A43F00C03DBB233
:1033D8009372114B1B7BDBB20F4A23F00C03DBB259
:1033E80013730A4B1B889BB2084A23F001039BB254
:1033F8001380064B5B8B9BB2044A23F00F039BB2EE
:10340800538300BFBD465DF8047B70470018004039
:1034180070000020C5B3A291204C004080B400AFDA
:1034280000BF084B9B8B9BB203F00103002BF8D025
:10343800044B9B899BB2DBB21846BD465DF8047B02
:10344800704700BF0018004080B400AF054B9B8B4D
:103458009BB2DBB203F00103DBB21846BD465DF850
:10346800047B70470018004080B483B000AF034667
:10347800FB7100BF084B9B8B9BB203F00203002B30
:10348800F8D0054BFA7992B2DA8100BF0C37BD4605
:103498005DF8047B704700BF0018004080B582B01B
:1034A80000AF786006E07B685A1C7A601B78184683
:1034B800FFF7DAFF7B681B78002BF4D100BF00BF51
:1034C8000837BD4680BD80B500AFFFF7C1FE00BF1D
:1034D80080BD80B582B000AF0346FB71FB7918460A
:1034E800FFF724FF00BF0837BD4680BD80B582B016
:1034F80000AF78607868FFF733FF00BF0837BD4634
:1035080080BD80B500AFFFF7EBFE0346184680BDCF
:1035180080B500AFFFF7FAFE0346184680BD0000ED
:1035280080B400AF164B9B7ADBB2154A23F0010337
:10353800DBB29372124B1B7BDBB2114A23F00103FF
:10354800DBB213730E4B1B7ADBB20D4A43F0010357
:10355800DBB213720A4B1B79DBB2094A43F0010351
:10356800DBB21371064B9B78DBB2054A23F00103EB
:10357800DBB2937000BFBD465DF8047B704700BFA7
:10358800004C004080B400AF3E4BDB7ADBB23D4AD2
:1035980023F00103DBB2D3723A4B5B7BDBB2394ACF
:1035A80023F00103DBB25373364BDB7ADBB2354AC7
:1035B80023F00403DBB2D372324B5B7BDBB2314ABC
:1035C80023F00403DBB253732E4BDB7ADBB22D4AB4
:1035D80023F00203DBB2D3722A4B5B7BDBB2294AAE
:1035E80023F00203DBB25373264B5B7ADBB2254A26
:1035F80043F00103DBB25372224B5B7ADBB2214A00
:1036080043F00203DBB253721E4B5B7ADBB21D4AF6
:1036180043F00403DBB253721A4B5B79DBB2194AED
:1036280043F00103DBB25371164B5B79DBB2154AE9
:1036380043F00203DBB25371124B5B79DBB2114AE0
:1036480043F00403DBB253710E4BDB78DBB20D4A57
:1036580023F00103DBB2D3700A4BDB78DBB2094AF3
:1036680023F00203DBB2D370064BDB78DBB2054AEA
:1036780023F00403DBB2D37000BFBD465DF8047BC2
:10368800704700BF004C004080B483B000AF1223E5
:10369800FB711E4B9B7ADBB25AB297F90730DB43BA
:1036A8005BB213405AB2194BD2B29A72174B1B7BBA
:1036B800DBB25AB297F90730DB435BB213405AB218
:1036C800124BD2B21A73114B1B79DBB25AB297F96B
:1036D8000730DB435BB213405AB20C4BD2B21A71BB
:1036E8000A4B9B78DAB20949FB791343DBB28B703A
:1036F800064B9B79DAB20549FB791343DBB28B7130
:1037080000BF0C37BD465DF8047B7047004C004095
:1037180080B400AF164B9B7ADBB2154A23F0020344
:10372800DBB29372124B1B7BDBB2114A23F002030C
:10373800DBB213730E4B1B79DBB20D4A23F0020385
:10374800DBB213710A4B9B78DBB2094A43F00203E0
:10375800DBB29370064B9B79DBB2054A43F0020358
:10376800DBB2937100BFBD465DF8047B704700BFB4
:10377800004C004080B400AF164B9B7ADBB2154A70
:1037880023F01003DBB29372124B1B7BDBB2114A9E
:1037980023F01003DBB213730E4B1B79DBB20D4A17
:1037A80023F01003DBB213710A4B9B78DBB2094A92
:1037B80043F01003DBB29370064B9B79DBB2054AEA
:1037C80043F01003DBB2937100BFBD465DF8047B84
:1037D800704700BF004C004080B400AF074B1B7817
:1037E800DBB203F00203002B0CBF01230023DBB282
:1037F8001846BD465DF8047B704700BF004C00408A
:1038080080B400AF074B1B78DBB203F01003002B2A
:103818000CBF01230023DBB21846BD465DF8047BCC
:10382800704700BF004C004080B584B000AF87ED02
:10383800000B4FF000024FF00003C7E902230B4BC7
:103848001B681846FEF732FBD7E90023FEF7D2FCC7
:1038580002460B46C7E90223D7E90201FEF778FEC4
:10386800034618461037BD4680BD00BF70000020D3
:1038780080B400AF034B01221A7000BFBD465DF84B
:10388800047B70475801002080B586B000AFF8600F
:10389800B9601346FB71154ABB68136000F0B0F8B5
:1038A8007861134AFB681360124A104B1B68136057
:1038B800114B00221A60FB7963F01D03DAB20F4B3B
:1038C8001A600F4B1B6823F47F430D4A43F480436F
:1038D80013600C4B1B680B4A43F000731360786944
:1038E80000F09CF800BF1837BD4680BD500100208D
:1038F8004801002000C000400CC0004008C0004043
:1039080018E400E000E100E080B500AF054B0022BC
:103918001A60054B1B689847044A054B1B681360DF
:1039280000BF80BD0CC000404801002000C000401E
:103938005001002080B586B000AFF860B96013462A
:10394800FB71154ABB68136000F05AF87861134A96
:10395800FB681360124A104B1B681360114B00225E
:103968001A60FB7963F01D03DAB20F4B1A600F4B34
:103978001B6823F47F430D4A43F4804313600C4BC8
:103988001B680B4A43F080631360786900F046F8BF
:1039980000BF1837BD4680BD540100204C010020EF
:1039A80020C000402CC0004028C0004018E400E0BF
:1039B80000E100E080B500AF054B00221A60054B1E
:1039C8001B689847044A054B1B68136000BF80BDFD
:1039D8002CC000404C01002020C0004054010020B1
:1039E80080B400AF72B600BFBD465DF8047B704777
:1039F80080B400AF62B600BFBD465DF8047B704777
:103A080080B483B000AFEFF3108372B67B607B683D
:103A180018460C37BD465DF8047B704780B483B008
:103A280000AF786080F3108800BF0C37BD465DF8A2
:103A3800047B704780B400AF30BF00BFBD465DF85F
:103A4800047B704780B483B000AF78607B68013B2B
:103A5800FDD100BF0C37BD465DF8047B704780B5CB
:103A680082B000AF786006E04FF4FA50FFF7EAFF43
:103A78007B68013B7B607B68002BF5D100BF00BFF2
:103A88000837BD4680BD000080B400AF00BF264B9C
:103A98001B889BB203F48063002BF8D1224B392298
:103AA8001A8000BF204B1B889BB203F48053002B65
:103AB800F8D01E4B1B681D4A23F00203136000BF99
:103AC8001A4B1B6803F48033002BF9D1174B184AA3
:103AD8001A60164B30225A60144B4FF4C3729A6125
:103AE800124B0022C3F83C21104B0022C3F840219E
:103AF800104BDB7ADBB20F4A63F07F03DBB2D37281
:103B08000C4B5B7BDBB20B4A63F07F03DBB2537376
:103B1800064B1B68054A43F00203136000BFBD460D
:103B28005DF8047B704700BF003000400020014072
:103B380010332004204C004080B483B000AF00BF95
:103B4800104B1B6803F48033002BF9D10D4B1B6815
:103B58000C4A43F00103136000BF0A4BD3F8443109
:103B680003F00103002BF8D0064BD3F89830C3F3C9
:103B78000D037B607B6818460C37BD465DF8047BF7
:103B8800704700BF0020014080B500AF0E4B1B6896
:103B98001846FEF78BF94FF000020C4BFEF72AFB94
:103BA80002460B4610461946FEF7D2FC03469BB266
:103BB80001219FED030B184600F032F900BF80BDCC
:103BC800343333333333B33F700000200000A9404F
:103BD80080B584B000AF87ED000B4FF000024FF0C6
:103BE8000003D7E90001FEF74DFC0346002B06D081
:103BF8004FF000024FF00003C7E900230EE04FF03A
:103C08000002174BD7E90001FEF75AFC0346002BC8
:103C180004D04FF00002124BC7E900230EA3D3E9EA
:103C28000023D7E90001FEF7BBF902460B46104610
:103C3800194609A3D3E90023FDF7FCFF02460B460A
:103C4800C7E90223012097ED020B00F059F900BFE4
:103C58001037BD4680BD00BF9A9999999999A93F97
:103C68000000F03F80B586B000AF034687ED000B3B
:103C78000A46FB811346BB81BB89012B18D1524BE5
:103C88005B79DBB2504A43F01003DBB253714E4B01
:103C9800DB7ADBB24C4A43F01003DBB2D3724A4BF7
:103CA8005B7BDBB2484A23F01003DBB2537356E068
:103CB800BB89022B18D1444B5B79DBB2424A43F0F3
:103CC8002003DBB25371404BDB7ADBB23E4A43F050
:103CD8002003DBB2D3723C4B5B7BDBB23A4A23F066
:103CE8002003DBB253733AE0BB89032B18D1364B60
:103CF8005B79DBB2344A43F04003DBB25371324B99
:103D0800DB7ADBB2304A43F04003DBB2D3722E4B8E
:103D18005B7BDBB22C4A23F04003DBB253731EE01B
:103D2800BB89042B18D1284B5B79DBB2264A63F098
:103D38007F03DBB25371244BDB7ADBB2224A63F098
:103D48007F03DBB2D372204B5B7BDBB21E4A03F0EE
:103D58007F03DBB2537302E06FF0010330E0BB89ED
:103D6800FA891A4941F823204FF08042FB8953828F
:103D78004FF08042BB895B001344C0225A80BB8944
:103D8800124A52F823301846FEF790F8D7E9002374
:103D9800FEF706F902460B4610461946FEF7D8FB11
:103DA8000346FB824FF08042BB8908335B00134413
:103DB800FA8A5A804FF080434FF404721A80002325
:103DC80018461837BD4680BD004C00405C010020F5
:103DD80080B586B000AF87ED020B0346FB80FB88F9
:103DE8000E4A52F823301846FEF760F8D7E9022346
:103DF800FEF7D6F802460B4610461946FEF7A8FB12
:103E08000346FB824FF08042FB8808335B00134473
:103E1800FA8A5A8000BF1837BD4680BD5C01002071
:103E280080B586B000AF034687ED000B0A46FB81DC
:103E38001346BB81BB89012B55D12E4B1B79DBB2B5
:103E48002C4A43F04003DBB213712A4B9B7ADBB256
:103E5800284A43F04003DBB29372264B1B7BDBB24C
:103E6800244A23F04003DBB21373BB89FA89224941
:103E780041F82320214AFB895382204ABB895B00F1
:103E88001344C0225A80BB891B4A52F82330184673
:103E9800FEF70CF8D7E90023FEF782F802460B4636
:103EA80010461946FEF754FB0346FB82134ABB89AA
:103EB80008335B001344FA8A5A80104B4FF404729B
:103EC8001A800E4B1B889BB20C4A43F0C0039BB26E
:103ED80013800A4B1B8C9BB2084A43F007039BB222
:103EE8001384002301E06FF0010318461837BD461C
:103EF80080BD00BF404C0040700100200008004019
:103F080080B586B000AF87ED020B0346FB80FB88C7
:103F18000E4A52F823301846FDF7C8FFD7E90223A6
:103F2800FEF73EF802460B4610461946FEF710FB10
:103F38000346FB82064AFB8808335B001344FA8A6F
:103F48005A8000BF1837BD4680BD00BF70010020F1
:103F5800000800400000000080B500AF2C4B1B7922
:103F6800DBB22B4A63F07F03DBB21371284B9B78DB
:103F7800DBB2274A03F07F03DBB29370244B9B7AB2
:103F8800DBB2234A03F07F03DBB29372204B1B7B27
:103F9800DBB21F4A03F07F03DBB213731D4B1B68B0
:103FA8001846FDF783FF16A3D3E90023FEF722F98D
:103FB80002460B4610461946FEF7CAFA03469BB25C
:103FC80001219FED110B1846FFF74CFE114B1B68A2
:103FD8001846FDF76BFF0AA3D3E90023FEF70AF999
:103FE80002460B4610461946FEF7B2FA03469BB244
:103FF80002219FED050B1846FFF734FE00BF80BD78
:10400800000000000088C34000000000000000001D
:10401800204C004070000020B0B582B000AF87EDA2
:10402800000B294B9B78DBB2274A63F07F03DBB296
:1040380093704FF00002254BD7E90001FEF722FAF2
:104048000346002B05D04FF00002204BC7E90023A0
:104058000EE04FF000021E4BD7E90001FEF730FAE0
:104068000346002B04D04FF00002194BC7E9002388
:104078004FF000024FF00003D7E90001FEF702FA03
:104088000346002B0ED03C687B6883F00045012076
:1040980045EC104BFFF79CFE02209FED090BFFF744
:1040A80097FE09E001209FED060BFFF791FE022025
:1040B80097ED000BFFF78CFE00BF0837BD46B0BD7B
:1040C8000000000000000000204C00400000F0BF8D
:1040D8000000F03F0000000080B500AF2C4B1B79BA
:1040E800DBB22B4A43F04003DBB21371284B9B78B9
:1040F800DBB2274A23F04003DBB29370244B9B7A50
:10410800DBB2234A23F04003DBB29372204B1B7BC4
:10411800DBB21F4A23F04003DBB213731D4B1B684D
:104128001846FDF7C3FE16A3D3E90023FEF762F88D
:1041380002460B4610461946FEF70AFA03469BB29A
:1041480003219FED110B1846FFF78CFD114B1B68DF
:104158001846FDF7ABFE0AA3D3E90023FEF74AF899
:1041680002460B4610461946FEF7F2F903469BB283
:1041780004219FED050B1846FFF774FD00BF80BDB5
:10418800000000000088C34000000000000000009C
:10419800204C004070000020B0B582B000AF87ED21
:1041A800000B294B9B78DBB2274A43F04003DBB274
:1041B80093704FF00002254BD7E90001FEF762F932
:1041C8000346002B05D04FF00002204BC7E900231F
:1041D8000EE04FF000021E4BD7E90001FEF770F920
:1041E8000346002B04D04FF00002194BC7E9002307
:1041F8004FF000024FF00003D7E90001FEF742F943
:104208000346002B0ED03C687B6883F000450320F2
:1042180045EC104BFFF7DCFD04209FED090BFFF781
:10422800D7FD09E003209FED060BFFF7D1FD042021
:1042380097ED000BFFF7CCFD00BF0837BD46B0BDBA
:104248000000000000000000204C00400000F0BF0B
:104258000000F03F80B500AF114B9B78DBB2104AED
:1042680023F01003DBB293700D4B9B78DBB20C4A42
:1042780043F02003DBB29370094B9B78DBB2084A0A
:1042880043F01003DBB29370054B9B78DBB2044A12
:1042980023F02003DBB2937000F0A8F800BF80BDC4
:1042A800404C00400000000080B582B000AF9FED98
:1042B800140BFFF7B9FA7860134B9B7ADBB2124AFA
:1042C80023F02003DBB293720F4B1B7BDBB20E4A49
:1042D80023F02003DBB213730B4B1B79DBB20A4AC2
:1042E80043F02003DBB21371002279680748FFF717
:1042F800CBFA00BF0837BD4680BD00BFAFF30080D2
:104308000400600900004940404C00405D42000044
:1043180080B582B000AF9FED140BFFF785FA786087
:10432800134B9B7ADBB2124A23F01003DBB2937271
:104338000F4B1B7BDBB20E4A23F01003DBB2137367
:104348000B4B1B79DBB20A4A43F01003DBB2137143
:104358007968084800F06AF800F058F800BF083794
:10436800BD4680BDAFF3008000000000006A084130
:10437800404C00408143000080B582B000AF174B2D
:104388009B78DBB2154A83F01003DBB29370134BB2
:104398009B78DBB203F01003002B1AD0FFF7CCFB9D
:1043A80078600F4B1B687A6891B20E4A22F8131096
:1043B8000B4B1B6801330A4A1360094B1B68802B9F
:1043C80007D1094B01221A7000F020F8044B002293
:1043D8001A6000BF0837BD4680BD00BF404C004092
:1043E8008C020020840100208402002080B400AFE9
:1043F800054B1B68044A43F00103136000BFBD4628
:104408005DF8047B704700BF10E000E080B400AFA7
:10441800054B1B68044A23F00103136000BFBD4627
:104428005DF8047B704700BF10E000E080B584B001
:1044380000AF786039600023FB60FFF7E1FAF860AD
:10444800114A7B681360FFF7E1FF104A3B68013BA4
:1044580053600E4B00229A600D4B1B6823F07F437C
:104468000B4A43F080431360084B1B68074A43F02C
:1044780006031360FFF7BAFFF868FFF7CFFA00BF2B
:104488001037BD4680BD00BF9002002010E000E05C
:1044980020ED00E080B500AF044B1B680133034AF0
:1044A8001360034B1B68984700BF80BD940200202F
:1044B8009002002051010000F8B500BFF8BC08BC0C
:1044C8009E467047F8B500BF29010000F8BC08BC3B
:0444D8009E46704745
:1044E0003A3D0A3D0F3D243D323D023D053D133D21
:1044F0000D3D0C3D233D113D263D013D173D083D41
:10450000093D00000800002043616D65726120666E
:1045100072616D652072656365697665640D0A0078
:104520000000C841CDCCCC3D0000000000000000E0
:104530000000000000002041CDCCCC3D0000000078
:1045400000000000000000000D0A20435275737443
:10455000200D0A00FB21F93FFB2109407CD91240C4
:10456000FB2119407A6A1F407CD92240BBFD2540BF
:10457000FB2129403A462C407A6A2F405C47314063
:104580007CD932409C6B3440BBFD3540DB8F3740DB
:10459000FB2139401BB43A403A463C405AD83D4092
:1045A0007A6A3F404C7E40405C4741406C1042403C
:1045B0007CD942408CA243409C6B4440AC34454083
:1045C000BBFD4540CBC64640DB8F4740EB584840DB
:1045D000FB21494083F9A200444E6E00FC291500DE
:1045E000D1572700DD34F50062DBC0003C9995000F
:1045F000419043006351FE00BBDEAB00B761C500D4
:104600003A6E2400D24D42004906E00009EA2E002D
:104610001C92D100EB1DFE0029B11C00E83EA70052
:10462000F535820044BB2E009CE98400B42670005E
:10463000417E5F00D6913900538339009CF43900E4
:104640008B5F840028F9BD00F81F3B00DEFF970058
:104650000F980500112FEF000A5A8B006D1F6D0097
:10466000CF7E360009CB2700464FB7009E663F003D
:104670002DEA5F00BA277500E5EBC7003D7BF1002E
:10468000F739070092528A00FB6BEA001FB15F0006
:10469000085D8D00300356007BFC4600F0AB6B00DC
:1046A00020BCCF0036F49A00E3A91D005E619100A2
:1046B000081BE60085996500A0145F008D40680026
:1046C00080D8FF0027734D0006063100CA5615003A
:1046D000C9A873007BE260006B8CC0000000000082
:1046E00002000000030000000400000006000000BB
:1046F00000000040FB21F93F000000002D44743E03
:10470000000000809846F83C0000006051CC783BE7
:1047100000000080831BF0390000004020257A381B
:10472000000000802282E336000000001DF369359E
:104730003A3D0A3D0F3D243D323D023D053D133DCE
:104740000D3D0C3D233D113D263D013D173D083DEE
:04475000093D00001F
:044754000000000061
:0847580018BAFF7F0100000008
:104760000000000008000020000000000000000021
:104770000000000000000000000000000000000039
:104780000000000000000000000000000000000029
:104790000000000000000000000000000000000019
:1047A0000000000000000000000000000000000009
:1047B00000000000000000000000000000000000F9
:1047C0000000000000000000D9030000FF0000000E
:0C47D000006CDC02010204060503070077
:04000003000000E811
:00000001FF
