:1000000000000120F53500003936000039360000C7
:100010003936000039360000393600000000000093
:100020000000000000000000000000003936000061
:10003000393600000000000039360000E54F0000AE
:1000400039360000393600003936000039360000F4
:1000500039360000393600003936000039360000E4
:1000600039360000393600003936000039360000D4
:1000700039360000393600003936000039360000C4
:1000800039360000393600003936000039360000B4
:1000900039360000393600003936000039360000A4
:1000A00039360000FD430000A94400003936000045
:1000B0003936000039360000393600003936000084
:1000C0003936000039360000393600003936000074
:1000D0003936000039360000393600003936000064
:0400E00039360000AD
:100100000348044B834202D0034B03B118477047A6
:10011000640600206406002000000000054806492F
:100120000B1AD90F01EBA301491002D0034B03B105
:100130001847704764060020640600200000000095
:1001400010B5064C237843B9FFF7DAFF044B13B11F
:100150000448AFF300800123237010BD680600201F
:10016000000000007077000008B5044B1BB1044983
:100170000448AFF30080BDE80840CFE7000000006E
:100180006C06002070770000A3F5803A704700BF2E
:10019000154B002B08BF114B9D46FFF7F5FF0021C3
:1001A0008B460F461148124A121A00F079F80C4B90
:1001B000002B00D098470B4B002B00D09847002015
:1001C000002104000D000B4800F016F800F044F880
:1001D0002000290003F03CFC00F014F800000800A7
:1001E0000000000000000000000001206806002060
:1001F000D41400202D020000002301461A461846A0
:1002000000F0A0B808B5074B044613B1002100F078
:10021000EFF8054B1868836A03B19847204600F051
:100220004BF900BFF10300008C75000038B5084B96
:10023000084D5B1B9C1007D0043B1D44013C55F846
:1002400004399847002CF9D1BDE8384007F084B94B
:10025000000000000000000070B50D4E0D4D761B33
:10026000B61006D0002455F8043B01349847A64246
:10027000F9D1094E094D761B07F068F9B61006D082
:10028000002455F8043B01349847A642F9D170BDCB
:1002900000000000000000004C75000048750000E0
:1002A000830730B548D0541E002A3FD0CAB2034657
:1002B00001E0013C3AD303F8012B9D07F9D1032C4F
:1002C0002DD9CDB245EA05250F2C45EA054536D98D
:1002D000A4F1100222F00F0C03F1200EE6444FEAC5
:1002E000121C03F1100242E9045542E90255103292
:1002F0007245F8D10CF1010214F00C0F03EB02125D
:1003000004F00F0C13D0ACF1040323F00303043307
:10031000134442F8045B9342FBD10CF003042CB16C
:10032000CAB21C4403F8012B9C42FBD130BD644689
:100330001346002CF4D1F9E703461446BFE71A46EA
:10034000A446E0E7F0B5264C256885B0064605B31F
:100350006C681F2C41DCA6B1D5F8880048B3D0F8F2
:10036000007140F824204FF0010C0CFA04FC00EB63
:1003700084024CEA0707022EC0F80071C2F88030F0
:1003800010D0A31C01346C6045F82310002005B088
:10039000F0BD1448144D25600028D9D00068C5F878
:1003A0008800D5E7D0F8043143EA0C03C0F80431E3
:1003B000E7E70E480191CDE9022370B14FF4847054
:1003C000AFF3008048B10027C0E94077DDE90223A0
:1003D0006C680199C5F88800C3E74FF0FF30D6E795
:1003E000100700200000000084060020000000002C
:1003F0002DE9F84FDFF8BCA0DAF800702DED028B84
:10040000E7B108EE100A89467D68D7F888806C1E2F
:1004100014D407EB8506043608EB8505B9F1000F07
:1004200010D0B8F1000F02D0EB6F4B450AD0013C61
:10043000631CA5F10405A6F10406EFD1BDEC028B07
:10044000BDE8F88F7B683268013BA34216BF0023EA
:100450007C603360002AEAD0D7F804B0B8F1000F0E
:100460001AD0D8F80001012303FA04F1014213D095
:10047000D8F80401014218D155F8041C18EE100AEE
:1004800090477A685A450BD1DAF80030BB42CED09B
:100490001F46002FB8D1D1E790477A685A45F3D06C
:1004A000DAF80070002FAFD1C8E755F8040C904778
:1004B000E7E700BF10070020FEE700BF00000000D4
:1004C00008B52DED048BB0EE408AF0EE608A00F0A6
:1004D0001FF9234BB0EE409AF0EE609A93F900308A
:1004E000013316D0B0EE480AF0EE680A01F064F964
:1004F00078B113A3D3E9002351EC180B02F014F8E0
:10050000A8B911A3D3E9002351EC180B01F0EEFFB9
:1005100030B9B0EE490AF0EE690ABDEC048B08BDB3
:1005200002F0BAF822239FED0A9B0360F1E702F084
:10053000B3F822239FED089B0360EAE7AFF3008046
:10054000EF39FAFE422E864051302DD5104987C032
:100550000000000000000000000000000000F07F2C
:100560006C00002000000000F8B52DED028B57EC68
:10057000106B55EC114B00F0AFFA634BB0EE408AB4
:10058000F0EE608A93F9003001332AD022462B46E0
:100590002046294601F0D2FF18BB32463B46304682
:1005A000394601F0CBFF002844D100220023304619
:1005B000394601F091FFD8B1002200232046294698
:1005C00001F08AFF00283DD145EC104B01F0F4F812
:1005D00038B1204629460022002301F087FF002879
:1005E0005CD1B0EE480AF0EE680ABDEC028BF8BDB3
:1005F000B0EE480AF0EE680A01F0DEF858B351ECAC
:10060000180B0022002301F067FF0028E9D047EC17
:10061000106B01F0D1F80028E3D045EC104B01F04D
:10062000CBF80028DDD002F037F822239FED2E8B87
:100630000360D6E7204629460022002301F04CFF44
:100640000028CED09FED2A8BB0EE480AF0EE680A63
:10065000BDEC028BF8BD47EC106B01F0ADF8002843
:10066000CDD045EC104B01F0A7F80028C7D053ECD3
:10067000182B18EE100A194601F060FF20BB02F09B
:100680000BF8034622221A60304639460022002326
:1006900001F02CFF48B99FED188BA2E701F0FCFF99
:1006A00021239FED178B03609BE745EC104B01F076
:1006B00097F8224651EC100B2B4601F00DFF002855
:1006C000E9D19FED0F8B8CE701F0E6FF00220023BC
:1006D000212101601046194601F0C0FD41EC180BC4
:1006E0007FE700BFAFF300800000000000000000C3
:1006F000000000000000F03F000000000000F07F5C
:10070000000000000000F0FF6C000020000000006E
:100710002DE9F04F55EC104B2DED028BDC4925F007
:1007200000428A4283B04FEAD57613D9D9498A422A
:100730002FD9C5F31303234310EE102A40F05F8135
:10074000002E00F0F6809FEDBA0B03B0BDEC028BDB
:10075000BDE8F08FD04B9A425BD8D04B9A4200F262
:10076000ED80B5A3D3E9002310EE100A294601F06D
:1007700095FACB4B002201F0D7FE002800F0DE8076
:10078000C74B00222046294601F088FA41EC100BA5
:10079000CFE0ABA3D3E9002310EE100A294601F005
:1007A000C3FE002840F03781A7A3D3E900232046E9
:1007B000294601F09BFE0028C5D1BA4B204603EB29
:1007C000C6062946A2A3D3E9002301F01DFCD6E901
:1007D000082301F063FA01F0C7FE019001F0AAFBC3
:1007E0009DA3D3E9002306460F4601F00DFC024607
:1007F0000B462046294601F04FFA99A3D3E900237E
:10080000804689463046394601F0FEFB41EC180B24
:1008100019E0A54B9A42D0D8A24B03EBC604D4E909
:10082000002310EE100A294601F036FAC6F1010A3B
:1008300094ED047BAAEB0603804689460193B0EE53
:10084000478AF0EE678A53EC182B4046494601F080
:1008500023FA02460B4682468B4601F0D5FB82A363
:10086000D3E9002304460D4601F0CEFB80A3D3E973
:10087000002301F011FA22462B4601F0C5FB7EA3AE
:10088000D3E9002301F00AFA22462B4601F0BCFB13
:100890007BA3D3E9002301F0FFF922462B4601F0A8
:1008A000B3FB79A3D3E9002301F0F8F922462B46E4
:1008B00001F0AAFB02460B465046594601F0ECF9FE
:1008C000019B0F46064654465D4601463A46002BBC
:1008D0006DD032463B465046594601F095FB3246B4
:1008E00004463B460D4600204FF0804101F0D4F90C
:1008F00002460B462046294601F0B0FC02460B4654
:1009000051EC180B01F0C8F942464B4601F0C4F90E
:1009100002460B460020624901F0BEF9019C6FF4CB
:100920007F739C420246C0F2C18001EB045343EC4A
:10093000102B03B0BDEC028BBDE8F08F22462B4696
:100940002046294601F060FB47A3D3E90023064671
:100950000F4601F059FB46A3D3E9002301F09CF9AF
:1009600032463B4601F050FB43A3D3E9002301F09C
:1009700095F932463B4601F047FB41A3D3E90023FA
:1009800001F08AF932463B4601F03EFB3EA3D3E933
:10099000002301F083F932463B4601F035FB024665
:1009A0000B462046294601F077F90A460146914652
:1009B00088460A464B462046294601F025FB002280
:1009C00006460F46404649464FF0804301F064F921
:1009D00002460B463046394601F040FC22462B4683
:1009E00001F05AF902460B4600202D4901F054F956
:1009F00041EC100B03B0BDEC028BBDE8F08F2B4631
:100A00002046294601F04AF941EC100B03B0BDEC39
:100A1000028BBDE8F08F08A3D3E9002310461946E6
:100A200001F0F2FA41EC100B83E700BFAFF3008056
:100A300000000000000000009C7500883CE4377E48
:100A4000EF39FAFE422E864051302DD5104987C02D
:100A5000FE822B654715F73F0000E0FE422EE63F81
:100A6000763C7935EF39EA3DD0A4BE726937663EEF
:100A7000F16BD2C541BDBB3E2CDE25AF6A56113F9E
:100A800093BDBE166CC1663F3E5555555555C53F85
:100A9000412E8640FFFFEF7F422ED63FFFFF2F3EC5
:100AA0000000F03FC8760000B1A2F03F019800F5C9
:100AB0007A7A01EB0A531046194600224FF0B873B8
:100AC00001F0A2FA41EC100B03B0BDEC028BBDE8C3
:100AD000F08F00BF000000002DE9F04F57EC116BC4
:100AE0002DED0C8B27F0004A5AEA060287B03DD064
:100AF00055EC104B724925F00048884510EE102A3D
:100B0000A9462CDC11EE103ABB4636D08A4526DCCD
:100B10006B498A4521D0B9F1000F39DB00210091E2
:100B2000002B51D1664B9A4500F0A280654B9A4547
:100B300000F0B080BBF1804F00F0C084624B9B4559
:100B400042D1B9F1000F3FDB45EC104B07B0BDECD3
:100B50000C8BBDE8F04F00F059BD002BDBD008F145
:100B6000404808F5801858EA020309D19FED500B60
:100B700007B0BDEC0C8BBDE8F08F0CB9C245C7DDEA
:100B8000524807B0BDEC0C8BBDE8F04F00F020BE22
:100B90004F498A4500F38580A1F154718A450FDDE4
:100BA0004FEA2A51A1F2FF31142940F39B84C1F18D
:100BB000340123FA01F000FA01F1994200F0ED84CA
:100BC00000210091002BB1D045EC104B029200F0B7
:100BD000E9FD029A5ABBB8F1000F04D0394B29F055
:100BE00040429A4223D1BBF1000F07DA53EC102B9D
:100BF0003449002001F032FB41EC100BB9F1000F39
:100C0000B6DA009B08F1404808F5801858EA03035B
:100C100040F08D8453EC102B1046194601F03CF83F
:100C200002460B4601F01AFB41EC100BA0E7009ABC
:100C30004FEAD973013B0493134335D0254B9A45B2
:100C40004CDD03F104739A45234B40F3DB83984555
:100C500040F36083BBF1000F40F3608316A3D3E938
:100C600000231046194601F0CFF941EC100B7FE745
:100C700008F1404303F5801313433FF477AF164B5D
:100C8000984540F37A83BBF1000FC0F2478347ECED
:100C9000106B6DE7BBF1000FC0F21A8445EC104BEE
:100CA00066E7022100913BE722462B46B4E700BFEE
:100CB000000000000000F03F9C7500883CE4377E97
:100CC0000000F07F0000F03F0000E03F5877000098
:100CD000FFFF3F430000E041FFFFEF3FE44B09EA25
:100CE0000303002253B951EC100BE24B01F08CF9D5
:100CF00041EC100B10EE908A6FF034024FEA28534B
:100D0000A3F2FF339A18DC4B0592C8F3130848F09E
:100D10007F54984544F4401407DDD84B984540F380
:100D2000148401320592A4F580149FEDB96B9FEDF8
:100D3000BA7B53EC162BB0EE47CAF0EE67CA00251B
:100D4000B0EE47DAF0EE67DA5BEC10ABA346504644
:100D5000594643EC1A2B00F09FFF53EC1A2B8046A8
:100D600089465046594600F099FF02460B4600203E
:100D7000C34901F073FA41EC1B0B404653EC1B2BAB
:100D8000494601F041F941EC180B0A460146CDE90C
:100D900002120021029164104BEC19AB44F0005494
:100DA000DDE902AB04F500230020591904460D4685
:100DB00002460B465046594601F026F902460B46BC
:100DC0004046494600F068FF53EC1A2B804689469E
:100DD0002046294600F060FF02460B4651EC190BF5
:100DE00000F05AFF52465B4601F00EF902460B46F0
:100DF0004046494600F050FF53EC1B2B01F004F92C
:100E000053EC182B41EC190B51EC180B01F0FCF8CA
:100E100083A3D3E9002304460D4601F0F5F882A32D
:100E2000D3E9002300F03AFF22462B4601F0ECF80C
:100E30007FA3D3E9002300F031FF22462B4601F0C7
:100E4000E3F87DA3D3E9002300F028FF22462B46D8
:100E500001F0DAF87AA3D3E9002300F01FFF22465D
:100E60002B4601F0D1F878A3D3E9002300F016FF58
:100E70002246804689462B462046294601F0C4F882
:100E800002460B464046494601F0BEF8524604462B
:100E90000D465B4651EC180B00F000FF53EC192B8C
:100EA00001F0B2F822462B4600F0F8FE524680468A
:100EB00089465B465046594601F0A6F802460B4665
:100EC00043EC1A2B6F4B002200F0E8FE42464B46E3
:100ED00000F0E4FE00240D4622462B4650465946BB
:100EE00001F092F8674B82468B4600222046294645
:100EF00000F0D2FE53EC1A2B00F0CEFE02460B4659
:100F00004046494600F0C8FE53EC182B01F07CF82F
:100F100022462B4604460D4651EC190B01F074F89D
:100F200002460B462046294600F0B8FE8046894618
:100F300042464B465046594600F0B0FE44A3D3E922
:100F40000023002004460D4601F05EF8524641ECB5
:100F5000190B5B462046294600F09EFE02460B46D2
:100F60004046494600F098FE3BA3D3E9002301F038
:100F70004BF802460B462046294614461D4638A328
:100F8000D3E9002301F040F802460B4620462946EB
:100F900000F084FE53EC1D2B00F080FE8046059887
:100FA000894600F0C7FF424682468B464B4651ECCD
:100FB000190B00F073FE53EC1C2B00F06FFE524631
:100FC0005B4600F06BFE52465B46002004460D4631
:100FD00000F062FE53EC1C2B00F05EFE53EC192B6C
:100FE00000F05AFE02460B464046494600F054FEC9
:100FF000009B049A013B134382468B4640F0B68126
:101000009FED197BB0EE478AF0EE678A3CE000BFA7
:10101000000000000000F03F0000000000000000A1
:10102000EF4E454A287ECA3F65DBC9934A86CD3FCD
:1010300001411DA96074D13F4D268F515555D53FB3
:10104000FFAB6FDBB66DDB3F033333333333E33F4B
:10105000000000E009C7EE3FFD033ADC09C7EE3FA0
:10106000F5015B14E02F3EBE000000000000F0BF61
:101070000000F07F000040438E98030079B60B001B
:101080000000F03F000008400023CDE90067009316
:10109000DDE90089304642464B46394600F0FCFD0A
:1010A00022462B4600F0B0FF32463B4606460F462E
:1010B0005046594600F0A8FF02460B4630463946D6
:1010C00000F0ECFD42464B4606460F4620462946B8
:1010D00000F09AFF04460D462B463046394622461C
:1010E00000F0DCFDC24B9942804689468A4640F3B7
:1010F000188101F13F4303F5E003034340F0078209
:10110000A3A3D3E900233046394600F0C7FD0246C9
:101110000B46404649469046994622462B4600F0EB
:10112000BBFD02460B464046494601F0FDF900284A
:1011300040F0ED81CAF30A534FF48012A3F2FE335C
:1011400042FA03F35344AB49C3F30A52A2F2FF320B
:1011500041FA02FCC3F3130141F48011C2F11402FD
:1011600041FA02F2002023EA0C01BAF1000F0092CA
:101170000B46024602DA0099494200912046294670
:1011800000F08AFD009B1B05029302460B460446B5
:101190000D463046394600F081FD89464FF0000883
:1011A0007DA3D3E900234046494600F02DFF2246A7
:1011B0002B4682468B464046494600F06DFD02466E
:1011C0000B463046394600F067FD75A3D3E900238E
:1011D00000F01AFF74A3D3E9002304460D464046ED
:1011E000494600F011FF02460B462046294600F012
:1011F00055FD06460F4632463B465046594600F0DE
:101200004DFD52465B4604460D4600F045FD024644
:101210000B463046394600F03FFD2246804689465F
:101220002B462046294600F0EFFE61A3D3E90023B8
:1012300006460F4600F0E8FE5FA3D3E9002300F066
:101240002BFD32463B4600F0DFFE5DA3D3E90023D1
:1012500000F024FD32463B4600F0D6FE5AA3D3E907
:10126000002300F019FD32463B4600F0CDFE58A3A6
:10127000D3E9002300F012FD32463B4600F0C4FEE5
:1012800002460B462046294600F006FD06460F465C
:1012900032463B462046294600F0B6FE02460B4643
:1012A0003046394616461F4600224FF0804300F074
:1012B000F3FC02460B463046394600F0CFFF42466B
:1012C00006460F464B462046294600F09DFE424604
:1012D0004B4600F0E3FC02460B463046394600F030
:1012E000DBFC22462B4600F0D7FC02460B460020D2
:1012F000414900F0D1FC029A0B461344B3F5801F1C
:10130000C0F24381194653EC182B00F07DFE41ECEE
:10131000100B2DE4BBF1000FFFF6A0AC9FED2E0BE0
:1013200026E4DFF8DCC021F00043634540F3E780AA
:10133000324B0B4403430AD122462B4600F0ACFC4F
:1013400032463B4601F0E6F800283FF4F3AE24A312
:10135000D3E9002351EC180B00F056FE20A3D3E98B
:10136000002300F051FE41EC100B01E49FED1E7BC9
:10137000B0EE478AF0EE678A86E6BBF1000FCDDA61
:1013800007F1004300EE106A00EE903AFFF7F0BB61
:10139000FE822B654715973C00000000432EE63F78
:1013A000EF39FAFE422EE63F396CA80C615C20BE94
:1013B000D0A4BE726937663EF16BD2C541BDBB3E5B
:1013C0002CDE25AF6A56113F93BDBE166CC1663F39
:1013D0003E5555555555C53F000000000000000022
:1013E00059F3F8C21F6EA501000000000000F03F95
:1013F000FFFF8F40FFFF0F000000F03F00346F3F02
:10140000FFCB9040984585DB7D4B98453FF722AC5C
:1014100051EC100B7A4B002200F03EFC68A3D3E99C
:10142000002304460D4600F0EFFD67A3D3E9002337
:1014300082468B462046294600F0E6FD714B41EC82
:10144000180B00222046294600F0DEFD02460B461E
:101450005FA1D1E9000100F01FFC22462B4600F0FD
:10146000D3FD02460B460020674900F015FC2246DA
:10147000804689462B462046294600F0C5FD024697
:101480000B464046494600F0BFFD53A3D3E9002375
:1014900000F0BAFD02460B4651EC180B00F0FCFBC5
:1014A0008046894642464B465046594600F0F6FB78
:1014B000002052465B4604460D4691E522462B46E7
:1014C0002046294600F0A0FD41EC100BFFF750BB71
:1014D0004B49002022462B4600F0C0FE41EC100B89
:1014E000FFF746BB002B44D1C1F114014AFA01F0C9
:1014F00000FA01F151455AD00093FFF717BB424A59
:1015000093425BDCDDE900120291009146E634A3D0
:10151000D3E9002351EC180B00F076FD30A3D3E99A
:10152000002300F071FD41EC100BFFF721BB009B85
:10153000012B7FF41DAB10EE901A10EE102A01F172
:10154000004343EC102BFFF713BB9FED277BB0EE5E
:1015500047CAF0EE67CA9FED267BB0EE47DAF0EEA1
:1015600067DA9FED257B4FF4802553EC172BFFF7AF
:10157000EBBB45EC104B009200F014F9009A002AE6
:101580007FF492AB0092FFF726BB41EC100B009862
:1015900000F0C2F951EC100BB5E600F00100C0F10B
:1015A00002010091002B3FF4C1AAFFF70DBB00F030
:1015B0000100C0F102030093FFF7B8BA1B15BBE5A9
:1015C000000000604715F73F44DF5DF80BAE543E66
:1015D000555555555555D53FFE822B654715F73F57
:1015E0009C7500883CE4377E0000004003B8E23F71
:1015F00006D0CF43EBFD4C3E000000000000F83F5A
:101600000000F03F0000D03F0000E03F2DE9F04136
:10161000634A55EC104BAA4300F09F80002D10EE5A
:1016200010CA2B4654DD291563D0C3F31303A1F26E
:10163000FF37C90743F4801304D45B0003EBDC736A
:101640004FEA4C0C4FEADC72002602EB43037F109A
:101650004FEA4C0C4FF0160E34464FF40012A1180E
:10166000994202DC5B1A8C1816445B00BEF1010E35
:1016700003EBDC734FEA52024FEA4C0CEFD1754694
:1016800020204FF000420AE044D04FEADC710138DC
:1016900001EB43034FEA4C0C4FEA520243D0A34202
:1016A00002EB0E01F0DD002901EB020E0ADBA04681
:1016B0001B1B614588BF03F1FF33ACEB010C1544E4
:1016C0004446E2E7BEF1000FF1DB04F10108EFE769
:1016D00025F00042224338D0002D4ED129464FEA52
:1016E000DC22153913464FEA4C5C002AF7D0D602AB
:1016F00050D400205B00DD02044600F10100F9D562
:101700001A4663460CFA00FCC0F12000C340091BD6
:1017100013438AE76145B8D8002901EB020ED1DBFB
:1017200098460023C9E753EA0C0310D168087110EA
:10173000F30701F17F5101F5001148BF40F000406F
:1017400001EB0753024643EC102BBDE8F0816A1C05
:1017500016BF681C01364008E9E710EE102A10EEAB
:10176000100A2B46294600F04FFC22462B4600F07B
:1017700095FA41EC100BBDE8F08110EE102A2046DE
:10178000294600F089FA02460B4600F067FD41EC5D
:10179000100BDAE7634620204FF0FF34B6E700BFB6
:1017A0000000F07F51EC100B10EE102A21F00043E6
:1017B00043EC102B704700BF82B08DED000B0198F9
:1017C00040F0004000F58010C00F02B0704700BF2D
:1017D0009FED010B704700BF000000000000F87F84
:1017E000F0B553EC102BC3F30A5CACF2FF311329B4
:1017F00010EE100A83B01C464FEAD37E3ADC002973
:1018000030DB424D45FA01FC03EA0C0515432DD0AF
:1018100003EA5C0318434FEA5C0C0CD024EA0C0C7E
:101820004FF48024132944FA01F10CBF4FF000401B
:1018300000204CEA0104364901EBCE0E2346DEE9D6
:10184000004502462946204600F028FACDE900016D
:10185000DDE9000122462B4600F01EFA41EC100B98
:1018600003B0F0BD23F00041114324D143EC102B11
:1018700003B0F0BD332908DDB1F5806FF6D119460C
:1018800000F00CFA41EC100BF2E7ACF2134C4FF005
:10189000FF3121FA0CF10A42E8D010EA51024FEA76
:1018A0005103C8D020EA03034FF0804040FA0CFCFB
:1018B00043EA0C00BFE7C3F313031843144A43423F
:1018C000034302EBCE0E1B0B620C03F40023520405
:1018D00043EA02073B46DEE9006710EE102A304675
:1018E000394600F0DBF9CDE9000132463B46DDE93F
:1018F000000100F0D1F904F0004421F0004102465B
:1019000041EA040343EC102B03B0F0BDFFFF0F00CE
:10191000F87600000000000038B553EC102BC3F33C
:101920000A5104469C4689BB10EE101A23F0004C65
:101930005CEA010129D0194600223D4B3D4D10EED5
:10194000100A00F061FBAC4202460B4616DB8C46E7
:10195000C1F30A513639214440F2FE70814221DC44
:10196000002947DC11F1350F34DA4CF250318C424A
:1019700018DC002B26A1D1E9000144DB24A3D3E924
:10198000002300F041FB41EC100B38BD40F2FF702A
:101990008142E0D110EE100A194600F07FF941ECC7
:1019A000100B38BD002B1CA1D1E9000107DB1AA3E5
:1019B000D3E9002300F028FB41EC100B38BD18A13F
:1019C000D1E9000114A3D3E9002300F01DFB41EC91
:1019D000100BF3E72CF0FF4C2CF4E00C36314CEA02
:1019E0000153104619460022134B00F00DFB41EC49
:1019F000100B38BD2CF0FF4C2CF4E00C4CEA0153DA
:101A000043EC102B38BD08A1D1E90001B6E700BFB7
:101A100059F3F8C21F6EA5019C7500883CE4377E1F
:101A20009C7500883CE437FE59F3F8C21F6EA5810F
:101A300000005043B03CFFFF0000903C70B54FF0F9
:101A4000FF0C4CF4E06C1CEA11541DBF1CEA13554A
:101A500094EA0C0F95EA0C0F00F0DEF82C4481EAB2
:101A6000030621EA4C5123EA4C5350EA013518BFD2
:101A700052EA033541F4801143F4801338D0A0FBBF
:101A800002CE4FF00005E1FB02E506F00042E0FB6C
:101A900003E54FF00006E1FB03569CF0000F18BF72
:101AA0004EF0010EA4F1FF04B6F5007F64F540741A
:101AB00004D25FEA4E0E6D4146EB060642EAC621AD
:101AC00041EA55514FEAC52040EA5E504FEACE2E1A
:101AD000B4F1FD0C88BFBCF5E06F1ED8BEF1004F1D
:101AE00008BF5FEA500E50F1000041EB045170BD99
:101AF00006F0004646EA010140EA020081EA0301DD
:101B0000B4EB5C04C2BFD4EB0C0541EA045170BDD8
:101B100041F480114FF0000E013C00F3AB8014F152
:101B2000360FDEBF002001F0004170BDC4F100049B
:101B3000203C35DA0C341BDC04F11404C4F120051C
:101B400000FA05F320FA04F001FA05F240EA020077
:101B500001F0004221F0004110EBD37021FA04F6AD
:101B600042EB06015EEA430E08BF20EAD37070BD67
:101B7000C4F10C04C4F1200500FA04F320FA05F0C6
:101B800001FA04F240EA020001F0004110EBD370C8
:101B900041F100015EEA430E08BF20EAD37070BD38
:101BA000C4F1200500FA05F24EEA020E20FA04F311
:101BB00001FA05F243EA020321FA04F001F00041C0
:101BC00021FA04F220EA020000EBD3705EEA430E31
:101BD00008BF20EAD37070BD94F0000F0FD101F060
:101BE0000046400041EB010111F4801F08BF013C99
:101BF000F7D041EA060195F0000F18BF704703F0D7
:101C00000046520043EB030313F4801F08BF013D5D
:101C1000F7D043EA0603704794EA0C0F0CEA135519
:101C200018BF95EA0C0F0CD050EA410618BF52EAD3
:101C30004306D1D181EA030101F000414FF00000D9
:101C400070BD50EA410606BF1046194652EA4306E7
:101C500019D094EA0C0F02D150EA013613D195EA5B
:101C60000C0F05D152EA03361CBF104619460AD1A3
:101C700081EA030101F0004141F0FE4141F47001AD
:101C80004FF0000070BD41F0FE4141F4780170BD9D
:101C900081F0004102E000BF83F0004330B54FEA1D
:101CA00041044FEA430594EA050F08BF90EA020F8A
:101CB0001FBF54EA000C55EA020C7FEA645C7FEA1D
:101CC000655C00F0E2804FEA5454D4EB5555B8BF40
:101CD0006D420CDD2C4480EA020281EA030382EAB1
:101CE000000083EA010180EA020281EA0303362D43
:101CF00088BF30BD11F0004F4FEA01314FF4801C16
:101D00004CEA113102D0404261EB410113F0004F27
:101D10004FEA03334CEA133302D0524263EB4303DE
:101D200094EA050F00F0A780A4F10104D5F1200E7C
:101D30000DDB02FA0EFC22FA05F2801841F10001D7
:101D400003FA0EF2801843FA05F359410EE0A5F1AB
:101D500020050EF1200E012A03FA0EFC28BF4CF0DC
:101D6000020C43FA05F3C01851EBE37101F0004592
:101D700007D54FF0000EDCF1000C7EEB00006EEB9F
:101D80000101B1F5801F1BD3B1F5001F0CD3490829
:101D90005FEA30004FEA3C0C04F101044FEA445280
:101DA00012F5800F80F09A80BCF1004F08BF5FEA07
:101DB000500C50F1000041EB045141EA050130BDE7
:101DC0005FEA4C0C404141EB0101013C28BFB1F5F9
:101DD000801FE9D291F0000F04BF01460020B1FA44
:101DE00081F308BF2033A3F10B03B3F120020CDA17
:101DF0000C3208DD02F1140CC2F10C0201FA0CF0F5
:101E000021FA02F10CE002F11402D8BFC2F1200C59
:101E100001FA02F120FA0CFCDCBF41EA0C0190400F
:101E2000E41AA2BF01EB0451294330BD6FEA040458
:101E30001F3C1CDA0C340EDC04F11404C4F1200243
:101E400020FA04F001FA02F340EA030021FA04F355
:101E500045EA030130BDC4F10C04C4F1200220FAAC
:101E600002F001FA04F340EA0300294630BD21FAEA
:101E700004F0294630BD94F0000F83F4801306BFB0
:101E800081F480110134013D4EE77FEA645C18BFA4
:101E90007FEA655C29D094EA050F08BF90EA020F3B
:101EA00005D054EA000C04BF1946104630BD91EA33
:101EB000030F1EBF0021002030BD5FEA545C05D136
:101EC0004000494128BF41F0004130BD14F5800475
:101ED0003CBF01F5801130BD01F0004545F0FE41E9
:101EE00041F470014FF0000030BD7FEA645C1ABF1E
:101EF000194610467FEA655C1CBF0B46024650EA55
:101F0000013406BF52EA033591EA030F41F4002180
:101F100030BD00BF90F0000F04BF0021704730B506
:101F20004FF4806404F132044FF000054FF00001DB
:101F300050E700BF90F0000F04BF0021704730B59C
:101F40004FF4806404F1320410F0004548BF404271
:101F50004FF000013EE700BF42004FEAE2014FEAC6
:101F600031014FEA02701FBF12F07F4393F07F4FA1
:101F700081F06051704732F07F4208BF704793F0A4
:101F80007F4F04BF41F40021704730B54FF46074B7
:101F900001F0004521F000411CE700BF50EA0102BA
:101FA00008BF704730B54FF000050AE050EA010263
:101FB00008BF704730B511F0004502D5404261EBD3
:101FC00041014FF4806404F132045FEA915C3FF414
:101FD000D8AE4FF003025FEADC0C18BF03325FEAB1
:101FE000DC0C18BF033202EBDC02C2F1200300FA62
:101FF00003FC20FA02F001FA03FE40EA0E0021FA87
:1020000002F11444BDE600BF70B54FF0FF0C4CF474
:10201000E06C1CEA11541DBF1CEA135594EA0C0F26
:1020200095EA0C0F00F0DEF82C4481EA030621EA61
:102030004C5123EA4C5350EA013518BF52EA03359C
:1020400041F4801143F4801338D0A0FB02CE4FF04E
:102050000005E1FB02E506F00042E0FB03E54FF07E
:102060000006E1FB03569CF0000F18BF4EF0010E76
:10207000A4F1FF04B6F5007F64F5407404D25FEA72
:102080004E0E6D4146EB060642EAC62141EA555125
:102090004FEAC52040EA5E504FEACE2EB4F1FD0C67
:1020A00088BFBCF5E06F1ED8BEF1004F08BF5FEAE5
:1020B000500E50F1000041EB045170BD06F0004697
:1020C00046EA010140EA020081EA0301B4EB5C0444
:1020D000C2BFD4EB0C0541EA045170BD41F480113C
:1020E0004FF0000E013C00F3AB8014F1360FDEBF61
:1020F000002001F0004170BDC4F10004203C35DA3D
:102100000C341BDC04F11404C4F1200500FA05F3BF
:1021100020FA04F001FA05F240EA020001F0004260
:1021200021F0004110EBD37021FA04F642EB0601D6
:102130005EEA430E08BF20EAD37070BDC4F10C0400
:10214000C4F1200500FA04F320FA05F001FA04F2C4
:1021500040EA020001F0004110EBD37041F10001B0
:102160005EEA430E08BF20EAD37070BDC4F12005BB
:1021700000FA05F24EEA020E20FA04F301FA05F223
:1021800043EA020321FA04F001F0004121FA04F2CB
:1021900020EA020000EBD3705EEA430E08BF20EA9B
:1021A000D37070BD94F0000F0FD101F000464000D5
:1021B00041EB010111F4801F08BF013CF7D041EA57
:1021C000060195F0000F18BF704703F0004652005B
:1021D00043EB030313F4801F08BF013DF7D043EA2C
:1021E0000603704794EA0C0F0CEA135518BF95EAE2
:1021F0000C0F0CD050EA410618BF52EA4306D1D169
:1022000081EA030101F000414FF0000070BD50EA87
:10221000410606BF1046194652EA430619D094EA11
:102220000C0F02D150EA013613D195EA0C0F05D1FB
:1022300052EA03361CBF104619460AD181EA03014F
:1022400001F0004141F0FE4141F470014FF0000007
:1022500070BD41F0FE4141F4780170BD70B54FF0A2
:10226000FF0C4CF4E06C1CEA11541DBF1CEA135522
:1022700094EA0C0F95EA0C0F00F0A7F8A4EB050404
:1022800081EA030E52EA03354FEA013100F08880FB
:102290004FEA03334FF0805545EA131343EA1263C4
:1022A0004FEA022245EA111545EA10654FEA002679
:1022B0000EF000419D4208BF964244F1FD0404F532
:1022C000407402D25B084FEA3202B61A65EB03058E
:1022D0005B084FEA32024FF480104FF4002CB6EB4B
:1022E000020E75EB030E22BFB61A754640EA0C00CB
:1022F0005B084FEA3202B6EB020E75EB030E22BF0B
:10230000B61A754640EA5C005B084FEA3202B6EB4B
:10231000020E75EB030E22BFB61A754640EA9C000A
:102320005B084FEA3202B6EB020E75EB030E22BFDA
:10233000B61A754640EADC0055EA060E18D04FEA98
:10234000051545EA16754FEA06164FEAC30343EA38
:1023500052734FEAC2025FEA1C1CC0D111F4801F05
:102360000BD141EA00014FF000004FF0004CB6E7FE
:1023700011F4801F04BF01430020B4F1FD0C88BF9D
:10238000BCF5E06F3FF6AFAEB5EB030C04BFB6EBA8
:10239000020C5FEA500C50F1000041EB045170BD9B
:1023A0000EF0004E4EEA113114EB5C04C2BFD4EBC8
:1023B0000C0541EA045170BD41F480114FF0000E4C
:1023C000013C90E645EA060E8DE60CEA135594EAC8
:1023D0000C0F08BF95EA0C0F3FF43BAF94EA0C0FCB
:1023E0000AD150EA01347FF434AF95EA0C0F7FF440
:1023F00025AF104619462CE795EA0C0F06D152EA94
:1024000003353FF4FDAE1046194622E750EA410677
:1024100018BF52EA43067FF4C5AE50EA41047FF488
:102420000DAF52EA43057FF4EBAE12E74FF0FF3CED
:1024300006E000BF4FF0010C02E000BF4FF0010CBE
:102440004DF804CD4FEA410C7FEA6C5C4FEA430C37
:1024500018BF7FEA6C5C1BD001B050EA410C0CBF86
:1024600052EA430C91EA030F02BF90EA020F0020E8
:10247000704710F1000F91EA030F58BF994208BF4F
:1024800090422CBFD8176FEAE37040F0010070470C
:102490004FEA410C7FEA6C5C02D150EA013C07D163
:1024A0004FEA430C7FEA6C5CD6D152EA033CD3D0AE
:1024B0005DF8040B704700BF8446104662468C46A8
:1024C0001946634600E000BF01B5FFF7B7FF0028DB
:1024D00048BF10F1000F01BD4DF808EDFFF7F4FF04
:1024E0000CBF012000205DF808FB00BF4DF808ED8F
:1024F000FFF7EAFF34BF012000205DF808FB00BFB2
:102500004DF808EDFFF7E0FF94BF012000205DF8D3
:1025100008FB00BF4DF808EDFFF7CEFF94BF012088
:1025200000205DF808FB00BF4DF808EDFFF7C4FF81
:1025300034BF012000205DF808FB00BF4FEA410CCA
:102540007FEA6C5C02D150EA013C0AD14FEA430CAD
:102550007FEA6C5C02D152EA033C02D14FF00000EA
:1025600070474FF0010070474FEA410212F5001228
:1025700015D211D56FF47873B3EB625212D94FEACA
:10258000C12343F0004343EA505311F0004F23FAB4
:1025900002F018BF404270474FF00000704750EA09
:1025A000013005D111F0004008BF6FF000407047C6
:1025B0004FF00000704700BF4A0011D212F5001220
:1025C00011D20DD56FF47873B3EB62520ED44FEA8B
:1025D000C12343F0004343EA505323FA02F070470B
:1025E0004FF00000704750EA013002D14FF0FF3049
:1025F00070474FF0000070474FEA4102B2F1E043EC
:1026000024BFB3F5001CDCF1FE5C0DD901F0004CD9
:102610004FEAC0024CEA5070B2F1004F40EB830029
:1026200008BF20F00100704711F0804F21D113F155
:102630003872BCBF01F00040704741F480114FEA8E
:102640005252C2F11802C2F1200C10FA0CF320FA17
:1026500002F018BF40F001004FEAC1234FEAD32334
:1026600003FA0CFC40EA0C0023FA02F34FEA43039E
:10267000CCE77FEA625307D150EA01331EBF4FF027
:10268000FE4040F44000704701F0004040F0FE4042
:1026900040F40000704700BF014B1868704700BF4E
:1026A000040000200CB410B59CB01EAB6FF00044C9
:1026B000CDE906140291084953F8042B059102A9AB
:1026C0000193049400F088F9029B00221A701CB058
:1026D000BDE8104002B070470802FFFF0EB410B50D
:1026E0009DB06FF000411FABCDE90601049109498F
:1026F00053F8042B0290084C0868019302A9059432
:1027000000F06AF9029B00221A701DB0BDE810406B
:1027100003B07047040000200802FFFF0000000023
:1027200000000000000000000000000000000000A9
:102730000000000000000000000000000000000099
:1027400090F800F06DE9024520F007016FF0000CF1
:1027500010F0070491F820F040F049804FF0000499
:102760006FF00700D1E9002391F840F000F1080074
:1027700082FA4CF2A4FA8CF283FA4CF3A2FA8CF3AC
:102780004BBBD1E9022382FA4CF200F10800A4FA13
:102790008CF283FA4CF3A2FA8CF3E3B9D1E9042367
:1027A00082FA4CF200F10800A4FA8CF283FA4CF39E
:1027B000A2FA8CF37BB9D1E9062301F1200182FA58
:1027C0004CF200F10800A4FA8CF283FA4CF3A2FA5E
:1027D0008CF3002BC6D0002A04BF04301A4612BA6C
:1027E000B2FA82F2FDE8024500EBD2007047D1E96F
:1027F000002304F00305C4F100004FEAC50514F0FE
:10280000040F91F840F00CFA05F562EA05021CBFCE
:1028100063EA050362464FF00004A9E72DE9F0479B
:102820008F689F420C461D46164638D882468889D6
:1028300010F4906F0ED108683D462A46314600F0EC
:10284000C1FCA2682368D21B2B44A2602360002035
:10285000BDE8F0874B69096903EB4308236808EB7F
:10286000D878A3EB01096B1C4FEA68084B44434539
:10287000424684BF98464246430513D5114650460A
:1028800000F07EFD074608B321694A4600F000FCCF
:10289000A38923F4906343F08003A38107E00868D1
:1028A0001F46CAE7504600F0C5FD074650B107EB8A
:1028B0000900A8EB09032761C4F81480A360206015
:1028C0002F46BAE72169504600F0F8FC0C23CAF8FD
:1028D0000030A38943F040034FF0FF30A381B7E7F6
:1028E0002DE9F04F936883B09146002B6ED01768A6
:1028F0008D6880460C460868083744E0A38913F4C5
:10290000906F2ED0D4E90415A0EB010A05EB450524
:1029100005EBD5750AEB06006D100130A8422A467A
:1029200084BF05462A465B0537D51146404600F070
:1029300027FD00283BD052462169019000F0A8FBFA
:10294000A289019B22F4906242F08002A281A5EB51
:102950000A0203EB0A006561A2602361206035462C
:10296000B2465946524600F02DFCA068D9F808102E
:102970002368451B8E1B03EB0A00A5602060C9F885
:1029800008601EB3083757E902B6002EFAD0B542E8
:10299000AA46B3D93546B246E3E7404600F04AFDC1
:1029A00003460028D3D12169404600F087FC0C2360
:1029B000C8F80030A389002243F040034FF0FF30F5
:1029C000A381C9E9012203B0BDE8F08F0020C9F856
:1029D000040003B0BDE8F08F2DE9F04F92468A89DC
:1029E00015069DB0884681461C4603D50A69002A13
:1029F00000F0EF80002209929AF800307E4D039497
:102A000020228DF8292030228DF82A200126002B43
:102A100072D0544603E014F8013F002B76D0252BEA
:102A2000F9D1B4EB0A0B74D12278002A64D00023C8
:102A30004FF0FF32CDE90523049307938DF853300F
:102A40001A93013404E0049A06FA03F3134304933F
:102A5000A246052214F8011B284600F0C9FA431BC0
:102A60000028F0D1049BD80644BF20228DF85320C3
:102A700019079AF8001044BF2B228DF853202A29F9
:102A800054D1039A11680432002903927CDB079128
:102A90009AF801100AF1010A2E2959D0574C032245
:102AA000204600F0A5FA40B1049B001B402404FA24
:102AB00000F0034304930AF1010A1AF8011B50487D
:102AC0008DF82810062200F093FA002862D04D4BB2
:102AD000002B52D003AA00924B4B424604A9484611
:102AE000AFF3008007467A1C06D0099B3B4409934C
:102AF0009AF80030002B8CD1B8F80C305B0654BF2C
:102B000009984FF0FF301DB0BDE8F08FB4EB0A0B11
:102B1000F2D05B46524641464846FFF77FFE013001
:102B2000EAD0099B22785B4409937EE7A1F1300249
:102B3000092AB1D8079B1AF8011F03EB830302EBA4
:102B40004303A1F13002092AF5D92E290793A5D113
:102B50009AF801102A2927D1039B9AF802101A68C3
:102B600005920433002A0AF102000393B8BF4FF024
:102B7000FF338246B8BF059390E7039B073323F0EA
:102B8000070308330393B0E7494243F00203079178
:102B900004937DE703AA00921B4B424604A94846D2
:102BA00000F0CAF807469EE7A1F130020023092A87
:102BB00005930AF1010A3FF671AF1AF8011F03EB02
:102BC000830302EB4303A1F13002092AF5D90593EF
:102BD00064E7402100F0D4FBC8F80000C8F81000FA
:102BE00018B14022C8F8142004E70C23C9F80030BB
:102BF0004FF0FF3087E700BF347700003C770000DC
:102C000040770000000000001D2800002DE9F84F6B
:102C100092461F460A698B68DDF828909A42B8BF31
:102C20001A46CAF8002091F843300C46064613B104
:102C30000132CAF80020226891065DD5DAF800302A
:102C40000233CAF80030226812F0060F11461ED176
:102C5000E168CB1A002BD8BF114618DD04F1190B1F
:102C60004FF0000805E0E568DAF80030ED1A454558
:102C70000CDD01235A4639463046C847013008F179
:102C80000108F0D14FF0FF30BDE8F88F216894F8CB
:102C90004330003B18BF01238A060AD5E1185A1CAD
:102CA000302081F84300224494F8451082F8431004
:102CB000023304F1430239463046C8470130E1D0BF
:102CC000236803F00603042B1DD0A36822699342F6
:102CD00025DD4FF000089B1A98441A34002501E0C6
:102CE00045451CDA0123224639463046C8470130A3
:102CF00005F10105F4D1C5E712F0060F12D0003B33
:102D000018BF0123D5E7DAF80030E1682269C91A53
:102D1000A368934221EAE178DDDC0029DDDC0020B4
:102D2000BDE8F88FE168DAF80030CB1A002BD8BF85
:102D3000114693DCABE700BF2DE9F0470C4684B0A9
:102D40009046227E0C990746994604F14300002ADA
:102D500033D0A2F15803DDB2202D67D8202B65D8DF
:102D6000DFE813F0DE0064006400640064006400C7
:102D700064006400640064006400A3006E006400EA
:102D80006400640064006E00640064006400640019
:102D900021007F00C00064006400AE0064007F007A
:102DA00064006400E50023681A0640F104810B68A2
:102DB00062691D1D0D601B681A6000238246236135
:102DC000CDF80090434603AA21463846FFF71EFF80
:102DD000013020D02369524641463846C847013069
:102DE00019D02368E068039E9B0719D5831B002B2D
:102DF00016DD04F1190A002504E0E068039E831B38
:102E0000AB420DDD0123524641463846C8470130EA
:102E100005F10105F1D14FF0FF3004B0BDE8F087B6
:102E2000B042B8BF304604B0BDE8F087012384F853
:102E30004220236104F1420A002384F84330BFE7B3
:102E400023681A0602D45E0600F1C1800D682A6864
:102E500004350D601546002A6BDBDFF884C10A26B5
:102E600010E023681D0640F19C800B681D1D0D605D
:102E70001D68DFF86CC16F2A0CBF08260A260023E4
:102E800084F843306268A260002A7FDB236823F065
:102E900004032360002D5BD1002A79D18246082EDD
:102EA00065D0A0EB0A0020618AE70B680122186850
:102EB00004330B6004F1420A84F842002261BBE74C
:102EC0000B686268181D0860D3F800A00021504606
:102ED00000F08EF8002800F08180A0EB0A0060600E
:102EE0002061A9E7236843F0200323607822DFF8FC
:102EF000F4C084F845200A68151D0D601D0643D4F2
:102F0000590641D51588DE0744BF43F020032360EE
:102F1000002D44D1236823F0200323601026AEE760
:102F2000582384F84530DFF8B8C02368E3E7236806
:102F3000DCE76268A2602D21002AC5F1000584F853
:102F4000431002DB23F004032360DFF894C00A2659
:102F50008246B5FBF6F306FB13512A461CF8011016
:102F60000AF8011DB2421D46F3D2082E99D12368FA
:102F7000D90796D5626823699A4292DC30230AF811
:102F8000013C0AF1FF3A8CE71568BCE7002DDFD160
:102F90009CF8003084F8423004F1420A7FE71026A2
:102FA0006DE713F0400F0B6803F104050D600CBFD3
:102FB0001D681D885DE713F0400F0B68626903F11F
:102FC00004050D601B6814BF1A801A60F5E60A68D4
:102FD000B2F9005004320A602A463CE760687FE795
:102FE000487700005C77000000000000000000004F
:102FF00001F0FF01102A2BDB10F0070F08D010F8AA
:10300000013B013A8B422DD010F0070F42B3F6D1AD
:10301000F0B441EA012141EA014122F007047FF0C6
:1030200000070023F0E80256083C85EA010586EA1D
:10303000010685FA47F5A3FA87F586FA47F6A5FA59
:1030400087F68EB9EED1F0BC01F0FF0102F0070265
:1030500032B110F8013B013A83EA010313B1F8D110
:103060000020704701387047002D06BF35460338F1
:10307000073815F0010F07D1013015F4807F02BF2A
:10308000013015F4C03F0130F0BC0138704700BF7B
:10309000844641EA000313F003036DD1403A41D363
:1030A00051F8043B40F8043B51F8043B40F8043B22
:1030B00051F8043B40F8043B51F8043B40F8043B12
:1030C00051F8043B40F8043B51F8043B40F8043B02
:1030D00051F8043B40F8043B51F8043B40F8043BF2
:1030E00051F8043B40F8043B51F8043B40F8043BE2
:1030F00051F8043B40F8043B51F8043B40F8043BD2
:1031000051F8043B40F8043B51F8043B40F8043BC1
:1031100051F8043B40F8043B51F8043B40F8043BB1
:10312000403ABDD2303211D351F8043B40F8043B51
:1031300051F8043B40F8043B51F8043B40F8043B91
:1031400051F8043B40F8043B103AEDD20C3205D361
:1031500051F8043B40F8043B043AF9D2043208D059
:10316000D2071CBF11F8013B00F8013B01D30B88CB
:1031700003806046704700BF082A13D38B078DD0A9
:1031800010F003038AD0C3F10403D21ADB071CBF7B
:1031900011F8013B00F8013B80D331F8023B20F8E5
:1031A000023B7BE7043AD9D3013A11F8013B00F81E
:1031B000013BF9D20B7803704B7843708B788370A6
:1031C0006046704788420DD98B1883420AD900EBBC
:1031D000020CBAB1624613F801CD02F801CD994252
:1031E000F9D170470F2A0ED8034602F1FF3C4AB1CD
:1031F0000CF1010C013B8C4411F8012B03F8012F59
:103200006145F9D1704740EA01039B0750D1A2F113
:10321000100370B501F1200C23F00F0501F1100E21
:1032200000F11004AC441B095EF8105C44F8105C1B
:103230005EF80C5C44F80C5C5EF8085C44F8085CD2
:103240005EF8045C44F8045C0EF1100EE64504F1EF
:103250001004E9D1013312F00C0F01EB031102F05D
:103260000F0400EB031327D0043C24F003064FEABD
:10327000940C1E441C1F8E465EF8045B44F8045FE9
:10328000B442F9D10CF1010402F0030203EB840310
:1032900001EB840102F1FF3C4AB10CF1010C013B4E
:1032A0008C4411F8012B03F8012F6145F9D170BD51
:1032B00002F1FF3C03469BE72246EBE7002958D08A
:1032C00030B551F8043C83B0002BA1F10404B8BF21
:1032D000E418019000F0E8F8284A0198136833B127
:1032E000A3420DD9216804EB010C63452FD0636024
:1032F000146003B0BDE8304000F0D8B8A34210D845
:103300001A465B68002BF9D1116802EB010C644589
:1033100019D02FD36360546003B0BDE8304000F093
:10332000C5B8116802EB010CA44516D022D821685B
:1033300004EB010C6345EDD11D685B682944C4E9C9
:1033400000135460D5E7236819441160D1E71D6864
:103350005B682944C4E90013CAE72468214454186F
:10336000A3421160C5D1D3E900432144C2E900134F
:10337000BFE770470C230360BBE700BF14070020C2
:10338000F8B5CD1C25F0030508350C2D38BF0C25EC
:10339000002D064623DBA94221D8254F00F084F8F2
:1033A0003A6822B3144603E063682246FBB11C4628
:1033B00023685B1BF8D40B2B15D8636894420CBFB1
:1033C0003B605360304600F071F804F10B00231DA0
:1033D00020F00700C21A01D01B1AA350F8BD0C231D
:1033E00033600020F8BD23601C442560EAE779685B
:1033F000C9B12946304600F045F8431C0CD0C41C26
:1034000024F00304A04205D0211A304600F03AF817
:10341000013001D02560D5E70C233046336000F041
:1034200045F80020F8BD304600F02CF87860E0E761
:1034300014070020F8B51446F9B1CAB106460D4686
:1034400000F036F8A04202D32F463846F8BD214698
:103450003046FFF795FF07460028F6D0224629465A
:10346000FFF716FE30462946FFF728FF3846F8BD1D
:103470002746FFF723FF3846F8BDBDE8F840114660
:10348000FFF77EBF38B5074D0022044608462A6084
:1034900000F0A2F8431C00D038BD2B68002BFBD0F5
:1034A000236038BD1C070020704700BF704700BF75
:1034B00051F8040C0028A0F10400BCBF0B58C01840
:1034C000704700BF2DE9F0410E680C460546BEB1BD
:1034D00037688FB1D7F80080B8F1000F08D0D8F85E
:1034E000001009B1FFF7EEFF41462846FFF7E6FE60
:1034F00039462846FFF7E2FE31462846FFF7DEFE52
:1035000021462846BDE8F041FFF7D8BE314B1B6885
:10351000834259D0426A70B50546002A4FD0D1681F
:1035200091B100268C5944B1214624682846FFF702
:10353000C5FE002CF8D16B6AD9680436802EF1D113
:103540002846FFF7BBFE6A6A116800293DD028466D
:10355000FFF7B4FE696911B12846FFF7AFFE6A6A4A
:103560001AB111462846FFF7A9FEA96B11B12846EA
:10357000FFF7A4FEE96B11B12846FFF79FFE296C07
:1035800011B12846FFF79AFEE96D11B12846FFF701
:1035900095FEA96D11B12846FFF790FE696B11B138
:1035A0002846FFF78BFEAB696BB1AB6A284698479C
:1035B000A96C41B12846BDE87040FFF783BF41695F
:1035C0000029C9D1D1E770BD704769690029C3D10D
:1035D000C7E700BF04000020044A05491368002B18
:1035E00008BF0B461844106018467047200700209B
:1035F000D414002080B582B000AF0C4B7B600C4B24
:103600003B6007E07A68131D7B603B68191D3960D9
:1036100012681A603B68074A9342F3D300F094F9AA
:10362000FCF7B6FD00BF0837BD4680BD7C770000C3
:10363000000000206406002080B400AFFEE7000018
:1036400080B489B000AFA44B9B681B0C03F0070348
:10365000FB600122FB6802FA03F3FB729E4B9B683E
:1036600003F007037B607B68052B00F2638101A2F6
:1036700052F823F08D3600000D3700001F37000090
:103680004D3700006D3800007D380000934B1B78EB
:10369000DBB2002B31D0904B46F65A121A608E4B9B
:1036A0001B6D8D4A43F0010313658B4B01221A6099
:1036B0008A4B1B78DBB2002B16D0894B1B78DBB210
:1036C000002B08D0FB7A4FF4FA3292FBF3F31A4640
:1036D000844B1A602EE1FB7A4FF4FA4292FBF3F32B
:1036E0001A46804B1A6025E1FB7A4FF4004292FBA8
:1036F000F3F31A467B4B1A601CE1FB7A4FF400424D
:1037000092FBF3F31A46774B1A6013E1FB7A42F20D
:10371000107292FBF3F31A46724B1A600AE1704B77
:103720001B78DBB2002B08D0FB7A4FF4FA3292FB05
:10373000F3F31A466B4B1A60FCE0FB7A4FF4FA4243
:1037400092FBF3F31A46674B1A60F3E0624B5B6837
:103750001BB2C3F309037B825F4B5B6803F4E02376
:10376000B3F5A02F29D0B3F5A02F29D8B3F5802F1A
:1037700020D0B3F5802F23D8B3F5403F17D0B3F551
:10378000403F1DD8B3F5003F0ED0B3F5003F17D82A
:10379000002B03D0B3F5803F03D011E0524B7B6187
:1037A0000EE0524B7B610BE0514B7B6108E0514BCB
:1037B0007B6105E0504B7B6102E0504B7B6100BFB9
:1037C000B7F91230002B03D1464A7B691360B1E090
:1037D0007B8A03F48053002B05D07B8A6FEA035366
:1037E0006FEA13537B82464B1B78DBB2002B06D06B
:1037F000444B1B68FB61444BDB6EBB6105E0434BF4
:103800001B68FB61404BDB6CBB617B6907EE903A48
:10381000F8EE676AB7F9123007EE903AB8EEE77A39
:10382000D7ED077A27EE276ABB69C3F5407307EE29
:10383000903AB8EEE77AD7ED077A67EE277AB7EED7
:10384000007A77EE877AB2EE007A27EE877AC6EEB4
:10385000077AB7EE007A37EE677AC6EE877AFCEE23
:10386000E77A17EE902A1F4B1A6063E0FB7A224A30
:1038700092FBF3F31A461B4B1A605BE0244B1B7858
:10388000DBB2002B4ED0144B46F65A121A60124B84
:103890001B6D114A43F0020313650F4B01221A609E
:1038A0001B4B1B78DBB2002B34D00D4B1B78DBB2EB
:1038B000002B08D0FB7A4FF4FA3292FBF3F31A464E
:1038C000084B1A6035E0FB7A4FF4FA4292FBF3F3AF
:1038D0001A46044B1A602CE0000401400089204283
:1038E0003C8620427000002060E31600C0C62D0018
:1038F000808D5B00001BB70000366E01006CDC029F
:10390000D880204284102000001020006410200085
:1039100004892042FB7A0A4A92FBF3F31A46094BC8
:103920001A6006E0FB7A064A92FBF3F31A46054B4F
:103930001A6000BF00BF2437BD465DF8047B7047A6
:10394000006CDC027000002080B400AF294BD3F87B
:103950008830284A43F47003C2F88830264B4FF46D
:10396000B5429A81254B80225A6100BF244B5B6887
:1039700003F48073002BF9D1214B224A1A6000BF57
:103980001F4B5B6803F48073002BF9D11E4B1B693E
:1039900023F470431C4A43F4805313611A4B5B6950
:1039A00023F47043184A43F480535361174B46F68F
:1039B0005A121A60154B4FF4A0225A60134B9B68A1
:1039C00023F00713114A43F0030393600F4B0022C7
:1039D0001A600D4B1B690C4A43F0300313610A4B0C
:1039E0005B69094A43F03003536100BFBD465DF88F
:1039F000047B704700ED00E000480040003004E028
:103A00000000014001005A6900100140000401401B
:103A100080B500AF054B00221A7001F0EDF901F0FE
:103A20001FFA00F0ABFD00BF80BD00BF6C08002096
:103A300080B400AF044B1B680133034A136000BF1E
:103A4000BD465DF8047B704724070020000000009D
:103A500080B588B000AF00F0B0FAA14800F0C0FA1D
:103A60009FED9D0B00F05AFC0346002219469D482D
:103A700000F0DAFC00F036FD00F0CCFA00F0FCFAC1
:103A800000F07CFB00F0FCFD01F00EF801F0CCF83A
:103A9000FFF7BEFF944BDB78DBB2934A23F00103C0
:103AA000DBB2D370904BDB78DBB28F4A23F002039A
:103AB000DBB2D3708C4BDB78DBB28B4A23F0040390
:103AC000DBB2D370884B9B78DBB2874A23F00103CB
:103AD000DBB293700023FB610023BB614FF4FA63F8
:103AE000BB6000237B610023FB74804B1B68FB6081
:103AF00000F000FC0346FB717C4B1A68FB68D31A8C
:103B0000322B18D9FB79BA699A4214D0774B1B68CB
:103B1000FB60FB79002B0ED0FB6901335A4203F0A6
:103B2000030302F0030258BF5342FB616F4B1B6853
:103B30007B610123FB74FB79BB6100F0C7FB03468B
:103B4000002B19D0684BDB78DBB2674A43F00103E6
:103B5000DBB2D370644BDB78DBB2634A43F0020321
:103B6000DBB2D370604BDB78DBB25F4A43F0040317
:103B7000DBB2D37003F04CFCFB69032B6ED801A2BF
:103B800052F823F0953B0000C73B0000F93B0000D2
:103B90002B3C0000544BDB78DBB2534A43F001036B
:103BA000DBB2D370504BDB78DBB24F4A23F0020319
:103BB000DBB2D3704C4BDB78DBB24B4A23F004030F
:103BC000DBB2D3704AE0484BDB78DBB2464A23F0E5
:103BD0000103DBB2D370444BDB78DBB2424A43F0E3
:103BE0000203DBB2D370404BDB78DBB23E4A23F0FA
:103BF0000403DBB2D37031E03B4BDB78DBB23A4AF3
:103C000023F00103DBB2D370374BDB78DBB2364AEB
:103C100023F00203DBB2D370334BDB78DBB2324AE2
:103C200043F00403DBB2D37018E02F4BDB78DBB238
:103C30002D4A43F00103DBB2D3702B4BDB78DBB2B0
:103C4000294A43F00203DBB2D370274BDB78DBB2A7
:103C5000254A23F00403DBB2D37000BF234B1A685C
:103C60007B69D31A3B60FB7C002B0DD0BB685B08E3
:103C70003A689A4208D91C4B9B78DBB21A4A43F047
:103C80000103DBB2937007E0174B9B78DBB2164A57
:103C900023F00103DBB29370FB7C002B39D03A6830
:103CA000BB689A4235D9FB69032B24D801A252F88C
:103CB00023F000BFC53C0000CB3C0000D13C00001D
:103CC000F13C000001F0ACF915E001F03DFB12E021
:103CD00002F086FC0FE000BF0000000000408F40B3
:103CE00090750000313A0000004C0040240700208D
:103CF00003F09AF800BF0023FB7400237B619FED63
:103D00000C0B00F00BFB0346002219460C4800F098
:103D10008BFB9FED090B00F027FF9FED070B00F0D9
:103D2000E3FF9FED050B00F01BFDE1E6AFF3008024
:103D30000000000000408F40000000000000000074
:103D4000313A000080B400AF1E4B1B889BB21D4A65
:103D500043F0C1039BB213801B4B1B681B4AA2FBA1
:103D600003239A0A174B92B2DA80164B1B899BB237
:103D7000144A03F00F039BB21381154B9B7ADBB2FD
:103D8000134A43F00C03DBB29372114B1B7BDBB283
:103D90000F4A23F00C03DBB213730A4B1B889BB250
:103DA000084A23F001039BB21380064B5B8B9BB246
:103DB000044A23F00F039BB2538300BFBD465DF856
:103DC000047B70470010004070000020B5814E1B3E
:103DD000004C004080B400AF00BF084B9B8B9BB2EF
:103DE00003F00103002BF8D0044B9B899BB2DBB29C
:103DF0001846BD465DF8047B704700BF00100040C8
:103E000080B400AF054B9B8B9BB2DBB203F0010388
:103E1000DBB21846BD465DF8047B704700100040D9
:103E200080B483B000AF0346FB7100BF084B9B8B8F
:103E30009BB203F00203002BF8D0054BFA7992B243
:103E4000DA8100BF0C37BD465DF8047B704700BFC8
:103E50000010004080B582B000AF786006E07B685B
:103E60005A1C7A601B781846FFF7DAFF7B681B78CC
:103E7000002BF4D100BF00BF0837BD4680BD000055
:103E800080B400AF1E4B1B889BB21D4A43F0C10398
:103E90009BB213801B4B1B681B4AA2FB03239A0A8D
:103EA000174B92B2DA80164B1B899BB2144A03F06F
:103EB0000F039BB21381154B9B7ADBB2134A43F07D
:103EC0000C03DBB29372114B1B7BDBB20F4A23F066
:103ED0000C03DBB213730A4B1B889BB2084A23F016
:103EE00001039BB21380064B5B8B9BB2044A23F009
:103EF0000F039BB2538300BFBD465DF8047B704740
:103F00000018004070000020B5814E1B204C00407E
:103F100080B400AF00BF084B9B8B9BB203F0010342
:103F2000002BF8D0044B9B899BB2DBB21846BD46F0
:103F30005DF8047B704700BF0018004080B400AFFC
:103F4000054B9B8B9BB2DBB203F00103DBB218463F
:103F5000BD465DF8047B70470018004080B483B014
:103F600000AF0346FB7100BF084B9B8B9BB203F075
:103F70000203002BF8D0054BFA7992B2DA8100BF28
:103F80000C37BD465DF8047B704700BF0018004049
:103F900080B582B000AF786006E07B685A1C7A601A
:103FA0001B781846FFF7DAFF7B681B78002BF4D1EB
:103FB00000BF00BF0837BD4680BD80B500AFFFF72A
:103FC0005FFF00BF80BD80B582B000AF0346FB71CC
:103FD000FB791846FFF7C2FF00BF0837BD4680BD1A
:103FE00080B582B000AF78607868FFF7D1FF00BF7E
:103FF0000837BD4680BD80B500AFFFF789FF034697
:10400000184680BD80B500AFFFF798FF03461846FD
:1040100080BD000080B400AF164B9B7ADBB2154A1E
:1040200023F00103DBB29372124B1B7BDBB2114A0C
:1040300023F00103DBB213730E4B1B7ADBB20D4A84
:1040400043F00103DBB213720A4B1B79DBB2094A5E
:1040500043F00103DBB21371064B9B78DBB2054AD8
:1040600023F00103DBB2937000BFBD465DF8047B13
:10407000704700BF004C004080B400AF3E4BDB7A7D
:10408000DBB23D4A23F00103DBB2D3723A4B5B7BD8
:10409000DBB2394A23F00103DBB25373364BDB7AD0
:1040A000DBB2354A23F00403DBB2D372324B5B7BC5
:1040B000DBB2314A23F00403DBB253732E4BDB7ABD
:1040C000DBB22D4A23F00203DBB2D3722A4B5B7BB7
:1040D000DBB2294A23F00203DBB25373264B5B7A2F
:1040E000DBB2254A43F00103DBB25372224B5B7A09
:1040F000DBB2214A43F00203DBB253721E4B5B7A00
:10410000DBB21D4A43F00403DBB253721A4B5B79F6
:10411000DBB2194A43F00103DBB25371164B5B79F2
:10412000DBB2154A43F00203DBB25371124B5B79E9
:10413000DBB2114A43F00403DBB253710E4BDB7860
:10414000DBB20D4A23F00103DBB2D3700A4BDB78FC
:10415000DBB2094A23F00203DBB2D370064BDB78F3
:10416000DBB2054A23F00403DBB2D37000BFBD46C7
:104170005DF8047B704700BF004C004080B483B002
:1041800000AF1223FB711E4B9B7ADBB25AB297F938
:104190000730DB435BB213405AB2194BD2B29A726A
:1041A000174B1B7BDBB25AB297F90730DB435BB28C
:1041B00013405AB2124BD2B21A73114B1B79DBB2B5
:1041C0005AB297F90730DB435BB213405AB20C4B3B
:1041D000D2B21A710A4B9B78DAB20949FB791343C0
:1041E000DBB28B70064B9B79DAB20549FB7913433E
:1041F000DBB28B7100BF0C37BD465DF8047B7047A6
:10420000004C004080B400AF164B9B7ADBB2154ADD
:1042100023F00203DBB29372124B1B7BDBB2114A19
:1042200023F00203DBB213730E4B1B79DBB20D4A92
:1042300023F00203DBB213710A4B9B78DBB2094A0D
:1042400043F00203DBB29370064B9B79DBB2054A65
:1042500043F00203DBB2937100BFBD465DF8047BFF
:10426000704700BF004C004080B400AF164B9B7AF3
:10427000DBB2154A23F01003DBB29372124B1B7BA7
:10428000DBB2114A23F01003DBB213730E4B1B7920
:10429000DBB20D4A23F01003DBB213710A4B9B789B
:1042A000DBB2094A43F01003DBB29370064B9B79F3
:1042B000DBB2054A43F01003DBB2937100BFBD4689
:1042C0005DF8047B704700BF004C004080B400AF35
:1042D000074B1B78DBB203F00203002B0CBF01235A
:1042E0000023DBB21846BD465DF8047B704700BF73
:1042F000004C004080B400AF074B1B78DBB203F0EA
:104300001003002B0CBF01230023DBB21846BD466F
:104310005DF8047B704700BF004C004080B584B05E
:1043200000AF87ED000B4FF000024FF00003C7E92C
:1043300002230B4B1B681846FDF7ECFDD7E9002361
:10434000FDF78CFF02460B46C7E90223D7E90201BD
:10435000FEF732F9034618461037BD4680BD00BF50
:104360007000002080B400AF034B01221A7000BF20
:10437000BD465DF8047B70474007002080B586B0DD
:1043800000AFF860B9601346FB71154ABB68136053
:1043900000F0B0F87861134AFB681360124A104BC2
:1043A0001B681360114B00221A60FB7963F01D0338
:1043B000DAB20F4B1A600F4B1B6823F47F430D4A90
:1043C00043F4804313600C4B1B680B4A43F00073AB
:1043D0001360786900F09CF800BF1837BD4680BDB7
:1043E000380700203007002000C000400CC000400B
:1043F00008C0004018E400E000E100E080B500AF34
:10440000054B00221A60054B1B689847044A054B70
:104410001B68136000BF80BD0CC000403007002047
:1044200000C000403807002080B586B000AFF860BB
:10443000B9601346FB71154ABB68136000F05AF867
:104440007861134AFB681360124A104B1B681360B3
:10445000114B00221A60FB7963F01D03DAB20F4B97
:104460001A600F4B1B6823F47F430D4A43F48043CB
:1044700013600C4B1B680B4A43F080631360786930
:1044800000F046F800BF1837BD4680BD3C0700204D
:104490003407002020C000402CC0004028C000404D
:1044A00018E400E000E100E080B500AF054B002219
:1044B0001A60054B1B689847044A054B1B6813603C
:1044C00000BF80BD2CC000403407002020C0004049
:1044D0003C07002080B400AF72B600BFBD465DF857
:1044E000047B704780B400AF62B600BFBD465DF884
:1044F000047B704780B483B000AFEFF3108372B6D3
:104500007B607B6818460C37BD465DF8047B7047BE
:1045100080B483B000AF786080F3108800BF0C37A0
:10452000BD465DF8047B704780B400AF30BF00BF6C
:10453000BD465DF8047B704780B483B000AF7860FF
:104540007B68013BFDD100BF0C37BD465DF8047BA5
:10455000704780B582B000AF786006E04FF4FA5043
:10456000FFF7EAFF7B68013B7B607B68002BF5D19E
:1045700000BF00BF0837BD4680BD000080B400AF5B
:1045800000BF264B1B889BB203F48063002BF8D13D
:10459000224B39221A8000BF204B1B889BB203F4A8
:1045A0008053002BF8D01E4B1B681D4A23F00203DA
:1045B000136000BF1A4B1B6803F48033002BF9D142
:1045C000174B184A1A60164B30225A60144B4FF49E
:1045D000C3729A61124B0022C3F83C21104B002297
:1045E000C3F84021104BDB7ADBB20F4A63F07F0344
:1045F000DBB2D3720C4B5B7BDBB20B4A63F07F0305
:10460000DBB25373064B1B68054A43F00203136089
:1046100000BFBD465DF8047B704700BF003000401E
:104620000020014010332004204C004080B483B0AF
:1046300000AF00BF104B1B6803F48033002BF9D18F
:104640000D4B1B680C4A43F00103136000BF0A4B7B
:10465000D3F8443103F00103002BF8D0064BD3F814
:104660009830C3F30D037B607B6818460C37BD465A
:104670005DF8047B704700BF00200140000000008F
:1046800080B500AF0E4B1B681846FDF743FC4FF09A
:1046900000020C4BFDF7E2FD02460B4610461946A0
:1046A000FDF78AFF03469BB201219FED030B1846DD
:1046B00000F060F900BF80BD343333333333B33F90
:1046C000700000200000A94080B584B000AF87EDE5
:1046D000000B4FF000024FF00003D7E90001FDF797
:1046E00005FF0346002B06D04FF000024FF00003F9
:1046F000C7E900230EE04FF00002174BD7E9000195
:10470000FDF712FF0346002B04D04FF00002124BBE
:10471000C7E900230EA3D3E90023D7E90001FDF781
:1047200073FC02460B461046194609A3D3E9002341
:10473000FDF7B4FA02460B46C7E90223012097EDC4
:10474000020B00F087F900BF1037BD4680BD00BFE7
:104750009A9999999999A93F0000F03F00000000AB
:1047600080B584B000AF87ED000B0FA3D3E9002321
:10477000D7E90001FDF748FC02460B4610461946F2
:104780000BA3D3E90023FDF789FA02460B46C7E9DC
:10479000022397ED020BFFF797FF00BF1037BD46CE
:1047A00080BD00BFAFF30080EC51B81E85EB913F98
:1047B0009A9999999999E13F80B586B000AF0346DF
:1047C00087ED000B0A46FB811346BB81BB89012B99
:1047D00018D1524B5B79DBB2504A43F01003DBB285
:1047E00053714E4BDB7ADBB24C4A43F01003DBB221
:1047F000D3724A4B5B7BDBB2484A23F01003DBB237
:10480000537356E0BB89022B18D1444B5B79DBB262
:10481000424A43F02003DBB25371404BDB7ADBB2F8
:104820003E4A43F02003DBB2D3723C4B5B7BDBB2EE
:104830003A4A23F02003DBB253733AE0BB89032BDF
:1048400018D1364B5B79DBB2344A43F04003DBB21C
:104850005371324BDB7ADBB2304A43F04003DBB2B8
:10486000D3722E4B5B7BDBB22C4A23F04003DBB2CE
:1048700053731EE0BB89042B18D1284B5B79DBB244
:10488000264A63F07F03DBB25371244BDB7ADBB241
:10489000224A63F07F03DBB2D372204B5B7BDBB237
:1048A0001E4A03F07F03DBB2537302E06FF0010393
:1048B00030E0BB89FA891A4941F823204FF0804241
:1048C000FB8953824FF08042BB895B001344C022B6
:1048D0005A80BB89124A52F823301846FDF71AFB5A
:1048E000D7E90023FDF790FB02460B461046194618
:1048F000FDF762FE0346FB824FF08042BB8908331E
:104900005B001344FA8A5A804FF080434FF40472DC
:104910001A80002318461837BD4680BD004C004061
:104920004407002080B586B000AF87ED020B034638
:10493000FB80FB880E4A52F823301846FDF7EAFA4E
:10494000D7E90223FDF760FB02460B4610461946E5
:10495000FDF732FE0346FB824FF08042FB880833AE
:104960005B001344FA8A5A8000BF1837BD4680BDE9
:104970004407002080B586B000AF034687ED000BEA
:104980000A46FB811346BB81BB89012B55D12E4BB7
:104990001B79DBB22C4A43F04003DBB213712A4B84
:1049A0009B7ADBB2284A43F04003DBB29372264B7A
:1049B0001B7BDBB2244A23F04003DBB21373BB89B9
:1049C000FA89224941F82320214AFB895382204A4F
:1049D000BB895B001344C0225A80BB891B4A52F832
:1049E00023301846FDF796FAD7E90023FDF70CFBB4
:1049F00002460B4610461946FDF7DEFD0346FB82D4
:104A0000134ABB8908335B001344FA8A5A80104B5F
:104A10004FF404721A800E4B1B889BB20C4A43F071
:104A2000C0039BB213800A4B1B8C9BB2084A43F015
:104A300007039BB21384002301E06FF001031846C3
:104A40001837BD4680BD00BF404C004058070020CD
:104A50000008004080B586B000AF87ED020B03462A
:104A6000FB80FB880E4A52F823301846FDF752FAB5
:104A7000D7E90223FDF7C8FA02460B46104619464D
:104A8000FDF79AFD0346FB82064AFB8808335B006C
:104A90001344FA8A5A8000BF1837BD4680BD00BF54
:104AA000580700200008004080B500AF2C4B1B7950
:104AB000DBB22B4A63F07F03DBB21371284B9B7888
:104AC000DBB2274A03F07F03DBB29370244B9B7A5F
:104AD000DBB2234A03F07F03DBB29372204B1B7BD4
:104AE000DBB21F4A03F07F03DBB213731D4B1B685D
:104AF0001846FDF70FFA16A3D3E90023FDF7AEFB26
:104B000002460B4610461946FDF756FD03469BB27A
:104B100001219FED110B1846FFF74EFE114B1B684C
:104B20001846FDF7F7F90AA3D3E90023FDF796FB32
:104B300002460B4610461946FDF73EFD03469BB262
:104B400002219FED050B1846FFF736FE00BF80BD22
:104B5000000000000088C3400000000000000000CA
:104B6000204C004070000020B0B582B000AF87ED4F
:104B7000000B294B9B78DBB2274A63F07F03DBB243
:104B800093704FF00002254BD7E90001FDF7AEFC12
:104B90000346002B05D04FF00002204BC7E900234D
:104BA0000EE04FF000021E4BD7E90001FDF7BCFC00
:104BB0000346002B04D04FF00002194BC7E9002335
:104BC0004FF000024FF00003D7E90001FDF78EFC23
:104BD0000346002B0ED03C687B6883F00045012023
:104BE00045EC104BFFF79EFE02209FED090BFFF7EF
:104BF00099FE09E001209FED060BFFF793FE0220CE
:104C000097ED000BFFF78EFE00BF0837BD46B0BD25
:104C10000000000000000000204C00400000F0BF39
:104C20000000F03F0000000080B500AF2C4B1B7966
:104C3000DBB22B4A43F04003DBB21371284B9B7865
:104C4000DBB2274A23F04003DBB29370244B9B7AFC
:104C5000DBB2234A23F04003DBB29372204B1B7B71
:104C6000DBB21F4A23F04003DBB213731D4B1B68FA
:104C70001846FDF74FF916A3D3E90023FDF7EEFA26
:104C800002460B4610461946FDF796FC03469BB2BA
:104C900003219FED110B1846FFF78EFD114B1B688A
:104CA0001846FDF737F90AA3D3E90023FDF7D6FA32
:104CB00002460B4610461946FDF77EFC03469BB2A2
:104CC00004219FED050B1846FFF776FD00BF80BD60
:104CD000000000000088C340000000000000000049
:104CE000204C004070000020B0B582B000AF87EDCE
:104CF000000B294B9B78DBB2274A43F04003DBB221
:104D000093704FF00002254BD7E90001FDF7EEFB51
:104D10000346002B05D04FF00002204BC7E90023CB
:104D20000EE04FF000021E4BD7E90001FDF7FCFB3F
:104D30000346002B04D04FF00002194BC7E90023B3
:104D40004FF000024FF00003D7E90001FDF7CEFB62
:104D50000346002B0ED03C687B6883F0004503209F
:104D600045EC104BFFF7DEFD04209FED090BFFF72C
:104D7000D9FD09E003209FED060BFFF7D3FD0420CA
:104D800097ED000BFFF7CEFD00BF0837BD46B0BD65
:104D90000000000000000000204C00400000F0BFB8
:104DA0000000F03F80B500AF114B9B78DBB2104A9A
:104DB00023F01003DBB293700D4B9B78DBB20C4AEF
:104DC00043F02003DBB29370094B9B78DBB2084AB7
:104DD00043F01003DBB29370054B9B78DBB2044ABF
:104DE00023F02003DBB2937000F0A8F800BF80BD71
:104DF000404C00400000000080B582B000AF9FED45
:104E0000140BFFF78BFA7860134B9B7ADBB2124AD4
:104E100023F02003DBB293720F4B1B7BDBB20E4AF5
:104E200023F02003DBB213730B4B1B79DBB20A4A6E
:104E300043F02003DBB21371002279680748FFF7C3
:104E40009DFA00BF0837BD4680BD00BFAFF30080AC
:104E50000400600900004940404C0040A54D00009E
:104E600080B582B000AF9FED140BFFF757FA786062
:104E7000134B9B7ADBB2124A23F01003DBB293721E
:104E80000F4B1B7BDBB20E4A23F01003DBB2137314
:104E90000B4B1B79DBB20A4A43F01003DBB21371F0
:104EA0007968084800F06AF800F058F800BF083741
:104EB000BD4680BDAFF3008000000000006A0841DD
:104EC000404C0040C94E000080B582B000AF174B87
:104ED0009B78DBB2154A83F01003DBB29370134B5F
:104EE0009B78DBB203F01003002B1AD0FFF79EFB78
:104EF00078600F4B1B687A6891B20E4A22F8131043
:104F00000B4B1B6801330A4A1360094B1B68802B4B
:104F100007D1094B01221A7000F020F8044B00223F
:104F20001A6000BF0837BD4680BD00BF404C00403E
:104F3000740800206C0700206C08002080B400AFCB
:104F4000054B1B68044A43F00103136000BFBD46D4
:104F50005DF8047B704700BF10E000E080B400AF54
:104F6000054B1B68044A23F00103136000BFBD46D4
:104F70005DF8047B704700BF10E000E080B584B0AE
:104F800000AF786039600023FB60FFF7B3FAF86088
:104F9000114A7B681360FFF7E1FF104A3B68013B51
:104FA00053600E4B00229A600D4B1B6823F07F4329
:104FB0000B4A43F080431360084B1B68074A43F0D9
:104FC00006031360FFF7BAFFF868FFF7A1FA00BF06
:104FD0001037BD4680BD00BF7808002010E000E01B
:104FE00020ED00E080B500AF044B1B680133034A9D
:104FF0001360034B1B68984700BF80BD7C080020EE
:105000007808002080B400AF044B1B680133034ACA
:10501000136000BFBD465DF8047B70478008002028
:10502000B0B59AB000AF9FED940BFFF777F9034648
:10503000002219469448FFF7F7F9944B3B65944BCF
:10504000FB64944BBB6414237B64012387F86730B3
:1050500000233B66904B3B64002387F85F300023BE
:10506000BB6500237B658D4B07F120041D460FCDEA
:105070000FC495E8030084E80300894B07F1080496
:105080001D460FCD0FC495E8030084E80300386C7B
:10509000FCF762FF02460B4643EC102BFFF764FD62
:1050A000386CFCF759FF02460B4643EC102BFFF718
:1050B0001BFECEE001F0BAF90346002B00F0C980D8
:1050C000FB1D184601F0C6F987ED0F0AFB79002B8E
:1050D00003D03B6E01333B6601E000233B663B6E31
:1050E000962B02DD002387F867304FF00003BB6387
:1050F00097F85F30002B61D06A4BDB78DBB2694AEE
:1051000043F00403DBB2D3700023BB6507F108034F
:10511000DFED650A97ED0F0A184600F025FE87EDD2
:105120000E0AD7ED0E7AF0EEE77A97ED127AB4EE2A
:10513000E77AF1EE10FA06DD7A6D7B6C9A4202DDB9
:10514000002387F85F30D7ED0E7AF1EE677A17EE1D
:10515000903A1846FCF700FF02460B4643EC102B32
:10516000FFF7FEFA97ED147AD7ED0E7A27EE277A3D
:10517000D7ED107A77EE277A17EE900AFCF7ECFE5F
:1051800002460B4643EC102BFFF7EEFC97ED147A2A
:10519000D7ED0E7A67EE277A97ED107A77EE677A79
:1051A00017EE900AFCF7D8FE02460B4643EC102B94
:1051B000FFF79AFD7B6D01337B654AE0394BDB7865
:1051C000DBB2384A23F00403DBB2D37000237B65E3
:1051D00007F12003DFED340A97ED0F0A184600F0BF
:1051E000C3FD87ED0E0AD7ED0E7AF0EEE77A97ED64
:1051F000137AB4EEE77AF1EE10FA06D5BA6D7B6C4D
:105200009A4202DD012387F85F30D7ED0E7AF1EE86
:10521000677A17EE903A1846FCF79EFE02460B4658
:1052200043EC102BFFF79CFA386CFCF795FE024616
:105230000B4643EC102BFFF797FC386CFCF78CFE09
:1052400002460B4643EC102BFFF74EFDBB6D0133BE
:10525000BB6597F86730002B7FF42CAF9FED080BF0
:10526000FFF782FC9FED060BFFF73EFD00BF68379E
:10527000BD46B0BDAFF300800000000000408F408D
:10528000000000000000000005500000A69B443B09
:10529000000070410000F0409A99993E9C75000012
:1052A000B4750000004C00400AD7233C80B400AF26
:1052B000044B1B680133034A136000BFBD465DF811
:1052C000047B70478408002080B58CB000AF87ED68
:1052D000010AD7ED017A9FED187A67EE877AFDEE25
:1052E000E77A17EE903AFB62FB6A144A82FB0312DC
:1052F0009211DB17D31ABB62FB6A104A82FB0312BE
:105300009111DA178A1A4FF47A7101FB02F29B1A93
:105310007B627B6A002BB8BF5B4207F10C00BA6A64
:105320000749FDF7DBF907F10C031846FEF758FEB5
:1053300000BF3037BD4680BD00007A44D34D6210B7
:10534000CC75000000000000B0B5A0B000AF9FED2C
:10535000B00BFEF7E3FF034600221946B248FFF701
:1053600063F84FF00003FB654FF00003BB650123BA
:1053700087F87F300023BB67AC4B7B65AC4B3B654C
:105380004FF000037B674FF000033B67A94B1B689E
:10539000FB66FB6EBB66FB6E7B66002387F84F30B7
:1053A000002387F86330A44B07F11C041D460FCD82
:1053B0000FC495E8030084E80300A04B3C1D1D4684
:1053C0000FCD0FC495E8030084E803007B6DFB65F7
:1053D0007B6DBB65DAE101F029F80346002B00F094
:1053E000D581FB1C184601F035F887ED120AFB78D1
:1053F000002B03D0BB6F0133BB6701E00023BB6709
:10540000BB6F322B02DD002387F87F3097F86330C3
:10541000022B7FD0022B00F3B981002B03D0012B8C
:1054200000F01481B2E1864BDB78DBB2844A23F0D2
:105430000103DBB2D370824BDB78DBB2804A43F0EE
:105440000203DBB2D3707E4BDB78DBB27C4A23F005
:105450000403DBB2D3703B1DDFED7A0A97ED120A2D
:10546000184600F081FC87ED0E0A7B6DFB657B6DB5
:10547000BB65FB78002B0FD0D7ED1D7AF1EE677A74
:1054800017EE903A1846FCF767FD02460B4643ECD0
:10549000102BFFF765F910E0D7ED0E7AF1EE677A81
:1054A00017EE903A1846FCF757FD02460B4643ECC0
:1054B000102BFFF755F9BB6B7B67F86DFCF74CFDC4
:1054C00002460B4643EC102BFFF74EFBB86DFCF782
:1054D00043FD02460B4643EC102BFFF705FCD7EDCE
:1054E000127AF0EEE77A17EE900AFCF735FD4AA340
:1054F000D3E90023FDF718F80346002B00D145E15E
:10550000022387F863304B4B1B68BB66494B1B6813
:105510007B663BE14A4BDB78DBB2494A43F001034F
:10552000DBB2D370464BDB78DBB2454A23F0020393
:10553000DBB2D370424BDB78DBB2414A23F0040389
:10554000DBB2D370BA6EFB6ED31A7B64786CFCF757
:10555000E1FC33A3D3E90023FCF756FD02460B46DA
:1055600010461946FDF728F803463B64364BFB63AB
:1055700007F11C03DFED330A97ED120A184600F01D
:10558000F3FB87ED0E0AFB78002B0FD0D7ED1D7AC9
:10559000F1EE677A17EE903A1846FCF7DDFC02460A
:1055A0000B4643EC102BFFF7DBF810E0D7ED0E7A3B
:1055B000F1EE677A17EE903A1846FCF7CDFC0246FA
:1055C0000B4643EC102BFFF7CBF8BB6B7B67F86BFC
:1055D000FCF7C2FC02460B4643EC102BFFF7C4FA63
:1055E000F86BFCF7B9FC02460B4643EC102BFFF7B7
:1055F0007BFB104B1A687B6ED31A3A6C9A4280F090
:10560000C480012387F86330BFE000BFAFF30080A0
:105610000000000000408F40B81E85EB51B8CE3F1F
:10562000A4703D0AD7A3D03FAD520000D7A3F03EEF
:10563000C3F5A83E84080020D4750000EC75000076
:10564000004C00400AD7A33CCDCC4CBE5C4BDB7871
:10565000DBB25B4A23F00103DBB2D370584BDB783B
:10566000DBB2574A23F00203DBB2D370544BDB7832
:10567000DBB2534A43F00403DBB2D37007F11C03DF
:10568000DFED500A97ED120A184600F06DFB87ED2A
:105690000E0A4D4B7B6397ED0D7AD7ED0E7A67EED0
:1056A000277A97ED147A77EE277AC7ED177A97ED78
:1056B0000D7AD7ED0E7A67EE277A97ED147A77EEAA
:1056C000677AC7ED167AD7ED127AF0EEE77A17EE21
:1056D000900AFCF741FC36A3D3E90023FCF706FF50
:1056E0000346002B08D0D7ED1C7AB7EE007A77EE90
:1056F000877AC7ED1C7A02E04FF000033B67D7EDD5
:105700001C7AB2EE047AF4EEC77AF1EE10FA05DDF7
:10571000002387F863302D4B1B68FB66FB78002B5A
:105720000FD0D7ED1D7AF1EE677A17EE903A184652
:10573000FCF712FC02460B4643EC102BFFF710F867
:1057400010E0D7ED0E7AF1EE677A17EE903A184630
:10575000FCF702FC02460B4643EC102BFFF700F867
:10576000BB6B7B67F86DFCF7F7FB02460B4643EC1F
:10577000102BFFF7F9F9B86DFCF7EEFB02460B466C
:1057800043EC102BFFF7B0FA00E000BF97F87F3032
:10579000002B7FF420AE9FED080BFFF7E5F99FED9E
:1057A000060BFFF7A1FA00BF8037BD46B0BD00BFB2
:1057B0009A9999999999C93F00000000000000004A
:1057C000004C00400AD7A33CA69B443B8408002021
:1057D000B0B594B000AF9FED800BFEF79FFD034680
:1057E000002219468648FEF71FFE864B7B634FF06A
:1057F00000033B634FF00003FB62012387F84F3047
:105800000023BB64804BBB624FF000037B6400232A
:105810003B640023FB637D4B3C1D1D460FCD0FC435
:1058200095E8030084E80300BB6A3B63BB6AFB6244
:10583000BFE000F0FBFD0346002B00F0BA80FB1C2C
:10584000184600F007FE87ED090AFB78002B03D00D
:10585000BB6C0133BB6401E00023BB64BB6C322B27
:1058600002DD002387F84F30694BDB78DBB2684AF2
:1058700023F00403DBB2D3703B1DDFED660A97ED26
:10588000090A184600F070FA87ED080AD7ED097A80
:10589000F0EEE77A17EE900AFCF75EFB50A3D3E92F
:1058A0000023FCF7B1FB02460B46104619464EA3F7
:1058B000D3E90023FCF7F2F902460B4610461946DD
:1058C000FCF79AFE0346BB63D7ED0E7AF0EEE77A5B
:1058D00017EE900AFCF740FB45A3D3E90023FCF741
:1058E00005FE0346002B03D0FB6B0133FB6301E095
:1058F0000023FB63FB6B1E2B02DD4FF07A53BB636F
:1059000097ED0D7AD7ED087A67EE277AC7ED077A1B
:1059100097ED0D7AD7ED087A67EE277A97ED0E7A34
:1059200077EE277AC7ED0C7A97ED0D7AD7ED087AE6
:1059300067EE277A97ED0E7A77EE677AC7ED0B7AE6
:105940003B6C01333B64FB78002B0FD0D7ED117A11
:10595000F1EE677A17EE903A1846FCF7FDFA024628
:105960000B4643EC102BFEF7FBFE10E0D7ED087A58
:10597000F1EE677A17EE903A1846FCF7EDFA024618
:105980000B4643EC102BFEF7EBFE3B6A7B64386B57
:10599000FCF7E2FA02460B4643EC102BFFF7E4F863
:1059A000F86AFCF7D9FA02460B4643EC102BFFF7D6
:1059B0009BF997F84F30002B7FF43BAF9FED0E0B18
:1059C000FFF7D2F89FED0C0BFFF78EF900BF5037B1
:1059D000BD46B0BDAFF300800000000000408F4026
:1059E000333333333333E3BFCDCCCCCCCCCCDC3FFF
:1059F0009A9999999999C93F000000000000000008
:105A0000AD520000A69BC43BCDCCCC3E047600003A
:105A1000004C00400AD7A33CB0B5A2B000AF9FED48
:105A2000C00BFEF77BFC034600221946C248FEF776
:105A3000FBFCC24BBB65C24B7B65C24B3B65052380
:105A4000FB643223BB640023C7F884300023C7F80B
:105A500080304FF00003FB674FF00003BB6701236A
:105A600087F8773000233B67B74B7B644FF07A535E
:105A70003B64002387F86F30002387F86E300023E3
:105A8000BB6614237B6600233B660023FB65AF4B9C
:105A900007F11C041D460FCD0FC495E8030084E8F0
:105AA0000300AB4B3C1D1D460FCD0FC495E8030012
:105AB00084E803007B6CFB677B6CBB671FE100F035
:105AC000B5FC0346002B00F01A81FB1C184600F0C1
:105AD000C1FC87ED0F0AFB78002B03D03B6F01332D
:105AE0003B6701E000233B673B6F322B02DD002365
:105AF00087F877304FF00003BB6397F86F30002BC7
