:100000000000012085100000C9100000C910000088
:10001000C9100000C9100000C91000000000000055
:10002000000000000000000000000000C9100000F7
:10003000C910000000000000C910000045280000A1
:10004000C9100000C9100000C9100000C91000004C
:10005000C9100000C9100000C9100000C91000003C
:10006000C9100000C9100000C9100000C91000002C
:10007000C9100000C9100000C9100000C91000001C
:10008000C9100000C9100000C9100000C91000000C
:10009000C9100000C9100000C9100000C9100000FC
:1000A000C9100000611C00000D1D0000C9100000F7
:1000B000C9100000C9100000C9100000C9100000DC
:1000C000C9100000C9100000C9100000C9100000CC
:1000D000C9100000C9100000C9100000C9100000BC
:0400E000C910000043
:1000E8000348044B834202D0034B03B118477047BF
:1000F800700000207000002000000000054806493C
:100108000B1AD90F01EBA301491002D0034B03B11D
:1001180018477047700000207000002000000000A1
:1001280010B5064C237843B9FFF7DAFF044B13B137
:100138000448AFF300800123237010BD7000002035
:10014800000000005C2B000008B5044B1BB10449FB
:100158000448AFF30080BDE80840CFE70000000086
:10016800740000205C2B0000A3F5803A704700BFA4
:10017800154B002B08BF114B9D46FFF7F5FF0021DB
:100188008B460F461148124A121A00F079F80C4BA8
:10019800002B00D098470B4B002B00D0984700202D
:1001A800002104000D000B4800F016F800F044F898
:1001B8002000290001F080F900F014F80000080080
:1001C8000000000000000000000001207000002076
:1001D8007C02002015020000002301461A4618463A
:1001E80000F0A0B808B5074B044613B1002100F091
:1001F800EFF8054B1868836A03B19847204600F06A
:100208004BF900BFD9030000282B000038B5084B74
:10021800084D5B1B9C1007D0043B1D44013C55F85E
:1002280004399847002CF9D1BDE8384002F05EBC8B
:10023800000000000000000070B50D4E0D4D761B4B
:10024800B61006D0002455F8043B01349847A6425E
:10025800F9D1094E094D761B02F042FCB61006D0C2
:10026800002455F8043B01349847A642F9D170BDE3
:100278000000000000000000E82A0000E42A000056
:10028800830730B548D0541E002A3FD0CAB203466F
:1002980001E0013C3AD303F8012B9D07F9D1032C67
:1002A8002DD9CDB245EA05250F2C45EA054536D9A5
:1002B800A4F1100222F00F0C03F1200EE6444FEADD
:1002C800121C03F1100242E9045542E902551032AA
:1002D8007245F8D10CF1010214F00C0F03EB021275
:1002E80004F00F0C13D0ACF1040323F00303043320
:1002F800134442F8045B9342FBD10CF003042CB185
:10030800CAB21C4403F8012B9C42FBD130BD6446A1
:100318001346002CF4D1F9E703461446BFE71A4602
:10032800A446E0E7F0B5264C256885B0064605B337
:100338006C681F2C41DCA6B1D5F8880048B3D0F80A
:10034800007140F824204FF0010C0CFA04FC00EB7B
:1003580084024CEA0707022EC0F80071C2F8803008
:1003680010D0A31C01346C6045F82310002005B0A0
:10037800F0BD1448144D25600028D9D00068C5F890
:100388008800D5E7D0F8043143EA0C03C0F80431FB
:10039800E7E70E480191CDE9022370B14FF484706C
:1003A800AFF3008048B10027C0E94077DDE90223B8
:1003B8006C680199C5F88800C3E74FF0FF30D6E7AD
:1003C80018010020000000008C0000200000000040
:1003D8002DE9F84FDFF8BCA0DAF800702DED028B9C
:1003E800E7B108EE100A89467D68D7F888806C1E48
:1003F80014D407EB8506043608EB8505B9F1000F20
:1004080010D0B8F1000F02D0EB6F4B450AD0013C79
:10041800631CA5F10405A6F10406EFD1BDEC028B1F
:10042800BDE8F88F7B683268013BA34216BF002302
:100438007C603360002AEAD0D7F804B0B8F1000F26
:100448001AD0D8F80001012303FA04F1014213D0AD
:10045800D8F80401014218D155F8041C18EE100A06
:1004680090477A685A450BD1DAF80030BB42CED0B3
:100478001F46002FB8D1D1E790477A685A45F3D084
:10048800DAF80070002FAFD1C8E755F8040C904790
:10049800E7E700BF18010020FEE700BF70B54FF086
:1004A800FF0C4CF4E06C1CEA11541DBF1CEA1355F8
:1004B80094EA0C0F95EA0C0F00F0DEF82C4481EA60
:1004C800030621EA4C5123EA4C5350EA013518BF80
:1004D80052EA033541F4801143F4801338D0A0FB6D
:1004E80002CE4FF00005E1FB02E506F00042E0FB1A
:1004F80003E54FF00006E1FB03569CF0000F18BF20
:100508004EF0010EA4F1FF04B6F5007F64F54074C7
:1005180004D25FEA4E0E6D4146EB060642EAC6215A
:1005280041EA55514FEAC52040EA5E504FEACE2EC7
:10053800B4F1FD0C88BFBCF5E06F1ED8BEF1004FCA
:1005480008BF5FEA500E50F1000041EB045170BD46
:1005580006F0004646EA010140EA020081EA03018A
:10056800B4EB5C04C2BFD4EB0C0541EA045170BD86
:1005780041F480114FF0000E013C00F3AB8014F100
:10058800360FDEBF002001F0004170BDC4F1000449
:10059800203C35DA0C341BDC04F11404C4F12005CA
:1005A80000FA05F320FA04F001FA05F240EA020025
:1005B80001F0004221F0004110EBD37021FA04F65B
:1005C80042EB06015EEA430E08BF20EAD37070BD15
:1005D800C4F10C04C4F1200500FA04F320FA05F074
:1005E80001FA04F240EA020001F0004110EBD37076
:1005F80041F100015EEA430E08BF20EAD37070BDE6
:10060800C4F1200500FA05F24EEA020E20FA04F3BE
:1006180001FA05F243EA020321FA04F001F000416D
:1006280021FA04F220EA020000EBD3705EEA430EDE
:1006380008BF20EAD37070BD94F0000F0FD101F00D
:100648000046400041EB010111F4801F08BF013C46
:10065800F7D041EA060195F0000F18BF704703F084
:100668000046520043EB030313F4801F08BF013D0B
:10067800F7D043EA0603704794EA0C0F0CEA1355C7
:1006880018BF95EA0C0F0CD050EA410618BF52EA81
:100698004306D1D181EA030101F000414FF0000087
:1006A80070BD50EA410606BF1046194652EA430695
:1006B80019D094EA0C0F02D150EA013613D195EA09
:1006C8000C0F05D152EA03361CBF104619460AD151
:1006D80081EA030101F0004141F0FE4141F470015B
:1006E8004FF0000070BD41F0FE4141F4780170BD4B
:1006F80081F0004102E000BF83F0004330B54FEACB
:1007080041044FEA430594EA050F08BF90EA020F37
:100718001FBF54EA000C55EA020C7FEA645C7FEACA
:10072800655C00F0E2804FEA5454D4EB5555B8BFED
:100738006D420CDD2C4480EA020281EA030382EA5E
:10074800000083EA010180EA020281EA0303362DF0
:1007580088BF30BD11F0004F4FEA01314FF4801CC3
:100768004CEA113102D0404261EB410113F0004FD5
:100778004FEA03334CEA133302D0524263EB43038C
:1007880094EA050F00F0A780A4F10104D5F1200E2A
:100798000DDB02FA0EFC22FA05F2801841F1000185
:1007A80003FA0EF2801843FA05F359410EE0A5F159
:1007B80020050EF1200E012A03FA0EFC28BF4CF08A
:1007C800020C43FA05F3C01851EBE37101F0004540
:1007D80007D54FF0000EDCF1000C7EEB00006EEB4D
:1007E8000101B1F5801F1BD3B1F5001F0CD34908D7
:1007F8005FEA30004FEA3C0C04F101044FEA44522E
:1008080012F5800F80F09A80BCF1004F08BF5FEAB4
:10081800500C50F1000041EB045141EA050130BD94
:100828005FEA4C0C404141EB0101013C28BFB1F5A6
:10083800801FE9D291F0000F04BF01460020B1FAF1
:1008480081F308BF2033A3F10B03B3F120020CDAC4
:100858000C3208DD02F1140CC2F10C0201FA0CF0A2
:1008680021FA02F10CE002F11402D8BFC2F1200C07
:1008780001FA02F120FA0CFCDCBF41EA0C019040BD
:10088800E41AA2BF01EB0451294330BD6FEA040406
:100898001F3C1CDA0C340EDC04F11404C4F12002F1
:1008A80020FA04F001FA02F340EA030021FA04F303
:1008B80045EA030130BDC4F10C04C4F1200220FA5A
:1008C80002F001FA04F340EA0300294630BD21FA98
:1008D80004F0294630BD94F0000F83F4801306BF5E
:1008E80081F480110134013D4EE77FEA645C18BF52
:1008F8007FEA655C29D094EA050F08BF90EA020FE9
:1009080005D054EA000C04BF1946104630BD91EAE0
:10091800030F1EBF0021002030BD5FEA545C05D1E3
:100928004000494128BF41F0004130BD14F5800422
:100938003CBF01F5801130BD01F0004545F0FE4196
:1009480041F470014FF0000030BD7FEA645C1ABFCB
:10095800194610467FEA655C1CBF0B46024650EA02
:10096800013406BF52EA033591EA030F41F400212E
:1009780030BD00BF90F0000F04BF0021704730B5B4
:100988004FF4806404F132044FF000054FF0000189
:1009980050E700BF90F0000F04BF0021704730B54A
:1009A8004FF4806404F1320410F0004548BF40421F
:1009B8004FF000013EE700BF42004FEAE2014FEA74
:1009C80031014FEA02701FBF12F07F4393F07F4F4F
:1009D80081F06051704732F07F4208BF704793F052
:1009E8007F4F04BF41F40021704730B54FF4607465
:1009F80001F0004521F000411CE700BF50EA010268
:100A080008BF704730B54FF000050AE050EA010210
:100A180008BF704730B511F0004502D5404261EB80
:100A280041014FF4806404F132045FEA915C3FF4C1
:100A3800D8AE4FF003025FEADC0C18BF03325FEA5E
:100A4800DC0C18BF033202EBDC02C2F1200300FA0F
:100A580003FC20FA02F001FA03FE40EA0E0021FA34
:100A680002F11444BDE600BF70B54FF0FF0C4CF422
:100A7800E06C1CEA11541DBF1CEA135594EA0C0FD4
:100A880095EA0C0F00F0DEF82C4481EA030621EA0F
:100A98004C5123EA4C5350EA013518BF52EA03354A
:100AA80041F4801143F4801338D0A0FB02CE4FF0FC
:100AB8000005E1FB02E506F00042E0FB03E54FF02C
:100AC8000006E1FB03569CF0000F18BF4EF0010E24
:100AD800A4F1FF04B6F5007F64F5407404D25FEA20
:100AE8004E0E6D4146EB060642EAC62141EA5551D3
:100AF8004FEAC52040EA5E504FEACE2EB4F1FD0C15
:100B080088BFBCF5E06F1ED8BEF1004F08BF5FEA92
:100B1800500E50F1000041EB045170BD06F0004644
:100B280046EA010140EA020081EA0301B4EB5C04F1
:100B3800C2BFD4EB0C0541EA045170BD41F48011E9
:100B48004FF0000E013C00F3AB8014F1360FDEBF0E
:100B5800002001F0004170BDC4F10004203C35DAEA
:100B68000C341BDC04F11404C4F1200500FA05F36D
:100B780020FA04F001FA05F240EA020001F000420E
:100B880021F0004110EBD37021FA04F642EB060184
:100B98005EEA430E08BF20EAD37070BDC4F10C04AE
:100BA800C4F1200500FA04F320FA05F001FA04F272
:100BB80040EA020001F0004110EBD37041F100015E
:100BC8005EEA430E08BF20EAD37070BDC4F1200569
:100BD80000FA05F24EEA020E20FA04F301FA05F2D1
:100BE80043EA020321FA04F001F0004121FA04F279
:100BF80020EA020000EBD3705EEA430E08BF20EA49
:100C0800D37070BD94F0000F0FD101F00046400082
:100C180041EB010111F4801F08BF013CF7D041EA04
:100C2800060195F0000F18BF704703F00046520008
:100C380043EB030313F4801F08BF013DF7D043EAD9
:100C48000603704794EA0C0F0CEA135518BF95EA8F
:100C58000C0F0CD050EA410618BF52EA4306D1D116
:100C680081EA030101F000414FF0000070BD50EA35
:100C7800410606BF1046194652EA430619D094EABF
:100C88000C0F02D150EA013613D195EA0C0F05D1A9
:100C980052EA03361CBF104619460AD181EA0301FD
:100CA80001F0004141F0FE4141F470014FF00000B5
:100CB80070BD41F0FE4141F4780170BD70B54FF050
:100CC800FF0C4CF4E06C1CEA11541DBF1CEA1355D0
:100CD80094EA0C0F95EA0C0F00F0A7F8A4EB0504B2
:100CE80081EA030E52EA03354FEA013100F08880A9
:100CF8004FEA03334FF0805545EA131343EA126372
:100D08004FEA022245EA111545EA10654FEA002626
:100D18000EF000419D4208BF964244F1FD0404F5DF
:100D2800407402D25B084FEA3202B61A65EB03053B
:100D38005B084FEA32024FF480104FF4002CB6EBF8
:100D4800020E75EB030E22BFB61A754640EA0C0078
:100D58005B084FEA3202B6EB020E75EB030E22BFB8
:100D6800B61A754640EA5C005B084FEA3202B6EBF9
:100D7800020E75EB030E22BFB61A754640EA9C00B8
:100D88005B084FEA3202B6EB020E75EB030E22BF88
:100D9800B61A754640EADC0055EA060E18D04FEA46
:100DA800051545EA16754FEA06164FEAC30343EAE6
:100DB80052734FEAC2025FEA1C1CC0D111F4801FB3
:100DC8000BD141EA00014FF000004FF0004CB6E7AC
:100DD80011F4801F04BF01430020B4F1FD0C88BF4B
:100DE800BCF5E06F3FF6AFAEB5EB030C04BFB6EB56
:100DF800020C5FEA500C50F1000041EB045170BD49
:100E08000EF0004E4EEA113114EB5C04C2BFD4EB75
:100E18000C0541EA045170BD41F480114FF0000EF9
:100E2800013C90E645EA060E8DE60CEA135594EA75
:100E38000C0F08BF95EA0C0F3FF43BAF94EA0C0F78
:100E48000AD150EA01347FF434AF95EA0C0F7FF4ED
:100E580025AF104619462CE795EA0C0F06D152EA41
:100E680003353FF4FDAE1046194622E750EA410625
:100E780018BF52EA43067FF4C5AE50EA41047FF436
:100E88000DAF52EA43057FF4EBAE12E74FF0FF3C9B
:100E980006E000BF4FF0010C02E000BF4FF0010C6C
:100EA8004DF804CD4FEA410C7FEA6C5C4FEA430CE5
:100EB80018BF7FEA6C5C1BD001B050EA410C0CBF34
:100EC80052EA430C91EA030F02BF90EA020F002096
:100ED800704710F1000F91EA030F58BF994208BFFD
:100EE80090422CBFD8176FEAE37040F001007047BA
:100EF8004FEA410C7FEA6C5C02D150EA013C07D111
:100F08004FEA430C7FEA6C5CD6D152EA033CD3D05B
:100F18005DF8040B704700BF8446104662468C4655
:100F28001946634600E000BF01B5FFF7B7FF002888
:100F380048BF10F1000F01BD4DF808EDFFF7F4FFB1
:100F48000CBF012000205DF808FB00BF4DF808ED3C
:100F5800FFF7EAFF34BF012000205DF808FB00BF5F
:100F68004DF808EDFFF7E0FF94BF012000205DF881
:100F780008FB00BF4DF808EDFFF7CEFF94BF012036
:100F880000205DF808FB00BF4DF808EDFFF7C4FF2F
:100F980034BF012000205DF808FB00BF4A0011D2D1
:100FA80012F5001211D20DD56FF47873B3EB6252BB
:100FB8000ED44FEAC12343F0004343EA505323FAC7
:100FC80002F070474FF00000704750EA013002D13C
:100FD8004FF0FF3070474FF0000070474FEA410272
:100FE800B2F1E04324BFB3F5001CDCF1FE5C0DD97F
:100FF80001F0004C4FEAC0024CEA5070B2F1004FC9
:1010080040EB830008BF20F00100704711F0804FCB
:1010180021D113F13872BCBF01F00040704741F490
:1010280080114FEA5252C2F11802C2F1200C10FA94
:101038000CF320FA02F018BF40F001004FEAC12378
:101048004FEAD32303FA0CFC40EA0C0023FA02F31C
:101058004FEA4303CCE77FEA625307D150EA0133F2
:101068001EBF4FF0FE4040F44000704701F00040C2
:1010780040F0FE4040F40000704700BF80B582B0E9
:1010880000AF0C4B7B600C4B3B6007E07A68131D8C
:101098007B603B68191D396012681A603B68074A13
:1010A8009342F3D300F094F9FFF762F800BF0837D2
:1010B800BD4680BD682B00000000002070000020A5
:1010C80080B400AFFEE7000080B489B000AFA44B45
:1010D8009B681B0C03F00703FB600122FB6802FA04
:1010E80003F3FB729E4B9B6803F007037B607B68EE
:1010F800052B00F2638101A252F823F01D110000B4
:101108009D110000AF110000DD110000FD1200006C
:101118000D130000934B1B78DBB2002B31D0904BA2
:1011280046F65A121A608E4B1B6D8D4A43F0010326
:1011380013658B4B01221A608A4B1B78DBB2002B9C
:1011480016D0894B1B78DBB2002B08D0FB7A4FF402
:10115800FA3292FBF3F31A46844B1A602EE1FB7ABB
:101168004FF4FA4292FBF3F31A46804B1A6025E1DA
:10117800FB7A4FF4004292FBF3F31A467B4B1A605A
:101188001CE1FB7A4FF4004292FBF3F31A46774BCB
:101198001A6013E1FB7A42F2107292FBF3F31A46DB
:1011A800724B1A600AE1704B1B78DBB2002B08D037
:1011B800FB7A4FF4FA3292FBF3F31A466B4B1A6040
:1011C800FCE0FB7A4FF4FA4292FBF3F31A46674BC2
:1011D8001A60F3E0624B5B681BB2C3F309037B82BE
:1011E8005F4B5B6803F4E023B3F5A02F29D0B3F578
:1011F800A02F29D8B3F5802F20D0B3F5802F23D87E
:10120800B3F5403F17D0B3F5403F1DD8B3F5003FC5
:101218000ED0B3F5003F17D8002B03D0B3F5803FAD
:1012280003D011E0524B7B610EE0524B7B610BE027
:10123800514B7B6108E0514B7B6105E0504B7B6172
:1012480002E0504B7B6100BFB7F91230002B03D18D
:10125800464A7B691360B1E07B8A03F48053002B14
:1012680005D07B8A6FEA03536FEA13537B82464BA0
:101278001B78DBB2002B06D0444B1B68FB61444B48
:10128800DB6EBB6105E0434B1B68FB61404BDB6CCD
:10129800BB617B6907EE903AF8EE676AB7F91230DE
:1012A80007EE903AB8EEE77AD7ED077A27EE276A85
:1012B800BB69C3F5407307EE903AB8EEE77AD7ED0D
:1012C800077A67EE277AB7EE007A77EE877AB2EE7A
:1012D800007A27EE877AC6EE077AB7EE007A37EEFD
:1012E800677AC6EE877AFCEEE77A17EE902A1F4BEC
:1012F8001A6063E0FB7A224A92FBF3F31A461B4B0F
:101308001A605BE0244B1B78DBB2002B4ED0144BE9
:1013180046F65A121A60124B1B6D114A43F002032B
:1013280013650F4B01221A601B4B1B78DBB2002B95
:1013380034D00D4B1B78DBB2002B08D0FB7A4FF46E
:10134800FA3292FBF3F31A46084B1A6035E0FB7A3F
:101358004FF4FA4292FBF3F31A46044B1A602CE05E
:1013680000040140008920423C8620426C00002095
:1013780060E31600C0C62D00808D5B00001BB7001F
:1013880000366E01006CDC02D880204284102000F8
:10139800001020006410200004892042FB7A0A4AC9
:1013A80092FBF3F31A46094B1A6006E0FB7A064AE9
:1013B80092FBF3F31A46054B1A6000BF00BF2437AF
:1013C800BD465DF8047B7047006CDC026C000020B1
:1013D80080B400AF294BD3F88830284A43F470030F
:1013E800C2F88830264B4FF4B5429A81254B8022AB
:1013F8005A6100BF244B5B6803F48073002BF9D15A
:10140800214B224A1A6000BF1F4B5B6803F48073AC
:10141800002BF9D11E4B1B6923F470431C4A43F47B
:10142800805313611A4B5B6923F47043184A43F4E1
:1014380080535361174B46F65A121A60154B4FF4F6
:10144800A0225A60134B9B6823F00713114A43F0FC
:10145800030393600F4B00221A600D4B1B690C4A63
:1014680043F0300313610A4B5B69094A43F03003C8
:10147800536100BFBD465DF8047B704700ED00E096
:1014880000480040003004E00000014001005A69B3
:10149800001001400004014080B500AF054B002258
:1014A8001A7001F0D5F801F007F900F095FC00BFBB
:1014B80080BD00BF6402002080B500AF00F0ABF92A
:1014C800354800F0BBF900F0D3F900F003FA00F05A
:1014D80083FA00F001FD00F013FF00F0D1FFFFF7E1
:1014E800DBFF2E4BDB78DBB22C4A23F00103DBB2A7
:1014F800D3702A4BDB78DBB2284A23F00203DBB235
:10150800D370264BDB78DBB2244A23F00403DBB22A
:10151800D37000F009FB0346002B09D01F4BDB7882
:10152800DBB21E4A43F00103DBB2D37001F01CFAB0
:1015380000F00EFB0346002B09D0184BDB78DBB21A
:10154800164A43F00203DBB2D37001F083FA134B5F
:10155800DB78DBB2114A23F00103DBB2D3700F4B07
:10156800DB78DBB20D4A23F00203DBB2D3700B4BFE
:10157800DB78DBB2094A23F00403DBB2D3709FEDBA
:10158800040B00F01DFF9FED020B00F0D9FFC0E730
:1015980000000000000000002C2B0000004C004060
:1015A80080B400AF1E4B1B889BB21D4A43F0C10399
:1015B8009BB213801B4B1B681B4AA2FB03231A0C0C
:1015C800174B92B2DA80164B1B899BB2144A03F070
:1015D8000F039BB21381154B9B7ADBB2134A43F07E
:1015E8000C03DBB29372114B1B7BDBB20F4A23F067
:1015F8000C03DBB213730A4B1B889BB2084A23F017
:1016080001039BB21380064B5B8B9BB2044A23F009
:101618000F039BB2538300BFBD465DF8047B704740
:10162800001000406C000020C5B3A291004C00409F
:1016380080B400AF00BF084B9B8B9BB203F0010343
:10164800002BF8D0044B9B899BB2DBB21846BD46F1
:101658005DF8047B704700BF0010004080B400AF05
:10166800054B9B8B9BB2DBB203F00103DBB2184640
:10167800BD465DF8047B70470010004080B483B01D
:1016880000AF0346FB7100BF084B9B8B9BB203F076
:101698000203002BF8D0054BFA7992B2DA8100BF29
:1016A8000C37BD465DF8047B704700BF0010004052
:1016B80080B582B000AF786006E07B685A1C7A601B
:1016C8001B781846FFF7DAFF7B681B78002BF4D1EC
:1016D80000BF00BF0837BD4680BD000080B400AF22
:1016E8001E4B1B889BB21D4A43F0C1039BB213805B
:1016F8001B4B1B681B4AA2FB03231A0C174B92B205
:10170800DA80164B1B899BB2144A03F00F039BB275
:101718001381154B9B7ADBB2134A43F00C03DBB2FF
:101728009372114B1B7BDBB20F4A23F00C03DBB225
:1017380013730A4B1B889BB2084A23F001039BB220
:101748001380064B5B8B9BB2044A23F00F039BB2BA
:10175800538300BFBD465DF8047B70470018004006
:101768006C000020C5B3A291204C004080B400AFAB
:1017780000BF084B9B8B9BB203F00103002BF8D0F2
:10178800044B9B899BB2DBB21846BD465DF8047BCF
:10179800704700BF0018004080B400AF054B9B8B1A
:1017A8009BB2DBB203F00103DBB21846BD465DF81D
:1017B800047B70470018004080B483B000AF034634
:1017C800FB7100BF084B9B8B9BB203F00203002BFD
:1017D800F8D0054BFA7992B2DA8100BF0C37BD46D2
:1017E8005DF8047B704700BF0018004080B582B0E8
:1017F80000AF786006E07B685A1C7A601B78184650
:10180800FFF7DAFF7B681B78002BF4D100BF00BF1D
:101818000837BD4680BD80B500AFFFF7C1FE00BFE9
:1018280080BD80B582B000AF0346FB71FB791846D6
:10183800FFF724FF00BF0837BD4680BD80B582B0E2
:1018480000AF78607868FFF733FF00BF0837BD4600
:1018580080BD80B500AFFFF7EBFE0346184680BD9C
:1018680080B500AFFFF7FAFE0346184680BD0000BA
:1018780080B400AF164B9B7ADBB2154A23F0010304
:10188800DBB29372124B1B7BDBB2114A23F00103CC
:10189800DBB213730E4B1B7ADBB20D4A43F0010324
:1018A800DBB213720A4B1B79DBB2094A43F001031E
:1018B800DBB21371064B9B78DBB2054A23F00103B8
:1018C800DBB2937000BFBD465DF8047B704700BF74
:1018D800004C004080B400AF3E4BDB7ADBB23D4A9F
:1018E80023F00103DBB2D3723A4B5B7BDBB2394A9C
:1018F80023F00103DBB25373364BDB7ADBB2354A94
:1019080023F00403DBB2D372324B5B7BDBB2314A88
:1019180023F00403DBB253732E4BDB7ADBB22D4A80
:1019280023F00203DBB2D3722A4B5B7BDBB2294A7A
:1019380023F00203DBB25373264B5B7ADBB2254AF2
:1019480043F00103DBB25372224B5B7ADBB2214ACC
:1019580043F00203DBB253721E4B5B7ADBB21D4AC3
:1019680043F00403DBB253721A4B5B79DBB2194ABA
:1019780043F00103DBB25371164B5B79DBB2154AB6
:1019880043F00203DBB25371124B5B79DBB2114AAD
:1019980043F00403DBB253710E4BDB78DBB20D4A24
:1019A80023F00103DBB2D3700A4BDB78DBB2094AC0
:1019B80023F00203DBB2D370064BDB78DBB2054AB7
:1019C80023F00403DBB2D37000BFBD465DF8047B8F
:1019D800704700BF004C004080B483B000AF1223B2
:1019E800FB711E4B9B7ADBB25AB297F90730DB4387
:1019F8005BB213405AB2194BD2B29A72174B1B7B87
:101A0800DBB25AB297F90730DB435BB213405AB2E4
:101A1800124BD2B21A73114B1B79DBB25AB297F937
:101A28000730DB435BB213405AB20C4BD2B21A7187
:101A38000A4B9B78DAB20949FB791343DBB28B7006
:101A4800064B9B79DAB20549FB791343DBB28B71FC
:101A580000BF0C37BD465DF8047B7047004C004062
:101A680080B400AF164B9B7ADBB2154A23F0020311
:101A7800DBB29372124B1B7BDBB2114A23F00203D9
:101A8800DBB213730E4B1B79DBB20D4A23F0020352
:101A9800DBB213710A4B9B78DBB2094A43F00203AD
:101AA800DBB29370064B9B79DBB2054A43F0020325
:101AB800DBB2937100BFBD465DF8047B704700BF81
:101AC800004C004080B400AF164B9B7ADBB2154A3D
:101AD80023F01003DBB29372124B1B7BDBB2114A6B
:101AE80023F01003DBB213730E4B1B79DBB20D4AE4
:101AF80023F01003DBB213710A4B9B78DBB2094A5F
:101B080043F01003DBB29370064B9B79DBB2054AB6
:101B180043F01003DBB2937100BFBD465DF8047B50
:101B2800704700BF004C004080B400AF074B1B78E3
:101B3800DBB203F00203002B0CBF01230023DBB24E
:101B48001846BD465DF8047B704700BF004C004056
:101B580080B400AF074B1B78DBB203F01003002BF7
:101B68000CBF01230023DBB21846BD465DF8047B99
:101B7800704700BF004C004080B584B000AF87EDCF
:101B8800000B4FF000024FF00003C7E902230B4B94
:101B98001B681846FEF7EEFED7E90023FFF78EF81C
:101BA80002460B46C7E90223D7E90201FFF7F6F917
:101BB800034618461037BD4680BD00BF6C000020A4
:101BC80080B400AF034B01221A7000BFBD465DF818
:101BD800047B70473801002080B586B000AFF860FC
:101BE800B9601346FB71154ABB68136000F0B0F882
:101BF8007861134AFB681360124A104B1B68136024
:101C0800114B00221A60FB7963F01D03DAB20F4B07
:101C18001A600F4B1B6823F47F430D4A43F480433B
:101C280013600C4B1B680B4A43F000731360786910
:101C380000F09CF800BF1837BD4680BD3001002079
:101C48002801002000C000400CC0004008C000402F
:101C580018E400E000E100E080B500AF054B002289
:101C68001A60054B1B689847044A054B1B681360AC
:101C780000BF80BD0CC000402801002000C000400B
:101C88003001002080B586B000AFF860B960134617
:101C9800FB71154ABB68136000F05AF87861134A63
:101CA800FB681360124A104B1B681360114B00222B
:101CB8001A60FB7963F01D03DAB20F4B1A600F4B01
:101CC8001B6823F47F430D4A43F4804313600C4B95
:101CD8001B680B4A43F080631360786900F046F88C
:101CE80000BF1837BD4680BD340100202C010020FC
:101CF80020C000402CC0004028C0004018E400E08C
:101D080000E100E080B500AF054B00221A60054BEA
:101D18001B689847044A054B1B68136000BF80BDC9
:101D28002CC000402C01002020C0004034010020BD
:101D380080B400AF72B600BFBD465DF8047B704743
:101D480080B400AF62B600BFBD465DF8047B704743
:101D580080B483B000AFEFF3108372B67B607B680A
:101D680018460C37BD465DF8047B704780B483B0D5
:101D780000AF786080F3108800BF0C37BD465DF86F
:101D8800047B704780B400AF30BF00BFBD465DF82C
:101D9800047B704780B483B000AF78607B68013BF8
:101DA800FDD100BF0C37BD465DF8047B704780B598
:101DB80082B000AF786006E04FF4FA50FFF7EAFF10
:101DC8007B68013B7B607B68002BF5D100BF00BFBF
:101DD8000837BD4680BD000080B400AF00BF264B69
:101DE8001B889BB203F48063002BF8D1224B392265
:101DF8001A8000BF204B1B889BB203F48053002B32
:101E0800F8D01E4B1B681D4A23F00203136000BF65
:101E18001A4B1B6803F48033002BF9D1174B184A6F
:101E28001A60164B30225A60144B4FF4C3729A61F1
:101E3800124B0022C3F83C21104B0022C3F840216A
:101E4800104BDB7ADBB20F4A63F07F03DBB2D3724D
:101E58000C4B5B7BDBB20B4A63F07F03DBB2537343
:101E6800064B1B68054A43F00203136000BFBD46DA
:101E78005DF8047B704700BF00300040002001403F
:101E880010332004204C004080B483B000AF00BF62
:101E9800104B1B6803F48033002BF9D10D4B1B68E2
:101EA8000C4A43F00103136000BF0A4BD3F84431D6
:101EB80003F00103002BF8D0064BD3F89830C3F396
:101EC8000D037B607B6818460C37BD465DF8047BC4
:101ED800704700BF0020014080B500AF0E4B1B6863
:101EE8001846FEF747FD4FF000020C4BFEF7E6FEE2
:101EF80002460B4610461946FFF750F803469BB2B8
:101F080001219FED030B184600F060F900BF80BD6A
:101F1800343333333333B33F6C0000200000A9401F
:101F280080B584B000AF87ED000B4FF000024FF092
:101F38000003D7E90001FFF709F80346002B06D094
:101F48004FF000024FF00003C7E900230EE04FF006
:101F58000002174BD7E90001FFF716F80346002BDC
:101F680004D04FF00002124BC7E900230EA3D3E9B7
:101F78000023D7E90001FEF777FD02460B4610461D
:101F8800194609A3D3E90023FEF7B8FB02460B461E
:101F9800C7E90223012097ED020B00F087F900BF83
:101FA8001037BD4680BD00BF9A9999999999A93F64
:101FB8000000F03F0000000080B584B000AF87ED5E
:101FC800000B0FA3D3E90023D7E90001FEF74CFD6E
:101FD80002460B46104619460BA3D3E90023FEF729
:101FE8008DFB02460B46C7E9022397ED020BFFF76C
:101FF80097FF00BF1037BD4680BD00BFAFF300801C
:10200800EC51B81E85EB913F9A9999999999E13FBE
:1020180080B586B000AF034687ED000B0A46FB810A
:102028001346BB81BB89012B18D1524B5B79DBB2BC
:10203800504A43F01003DBB253714E4BDB7ADBB2EC
:102048004C4A43F01003DBB2D3724A4B5B7BDBB2E2
:10205800484A23F01003DBB2537356E0BB89022BC6
:1020680018D1444B5B79DBB2424A43F02003DBB220
:102078005371404BDB7ADBB23E4A43F02003DBB2BC
:10208800D3723C4B5B7BDBB23A4A23F02003DBB2D2
:1020980053733AE0BB89032B18D1364B5B79DBB21B
:1020A800344A43F04003DBB25371324BDB7ADBB284
:1020B800304A43F04003DBB2D3722E4B5B7BDBB27A
:1020C8002C4A23F04003DBB253731EE0BB89042B78
:1020D80018D1284B5B79DBB2264A63F07F03DBB269
:1020E8005371244BDB7ADBB2224A63F07F03DBB205
:1020F800D372204B5B7BDBB21E4A03F07F03DBB25B
:10210800537302E06FF0010330E0BB89FA891A4982
:1021180041F823204FF08042FB8953824FF08042E0
:10212800BB895B001344C0225A80BB89124A52F80B
:1021380023301846FEF71EFCD7E90023FEF794FC6F
:1021480002460B4610461946FEF728FF0346FB8257
:102158004FF08042BB8908335B001344FA8A5A80E7
:102168004FF080434FF404721A8000231846183742
:10217800BD4680BD004C00403C01002080B586B0C3
:1021880000AF87ED020B0346FB80FB880E4A52F82E
:1021980023301846FEF7EEFBD7E90223FEF764FC6E
:1021A80002460B4610461946FEF7F8FE0346FB8228
:1021B8004FF08042FB8808335B001344FA8A5A8048
:1021C80000BF1837BD4680BD3C01002080B586B0F1
:1021D80000AF034687ED000B0A46FB811346BB811F
:1021E800BB89012B55D12E4B1B79DBB22C4A43F00E
:1021F8004003DBB213712A4B9B7ADBB2284A43F0C7
:102208004003DBB29372264B1B7BDBB2244A23F0DC
:102218004003DBB21373BB89FA89224941F82320B2
:10222800214AFB895382204ABB895B001344C022A0
:102238005A80BB891B4A52F823301846FEF79AFB8E
:10224800D7E90023FEF710FC02460B461046194654
:10225800FEF7A4FE0346FB82134ABB8908335B00E2
:102268001344FA8A5A80104B4FF404721A800E4BAA
:102278001B889BB20C4A43F0C0039BB213800A4BE5
:102288001B8C9BB2084A43F007039BB213840023BC
:1022980001E06FF0010318461837BD4680BD00BF46
:1022A800404C0040500100200008004080B586B036
:1022B80000AF87ED020B0346FB80FB880E4A52F8FD
:1022C80023301846FEF756FBD7E90223FEF7CCFB6E
:1022D80002460B4610461946FEF760FE0346FB828F
:1022E800064AFB8808335B001344FA8A5A8000BF09
:1022F8001837BD4680BD00BF5001002000080040CF
:1023080080B500AF2C4B1B79DBB22B4A63F07F03FF
:10231800DBB21371284B9B78DBB2274A03F07F03AB
:10232800DBB29370244B9B7ADBB2234A03F07F0322
:10233800DBB29372204B1B7BDBB21F4A03F07F0397
:10234800DBB213731D4B1B681846FEF713FB16A36D
:10235800D3E90023FEF7B2FC02460B4610461946A5
:10236800FEF71CFE03469BB201219FED110B184698
:10237800FFF74EFE114B1B681846FEF7FBFA0AA33F
:10238800D3E90023FEF79AFC02460B46104619468D
:10239800FEF704FE03469BB202219FED050B18468B
:1023A800FFF736FE00BF80BD000000000088C34074
:1023B8000000000000000000204C00406C000020DD
:1023C800B0B582B000AF87ED000B294B9B78DBB22C
:1023D800274A63F07F03DBB293704FF00002254B6E
:1023E800D7E90001FEF7B2FD0346002B05D04FF0F8
:1023F8000002204BC7E900230EE04FF000021E4BFD
:10240800D7E90001FEF7C0FD0346002B04D04FF0CA
:102418000002194BC7E900234FF000024FF00003F8
:10242800D7E90001FEF792FD0346002B0ED03C6869
:102438007B6883F00045012045EC104BFFF79EFEBA
:1024480002209FED090BFFF799FE09E001209FED9F
:10245800060BFFF793FE022097ED000BFFF78EFEA9
:1024680000BF0837BD46B0BD0000000000000000F6
:10247800204C00400000F0BF0000F03F00000000CA
:1024880080B500AF2C4B1B79DBB22B4A43F04003DD
:10249800DBB21371284B9B78DBB2274A23F0400349
:1024A800DBB29370244B9B7ADBB2234A23F04003C0
:1024B800DBB29372204B1B7BDBB21F4A23F0400335
:1024C800DBB213731D4B1B681846FEF753FA16A3AD
:1024D800D3E90023FEF7F2FB02460B4610461946E5
:1024E800FEF75CFD03469BB203219FED110B1846D6
:1024F800FFF78EFD114B1B681846FEF73BFA0AA33F
:10250800D3E90023FEF7DAFB02460B4610461946CC
:10251800FEF744FD03469BB204219FED050B1846C8
:10252800FFF776FD00BF80BD000000000088C340B3
:102538000000000000000000204C00406C0000205B
:10254800B0B582B000AF87ED000B294B9B78DBB2AA
:10255800274A43F04003DBB293704FF00002254B4B
:10256800D7E90001FEF7F2FC0346002B05D04FF037
:102578000002204BC7E900230EE04FF000021E4B7B
:10258800D7E90001FEF700FD0346002B04D04FF009
:102598000002194BC7E900234FF000024FF0000377
:1025A800D7E90001FEF7D2FC0346002B0ED03C68A9
:1025B8007B6883F00045032045EC104BFFF7DEFDF8
:1025C80004209FED090BFFF7D9FD09E003209FEDDB
:1025D800060BFFF7D3FD042097ED000BFFF7CEFDA8
:1025E80000BF0837BD46B0BD000000000000000075
:1025F800204C00400000F0BF0000F03F80B500AF65
:10260800114B9B78DBB2104A23F01003DBB29370B6
:102618000D4B9B78DBB20C4A43F02003DBB293707E
:10262800094B9B78DBB2084A43F01003DBB2937086
:10263800054B9B78DBB2044A23F02003DBB293708E
:1026480000F0A8F800BF80BD404C0040000000002A
:1026580080B582B000AF9FED140BFFF78DFA78605C
:10266800134B9B7ADBB2124A23F02003DBB293723E
:102678000F4B1B7BDBB20E4A23F02003DBB2137334
:102688000B4B1B79DBB20A4A43F02003DBB2137110
:10269800002279680748FFF79FFA00BF0837BD4650
:1026A80080BD00BFAFF3008004006009000049400E
:1026B800404C00400526000080B582B000AF9FED79
:1026C800140BFFF759FA7860134B9B7ADBB2124A66
:1026D80023F01003DBB293720F4B1B7BDBB20E4A65
:1026E80023F01003DBB213730B4B1B79DBB20A4ADE
:1026F80043F01003DBB213717968084800F06AF8F8
:1027080000F058F800BF0837BD4680BDAFF3008021
:1027180000000000006A0841404C004029270000E2
:1027280080B582B000AF174B9B78DBB2154A83F0B7
:102738001003DBB29370134B9B78DBB203F01003EA
:10274800002B1AD0FFF7A0FB78600F4B1B687A6844
:1027580091B20E4A22F813100B4B1B6801330A4A38
:102768001360094B1B68802B07D1094B01221A7093
:1027780000F020F8044B00221A6000BF0837BD465D
:1027880080BD00BF404C00406C0200206401002066
:102798006402002080B400AF054B1B68044A43F074
:1027A8000103136000BFBD465DF8047B704700BF9E
:1027B80010E000E080B400AF054B1B68044A23F02A
:1027C8000103136000BFBD465DF8047B704700BF7E
:1027D80010E000E080B584B000AF78603960002375
:1027E800FB60FFF7B5FAF860114A7B681360FFF7E2
:1027F800E1FF104A3B68013B53600E4B00229A6090
:102808000D4B1B6823F07F430B4A43F08043136052
:10281800084B1B68074A43F006031360FFF7BAFF2B
:10282800F868FFF7A3FA00BF1037BD4680BD00BFA8
:102838007002002010E000E020ED00E080B500AF5D
:10284800044B1B680133034A1360034B1B6898470A
:1028580000BF80BD740200207002002080B400AF69
:10286800074B1B78012B04D1054B00221A7001235A
:1028780000E000231846BD465DF8047B704700BFA2
:102888006402002080B588B000AF786000237B60C8
:102898000023FB617F23BB6143F6FF733B61002389
:1028A8007B610DE0274A7B6932F813301A463B6991
:1028B800934202D17B69FB6105E07B6901337B614F
:1028C8007B697F2BEEDD7B69802B05D17B6801223C
:1028D8001A704FF000032DE07F237B610DE0194A49
:1028E8007B6932F813301A463B69934202D17B69FF
:1028F800BB6105E07B69013B7B617B69002BEEDAFC
:10290800FA69BB691344DA0F13445B10FB60FB6878
:10291800403B1846FEF73EF84FF000020A4BFEF720
:10292800CDF902460B4610461946FEF757FB0346FB
:10293800BB60BB6807EE903AB0EE670A2037BD4629
:1029480080BD00BF640100200000504080B400AF8B
:10295800044B1B680133034A136000BFBD465DF892
:10296800047B70477802002080B58CB000AF9FEDE3
:10297800340BFFF701F90346002219463248FFF7E6
:1029880081F90023FB62012387F82B302F4B7B62F0
:102998002F4BBB604FF00003FB604FF000033B611F
:1029A8004FF000037B614FF00003BB61786AFEF7CC
:1029B80003F802460B4643EC102BFFF701FD786A3B
:1029C800FDF7FAFF02460B4643EC102BFFF7B8FD64
:1029D8002BE0FFF743FF0346002B26D0FB1D1846CC
:1029E800FFF750FF87ED080AFB79002B03D0FB6A3D
:1029F8000133FB6201E00023FB62FB6A852B02DDE9
:102A0800002387F82B3007F1080397ED080A1846CA
:102A180000F027F887ED070AF869FDF7CDFF0246B1
:102A28000B4643EC102BFFF7C7FA97F82B30002B17
:102A3800CFD100BF00BF3037BD4680BDAFF30080A7
:102A48000000000000408F40552900009A99993EE7
:102A580000003C4280B400AF00BFBD465DF8047B77
:102A6800704780B485B000AF786087ED000A7B6856
:102A780093ED037AD7ED007A77EE277A7B68C3ED7A
:102A8800037A7B68D3ED047A97ED007A77EE677A5C
:102A9800C7ED037A7B683A681A617B6893ED007A20
:102AA800D7ED007A27EE277A7B68D3ED016A7B6839
:102AB800D3ED037A66EEA77A37EE277A7B68D3EDF3
:102AC800026AD7ED037A66EEA77A77EE277AB0EE38
:102AD800670A1437BD465DF8047B70475101000052
:102AE800F8B500BFF8BC08BC9E467047F8B500BFF3
:0C2AF80029010000F8BC08BC9E46704795
:102B04003A3D0A3D0F3D243D323D023D053D133D16
:102B14000D3D0C3D233D113D263D013D173D083D36
:102B2400093D0000080000200D0A2043527573740B
:102B3400200D0A003A3D0A3D0F3D243D323D023D41
:102B4400053D133D0D3D0C3D233D113D263D013D0D
:082B5400173D083D093D00009A
:042B5C000000000075
:082B600010D6FF7F0100000008
:102B68000000000008000020000000000000000035
:102B7800000000000000000000000000000000004D
:102B8800000000000000000000000000000000003D
:102B9800000000000000000000000000000000002D
:102BA800000000000000000000000000000000001D
:102BB800000000000000000000000000000000000D
:102BC8000000000000000000D9030000006CDC02D7
:04000003000000E811
:00000001FF
