:1000000000000120351E0000791E0000791E00004E
:10001000791E0000791E0000791E0000000000001B
:10002000000000000000000000000000791E000039
:10003000791E000000000000791E0000791E0000FB
:10004000791E0000791E0000791E0000791E000054
:10005000791E0000791E0000791E0000791E000044
:10006000791E0000791E0000791E0000791E000034
:10007000791E0000791E0000791E0000791E000024
:10008000791E0000791E0000791E0000791E000014
:10009000791E0000791E0000791E0000791E000004
:1000A000791E0000392C0000E52C0000791E0000AC
:1000B000791E0000791E0000791E0000791E0000E4
:1000C000791E0000791E0000791E00002123000027
:1000D000791E0000791E0000791E0000791E0000C4
:0400E000791E000085
:1000F0000348044B834202D0034B03B118477047B7
:100100007800002078000020000000000548064923
:100110000B1AD90F01EBA301491002D0034B03B115
:100120001847704778000020780000200000000089
:1001300010B5064C237843B9FFF7DAFF044B13B12F
:100140000448AFF300800123237010BD7800002025
:10015000000000005436000008B5044B1BB10449F0
:100160000448AFF30080BDE80840CFE7000000007E
:100170007C00002054360000A3F5803A704700BF91
:10018000154B002B08BF114B9D46FFF7F5FF0021D3
:100190008B460F461148124A121A00F079F80C4BA0
:1001A000002B00D098470B4B002B00D09847002025
:1001B000002104000D000B4800F016F800F044F890
:1001C0002000290002F08CF900F014F8000008006B
:1001D0000000000000000000000001207800002066
:1001E000840200201D020000002301461A46184622
:1001F00000F0A0B808B5074B044613B1002100F089
:10020000EFF8054B1868836A03B19847204600F061
:100210004BF900BFE1030000C835000038B5084BBA
:10022000084D5B1B9C1007D0043B1D44013C55F856
:1002300004399847002CF9D1BDE8384003F0AAB939
:10024000000000000000000070B50D4E0D4D761B43
:10025000B61006D0002455F8043B01349847A64256
:10026000F9D1094E094D761B03F08EF9B61006D070
:10027000002455F8043B01349847A642F9D170BDDB
:1002800000000000000000008835000084350000F8
:10029000830730B548D0541E002A3FD0CAB2034667
:1002A00001E0013C3AD303F8012B9D07F9D1032C5F
:1002B0002DD9CDB245EA05250F2C45EA054536D99D
:1002C000A4F1100222F00F0C03F1200EE6444FEAD5
:1002D000121C03F1100242E9045542E902551032A2
:1002E0007245F8D10CF1010214F00C0F03EB02126D
:1002F00004F00F0C13D0ACF1040323F00303043318
:10030000134442F8045B9342FBD10CF003042CB17C
:10031000CAB21C4403F8012B9C42FBD130BD644699
:100320001346002CF4D1F9E703461446BFE71A46FA
:10033000A446E0E7F0B5264C256885B0064605B32F
:100340006C681F2C41DCA6B1D5F8880048B3D0F802
:10035000007140F824204FF0010C0CFA04FC00EB73
:1003600084024CEA0707022EC0F80071C2F8803000
:1003700010D0A31C01346C6045F82310002005B098
:10038000F0BD1448144D25600028D9D00068C5F888
:100390008800D5E7D0F8043143EA0C03C0F80431F3
:1003A000E7E70E480191CDE9022370B14FF4847064
:1003B000AFF3008048B10027C0E94077DDE90223B0
:1003C0006C680199C5F88800C3E74FF0FF30D6E7A5
:1003D0002001002000000000940000200000000028
:1003E0002DE9F84FDFF8BCA0DAF800702DED028B94
:1003F000E7B108EE100A89467D68D7F888806C1E40
:1004000014D407EB8506043608EB8505B9F1000F17
:1004100010D0B8F1000F02D0EB6F4B450AD0013C71
:10042000631CA5F10405A6F10406EFD1BDEC028B17
:10043000BDE8F88F7B683268013BA34216BF0023FA
:100440007C603360002AEAD0D7F804B0B8F1000F1E
:100450001AD0D8F80001012303FA04F1014213D0A5
:10046000D8F80401014218D155F8041C18EE100AFE
:1004700090477A685A450BD1DAF80030BB42CED0AB
:100480001F46002FB8D1D1E790477A685A45F3D07C
:10049000DAF80070002FAFD1C8E755F8040C904788
:1004A000E7E700BF20010020FEE700BF70B54FF076
:1004B000FF0C4CF4E06C1CEA11541DBF1CEA1355F0
:1004C00094EA0C0F95EA0C0F00F0DEF82C4481EA58
:1004D000030621EA4C5123EA4C5350EA013518BF78
:1004E00052EA033541F4801143F4801338D0A0FB65
:1004F00002CE4FF00005E1FB02E506F00042E0FB12
:1005000003E54FF00006E1FB03569CF0000F18BF17
:100510004EF0010EA4F1FF04B6F5007F64F54074BF
:1005200004D25FEA4E0E6D4146EB060642EAC62152
:1005300041EA55514FEAC52040EA5E504FEACE2EBF
:10054000B4F1FD0C88BFBCF5E06F1ED8BEF1004FC2
:1005500008BF5FEA500E50F1000041EB045170BD3E
:1005600006F0004646EA010140EA020081EA030182
:10057000B4EB5C04C2BFD4EB0C0541EA045170BD7E
:1005800041F480114FF0000E013C00F3AB8014F1F8
:10059000360FDEBF002001F0004170BDC4F1000441
:1005A000203C35DA0C341BDC04F11404C4F12005C2
:1005B00000FA05F320FA04F001FA05F240EA02001D
:1005C00001F0004221F0004110EBD37021FA04F653
:1005D00042EB06015EEA430E08BF20EAD37070BD0D
:1005E000C4F10C04C4F1200500FA04F320FA05F06C
:1005F00001FA04F240EA020001F0004110EBD3706E
:1006000041F100015EEA430E08BF20EAD37070BDDD
:10061000C4F1200500FA05F24EEA020E20FA04F3B6
:1006200001FA05F243EA020321FA04F001F0004165
:1006300021FA04F220EA020000EBD3705EEA430ED6
:1006400008BF20EAD37070BD94F0000F0FD101F005
:100650000046400041EB010111F4801F08BF013C3E
:10066000F7D041EA060195F0000F18BF704703F07C
:100670000046520043EB030313F4801F08BF013D03
:10068000F7D043EA0603704794EA0C0F0CEA1355BF
:1006900018BF95EA0C0F0CD050EA410618BF52EA79
:1006A0004306D1D181EA030101F000414FF000007F
:1006B00070BD50EA410606BF1046194652EA43068D
:1006C00019D094EA0C0F02D150EA013613D195EA01
:1006D0000C0F05D152EA03361CBF104619460AD149
:1006E00081EA030101F0004141F0FE4141F4700153
:1006F0004FF0000070BD41F0FE4141F4780170BD43
:1007000081F0004102E000BF83F0004330B54FEAC2
:1007100041044FEA430594EA050F08BF90EA020F2F
:100720001FBF54EA000C55EA020C7FEA645C7FEAC2
:10073000655C00F0E2804FEA5454D4EB5555B8BFE5
:100740006D420CDD2C4480EA020281EA030382EA56
:10075000000083EA010180EA020281EA0303362DE8
:1007600088BF30BD11F0004F4FEA01314FF4801CBB
:100770004CEA113102D0404261EB410113F0004FCD
:100780004FEA03334CEA133302D0524263EB430384
:1007900094EA050F00F0A780A4F10104D5F1200E22
:1007A0000DDB02FA0EFC22FA05F2801841F100017D
:1007B00003FA0EF2801843FA05F359410EE0A5F151
:1007C00020050EF1200E012A03FA0EFC28BF4CF082
:1007D000020C43FA05F3C01851EBE37101F0004538
:1007E00007D54FF0000EDCF1000C7EEB00006EEB45
:1007F0000101B1F5801F1BD3B1F5001F0CD34908CF
:100800005FEA30004FEA3C0C04F101044FEA445225
:1008100012F5800F80F09A80BCF1004F08BF5FEAAC
:10082000500C50F1000041EB045141EA050130BD8C
:100830005FEA4C0C404141EB0101013C28BFB1F59E
:10084000801FE9D291F0000F04BF01460020B1FAE9
:1008500081F308BF2033A3F10B03B3F120020CDABC
:100860000C3208DD02F1140CC2F10C0201FA0CF09A
:1008700021FA02F10CE002F11402D8BFC2F1200CFF
:1008800001FA02F120FA0CFCDCBF41EA0C019040B5
:10089000E41AA2BF01EB0451294330BD6FEA0404FE
:1008A0001F3C1CDA0C340EDC04F11404C4F12002E9
:1008B00020FA04F001FA02F340EA030021FA04F3FB
:1008C00045EA030130BDC4F10C04C4F1200220FA52
:1008D00002F001FA04F340EA0300294630BD21FA90
:1008E00004F0294630BD94F0000F83F4801306BF56
:1008F00081F480110134013D4EE77FEA645C18BF4A
:100900007FEA655C29D094EA050F08BF90EA020FE0
:1009100005D054EA000C04BF1946104630BD91EAD8
:10092000030F1EBF0021002030BD5FEA545C05D1DB
:100930004000494128BF41F0004130BD14F580041A
:100940003CBF01F5801130BD01F0004545F0FE418E
:1009500041F470014FF0000030BD7FEA645C1ABFC3
:10096000194610467FEA655C1CBF0B46024650EAFA
:10097000013406BF52EA033591EA030F41F4002126
:1009800030BD00BF90F0000F04BF0021704730B5AC
:100990004FF4806404F132044FF000054FF0000181
:1009A00050E700BF90F0000F04BF0021704730B542
:1009B0004FF4806404F1320410F0004548BF404217
:1009C0004FF000013EE700BF42004FEAE2014FEA6C
:1009D00031014FEA02701FBF12F07F4393F07F4F47
:1009E00081F06051704732F07F4208BF704793F04A
:1009F0007F4F04BF41F40021704730B54FF460745D
:100A000001F0004521F000411CE700BF50EA01025F
:100A100008BF704730B54FF000050AE050EA010208
:100A200008BF704730B511F0004502D5404261EB78
:100A300041014FF4806404F132045FEA915C3FF4B9
:100A4000D8AE4FF003025FEADC0C18BF03325FEA56
:100A5000DC0C18BF033202EBDC02C2F1200300FA07
:100A600003FC20FA02F001FA03FE40EA0E0021FA2C
:100A700002F11444BDE600BF70B54FF0FF0C4CF41A
:100A8000E06C1CEA11541DBF1CEA135594EA0C0FCC
:100A900095EA0C0F00F0DEF82C4481EA030621EA07
:100AA0004C5123EA4C5350EA013518BF52EA033542
:100AB00041F4801143F4801338D0A0FB02CE4FF0F4
:100AC0000005E1FB02E506F00042E0FB03E54FF024
:100AD0000006E1FB03569CF0000F18BF4EF0010E1C
:100AE000A4F1FF04B6F5007F64F5407404D25FEA18
:100AF0004E0E6D4146EB060642EAC62141EA5551CB
:100B00004FEAC52040EA5E504FEACE2EB4F1FD0C0C
:100B100088BFBCF5E06F1ED8BEF1004F08BF5FEA8A
:100B2000500E50F1000041EB045170BD06F000463C
:100B300046EA010140EA020081EA0301B4EB5C04E9
:100B4000C2BFD4EB0C0541EA045170BD41F48011E1
:100B50004FF0000E013C00F3AB8014F1360FDEBF06
:100B6000002001F0004170BDC4F10004203C35DAE2
:100B70000C341BDC04F11404C4F1200500FA05F365
:100B800020FA04F001FA05F240EA020001F0004206
:100B900021F0004110EBD37021FA04F642EB06017C
:100BA0005EEA430E08BF20EAD37070BDC4F10C04A6
:100BB000C4F1200500FA04F320FA05F001FA04F26A
:100BC00040EA020001F0004110EBD37041F1000156
:100BD0005EEA430E08BF20EAD37070BDC4F1200561
:100BE00000FA05F24EEA020E20FA04F301FA05F2C9
:100BF00043EA020321FA04F001F0004121FA04F271
:100C000020EA020000EBD3705EEA430E08BF20EA40
:100C1000D37070BD94F0000F0FD101F0004640007A
:100C200041EB010111F4801F08BF013CF7D041EAFC
:100C3000060195F0000F18BF704703F00046520000
:100C400043EB030313F4801F08BF013DF7D043EAD1
:100C50000603704794EA0C0F0CEA135518BF95EA87
:100C60000C0F0CD050EA410618BF52EA4306D1D10E
:100C700081EA030101F000414FF0000070BD50EA2D
:100C8000410606BF1046194652EA430619D094EAB7
:100C90000C0F02D150EA013613D195EA0C0F05D1A1
:100CA00052EA03361CBF104619460AD181EA0301F5
:100CB00001F0004141F0FE4141F470014FF00000AD
:100CC00070BD41F0FE4141F4780170BD70B54FF048
:100CD000FF0C4CF4E06C1CEA11541DBF1CEA1355C8
:100CE00094EA0C0F95EA0C0F00F0A7F8A4EB0504AA
:100CF00081EA030E52EA03354FEA013100F08880A1
:100D00004FEA03334FF0805545EA131343EA126369
:100D10004FEA022245EA111545EA10654FEA00261E
:100D20000EF000419D4208BF964244F1FD0404F5D7
:100D3000407402D25B084FEA3202B61A65EB030533
:100D40005B084FEA32024FF480104FF4002CB6EBF0
:100D5000020E75EB030E22BFB61A754640EA0C0070
:100D60005B084FEA3202B6EB020E75EB030E22BFB0
:100D7000B61A754640EA5C005B084FEA3202B6EBF1
:100D8000020E75EB030E22BFB61A754640EA9C00B0
:100D90005B084FEA3202B6EB020E75EB030E22BF80
:100DA000B61A754640EADC0055EA060E18D04FEA3E
:100DB000051545EA16754FEA06164FEAC30343EADE
:100DC00052734FEAC2025FEA1C1CC0D111F4801FAB
:100DD0000BD141EA00014FF000004FF0004CB6E7A4
:100DE00011F4801F04BF01430020B4F1FD0C88BF43
:100DF000BCF5E06F3FF6AFAEB5EB030C04BFB6EB4E
:100E0000020C5FEA500C50F1000041EB045170BD40
:100E10000EF0004E4EEA113114EB5C04C2BFD4EB6D
:100E20000C0541EA045170BD41F480114FF0000EF1
:100E3000013C90E645EA060E8DE60CEA135594EA6D
:100E40000C0F08BF95EA0C0F3FF43BAF94EA0C0F70
:100E50000AD150EA01347FF434AF95EA0C0F7FF4E5
:100E600025AF104619462CE795EA0C0F06D152EA39
:100E700003353FF4FDAE1046194622E750EA41061D
:100E800018BF52EA43067FF4C5AE50EA41047FF42E
:100E90000DAF52EA43057FF4EBAE12E74FF0FF3C93
:100EA00006E000BF4FF0010C02E000BF4FF0010C64
:100EB0004DF804CD4FEA410C7FEA6C5C4FEA430CDD
:100EC00018BF7FEA6C5C1BD001B050EA410C0CBF2C
:100ED00052EA430C91EA030F02BF90EA020F00208E
:100EE000704710F1000F91EA030F58BF994208BFF5
:100EF00090422CBFD8176FEAE37040F001007047B2
:100F00004FEA410C7FEA6C5C02D150EA013C07D108
:100F10004FEA430C7FEA6C5CD6D152EA033CD3D053
:100F20005DF8040B704700BF8446104662468C464D
:100F30001946634600E000BF01B5FFF7B7FF002880
:100F400048BF10F1000F01BD4DF808EDFFF7F4FFA9
:100F50000CBF012000205DF808FB00BF4DF808ED34
:100F6000FFF7EAFF34BF012000205DF808FB00BF57
:100F70004DF808EDFFF7E0FF94BF012000205DF879
:100F800008FB00BF4DF808EDFFF7CEFF94BF01202E
:100F900000205DF808FB00BF4DF808EDFFF7C4FF27
:100FA00034BF012000205DF808FB00BF4A0011D2C9
:100FB00012F5001211D20DD56FF47873B3EB6252B3
:100FC0000ED44FEAC12343F0004343EA505323FABF
:100FD00002F070474FF00000704750EA013002D134
:100FE0004FF0FF3070474FF0000070470CB410B561
:100FF0009CB01EAB6FF00044CDE906140291084985
:1010000053F8042B059102A90193049400F008F908
:10101000029B00221A701CB0BDE8104002B070475D
:101020000802FFFF0EB410B59DB06FF000411FAB7A
:10103000CDE906010491094953F8042B0290084CAC
:101040000868019302A9059400F0EAF8029B0022C7
:101050001A701DB0BDE8104003B0704704000020B6
:101060000802FFFF2DE9F0478F689F420C461D469E
:10107000164638D88246888910F4906F0ED10868D9
:101080003D462A46314600F0BDFCA2682368D21BCB
:101090002B44A26023600020BDE8F0874B690969FA
:1010A00003EB4308236808EBD878A3EB01096B1C1A
:1010B0004FEA68084B444345424684BF984642463F
:1010C000430513D51146504600F07AFD074608B394
:1010D00021694A4600F0FCFBA38923F4906343F0A6
:1010E0008003A38107E008681F46CAE7504600F066
:1010F000C1FD074650B107EB0900A8EB09032761C2
:10110000C4F81480A36020602F46BAE721695046D6
:1011100000F0F4FC0C23CAF80030A38943F040032C
:101120004FF0FF30A381B7E72DE9F04F936883B00C
:101130009146002B6ED017688D6880460C46086873
:10114000083744E0A38913F4906F2ED0D4E9041536
:10115000A0EB010A05EB450505EBD5750AEB06008A
:101160006D100130A8422A4684BF05462A465B0519
:1011700037D51146404600F023FD00283BD05246AB
:101180002169019000F0A4FBA289019B22F49062E6
:1011900042F08002A281A5EB0A0203EB0A0065611E
:1011A000A260236120603546B2465946524600F09F
:1011B00029FCA068D9F808102368451B8E1B03EB97
:1011C0000A00A5602060C9F808601EB3083757E917
:1011D00002B6002EFAD0B542AA46B3D93546B24679
:1011E000E3E7404600F046FD03460028D3D12169DD
:1011F000404600F083FC0C23C8F80030A38900228D
:1012000043F040034FF0FF30A381C9E9012203B04E
:10121000BDE8F08F0020C9F8040003B0BDE8F08FEE
:101220002DE9F04F92468A8915069DB08846814681
:101230001C4603D50A69002A00F0EF8000220992BB
:101240009AF800307E4D039420228DF82920302218
:101250008DF82A200126002B72D0544603E014F8A2
:10126000013F002B76D0252BF9D1B4EB0A0B74D1BA
:101270002278002A64D000234FF0FF32CDE9052305
:10128000049307938DF853301A93013404E0049AC1
:1012900006FA03F313430493A246052214F8011B34
:1012A000284600F0C5FA431B0028F0D1049BD8065D
:1012B00044BF20228DF8532019079AF8001044BF2C
:1012C0002B228DF853202A2954D1039A1168043215
:1012D000002903927CDB07919AF801100AF1010AB8
:1012E0002E2959D0574C0322204600F0A1FA40B1D4
:1012F000049B001B402404FA00F0034304930AF10A
:10130000010A1AF8011B50488DF82810062200F037
:101310008FFA002862D04D4B002B52D003AA0092C6
:101320004B4B424604A94846AFF3008007467A1C5F
:1013300006D0099B3B4409939AF80030002B8CD1CE
:10134000B8F80C305B0654BF09984FF0FF301DB061
:10135000BDE8F08FB4EB0A0BF2D05B465246414633
:101360004846FFF77FFE0130EAD0099B22785B44B4
:1013700009937EE7A1F13002092AB1D8079B1AF838
:10138000011F03EB830302EB4303A1F13002092A9F
:10139000F5D92E290793A5D19AF801102A2927D12A
:1013A000039B9AF802101A6805920433002A0AF186
:1013B00002000393B8BF4FF0FF338246B8BF0593D6
:1013C00090E7039B073323F0070308330393B0E749
:1013D000494243F00203079104937DE703AA009278
:1013E0001B4B424604A9484600F0CAF807469EE750
:1013F000A1F130020023092A05930AF1010A3FF600
:1014000071AF1AF8011F03EB830302EB4303A1F151
:101410003002092AF5D9059364E7402100F0D0FB9A
:10142000C8F80000C8F8100018B14022C8F814200D
:1014300004E70C23C9F800304FF0FF3087E700BF06
:10144000183600002036000024360000000000009E
:10145000651000002DE9F84F92461F460A698B6817
:10146000DDF828909A42B8BF1A46CAF8002091F8D1
:1014700043300C46064613B10132CAF800202268F8
:1014800091065DD5DAF800300233CAF800302268E0
:1014900012F0060F11461ED1E168CB1A002BD8BFFF
:1014A000114618DD04F1190B4FF0000805E0E5685E
:1014B000DAF80030ED1A45450CDD01235A4639466D
:1014C0003046C847013008F10108F0D14FF0FF3035
:1014D000BDE8F88F216894F84330003B18BF012322
:1014E0008A060AD5E1185A1C302081F843002244AC
:1014F00094F8451082F84310023304F14302394650
:101500003046C8470130E1D0236803F00603042BBE
:101510001DD0A3682269934225DD4FF000089B1A75
:1015200098441A34002501E045451CDA012322467F
:1015300039463046C847013005F10105F4D1C5E709
:1015400012F0060F12D0003B18BF0123D5E7DAF8DE
:101550000030E1682269C91AA368934221EAE17860
:10156000DDDC0029DDDC0020BDE8F88FE168DAF879
:101570000030CB1A002BD8BF114693DCABE700BF7D
:101580002DE9F0470C4684B09046227E0C99074620
:10159000994604F14300002A33D0A2F15803DDB28A
:1015A000202D67D8202B65D8DFE813F0DE0064001B
:1015B000640064006400640064006400640064000B
:1015C0006400A3006E0064006400640064006E00A8
:1015D000640064006400640021007F00C0006400B7
:1015E0006400AE0064007F0064006400E5002368CE
:1015F0001A0640F104810B6862691D1D0D601B68AD
:101600001A60002382462361CDF80090434603AA66
:1016100021463846FFF71EFF013020D0236952468D
:1016200041463846C847013019D02368E068039E18
:101630009B0719D5831B002B16DD04F1190A002521
:1016400004E0E068039E831BAB420DDD012352469C
:1016500041463846C847013005F10105F1D14FF048
:10166000FF3004B0BDE8F087B042B8BF304604B0E8
:10167000BDE8F087012384F84220236104F1420A87
:10168000002384F84330BFE723681A0602D45E06BD
:1016900000F1C1800D682A6804350D601546002AE6
:1016A0006BDBDFF884C10A2610E023681D0640F1D9
:1016B0009C800B681D1D0D601D68DFF86CC16F2AD2
:1016C0000CBF08260A26002384F843306268A26013
:1016D000002A7FDB236823F004032360002D5BD105
:1016E000002A79D18246082E65D0A0EB0A0020613D
:1016F0008AE70B680122186804330B6004F1420A80
:1017000084F842002261BBE70B686268181D08601C
:10171000D3F800A00021504600F08AF8002800F01D
:101720008180A0EB0A0060602061A9E7236843F094
:10173000200323607822DFF8F4C084F845200A688B
:10174000151D0D601D0643D4590641D51588DE07C9
:1017500044BF43F020032360002D44D1236823F0CD
:10176000200323601026AEE7582384F84530DFF8C5
:10177000B8C02368E3E72368DCE76268A2602D2134
:10178000002AC5F1000584F8431002DB23F00403AE
:101790002360DFF894C00A268246B5FBF6F306FB09
:1017A00013512A461CF801100AF8011DB2421D46C9
:1017B000F3D2082E99D12368D90796D56268236998
:1017C0009A4292DC30230AF8013C0AF1FF3A8CE796
:1017D0001568BCE7002DDFD19CF8003084F842305A
:1017E00004F1420A7FE710266DE713F0400F0B6803
:1017F00003F104050D600CBF1D681D885DE713F043
:10180000400F0B68626903F104050D601B6814BF8B
:101810001A801A60F5E60A68B2F9005004320A60CC
:101820002A463CE760687FE72C360000403600001F
:1018300001F0FF01102A2BDB10F0070F08D010F881
:10184000013B013A8B422DD010F0070F42B3F6D185
:10185000F0B441EA012141EA014122F007047FF09E
:1018600000070023F0E80256083C85EA010586EAF5
:10187000010685FA47F5A3FA87F586FA47F6A5FA31
:1018800087F68EB9EED1F0BC01F0FF0102F007023D
:1018900032B110F8013B013A83EA010313B1F8D1E8
:1018A0000020704701387047002D06BF35460338C9
:1018B000073815F0010F07D1013015F4807F02BF02
:1018C000013015F4C03F0130F0BC0138704700BF53
:1018D000844641EA000313F003036DD1403A41D33B
:1018E00051F8043B40F8043B51F8043B40F8043BFA
:1018F00051F8043B40F8043B51F8043B40F8043BEA
:1019000051F8043B40F8043B51F8043B40F8043BD9
:1019100051F8043B40F8043B51F8043B40F8043BC9
:1019200051F8043B40F8043B51F8043B40F8043BB9
:1019300051F8043B40F8043B51F8043B40F8043BA9
:1019400051F8043B40F8043B51F8043B40F8043B99
:1019500051F8043B40F8043B51F8043B40F8043B89
:10196000403ABDD2303211D351F8043B40F8043B29
:1019700051F8043B40F8043B51F8043B40F8043B69
:1019800051F8043B40F8043B103AEDD20C3205D339
:1019900051F8043B40F8043B043AF9D2043208D031
:1019A000D2071CBF11F8013B00F8013B01D30B88A3
:1019B00003806046704700BF082A13D38B078DD081
:1019C00010F003038AD0C3F10403D21ADB071CBF53
:1019D00011F8013B00F8013B80D331F8023B20F8BD
:1019E000023B7BE7043AD9D3013A11F8013B00F8F6
:1019F000013BF9D20B7803704B7843708B7883707E
:101A00006046704788420DD98B1883420AD900EB93
:101A1000020CBAB1624613F801CD02F801CD994229
:101A2000F9D170470F2A0ED8034602F1FF3C4AB1A4
:101A30000CF1010C013B8C4411F8012B03F8012F30
:101A40006145F9D1704740EA01039B0750D1A2F1EB
:101A5000100370B501F1200C23F00F0501F1100EF9
:101A600000F11004AC441B095EF8105C44F8105CF3
:101A70005EF80C5C44F80C5C5EF8085C44F8085CAA
:101A80005EF8045C44F8045C0EF1100EE64504F1C7
:101A90001004E9D1013312F00C0F01EB031102F035
:101AA0000F0400EB031327D0043C24F003064FEA95
:101AB000940C1E441C1F8E465EF8045B44F8045FC1
:101AC000B442F9D10CF1010402F0030203EB8403E8
:101AD00001EB840102F1FF3C4AB10CF1010C013B26
:101AE0008C4411F8012B03F8012F6145F9D170BD29
:101AF00002F1FF3C03469BE72246EBE7002958D062
:101B000030B551F8043C83B0002BA1F10404B8BFF8
:101B1000E418019000F0E8F8284A0198136833B1FE
:101B2000A3420DD9216804EB010C63452FD06360FB
:101B3000146003B0BDE8304000F0D8B8A34210D81C
:101B40001A465B68002BF9D1116802EB010C644561
:101B500019D02FD36360546003B0BDE8304000F06B
:101B6000C5B8116802EB010CA44516D022D8216833
:101B700004EB010C6345EDD11D685B682944C4E9A1
:101B800000135460D5E7236819441160D1E71D683C
:101B90005B682944C4E90013CAE724682144541847
:101BA000A3421160C5D1D3E900432144C2E9001327
:101BB000BFE770470C230360BBE700BF2401002090
:101BC000F8B5CD1C25F0030508350C2D38BF0C25C4
:101BD000002D064623DBA94221D8254F00F084F8CA
:101BE0003A6822B3144603E063682246FBB11C4600
:101BF00023685B1BF8D40B2B15D8636894420CBF89
:101C00003B605360304600F071F804F10B00231D77
:101C100020F00700C21A01D01B1AA350F8BD0C23F4
:101C200033600020F8BD23601C442560EAE7796832
:101C3000C9B12946304600F045F8431C0CD0C41CFD
:101C400024F00304A04205D0211A304600F03AF8EF
:101C5000013001D02560D5E70C233046336000F019
:101C600045F80020F8BD304600F02CF87860E0E739
:101C700024010020F8B51446F9B1CAB106460D4654
:101C800000F036F8A04202D32F463846F8BD214670
:101C90003046FFF795FF07460028F6D02246294632
:101CA000FFF716FE30462946FFF728FF3846F8BDF5
:101CB0002746FFF723FF3846F8BDBDE8F840114638
:101CC000FFF77EBF38B5074D0022044608462A605C
:101CD00000F0A2F8431C00D038BD2B68002BFBD0CD
:101CE000236038BD2C010020704700BF704700BF43
:101CF00051F8040C0028A0F10400BCBF0B58C01818
:101D0000704700BF2DE9F0410E680C460546BEB194
:101D100037688FB1D7F80080B8F1000F08D0D8F835
:101D2000001009B1FFF7EEFF41462846FFF7E6FE37
:101D300039462846FFF7E2FE31462846FFF7DEFE29
:101D400021462846BDE8F041FFF7D8BE314B1B685D
:101D5000834259D0426A70B50546002A4FD0D168F7
:101D600091B100268C5944B1214624682846FFF7DA
:101D7000C5FE002CF8D16B6AD9680436802EF1D1EB
:101D80002846FFF7BBFE6A6A116800293DD0284645
:101D9000FFF7B4FE696911B12846FFF7AFFE6A6A22
:101DA0001AB111462846FFF7A9FEA96B11B12846C2
:101DB000FFF7A4FEE96B11B12846FFF79FFE296CDF
:101DC00011B12846FFF79AFEE96D11B12846FFF7D9
:101DD00095FEA96D11B12846FFF790FE696B11B110
:101DE0002846FFF78BFEAB696BB1AB6A2846984774
:101DF000A96C41B12846BDE87040FFF783BF416937
:101E00000029C9D1D1E770BD704769690029C3D1E4
:101E1000C7E700BF04000020044A05491368002BEF
:101E200008BF0B4618441060184670473001002068
:101E30008402002080B582B000AF0C4B7B600C4B5D
:101E40003B6007E07A68131D7B603B68191D3960B1
:101E500012681A603B68074A9342F3D300F094F982
:101E6000FEF78EF900BF0837BD4680BD6036000022
:101E7000000000207800002080B400AFFEE70000E2
:101E800080B489B000AFA44B9B681B0C03F0070320
:101E9000FB600122FB6802FA03F3FB729E4B9B6816
:101EA00003F007037B607B68052B00F2638101A2CE
:101EB00052F823F0CD1E00004D1F00005F1F0000F0
:101EC0008D1F0000AD200000BD200000934B1B784B
:101ED000DBB2002B31D0904B46F65A121A608E4B73
:101EE0001B6D8D4A43F0010313658B4B01221A6071
:101EF0008A4B1B78DBB2002B16D0894B1B78DBB2E8
:101F0000002B08D0FB7A4FF4FA3292FBF3F31A4617
:101F1000844B1A602EE1FB7A4FF4FA4292FBF3F302
:101F20001A46804B1A6025E1FB7A4FF4004292FB7F
:101F3000F3F31A467B4B1A601CE1FB7A4FF4004224
:101F400092FBF3F31A46774B1A6013E1FB7A42F2E5
:101F5000107292FBF3F31A46724B1A600AE1704B4F
:101F60001B78DBB2002B08D0FB7A4FF4FA3292FBDD
:101F7000F3F31A466B4B1A60FCE0FB7A4FF4FA421B
:101F800092FBF3F31A46674B1A60F3E0624B5B680F
:101F90001BB2C3F309037B825F4B5B6803F4E0234E
:101FA000B3F5A02F29D0B3F5A02F29D8B3F5802FF2
:101FB00020D0B3F5802F23D8B3F5403F17D0B3F529
:101FC000403F1DD8B3F5003F0ED0B3F5003F17D802
:101FD000002B03D0B3F5803F03D011E0524B7B615F
:101FE0000EE0524B7B610BE0514B7B6108E0514BA3
:101FF0007B6105E0504B7B6102E0504B7B6100BF91
:10200000B7F91230002B03D1464A7B691360B1E067
:102010007B8A03F48053002B05D07B8A6FEA03533D
:102020006FEA13537B82464B1B78DBB2002B06D042
:10203000444B1B68FB61444BDB6EBB6105E0434BCB
:102040001B68FB61404BDB6CBB617B6907EE903A20
:10205000F8EE676AB7F9123007EE903AB8EEE77A11
:10206000D7ED077A27EE276ABB69C3F5407307EE01
:10207000903AB8EEE77AD7ED077A67EE277AB7EEAF
:10208000007A77EE877AB2EE007A27EE877AC6EE8C
:10209000077AB7EE007A37EE677AC6EE877AFCEEFB
:1020A000E77A17EE902A1F4B1A6063E0FB7A224A08
:1020B00092FBF3F31A461B4B1A605BE0244B1B7830
:1020C000DBB2002B4ED0144B46F65A121A60124B5C
:1020D0001B6D114A43F0020313650F4B01221A6076
:1020E0001B4B1B78DBB2002B34D00D4B1B78DBB2C3
:1020F000002B08D0FB7A4FF4FA3292FBF3F31A4626
:10210000084B1A6035E0FB7A4FF4FA4292FBF3F386
:102110001A46044B1A602CE000040140008920425A
:102120003C8620426C00002060E31600C0C62D00F3
:10213000808D5B00001BB70000366E01006CDC0276
:10214000D88020428410200000102000641020005D
:1021500004892042FB7A0A4A92FBF3F31A46094BA0
:102160001A6006E0FB7A064A92FBF3F31A46054B27
:102170001A6000BF00BF2437BD465DF8047B70477E
:10218000006CDC026C00002080B400AF294BD3F857
:102190008830284A43F47003C2F88830264B4FF445
:1021A000B5429A81254B80225A6100BF244B5B685F
:1021B00003F48073002BF9D1214B224A1A6000BF2F
:1021C0001F4B5B6803F48073002BF9D11E4B1B6916
:1021D00023F470431C4A43F4805313611A4B5B6928
:1021E00023F47043184A43F480535361174B46F667
:1021F0005A121A60154B4FF4A0225A60134B9B6879
:1022000023F00713114A43F0030393600F4B00229E
:102210001A600D4B1B690C4A43F0300313610A4BE3
:102220005B69094A43F03003536100BFBD465DF866
:10223000047B704700ED00E000480040003004E0FF
:102240000000014001005A690010014000040140F3
:1022500080B500AF00F05CFD00F0F2FB134B1B7F7C
:10226000DBB2124A23F00203DBB213770F4B9B7EE3
:10227000DBB20E4A43F00203DBB293760B4B1B7EBC
:10228000DBB20A4A43F00203DBB21376084B1B6849
:1022900023F07F43064A43F080431360054B082236
:1022A0001A6000F03DFD00BF80BD00BF004C004043
:1022B00020E400E004E100E080B500AF00F028FD7C
:1022C00000F0F0FB134B1B7FDBB2124A23F010032C
:1022D000DBB213770F4B1B7EDBB20E4A43F01003C9
:1022E000DBB213760B4B9B7EDBB20A4A43F0100342
:1022F000DBB29376084B1B6823F07F43064A43F01A
:1023000080431360054B08221A6000F009FD00BFEE
:1023100080BD00BF004C004020E400E004E100E08C
:1023200080B58EB000AF4B4B1B7FDBB203F00203D6
:10233000002B12D0474B1B7FDBB2464A23F002032F
:10234000DBB21377444B1B78DBB2002B0CBF0123AD
:102350000023DBB21A46404B1A703E4B1B7FDBB2A8
:1023600003F01003002B70D03A4B1B7FDBB2394ACD
:1023700023F01003DBB21377384B1A683B1D384942
:102380001846FEF74FFE3B1D184600F081F9334B0F
:1023900000221A60334B1B68334AD35C7B632D4B9E
:1023A000DB78DBB22B4A23F00103DBB2D370294B7D
:1023B000DB78DBB25AB27B6B03F00103002B14BF56
:1023C00001230023DBB25BB213435AB2214BD2B2DA
:1023D000DA70204BDB78DBB21E4A23F00203DBB25B
:1023E000D3701C4BDB78DBB25AB27B6B5BB203F071
:1023F00002035BB213435AB2164BD2B2DA70154BDA
:10240000DB78DBB2134A23F00403DBB2D370114B49
:10241000DB78DBB25AB27B6B5BB203F004035BB2D6
:1024200013435AB20B4BD2B2DA700E4B1B685A1CD4
:102430000E4B83FB021313449910D317C91A0B4692
:10244000DB005B1AD11A074B196000BF3837BD4655
:1024500080BD00BF004C0040770000203C020020FF
:10246000CC350000380200207000002093244992EF
:1024700080B400AF104B1B78DBB2002B17D00F4B92
:102480009B78DBB203F00103002B08D10B4B9B7848
:10249000DBB20A4A43F00103DBB2937007E0074B5B
:1024A0009B78DBB2054A23F00103DBB2937000BFD7
:1024B000BD465DF8047B704777000020004C00406B
:1024C00080B400AF044B1B680133034A136000BFA4
:1024D000BD465DF8047B70473C0200200000000010
:1024E00080B500AF00F04CF8214800F0D1F89FED26
:1024F0001C0B00F031FB0346002219461D4800F07A
:102500005BFB9FED190B00F027FB034600221946E9
:10251000194800F0A7FBFFF79BFEFFF7CDFE00F088
:1025200097F900F0C7F9154BDB78DBB2134A23F0BB
:102530000103DBB2D370114BDB78DBB20F4A23F01F
:102540000203DBB2D3700D4BDB78DBB20B4A23F016
:102550000403DBB2D37000F0E3FB00F003FCFCE704
:1025600000000000000000400000000000408F401C
:10257000E035000071240000C1240000004C004040
:1025800080B400AF1E4B1B889BB21D4A43F0C103B1
:102590009BB213801B4B1B681B4AA2FB03239A0AA6
:1025A000174B92B2DA80164B1B899BB2144A03F088
:1025B0000F039BB21381154B9B7ADBB2134A43F096
:1025C0000C03DBB29372114B1B7BDBB20F4A23F07F
:1025D0000C03DBB213730A4B1B889BB2084A23F02F
:1025E00001039BB21380064B5B8B9BB2044A23F022
:1025F0000F039BB2538300BFBD465DF8047B704759
:10260000001000406C000020B5814E1B004C0040C3
:1026100080B400AF00BF084B9B8B9BB203F001035B
:10262000002BF8D0044B9B899BB2DBB21846BD4609
:102630005DF8047B704700BF0010004080B400AF1D
:10264000054B9B8B9BB2DBB203F00103DBB2184658
:10265000BD465DF8047B70470010004080B483B035
:1026600000AF0346FB7100BF084B9B8B9BB203F08E
:102670000203002BF8D0054BFA7992B2DA8100BF41
:102680000C37BD465DF8047B704700BF001000406A
:1026900080B582B000AF786006E07B685A1C7A6033
:1026A0001B781846FFF7DAFF7B681B78002BF4D104
:1026B00000BF00BF0837BD4680BD000080B400AF3A
:1026C0001E4B1B889BB21D4A43F0C1039BB2138073
:1026D0001B4B1B681B4AA2FB03239A0A174B92B29F
:1026E000DA80164B1B899BB2144A03F00F039BB28E
:1026F0001381154B9B7ADBB2134A43F00C03DBB218
:102700009372114B1B7BDBB20F4A23F00C03DBB23D
:1027100013730A4B1B889BB2084A23F001039BB238
:102720001380064B5B8B9BB2044A23F00F039BB2D2
:10273000538300BFBD465DF8047B7047001800401E
:102740006C000020B5814E1B204C004080B400AFCF
:1027500000BF084B9B8B9BB203F00103002BF8D00A
:10276000044B9B899BB2DBB21846BD465DF8047BE7
:10277000704700BF0018004080B400AF054B9B8B32
:102780009BB2DBB203F00103DBB21846BD465DF835
:10279000047B70470018004080B483B000AF03464C
:1027A000FB7100BF084B9B8B9BB203F00203002B15
:1027B000F8D0054BFA7992B2DA8100BF0C37BD46EA
:1027C0005DF8047B704700BF0018004080B582B000
:1027D00000AF786006E07B685A1C7A601B78184668
:1027E000FFF7DAFF7B681B78002BF4D100BF00BF36
:1027F0000837BD4680BD80B500AFFFF7C1FE00BF02
:1028000080BD80B582B000AF0346FB71FB791846EE
:10281000FFF724FF00BF0837BD4680BD80B582B0FA
:1028200000AF78607868FFF733FF00BF0837BD4618
:1028300080BD80B500AFFFF7EBFE0346184680BDB4
:1028400080B500AFFFF7FAFE0346184680BD0000D2
:1028500080B400AF164B9B7ADBB2154A23F001031C
:10286000DBB29372124B1B7BDBB2114A23F00103E4
:10287000DBB213730E4B1B7ADBB20D4A43F001033C
:10288000DBB213720A4B1B79DBB2094A43F0010336
:10289000DBB21371064B9B78DBB2054A23F00103D0
:1028A000DBB2937000BFBD465DF8047B704700BF8C
:1028B000004C004080B400AF3E4BDB7ADBB23D4AB7
:1028C00023F00103DBB2D3723A4B5B7BDBB2394AB4
:1028D00023F00103DBB25373364BDB7ADBB2354AAC
:1028E00023F00403DBB2D372324B5B7BDBB2314AA1
:1028F00023F00403DBB253732E4BDB7ADBB22D4A99
:1029000023F00203DBB2D3722A4B5B7BDBB2294A92
:1029100023F00203DBB25373264B5B7ADBB2254A0A
:1029200043F00103DBB25372224B5B7ADBB2214AE4
:1029300043F00203DBB253721E4B5B7ADBB21D4ADB
:1029400043F00403DBB253721A4B5B79DBB2194AD2
:1029500043F00103DBB25371164B5B79DBB2154ACE
:1029600043F00203DBB25371124B5B79DBB2114AC5
:1029700043F00403DBB253710E4BDB78DBB20D4A3C
:1029800023F00103DBB2D3700A4BDB78DBB2094AD8
:1029900023F00203DBB2D370064BDB78DBB2054ACF
:1029A00023F00403DBB2D37000BFBD465DF8047BA7
:1029B000704700BF004C004080B483B000AF1223CA
:1029C000FB711E4B9B7ADBB25AB297F90730DB439F
:1029D0005BB213405AB2194BD2B29A72174B1B7B9F
:1029E000DBB25AB297F90730DB435BB213405AB2FD
:1029F000124BD2B21A73114B1B79DBB25AB297F950
:102A00000730DB435BB213405AB20C4BD2B21A719F
:102A10000A4B9B78DAB20949FB791343DBB28B701E
:102A2000064B9B79DAB20549FB791343DBB28B7114
:102A300000BF0C37BD465DF8047B7047004C00407A
:102A400080B400AF164B9B7ADBB2154A23F0020329
:102A5000DBB29372124B1B7BDBB2114A23F00203F1
:102A6000DBB213730E4B1B79DBB20D4A23F002036A
:102A7000DBB213710A4B9B78DBB2094A43F00203C5
:102A8000DBB29370064B9B79DBB2054A43F002033D
:102A9000DBB2937100BFBD465DF8047B704700BF99
:102AA000004C004080B400AF164B9B7ADBB2154A55
:102AB00023F01003DBB29372124B1B7BDBB2114A83
:102AC00023F01003DBB213730E4B1B79DBB20D4AFC
:102AD00023F01003DBB213710A4B9B78DBB2094A77
:102AE00043F01003DBB29370064B9B79DBB2054ACF
:102AF00043F01003DBB2937100BFBD465DF8047B69
:102B0000704700BF004C004080B400AF074B1B78FB
:102B1000DBB203F00203002B0CBF01230023DBB266
:102B20001846BD465DF8047B704700BF004C00406E
:102B300080B400AF074B1B78DBB203F01003002B0F
:102B40000CBF01230023DBB21846BD465DF8047BB1
:102B5000704700BF004C004080B584B000AF87EDE7
:102B6000000B4FF000024FF00003C7E902230B4BAC
:102B70001B681846FDF706FFD7E90023FEF7A6F805
:102B800002460B46C7E90223D7E90201FEF70EFA17
:102B9000034618461037BD4680BD00BF6C000020BC
:102BA00080B400AF034B01221A7000BFBD465DF830
:102BB000047B70475802002080B586B000AFF860F3
:102BC000B9601346FB71154ABB68136000F0B0F89A
:102BD0007861134AFB681360124A104B1B6813603C
:102BE000114B00221A60FB7963F01D03DAB20F4B20
:102BF0001A600F4B1B6823F47F430D4A43F4804354
:102C000013600C4B1B680B4A43F000731360786928
:102C100000F09CF800BF1837BD4680BD5002002070
:102C20004802002000C000400CC0004008C0004026
:102C300018E400E000E100E080B500AF054B0022A1
:102C40001A60054B1B689847044A054B1B681360C4
:102C500000BF80BD0CC000404802002000C0004002
:102C60005002002080B586B000AFF860B96013460E
:102C7000FB71154ABB68136000F05AF87861134A7B
:102C8000FB681360124A104B1B681360114B002243
:102C90001A60FB7963F01D03DAB20F4B1A600F4B19
:102CA0001B6823F47F430D4A43F4804313600C4BAD
:102CB0001B680B4A43F080631360786900F046F8A4
:102CC00000BF1837BD4680BD540200204C020020D2
:102CD00020C000402CC0004028C0004018E400E0A4
:102CE00000E100E080B500AF054B00221A60054B03
:102CF0001B689847044A054B1B68136000BF80BDE2
:102D00002CC000404C02002020C000405402002093
:102D100080B400AF72B600BFBD465DF8047B70475B
:102D200080B400AF62B600BFBD465DF8047B70475B
:102D300080B483B000AFEFF3108372B67B607B6822
:102D400018460C37BD465DF8047B704780B483B0ED
:102D500000AF786080F3108800BF0C37BD465DF887
:102D6000047B704780B400AF30BF00BFBD465DF844
:102D7000047B704780B483B000AF78607B68013B10
:102D8000FDD100BF0C37BD465DF8047B704780B5B0
:102D900082B000AF786006E04FF4FA50FFF7EAFF28
:102DA0007B68013B7B607B68002BF5D100BF00BFD7
:102DB0000837BD4680BD000080B400AF00BF264B81
:102DC0001B889BB203F48063002BF8D1224B39227D
:102DD0001A8000BF204B1B889BB203F48053002B4A
:102DE000F8D01E4B1B681D4A23F00203136000BF7E
:102DF0001A4B1B6803F48033002BF9D1174B184A88
:102E00001A60164B30225A60144B4FF4C3729A6109
:102E1000124B0022C3F83C21104B0022C3F8402182
:102E2000104BDB7ADBB20F4A63F07F03DBB2D37265
:102E30000C4B5B7BDBB20B4A63F07F03DBB253735B
:102E4000064B1B68054A43F00203136000BFBD46F2
:102E50005DF8047B704700BF003000400020014057
:102E600010332004204C004080B483B000AF00BF7A
:102E7000104B1B6803F48033002BF9D10D4B1B68FA
:102E80000C4A43F00103136000BF0A4BD3F84431EE
:102E900003F00103002BF8D0064BD3F89830C3F3AE
:102EA0000D037B607B6818460C37BD465DF8047BDC
:102EB000704700BF0020014080B500AF0E4B1B687B
:102EC0001846FDF75FFD4FF000020C4BFDF7FEFECC
:102ED00002460B4610461946FEF768F803469BB2B9
:102EE00001219FED030B184600F032F900BF80BDB1
:102EF000343333333333B33F6C0000200000A94038
:102F000080B584B000AF87ED000B4FF000024FF0AA
:102F10000003D7E90001FEF721F80346002B06D095
:102F20004FF000024FF00003C7E900230EE04FF01E
:102F30000002174BD7E90001FEF72EF80346002BDD
:102F400004D04FF00002124BC7E900230EA3D3E9CF
:102F50000023D7E90001FDF78FFD02460B4610461E
:102F6000194609A3D3E90023FDF7D0FB02460B461F
:102F7000C7E90223012097ED020B00F059F900BFC9
:102F80001037BD4680BD00BF9A9999999999A93F7C
:102F90000000F03F80B586B000AF034687ED000B20
:102FA0000A46FB811346BB81BB89012B18D1524BCA
:102FB0005B79DBB2504A43F01003DBB253714E4BE6
:102FC000DB7ADBB24C4A43F01003DBB2D3724A4BDC
:102FD0005B7BDBB2484A23F01003DBB2537356E04D
:102FE000BB89022B18D1444B5B79DBB2424A43F0D8
:102FF0002003DBB25371404BDB7ADBB23E4A43F035
:103000002003DBB2D3723C4B5B7BDBB23A4A23F04A
:103010002003DBB253733AE0BB89032B18D1364B44
:103020005B79DBB2344A43F04003DBB25371324B7D
:10303000DB7ADBB2304A43F04003DBB2D3722E4B73
:103040005B7BDBB22C4A23F04003DBB253731EE000
:10305000BB89042B18D1284B5B79DBB2264A63F07D
:103060007F03DBB25371244BDB7ADBB2224A63F07D
:103070007F03DBB2D372204B5B7BDBB21E4A03F0D3
:103080007F03DBB2537302E06FF0010330E0BB89D2
:10309000FA891A4941F823204FF08042FB89538274
:1030A0004FF08042BB895B001344C0225A80BB8929
:1030B000124A52F823301846FDF764FCD7E9002382
:1030C000FDF7DAFC02460B4610461946FDF76EFF87
:1030D0000346FB824FF08042BB8908335B001344F8
:1030E000FA8A5A804FF080434FF404721A8000230A
:1030F00018461837BD4680BD004C00405C020020D9
:1031000080B586B000AF87ED020B0346FB80FB88DD
:103110000E4A52F823301846FDF734FCD7E9022353
:10312000FDF7AAFC02460B4610461946FDF73EFF86
:103130000346FB824FF08042FB8808335B00134458
:10314000FA8A5A8000BF1837BD4680BD5C02002055
:1031500080B586B000AF034687ED000B0A46FB81C1
:103160001346BB81BB89012B55D12E4B1B79DBB29A
:103170002C4A43F04003DBB213712A4B9B7ADBB23B
:10318000284A43F04003DBB29372264B1B7BDBB231
:10319000244A23F04003DBB21373BB89FA89224926
:1031A00041F82320214AFB895382204ABB895B00D6
:1031B0001344C0225A80BB891B4A52F82330184658
:1031C000FDF7E0FBD7E90023FDF756FC02460B466E
:1031D00010461946FDF7EAFE0346FB82134ABB89F7
:1031E00008335B001344FA8A5A80104B4FF4047280
:1031F0001A800E4B1B889BB20C4A43F0C0039BB253
:1032000013800A4B1B8C9BB2084A43F007039BB206
:103210001384002301E06FF0010318461837BD4600
:1032200080BD00BF404C00407002002000080040FC
:1032300080B586B000AF87ED020B0346FB80FB88AC
:103240000E4A52F823301846FDF79CFBD7E90223BB
:10325000FDF712FC02460B4610461946FDF7A6FE86
:103260000346FB82064AFB8808335B001344FA8A54
:103270005A8000BF1837BD4680BD00BF70020020D5
:10328000000800400000000080B500AF2C4B1B7907
:10329000DBB22B4A63F07F03DBB21371284B9B78C0
:1032A000DBB2274A03F07F03DBB29370244B9B7A97
:1032B000DBB2234A03F07F03DBB29372204B1B7B0C
:1032C000DBB21F4A03F07F03DBB213731D4B1B6895
:1032D0001846FDF757FB16A3D3E90023FDF7F6FCCC
:1032E00002460B4610461946FDF760FE03469BB2A8
:1032F00001219FED110B1846FFF74CFE114B1B6887
:103300001846FDF73FFB0AA3D3E90023FDF7DEFCD7
:1033100002460B4610461946FDF748FE03469BB28F
:1033200002219FED050B1846FFF734FE00BF80BD5C
:10333000000000000088C340000000000000000002
:10334000204C00406C000020B0B582B000AF87ED8B
:10335000000B294B9B78DBB2274A63F07F03DBB27B
:1033600093704FF00002254BD7E90001FDF7F6FD01
:103370000346002B05D04FF00002204BC7E9002385
:103380000EE04FF000021E4BD7E90001FDF704FEEE
:103390000346002B04D04FF00002194BC7E900236D
:1033A0004FF000024FF00003D7E90001FDF7D6FD12
:1033B0000346002B0ED001209FED0D0BFFF7A0FE62
:1033C0003C687B6883F00045022045EC104BFFF71A
:1033D00097FE09E0012097ED000BFFF791FE022018
:1033E0009FED030BFFF78CFE00BF0837BD46B0BD55
:1033F0000000000000000000204C00400000F0BF72
:103400000000F03F0000000080B500AF2C4B1B799E
:10341000DBB22B4A43F04003DBB21371284B9B789D
:10342000DBB2274A23F04003DBB29370244B9B7A34
:10343000DBB2234A23F04003DBB29372204B1B7BA9
:10344000DBB21F4A23F04003DBB213731D4B1B6832
:103450001846FDF797FA16A3D3E90023FDF736FCCB
:1034600002460B4610461946FDF7A0FD03469BB2E7
:1034700003219FED110B1846FFF78CFD114B1B68C4
:103480001846FDF77FFA0AA3D3E90023FDF71EFCD7
:1034900002460B4610461946FDF788FD03469BB2CF
:1034A00004219FED050B1846FFF774FD00BF80BD9A
:1034B000000000000088C340000000000000000081
:1034C000204C00406C000020B0B582B000AF87ED0A
:1034D000000B294B9B78DBB2274A43F04003DBB259
:1034E00093704FF00002254BD7E90001FDF736FD40
:1034F0000346002B05D04FF00002204BC7E9002304
:103500000EE04FF000021E4BD7E90001FDF744FD2D
:103510000346002B04D04FF00002194BC7E90023EB
:103520004FF000024FF00003D7E90001FDF716FD50
:103530000346002B0ED003209FED0D0BFFF7E0FD9F
:103540003C687B6883F00045042045EC104BFFF796
:10355000D7FD09E0032097ED000BFFF7D1FD042014
:103560009FED030BFFF7CCFD00BF0837BD46B0BD94
:103570000000000000000000204C00400000F0BFF0
:103580000000F03F59010000F8B500BFF8BC08BCCE
:103590009E467047F8B500BF31010000F8BC08BC7A
:0435A0009E4670478C
:1035A4003A3D0A3D0F3D243D323D023D053D133D6C
:1035B4000D3D0C3D233D113D263D013D173D083D8C
:1035C400093D0000080000204E756D206D696C6C8B
:1035D40069733A20256C750D0A0000000D0A4C61D0
:1035E40062352054696D65722064656D6F0D0A0043
:1035F4003A3D0A3D0F3D243D323D023D053D133D1C
:103604000D3D0C3D233D113D263D013D173D083D3B
:10361400093D0000232D302B20000000686C4C0075
:1036240065666745464700003031323334353637F6
:1036340038394142434445460000000030313233BA
:0D36440034353637383961626364656600DD
:043654000000000072
:0836580020CBFF7F0100000000
:103660000000000008000020000000000000000032
:10367000000000000000000000000000000000004A
:10368000000000000000000000000000000000003A
:10369000000000000000000000000000000000002A
:1036A000000000000000000000000000000000001A
:1036B000000000000000000000000000000000000A
:1036C0000000000000000000E1030000006CDC02CC
:0836D0000102040605030701D5
:04000003000000F009
:00000001FF
