:10000000000001201D230000612300006123000087
:100010006123000061230000612300000000000054
:10002000000000000000000000000000612300004C
:100030006123000000000000612300005D3C00001F
:1000400061230000612300006123000061230000A0
:100050006123000061230000612300006123000090
:100060006123000061230000612300006123000080
:100070006123000061230000612300006123000070
:100080006123000061230000612300006123000060
:100090006123000061230000612300006123000050
:1000A0006123000075300000213100006123000051
:1000B0006123000061230000612300006123000030
:1000C0006123000061230000612300006123000020
:1000D0006123000061230000612300006123000010
:0400E0006123000098
:100100000348044B834202D0034B03B118477047A6
:10011000640600206406002000000000054806492F
:100120000B1AD90F01EBA301491002D0034B03B105
:100130001847704764060020640600200000000095
:1001400010B5064C237843B9FFF7DAFF044B13B11F
:100150000448AFF300800123237010BD680600201F
:1001600000000000804F000008B5044B1BB104499B
:100170000448AFF30080BDE80840CFE7000000006E
:100180006C060020804F0000A3F5803A704700BF46
:10019000154B002B08BF114B9D46FFF7F5FF0021C3
:1001A0008B460F461148124A121A00F079F80C4B90
:1001B000002B00D098470B4B002B00D09847002015
:1001C000002104000D000B4800F016F800F044F880
:1001D0002000290002F0D0FA00F014F80000080016
:1001E0000000000000000000000001206806002060
:1001F000C01400202D020000002301461A461846B4
:1002000000F0A0B808B5074B044613B1002100F078
:10021000EFF8054B1868836A03B19847204600F051
:100220004BF900BFF1030000A44E000038B5084BA5
:10023000084D5B1B9C1007D0043B1D44013C55F846
:1002400004399847002CF9D1BDE8384004F00EBEBF
:10025000000000000000000070B50D4E0D4D761B33
:10026000B61006D0002455F8043B01349847A64246
:10027000F9D1094E094D761B04F0F2FDB61006D0F7
:10028000002455F8043B01349847A642F9D170BDCB
:100290000000000000000000604E00005C4E000006
:1002A000830730B548D0541E002A3FD0CAB2034657
:1002B00001E0013C3AD303F8012B9D07F9D1032C4F
:1002C0002DD9CDB245EA05250F2C45EA054536D98D
:1002D000A4F1100222F00F0C03F1200EE6444FEAC5
:1002E000121C03F1100242E9045542E90255103292
:1002F0007245F8D10CF1010214F00C0F03EB02125D
:1003000004F00F0C13D0ACF1040323F00303043307
:10031000134442F8045B9342FBD10CF003042CB16C
:10032000CAB21C4403F8012B9C42FBD130BD644689
:100330001346002CF4D1F9E703461446BFE71A46EA
:10034000A446E0E7F0B5264C256885B0064605B31F
:100350006C681F2C41DCA6B1D5F8880048B3D0F8F2
:10036000007140F824204FF0010C0CFA04FC00EB63
:1003700084024CEA0707022EC0F80071C2F88030F0
:1003800010D0A31C01346C6045F82310002005B088
:10039000F0BD1448144D25600028D9D00068C5F878
:1003A0008800D5E7D0F8043143EA0C03C0F80431E3
:1003B000E7E70E480191CDE9022370B14FF4847054
:1003C000AFF3008048B10027C0E94077DDE90223A0
:1003D0006C680199C5F88800C3E74FF0FF30D6E795
:1003E000100700200000000084060020000000002C
:1003F0002DE9F84FDFF8BCA0DAF800702DED028B84
:10040000E7B108EE100A89467D68D7F888806C1E2F
:1004100014D407EB8506043608EB8505B9F1000F07
:1004200010D0B8F1000F02D0EB6F4B450AD0013C61
:10043000631CA5F10405A6F10406EFD1BDEC028B07
:10044000BDE8F88F7B683268013BA34216BF0023EA
:100450007C603360002AEAD0D7F804B0B8F1000F0E
:100460001AD0D8F80001012303FA04F1014213D095
:10047000D8F80401014218D155F8041C18EE100AEE
:1004800090477A685A450BD1DAF80030BB42CED09B
:100490001F46002FB8D1D1E790477A685A45F3D06C
:1004A000DAF80070002FAFD1C8E755F8040C904778
:1004B000E7E700BF10070020FEE700BF00000000D4
:1004C000F8B52DED028B57EC106B55EC114B00F08D
:1004D000CBF8634BB0EE408AF0EE608A93F90030BF
:1004E00001332AD022462B462046294601F0EEFD54
:1004F00018BB32463B463046394601F0E7FD00283E
:1005000044D1002200233046394601F0ADFDD8B178
:10051000002200232046294601F0A6FD00283DD1F7
:1005200045EC104B00F010FF38B120462946002260
:10053000002301F0A3FD00285CD1B0EE480AF0EEE4
:10054000680ABDEC028BF8BDB0EE480AF0EE680A0E
:1005500000F0FAFE58B351EC180B0022002301F012
:1005600083FD0028E9D047EC106B00F0EDFE002879
:10057000E3D045EC104B00F0E7FE0028DDD001F0A1
:1005800053FE22239FED2E8B0360D6E7204629469B
:100590000022002301F068FD0028CED09FED2A8BB9
:1005A000B0EE480AF0EE680ABDEC028BF8BD47ECED
:1005B000106B00F0C9FE0028CDD045EC104B00F0C8
:1005C000C3FE0028C7D053EC182B18EE100A1946AA
:1005D00001F07CFD20BB01F027FE034622221A60B9
:1005E000304639460022002301F048FD48B99FED0E
:1005F000188BA2E701F018FE21239FED178B0360F3
:100600009BE745EC104B00F0B3FE224651EC100B7B
:100610002B4601F029FD0028E9D19FED0F8B8CE7D7
:1006200001F002FE0022002321210160104619463C
:1006300001F0DCFB41EC180B7FE700BFAFF300805B
:100640000000000000000000000000000000F03F7B
:10065000000000000000F07F000000000000F0FF3C
:100660006C000020000000002DE9F04F57EC116BEA
:100670002DED0C8B27F0004A5AEA060287B03DD0D8
:1006800055EC104B724925F00048884510EE102AB1
:10069000A9462CDC11EE103ABB4636D08A4526DC42
:1006A0006B498A4521D0B9F1000F39DB0021009157
:1006B000002B51D1664B9A4500F0A280654B9A45BC
:1006C00000F0B080BBF1804F00F0C084624B9B45CE
:1006D00042D1B9F1000F3FDB45EC104B07B0BDEC48
:1006E0000C8BBDE8F04F00F059BD002BDBD008F1BA
:1006F000404808F5801858EA020309D19FED500BD5
:1007000007B0BDEC0C8BBDE8F08F0CB9C245C7DD5E
:10071000524807B0BDEC0C8BBDE8F04F00F020BE96
:100720004F498A4500F38580A1F154718A450FDD58
:100730004FEA2A51A1F2FF31142940F39B84C1F101
:10074000340123FA01F000FA01F1994200F0ED843E
:1007500000210091002BB1D045EC104B029200F02B
:10076000E9FD029A5ABBB8F1000F04D0394B29F0C9
:1007700040429A4223D1BBF1000F07DA53EC102B11
:100780003449002001F032FB41EC100BB9F1000FAD
:10079000B6DA009B08F1404808F5801858EA0303D0
:1007A00040F08D8453EC102B1046194601F03CF8B4
:1007B00002460B4601F01AFB41EC100BA0E7009A31
:1007C0004FEAD973013B0493134335D0254B9A4527
:1007D0004CDD03F104739A45234B40F3DB839845CA
:1007E00040F36083BBF1000F40F3608316A3D3E9AD
:1007F00000231046194601F0CFF941EC100B7FE7BA
:1008000008F1404303F5801313433FF477AF164BD1
:10081000984540F37A83BBF1000FC0F2478347EC61
:10082000106B6DE7BBF1000FC0F21A8445EC104B62
:1008300066E7022100913BE722462B46B4E700BF62
:10084000000000000000F03F9C7500883CE4377E0B
:100850000000F07F0000F03F0000E03F7C4F000010
:10086000FFFF3F430000E041FFFFEF3FE44B09EA99
:100870000303002253B951EC100BE24B01F08CF949
:1008800041EC100B10EE908A6FF034024FEA2853BF
:10089000A3F2FF339A18DC4B0592C8F3130848F013
:1008A0007F54984544F4401407DDD84B984540F3F5
:1008B000148401320592A4F580149FEDB96B9FED6D
:1008C000BA7B53EC162BB0EE47CAF0EE67CA002590
:1008D000B0EE47DAF0EE67DA5BEC10ABA3465046B9
:1008E000594643EC1A2B00F09FFF53EC1A2B80461D
:1008F00089465046594600F099FF02460B460020B3
:10090000C34901F073FA41EC1B0B404653EC1B2B1F
:10091000494601F041F941EC180B0A460146CDE980
:1009200002120021029164104BEC19AB44F0005408
:10093000DDE902AB04F500230020591904460D46F9
:1009400002460B465046594601F026F902460B4630
:100950004046494600F068FF53EC1A2B8046894612
:100960002046294600F060FF02460B4651EC190B69
:1009700000F05AFF52465B4601F00EF902460B4664
:100980004046494600F050FF53EC1B2B01F004F9A0
:1009900053EC182B41EC190B51EC180B01F0FCF83F
:1009A00083A3D3E9002304460D4601F0F5F882A3A2
:1009B000D3E9002300F03AFF22462B4601F0ECF881
:1009C0007FA3D3E9002300F031FF22462B4601F03C
:1009D000E3F87DA3D3E9002300F028FF22462B464D
:1009E00001F0DAF87AA3D3E9002300F01FFF2246D2
:1009F0002B4601F0D1F878A3D3E9002300F016FFCD
:100A00002246804689462B462046294601F0C4F8F6
:100A100002460B464046494601F0BEF8524604469F
:100A20000D465B4651EC180B00F000FF53EC192B00
:100A300001F0B2F822462B4600F0F8FE52468046FE
:100A400089465B465046594601F0A6F802460B46D9
:100A500043EC1A2B6F4B002200F0E8FE42464B4657
:100A600000F0E4FE00240D4622462B46504659462F
:100A700001F092F8674B82468B46002220462946B9
:100A800000F0D2FE53EC1A2B00F0CEFE02460B46CD
:100A90004046494600F0C8FE53EC182B01F07CF8A4
:100AA00022462B4604460D4651EC190B01F074F812
:100AB00002460B462046294600F0B8FE804689468D
:100AC00042464B465046594600F0B0FE44A3D3E997
:100AD0000023002004460D4601F05EF8524641EC2A
:100AE000190B5B462046294600F09EFE02460B4647
:100AF0004046494600F098FE3BA3D3E9002301F0AD
:100B00004BF802460B462046294614461D4638A39C
:100B1000D3E9002301F040F802460B46204629465F
:100B200000F084FE53EC1D2B00F080FE80460598FB
:100B3000894600F0C7FF424682468B464B4651EC41
:100B4000190B00F073FE53EC1C2B00F06FFE5246A5
:100B50005B4600F06BFE52465B46002004460D46A5
:100B600000F062FE53EC1C2B00F05EFE53EC192BE0
:100B700000F05AFE02460B464046494600F054FE3D
:100B8000009B049A013B134382468B4640F0B6819A
:100B90009FED197BB0EE478AF0EE678A3CE000BF1C
:100BA000000000000000F03F000000000000000016
:100BB000EF4E454A287ECA3F65DBC9934A86CD3F42
:100BC00001411DA96074D13F4D268F515555D53F28
:100BD000FFAB6FDBB66DDB3F033333333333E33FC0
:100BE000000000E009C7EE3FFD033ADC09C7EE3F15
:100BF000F5015B14E02F3EBE000000000000F0BFD6
:100C00000000F07F000040438E98030079B60B008F
:100C10000000F03F000008400023CDE9006700938A
:100C2000DDE90089304642464B46394600F0FCFD7E
:100C300022462B4600F0B0FF32463B4606460F46A2
:100C40005046594600F0A8FF02460B46304639464A
:100C500000F0ECFD42464B4606460F46204629462C
:100C600000F09AFF04460D462B4630463946224690
:100C700000F0DCFDC24B9942804689468A4640F32B
:100C8000188101F13F4303F5E003034340F007827D
:100C9000A3A3D3E900233046394600F0C7FD02463E
:100CA0000B46404649469046994622462B4600F060
:100CB000BBFD02460B464046494601F0FDF90028BF
:100CC00040F0ED81CAF30A534FF48012A3F2FE33D1
:100CD00042FA03F35344AB49C3F30A52A2F2FF3280
:100CE00041FA02FCC3F3130141F48011C2F1140272
:100CF00041FA02F2002023EA0C01BAF1000F00923F
:100D00000B46024602DA00994942009120462946E4
:100D100000F08AFD009B1B05029302460B46044629
:100D20000D463046394600F081FD89464FF00008F7
:100D30007DA3D3E900234046494600F02DFF22461B
:100D40002B4682468B464046494600F06DFD0246E2
:100D50000B463046394600F067FD75A3D3E9002302
:100D600000F01AFF74A3D3E9002304460D46404661
:100D7000494600F011FF02460B462046294600F086
:100D800055FD06460F4632463B465046594600F052
:100D90004DFD52465B4604460D4600F045FD0246B9
:100DA0000B463046394600F03FFD224680468946D4
:100DB0002B462046294600F0EFFE61A3D3E900232D
:100DC00006460F4600F0E8FE5FA3D3E9002300F0DB
:100DD0002BFD32463B4600F0DFFE5DA3D3E9002346
:100DE00000F024FD32463B4600F0D6FE5AA3D3E97C
:100DF000002300F019FD32463B4600F0CDFE58A31B
:100E0000D3E9002300F012FD32463B4600F0C4FE59
:100E100002460B462046294600F006FD06460F46D0
:100E200032463B462046294600F0B6FE02460B46B7
:100E30003046394616461F4600224FF0804300F0E8
:100E4000F3FC02460B463046394600F0CFFF4246DF
:100E500006460F464B462046294600F09DFE424678
:100E60004B4600F0E3FC02460B463046394600F0A4
:100E7000DBFC22462B4600F0D7FC02460B46002046
:100E8000414900F0D1FC029A0B461344B3F5801F90
:100E9000C0F24381194653EC182B00F07DFE41EC63
:100EA000100B2DE4BBF1000FFFF6A0AC9FED2E0B55
:100EB00026E4DFF8DCC021F00043634540F3E7801F
:100EC000324B0B4403430AD122462B4600F0ACFCC4
:100ED00032463B4601F0E6F800283FF4F3AE24A387
:100EE000D3E9002351EC180B00F056FE20A3D3E900
:100EF000002300F051FE41EC100B01E49FED1E7B3E
:100F0000B0EE478AF0EE678A86E6BBF1000FCDDAD5
:100F100007F1004300EE106A00EE903AFFF7F0BBD5
:100F2000FE822B654715973C00000000432EE63FEC
:100F3000EF39FAFE422EE63F396CA80C615C20BE08
:100F4000D0A4BE726937663EF16BD2C541BDBB3ECF
:100F50002CDE25AF6A56113F93BDBE166CC1663FAD
:100F60003E5555555555C53F000000000000000096
:100F700059F3F8C21F6EA501000000000000F03F09
:100F8000FFFF8F40FFFF0F000000F03F00346F3F76
:100F9000FFCB9040984585DB7D4B98453FF722ACD1
:100FA00051EC100B7A4B002200F03EFC68A3D3E911
:100FB000002304460D4600F0EFFD67A3D3E90023AC
:100FC00082468B462046294600F0E6FD714B41ECF7
:100FD000180B00222046294600F0DEFD02460B4693
:100FE0005FA1D1E9000100F01FFC22462B4600F072
:100FF000D3FD02460B460020674900F015FC22464F
:10100000804689462B462046294600F0C5FD02460B
:101010000B464046494600F0BFFD53A3D3E90023E9
:1010200000F0BAFD02460B4651EC180B00F0FCFB39
:101030008046894642464B465046594600F0F6FBEC
:10104000002052465B4604460D4691E522462B465B
:101050002046294600F0A0FD41EC100BFFF750BBE5
:101060004B49002022462B4600F0C0FE41EC100BFD
:10107000FFF746BB002B44D1C1F114014AFA01F03D
:1010800000FA01F151455AD00093FFF717BB424ACD
:1010900093425BDCDDE900120291009146E634A345
:1010A000D3E9002351EC180B00F076FD30A3D3E90F
:1010B000002300F071FD41EC100BFFF721BB009BFA
:1010C000012B7FF41DAB10EE901A10EE102A01F1E7
:1010D000004343EC102BFFF713BB9FED277BB0EED3
:1010E00047CAF0EE67CA9FED267BB0EE47DAF0EE16
:1010F00067DA9FED257B4FF4802553EC172BFFF724
:10110000EBBB45EC104B009200F014F9009A002A5A
:101110007FF492AB0092FFF726BB41EC100B0098D6
:1011200000F0C2F951EC100BB5E600F00100C0F17F
:1011300002010091002B3FF4C1AAFFF70DBB00F0A4
:101140000100C0F102030093FFF7B8BA1B15BBE51D
:10115000000000604715F73F44DF5DF80BAE543EDA
:10116000555555555555D53FFE822B654715F73FCB
:101170009C7500883CE4377E0000004003B8E23FE5
:1011800006D0CF43EBFD4C3E000000000000F83FCE
:101190000000F03F0000D03F0000E03F2DE9F041AB
:1011A000634A55EC104BAA4300F09F80002D10EECF
:1011B00010CA2B4654DD291563D0C3F31303A1F2E3
:1011C000FF37C90743F4801304D45B0003EBDC73DF
:1011D0004FEA4C0C4FEADC72002602EB43037F100F
:1011E0004FEA4C0C4FF0160E34464FF40012A11883
:1011F000994202DC5B1A8C1816445B00BEF1010EAA
:1012000003EBDC734FEA52024FEA4C0CEFD1754608
:1012100020204FF000420AE044D04FEADC71013850
:1012200001EB43034FEA4C0C4FEA520243D0A34276
:1012300002EB0E01F0DD002901EB020E0ADBA046F5
:101240001B1B614588BF03F1FF33ACEB010C154458
:101250004446E2E7BEF1000FF1DB04F10108EFE7DD
:1012600025F00042224338D0002D4ED129464FEAC6
:10127000DC22153913464FEA4C5C002AF7D0D6021F
:1012800050D400205B00DD02044600F10100F9D5D6
:101290001A4663460CFA00FCC0F12000C340091B4B
:1012A00013438AE76145B8D8002901EB020ED1DB70
:1012B00098460023C9E753EA0C0310D1680871105F
:1012C000F30701F17F5101F5001148BF40F00040E4
:1012D00001EB0753024643EC102BBDE8F0816A1C7A
:1012E00016BF681C01364008E9E710EE102A10EE20
:1012F000100A2B46294600F04FFC22462B4600F0F0
:1013000095FA41EC100BBDE8F08110EE102A204652
:10131000294600F089FA02460B4600F067FD41ECD1
:10132000100BDAE7634620204FF0FF34B6E700BF2A
:101330000000F07F51EC100B10EE102A21F000435A
:1013400043EC102B704700BF82B08DED000B01986D
:1013500040F0004000F58010C00F02B0704700BFA1
:101360009FED010B704700BF000000000000F87FF8
:10137000F0B553EC102BC3F30A5CACF2FF31132928
:1013800010EE100A83B01C464FEAD37E3ADC0029E7
:1013900030DB424D45FA01FC03EA0C0515432DD024
:1013A00003EA5C0318434FEA5C0C0CD024EA0C0CF3
:1013B0004FF48024132944FA01F10CBF4FF0004090
:1013C00000204CEA0104364901EBCE0E2346DEE94B
:1013D000004502462946204600F028FACDE90001E2
:1013E000DDE9000122462B4600F01EFA41EC100B0D
:1013F00003B0F0BD23F00041114324D143EC102B86
:1014000003B0F0BD332908DDB1F5806FF6D1194680
:1014100000F00CFA41EC100BF2E7ACF2134C4FF079
:10142000FF3121FA0CF10A42E8D010EA51024FEAEA
:101430005103C8D020EA03034FF0804040FA0CFC6F
:1014400043EA0C00BFE7C3F313031843144A4342B3
:10145000034302EBCE0E1B0B620C03F40023520479
:1014600043EA02073B46DEE9006710EE102A3046E9
:10147000394600F0DBF9CDE9000132463B46DDE9B3
:10148000000100F0D1F904F0004421F000410246CF
:1014900041EA040343EC102B03B0F0BDFFFF0F0043
:1014A000484F00000000000038B553EC102BC3F388
:1014B0000A5104469C4689BB10EE101A23F0004CDA
:1014C0005CEA010129D0194600223D4B3D4D10EE4A
:1014D000100A00F061FBAC4202460B4616DB8C465C
:1014E000C1F30A513639214440F2FE70814221DCB9
:1014F000002947DC11F1350F34DA4CF250318C42BF
:1015000018DC002B26A1D1E9000144DB24A3D3E998
:10151000002300F041FB41EC100B38BD40F2FF709E
:101520008142E0D110EE100A194600F07FF941EC3B
:10153000100B38BD002B1CA1D1E9000107DB1AA359
:10154000D3E9002300F028FB41EC100B38BD18A1B3
:10155000D1E9000114A3D3E9002300F01DFB41EC05
:10156000100BF3E72CF0FF4C2CF4E00C36314CEA76
:101570000153104619460022134B00F00DFB41ECBD
:10158000100B38BD2CF0FF4C2CF4E00C4CEA01534E
:1015900043EC102B38BD08A1D1E90001B6E700BF2C
:1015A00059F3F8C21F6EA5019C7500883CE4377E94
:1015B0009C7500883CE437FE59F3F8C21F6EA58184
:1015C00000005043B03CFFFF0000903C70B54FF06E
:1015D000FF0C4CF4E06C1CEA11541DBF1CEA1355BF
:1015E00094EA0C0F95EA0C0F00F0DEF82C4481EA27
:1015F000030621EA4C5123EA4C5350EA013518BF47
:1016000052EA033541F4801143F4801338D0A0FB33
:1016100002CE4FF00005E1FB02E506F00042E0FBE0
:1016200003E54FF00006E1FB03569CF0000F18BFE6
:101630004EF0010EA4F1FF04B6F5007F64F540748E
:1016400004D25FEA4E0E6D4146EB060642EAC62121
:1016500041EA55514FEAC52040EA5E504FEACE2E8E
:10166000B4F1FD0C88BFBCF5E06F1ED8BEF1004F91
:1016700008BF5FEA500E50F1000041EB045170BD0D
:1016800006F0004646EA010140EA020081EA030151
:10169000B4EB5C04C2BFD4EB0C0541EA045170BD4D
:1016A00041F480114FF0000E013C00F3AB8014F1C7
:1016B000360FDEBF002001F0004170BDC4F1000410
:1016C000203C35DA0C341BDC04F11404C4F1200591
:1016D00000FA05F320FA04F001FA05F240EA0200EC
:1016E00001F0004221F0004110EBD37021FA04F622
:1016F00042EB06015EEA430E08BF20EAD37070BDDC
:10170000C4F10C04C4F1200500FA04F320FA05F03A
:1017100001FA04F240EA020001F0004110EBD3703C
:1017200041F100015EEA430E08BF20EAD37070BDAC
:10173000C4F1200500FA05F24EEA020E20FA04F385
:1017400001FA05F243EA020321FA04F001F0004134
:1017500021FA04F220EA020000EBD3705EEA430EA5
:1017600008BF20EAD37070BD94F0000F0FD101F0D4
:101770000046400041EB010111F4801F08BF013C0D
:10178000F7D041EA060195F0000F18BF704703F04B
:101790000046520043EB030313F4801F08BF013DD2
:1017A000F7D043EA0603704794EA0C0F0CEA13558E
:1017B00018BF95EA0C0F0CD050EA410618BF52EA48
:1017C0004306D1D181EA030101F000414FF000004E
:1017D00070BD50EA410606BF1046194652EA43065C
:1017E00019D094EA0C0F02D150EA013613D195EAD0
:1017F0000C0F05D152EA03361CBF104619460AD118
:1018000081EA030101F0004141F0FE4141F4700121
:101810004FF0000070BD41F0FE4141F4780170BD11
:1018200081F0004102E000BF83F0004330B54FEA91
:1018300041044FEA430594EA050F08BF90EA020FFE
:101840001FBF54EA000C55EA020C7FEA645C7FEA91
:10185000655C00F0E2804FEA5454D4EB5555B8BFB4
:101860006D420CDD2C4480EA020281EA030382EA25
:10187000000083EA010180EA020281EA0303362DB7
:1018800088BF30BD11F0004F4FEA01314FF4801C8A
:101890004CEA113102D0404261EB410113F0004F9C
:1018A0004FEA03334CEA133302D0524263EB430353
:1018B00094EA050F00F0A780A4F10104D5F1200EF1
:1018C0000DDB02FA0EFC22FA05F2801841F100014C
:1018D00003FA0EF2801843FA05F359410EE0A5F120
:1018E00020050EF1200E012A03FA0EFC28BF4CF051
:1018F000020C43FA05F3C01851EBE37101F0004507
:1019000007D54FF0000EDCF1000C7EEB00006EEB13
:101910000101B1F5801F1BD3B1F5001F0CD349089D
:101920005FEA30004FEA3C0C04F101044FEA4452F4
:1019300012F5800F80F09A80BCF1004F08BF5FEA7B
:10194000500C50F1000041EB045141EA050130BD5B
:101950005FEA4C0C404141EB0101013C28BFB1F56D
:10196000801FE9D291F0000F04BF01460020B1FAB8
:1019700081F308BF2033A3F10B03B3F120020CDA8B
:101980000C3208DD02F1140CC2F10C0201FA0CF069
:1019900021FA02F10CE002F11402D8BFC2F1200CCE
:1019A00001FA02F120FA0CFCDCBF41EA0C01904084
:1019B000E41AA2BF01EB0451294330BD6FEA0404CD
:1019C0001F3C1CDA0C340EDC04F11404C4F12002B8
:1019D00020FA04F001FA02F340EA030021FA04F3CA
:1019E00045EA030130BDC4F10C04C4F1200220FA21
:1019F00002F001FA04F340EA0300294630BD21FA5F
:101A000004F0294630BD94F0000F83F4801306BF24
:101A100081F480110134013D4EE77FEA645C18BF18
:101A20007FEA655C29D094EA050F08BF90EA020FAF
:101A300005D054EA000C04BF1946104630BD91EAA7
:101A4000030F1EBF0021002030BD5FEA545C05D1AA
:101A50004000494128BF41F0004130BD14F58004E9
:101A60003CBF01F5801130BD01F0004545F0FE415D
:101A700041F470014FF0000030BD7FEA645C1ABF92
:101A8000194610467FEA655C1CBF0B46024650EAC9
:101A9000013406BF52EA033591EA030F41F40021F5
:101AA00030BD00BF90F0000F04BF0021704730B57B
:101AB0004FF4806404F132044FF000054FF0000150
:101AC00050E700BF90F0000F04BF0021704730B511
:101AD0004FF4806404F1320410F0004548BF4042E6
:101AE0004FF000013EE700BF42004FEAE2014FEA3B
:101AF00031014FEA02701FBF12F07F4393F07F4F16
:101B000081F06051704732F07F4208BF704793F018
:101B10007F4F04BF41F40021704730B54FF460742B
:101B200001F0004521F000411CE700BF50EA01022E
:101B300008BF704730B54FF000050AE050EA0102D7
:101B400008BF704730B511F0004502D5404261EB47
:101B500041014FF4806404F132045FEA915C3FF488
:101B6000D8AE4FF003025FEADC0C18BF03325FEA25
:101B7000DC0C18BF033202EBDC02C2F1200300FAD6
:101B800003FC20FA02F001FA03FE40EA0E0021FAFB
:101B900002F11444BDE600BF70B54FF0FF0C4CF4E9
:101BA000E06C1CEA11541DBF1CEA135594EA0C0F9B
:101BB00095EA0C0F00F0DEF82C4481EA030621EAD6
:101BC0004C5123EA4C5350EA013518BF52EA033511
:101BD00041F4801143F4801338D0A0FB02CE4FF0C3
:101BE0000005E1FB02E506F00042E0FB03E54FF0F3
:101BF0000006E1FB03569CF0000F18BF4EF0010EEB
:101C0000A4F1FF04B6F5007F64F5407404D25FEAE6
:101C10004E0E6D4146EB060642EAC62141EA555199
:101C20004FEAC52040EA5E504FEACE2EB4F1FD0CDB
:101C300088BFBCF5E06F1ED8BEF1004F08BF5FEA59
:101C4000500E50F1000041EB045170BD06F000460B
:101C500046EA010140EA020081EA0301B4EB5C04B8
:101C6000C2BFD4EB0C0541EA045170BD41F48011B0
:101C70004FF0000E013C00F3AB8014F1360FDEBFD5
:101C8000002001F0004170BDC4F10004203C35DAB1
:101C90000C341BDC04F11404C4F1200500FA05F334
:101CA00020FA04F001FA05F240EA020001F00042D5
:101CB00021F0004110EBD37021FA04F642EB06014B
:101CC0005EEA430E08BF20EAD37070BDC4F10C0475
:101CD000C4F1200500FA04F320FA05F001FA04F239
:101CE00040EA020001F0004110EBD37041F1000125
:101CF0005EEA430E08BF20EAD37070BDC4F1200530
:101D000000FA05F24EEA020E20FA04F301FA05F297
:101D100043EA020321FA04F001F0004121FA04F23F
:101D200020EA020000EBD3705EEA430E08BF20EA0F
:101D3000D37070BD94F0000F0FD101F00046400049
:101D400041EB010111F4801F08BF013CF7D041EACB
:101D5000060195F0000F18BF704703F000465200CF
:101D600043EB030313F4801F08BF013DF7D043EAA0
:101D70000603704794EA0C0F0CEA135518BF95EA56
:101D80000C0F0CD050EA410618BF52EA4306D1D1DD
:101D900081EA030101F000414FF0000070BD50EAFC
:101DA000410606BF1046194652EA430619D094EA86
:101DB0000C0F02D150EA013613D195EA0C0F05D170
:101DC00052EA03361CBF104619460AD181EA0301C4
:101DD00001F0004141F0FE4141F470014FF000007C
:101DE00070BD41F0FE4141F4780170BD70B54FF017
:101DF000FF0C4CF4E06C1CEA11541DBF1CEA135597
:101E000094EA0C0F95EA0C0F00F0A7F8A4EB050478
:101E100081EA030E52EA03354FEA013100F088806F
:101E20004FEA03334FF0805545EA131343EA126338
:101E30004FEA022245EA111545EA10654FEA0026ED
:101E40000EF000419D4208BF964244F1FD0404F5A6
:101E5000407402D25B084FEA3202B61A65EB030502
:101E60005B084FEA32024FF480104FF4002CB6EBBF
:101E7000020E75EB030E22BFB61A754640EA0C003F
:101E80005B084FEA3202B6EB020E75EB030E22BF7F
:101E9000B61A754640EA5C005B084FEA3202B6EBC0
:101EA000020E75EB030E22BFB61A754640EA9C007F
:101EB0005B084FEA3202B6EB020E75EB030E22BF4F
:101EC000B61A754640EADC0055EA060E18D04FEA0D
:101ED000051545EA16754FEA06164FEAC30343EAAD
:101EE00052734FEAC2025FEA1C1CC0D111F4801F7A
:101EF0000BD141EA00014FF000004FF0004CB6E773
:101F000011F4801F04BF01430020B4F1FD0C88BF11
:101F1000BCF5E06F3FF6AFAEB5EB030C04BFB6EB1C
:101F2000020C5FEA500C50F1000041EB045170BD0F
:101F30000EF0004E4EEA113114EB5C04C2BFD4EB3C
:101F40000C0541EA045170BD41F480114FF0000EC0
:101F5000013C90E645EA060E8DE60CEA135594EA3C
:101F60000C0F08BF95EA0C0F3FF43BAF94EA0C0F3F
:101F70000AD150EA01347FF434AF95EA0C0F7FF4B4
:101F800025AF104619462CE795EA0C0F06D152EA08
:101F900003353FF4FDAE1046194622E750EA4106EC
:101FA00018BF52EA43067FF4C5AE50EA41047FF4FD
:101FB0000DAF52EA43057FF4EBAE12E74FF0FF3C62
:101FC00006E000BF4FF0010C02E000BF4FF0010C33
:101FD0004DF804CD4FEA410C7FEA6C5C4FEA430CAC
:101FE00018BF7FEA6C5C1BD001B050EA410C0CBFFB
:101FF00052EA430C91EA030F02BF90EA020F00205D
:10200000704710F1000F91EA030F58BF994208BFC3
:1020100090422CBFD8176FEAE37040F00100704780
:102020004FEA410C7FEA6C5C02D150EA013C07D1D7
:102030004FEA430C7FEA6C5CD6D152EA033CD3D022
:102040005DF8040B704700BF8446104662468C461C
:102050001946634600E000BF01B5FFF7B7FF00284F
:1020600048BF10F1000F01BD4DF808EDFFF7F4FF78
:102070000CBF012000205DF808FB00BF4DF808ED03
:10208000FFF7EAFF34BF012000205DF808FB00BF26
:102090004DF808EDFFF7E0FF94BF012000205DF848
:1020A00008FB00BF4DF808EDFFF7CEFF94BF0120FD
:1020B00000205DF808FB00BF4DF808EDFFF7C4FFF6
:1020C00034BF012000205DF808FB00BF4FEA410C3F
:1020D0007FEA6C5C02D150EA013C0AD14FEA430C22
:1020E0007FEA6C5C02D152EA033C02D14FF000005F
:1020F00070474FF0010070474FEA410212F500129D
:1021000015D211D56FF47873B3EB625212D94FEA3E
:10211000C12343F0004343EA505311F0004F23FA28
:1021200002F018BF404270474FF00000704750EA7D
:10213000013005D111F0004008BF6FF0004070473A
:102140004FF00000704700BF4A0011D212F5001294
:1021500011D20DD56FF47873B3EB62520ED44FEAFF
:10216000C12343F0004343EA505323FA02F070477F
:102170004FF00000704750EA013002D14FF0FF30BD
:1021800070474FF0000070474FEA4102B2F1E04360
:1021900024BFB3F5001CDCF1FE5C0DD901F0004C4E
:1021A0004FEAC0024CEA5070B2F1004F40EB83009E
:1021B00008BF20F00100704711F0804F21D113F1CA
:1021C0003872BCBF01F00040704741F480114FEA03
:1021D0005252C2F11802C2F1200C10FA0CF320FA8C
:1021E00002F018BF40F001004FEAC1234FEAD323A9
:1021F00003FA0CFC40EA0C0023FA02F34FEA430313
:10220000CCE77FEA625307D150EA01331EBF4FF09B
:10221000FE4040F44000704701F0004040F0FE40B6
:1022200040F40000704700BF014B1868704700BFC2
:10223000040000200000000000000000000000007A
:1022400090F800F06DE9024520F007016FF0000CF6
:1022500010F0070491F820F040F049804FF000049E
:102260006FF00700D1E9002391F840F000F1080079
:1022700082FA4CF2A4FA8CF283FA4CF3A2FA8CF3B1
:102280004BBBD1E9022382FA4CF200F10800A4FA18
:102290008CF283FA4CF3A2FA8CF3E3B9D1E904236C
:1022A00082FA4CF200F10800A4FA8CF283FA4CF3A3
:1022B000A2FA8CF37BB9D1E9062301F1200182FA5D
:1022C0004CF200F10800A4FA8CF283FA4CF3A2FA63
:1022D0008CF3002BC6D0002A04BF04301A4612BA71
:1022E000B2FA82F2FDE8024500EBD2007047D1E974
:1022F000002304F00305C4F100004FEAC50514F003
:10230000040F91F840F00CFA05F562EA05021CBFD3
:1023100063EA050362464FF00004A9E780B582B086
:1023200000AF0C4B7B600C4B3B6007E07A68131DE1
:102330007B603B68191D396012681A603B68074A68
:102340009342F3D300F094F9FDF722FF00BF083762
:10235000BD4680BD8C4F00000000002064060020B8
:1023600080B400AFFEE7000080B489B000AFA44B9A
:102370009B681B0C03F00703FB600122FB6802FA59
:1023800003F3FB729E4B9B6803F007037B607B6843
:10239000052B00F2638101A252F823F0B52300005F
:1023A0003524000047240000752400009525000016
:1023B000A5250000934B1B78DBB2002B31D0904B4E
:1023C00046F65A121A608E4B1B6D8D4A43F001037C
:1023D00013658B4B01221A608A4B1B78DBB2002BF2
:1023E00016D0894B1B78DBB2002B08D0FB7A4FF458
:1023F000FA3292FBF3F31A46844B1A602EE1FB7A11
:102400004FF4FA4292FBF3F31A46804B1A6025E12F
:10241000FB7A4FF4004292FBF3F31A467B4B1A60AF
:102420001CE1FB7A4FF4004292FBF3F31A46774B20
:102430001A6013E1FB7A42F2107292FBF3F31A4630
:10244000724B1A600AE1704B1B78DBB2002B08D08C
:10245000FB7A4FF4FA3292FBF3F31A466B4B1A6095
:10246000FCE0FB7A4FF4FA4292FBF3F31A46674B17
:102470001A60F3E0624B5B681BB2C3F309037B8213
:102480005F4B5B6803F4E023B3F5A02F29D0B3F5CD
:10249000A02F29D8B3F5802F20D0B3F5802F23D8D3
:1024A000B3F5403F17D0B3F5403F1DD8B3F5003F1B
:1024B0000ED0B3F5003F17D8002B03D0B3F5803F03
:1024C00003D011E0524B7B610EE0524B7B610BE07D
:1024D000514B7B6108E0514B7B6105E0504B7B61C8
:1024E00002E0504B7B6100BFB7F91230002B03D1E3
:1024F000464A7B691360B1E07B8A03F48053002B6A
:1025000005D07B8A6FEA03536FEA13537B82464BF5
:102510001B78DBB2002B06D0444B1B68FB61444B9D
:10252000DB6EBB6105E0434B1B68FB61404BDB6C22
:10253000BB617B6907EE903AF8EE676AB7F9123033
:1025400007EE903AB8EEE77AD7ED077A27EE276ADA
:10255000BB69C3F5407307EE903AB8EEE77AD7ED62
:10256000077A67EE277AB7EE007A77EE877AB2EECF
:10257000007A27EE877AC6EE077AB7EE007A37EE52
:10258000677AC6EE877AFCEEE77A17EE902A1F4B41
:102590001A6063E0FB7A224A92FBF3F31A461B4B64
:1025A0001A605BE0244B1B78DBB2002B4ED0144B3F
:1025B00046F65A121A60124B1B6D114A43F0020381
:1025C00013650F4B01221A601B4B1B78DBB2002BEB
:1025D00034D00D4B1B78DBB2002B08D0FB7A4FF4C4
:1025E000FA3292FBF3F31A46084B1A6035E0FB7A95
:1025F0004FF4FA4292FBF3F31A46044B1A602CE0B4
:1026000000040140008920423C86204270000020E6
:1026100060E31600C0C62D00808D5B00001BB70074
:1026200000366E01006CDC02D8802042841020004D
:10263000001020006410200004892042FB7A0A4A1E
:1026400092FBF3F31A46094B1A6006E0FB7A064A3E
:1026500092FBF3F31A46054B1A6000BF00BF243704
:10266000BD465DF8047B7047006CDC027000002002
:1026700080B400AF294BD3F88830284A43F4700364
:10268000C2F88830264B4FF4B5429A81254B802200
:102690005A6100BF244B5B6803F48073002BF9D1AF
:1026A000214B224A1A6000BF1F4B5B6803F4807302
:1026B000002BF9D11E4B1B6923F470431C4A43F4D1
:1026C000805313611A4B5B6923F47043184A43F437
:1026D00080535361174B46F65A121A60154B4FF44C
:1026E000A0225A60134B9B6823F00713114A43F052
:1026F000030393600F4B00221A600D4B1B690C4AB9
:1027000043F0300313610A4B5B69094A43F030031D
:10271000536100BFBD465DF8047B704700ED00E0EB
:1027200000480040003004E00000014001005A6908
:10273000001001400004014080B500AF054B0022AD
:102740001A7001F095F901F0C7F900F053FD00BFD0
:1027500080BD00BF5C08002080B400AF044B1B6844
:102760000133034A136000BFBD465DF8047B704728
:10277000140700200000000080B586B000AF00F014
:1027800058FA894800F068FA9FED830B00F002FCCC
:10279000034600221946854800F082FC00F0DEFC6A
:1027A00000F074FA00F0A4FA00F024FB00F0A4FD9D
:1027B00000F0B6FF01F074F8FFF7BEFF7C4BDB784A
:1027C000DBB27B4A23F00103DBB2D370784BDB78BA
:1027D000DBB2774A23F00203DBB2D370744BDB78B1
:1027E000DBB2734A23F00403DBB2D370704B9B78E7
:1027F000DBB26F4A23F00103DBB2937000237B61ED
:1028000000233B614FF4FA637B600023FB600023ED
:10281000FB7200F0ABFB0346002B13D03B69002B8F
:1028200010D17B695A1C634B83FB0231D317C91A41
:102830000B465B000B44D31A7B615F4B1B68FB604C
:102840000123FB7200F092FB03463B617B69022B84
:102850003BD07B69022B51DC7B69002B03D07B6969
:10286000012B19D04AE0524BDB78DBB2504A43F0DF
:102870000103DBB2D3704E4BDB78DBB24C4A23F062
:102880000203DBB2D3704A4BDB78DBB2484A23F059
:102890000403DBB2D37031E0454BDB78DBB2444A52
:1028A00023F00103DBB2D370414BDB78DBB2404A4B
:1028B00043F00203DBB2D3703D4BDB78DBB23C4A22
:1028C00023F00403DBB2D37018E0394BDB78DBB2C2
:1028D000374A23F00103DBB2D370354BDB78DBB230
:1028E000334A23F00203DBB2D370314BDB78DBB227
:1028F0002F4A43F00403DBB2D37000BF2E4B1A689B
:10290000FB68D31A3B60FB7A002B10D07B68DA0F90
:1029100013445B101A463B68934208D9244B9B78BA
:10292000DBB2234A43F00103DBB2937007E0204B94
:102930009B78DBB21E4A23F00103DBB29370FB7A73
:10294000002B1BD07B683A689A4217D90023FB7290
:102950007B69022B0FD07B69022B10DC7B69002B7B
:1029600003D07B69012B03D009E001F095F906E063
:1029700001F0E6FA03E002F06BF900E000BF9FED22
:10298000080B00F02DFF9FED060B00F0E9FF9FED17
:10299000040B00F021FD3CE70000000000408F40E8
:1029A0000000000000000000A84E000059270000B1
:1029B000004C0040565555551407002080B400AF18
:1029C0001E4B1B889BB21D4A43F0C1039BB2138070
:1029D0001B4B1B681B4AA2FB03231A0C174B92B21A
:1029E000DA80164B1B899BB2144A03F00F039BB28B
:1029F0001381154B9B7ADBB2134A43F00C03DBB215
:102A00009372114B1B7BDBB20F4A23F00C03DBB23A
:102A100013730A4B1B889BB2084A23F001039BB235
:102A20001380064B5B8B9BB2044A23F00F039BB2CF
:102A3000538300BFBD465DF8047B70470010004023
:102A400070000020C5B3A291004C004080B400AFDC
:102A500000BF084B9B8B9BB203F00103002BF8D007
:102A6000044B9B899BB2DBB21846BD465DF8047BE4
:102A7000704700BF0010004080B400AF054B9B8B37
:102A80009BB2DBB203F00103DBB21846BD465DF832
:102A9000047B70470010004080B483B000AF034651
:102AA000FB7100BF084B9B8B9BB203F00203002B12
:102AB000F8D0054BFA7992B2DA8100BF0C37BD46E7
:102AC0005DF8047B704700BF0010004080B582B005
:102AD00000AF786006E07B685A1C7A601B78184665
:102AE000FFF7DAFF7B681B78002BF4D100BF00BF33
:102AF0000837BD4680BD000080B400AF1E4B1B8868
:102B00009BB21D4A43F0C1039BB213801B4B1B6851
:102B10001B4AA2FB03231A0C174B92B2DA80164B06
:102B20001B899BB2144A03F00F039BB21381154B10
:102B30009B7ADBB2134A43F00C03DBB29372114B66
:102B40001B7BDBB20F4A23F00C03DBB213730A4B7F
:102B50001B889BB2084A23F001039BB21380064BEB
:102B60005B8B9BB2044A23F00F039BB2538300BFDD
:102B7000BD465DF8047B70470018004070000020DF
:102B8000C5B3A291204C004080B400AF00BF084BF9
:102B90009B8B9BB203F00103002BF8D0044B9B8965
:102BA0009BB2DBB21846BD465DF8047B704700BFA0
:102BB0000018004080B400AF054B9B8B9BB2DBB28A
:102BC00003F00103DBB21846BD465DF8047B704795
:102BD0000018004080B483B000AF0346FB7100BF13
:102BE000084B9B8B9BB203F00203002BF8D0054BE4
:102BF000FA7992B2DA8100BF0C37BD465DF8047BEA
:102C0000704700BF0018004080B582B000AF786008
:102C100006E07B685A1C7A601B781846FFF7DAFFDB
:102C20007B681B78002BF4D100BF00BF0837BD467E
:102C300080BD80B500AFFFF7C1FE00BF80BD80B58D
:102C400082B000AF0346FB71FB791846FFF724FF03
:102C500000BF0837BD4680BD80B582B000AF786048
:102C60007868FFF733FF00BF0837BD4680BD80B5E9
:102C700000AFFFF7EBFE0346184680BD80B500AFFE
:102C8000FFF7FAFE0346184680BD000080B400AF8F
:102C9000164B9B7ADBB2154A23F00103DBB2937229
:102CA000124B1B7BDBB2114A23F00103DBB213731F
:102CB0000E4B1B7ADBB20D4A43F00103DBB21372F9
:102CC0000A4B1B79DBB2094A43F00103DBB21371F3
:102CD000064B9B78DBB2054A23F00103DBB293700D
:102CE00000BFBD465DF8047B704700BF004C00404C
:102CF00080B400AF3E4BDB7ADBB23D4A23F00103E8
:102D0000DBB2D3723A4B5B7BDBB2394A23F001036F
:102D1000DBB25373364BDB7ADBB2354A23F0040364
:102D2000DBB2D372324B5B7BDBB2314A23F004035C
:102D3000DBB253732E4BDB7ADBB22D4A23F0020356
:102D4000DBB2D3722A4B5B7BDBB2294A23F002034E
:102D5000DBB25373264B5B7ADBB2254A43F00103A7
:102D6000DBB25372224B5B7ADBB2214A43F002039F
:102D7000DBB253721E4B5B7ADBB21D4A43F0040395
:102D8000DBB253721A4B5B79DBB2194A43F0010391
:102D9000DBB25371164B5B79DBB2154A43F0020389
:102DA000DBB25371124B5B79DBB2114A43F004037F
:102DB000DBB253710E4BDB78DBB20D4A23F001031B
:102DC000DBB2D3700A4BDB78DBB2094A23F0020393
:102DD000DBB2D370064BDB78DBB2054A23F0040389
:102DE000DBB2D37000BFBD465DF8047B704700BF07
:102DF000004C004080B483B000AF1223FB711E4B27
:102E00009B7ADBB25AB297F90730DB435BB21340CF
:102E10005AB2194BD2B29A72174B1B7BDBB25AB221
:102E200097F90730DB435BB213405AB2124BD2B270
:102E30001A73114B1B79DBB25AB297F90730DB4397
:102E40005BB213405AB20C4BD2B21A710A4B9B7848
:102E5000DAB20949FB791343DBB28B70064B9B79DD
:102E6000DAB20549FB791343DBB28B7100BF0C3733
:102E7000BD465DF8047B7047004C004080B400AF55
:102E8000164B9B7ADBB2154A23F00203DBB2937236
:102E9000124B1B7BDBB2114A23F00203DBB213732C
:102EA0000E4B1B79DBB20D4A23F00203DBB2137128
:102EB0000A4B9B78DBB2094A43F00203DBB2937002
:102EC000064B9B79DBB2054A43F00203DBB29371F8
:102ED00000BFBD465DF8047B704700BF004C00405A
:102EE00080B400AF164B9B7ADBB2154A23F0100377
:102EF000DBB29372124B1B7BDBB2114A23F010033F
:102F0000DBB213730E4B1B79DBB20D4A23F01003B7
:102F1000DBB213710A4B9B78DBB2094A43F0100312
:102F2000DBB29370064B9B79DBB2054A43F010038A
:102F3000DBB2937100BFBD465DF8047B704700BFF4
:102F4000004C004080B400AF074B1B78DBB203F0AD
:102F50000203002B0CBF01230023DBB21846BD4641
:102F60005DF8047B704700BF004C004080B400AFA8
:102F7000074B1B78DBB203F01003002B0CBF0123BF
:102F80000023DBB21846BD465DF8047B704700BFE6
:102F9000004C004080B584B000AF87ED000B4FF0CF
:102FA00000024FF00003C7E902230B4B1B681846D1
:102FB000FEF778FDD7E90023FEF718FF02460B461F
:102FC000C7E90223D7E90201FFF7BEF80346184616
:102FD0001037BD4680BD00BF7000002080B400AF38
:102FE000034B01221A7000BFBD465DF8047B704799
:102FF0003007002080B586B000AFF860B960134696
:10300000FB71154ABB68136000F0B0F87861134A91
:10301000FB681360124A104B1B681360114B0022AF
:103020001A60FB7963F01D03DAB20F4B1A600F4B85
:103030001B6823F47F430D4A43F4804313600C4B19
:103040001B680B4A43F000731360786900F09CF82A
:1030500000BF1837BD4680BD28070020200700208C
:1030600000C000400CC0004008C0004018E400E070
:1030700000E100E080B500AF054B00221A60054B6F
:103080001B689847044A054B1B68136000BF80BD4E
:103090000CC000402007002000C00040280700208E
:1030A00080B586B000AFF860B9601346FB71154A71
:1030B000BB68136000F05AF87861134AFB6813602C
:1030C000124A104B1B681360114B00221A60FB79E7
:1030D00063F01D03DAB20F4B1A600F4B1B6823F429
:1030E0007F430D4A43F4804313600C4B1B680B4A2B
:1030F00043F080631360786900F046F800BF18372A
:10310000BD4680BD2C0700202407002020C00040C1
:103110002CC0004028C0004018E400E000E100E0BE
:1031200080B500AF054B00221A60054B1B6898471D
:10313000044A054B1B68136000BF80BD2CC00040D3
:103140002407002020C000402C07002080B400AFDE
:1031500072B600BFBD465DF8047B704780B400AF17
:1031600062B600BFBD465DF8047B704780B483B093
:1031700000AFEFF3108372B67B607B6818460C37A4
:10318000BD465DF8047B704780B483B000AF7860C3
:1031900080F3108800BF0C37BD465DF8047B704794
:1031A00080B400AF30BF00BFBD465DF8047B704700
:1031B00080B483B000AF78607B68013BFDD100BF75
:1031C0000C37BD465DF8047B704780B582B000AF18
:1031D000786006E04FF4FA50FFF7EAFF7B68013BA6
:1031E0007B607B68002BF5D100BF00BF0837BD4670
:1031F00080BD000080B400AF00BF264B1B889BB28F
:1032000003F48063002BF8D1224B39221A8000BFCF
:10321000204B1B889BB203F48053002BF8D01E4B2D
:103220001B681D4A23F00203136000BF1A4B1B6882
:1032300003F48033002BF9D1174B184A1A60164B50
:1032400030225A60144B4FF4C3729A61124B002221
:10325000C3F83C21104B0022C3F84021104BDB7A0D
:10326000DBB20F4A63F07F03DBB2D3720C4B5B7BA4
:10327000DBB20B4A63F07F03DBB25373064B1B6870
:10328000054A43F00203136000BFBD465DF8047BAE
:10329000704700BF00300040002001401033200480
:1032A000204C004080B483B000AF00BF104B1B68BF
:1032B00003F48033002BF9D10D4B1B680C4A43F00B
:1032C0000103136000BF0A4BD3F8443103F001033C
:1032D000002BF8D0064BD3F89830C3F30D037B6076
:1032E0007B6818460C37BD465DF8047B704700BF0D
:1032F000002001400000000080B500AF0E4B1B68AD
:103300001846FEF7CFFB4FF000020C4BFEF76EFDA8
:1033100002460B4610461946FEF716FF03469BB2BF
:1033200001219FED030B184600F060F900BF80BD3E
:10333000343333333333B33F700000200000A940EF
:1033400080B584B000AF87ED000B4FF000024FF066
:103350000003D7E90001FEF791FE0346002B06D0DB
:103360004FF000024FF00003C7E900230EE04FF0DA
:103370000002174BD7E90001FEF79EFE0346002B23
:1033800004D04FF00002124BC7E900230EA3D3E98B
:103390000023D7E90001FEF7FFFB02460B4610466B
:1033A000194609A3D3E90023FEF740FA02460B466B
:1033B000C7E90223012097ED020B00F087F900BF57
:1033C0001037BD4680BD00BF9A9999999999A93F38
:1033D0000000F03F0000000080B584B000AF87ED32
:1033E000000B0FA3D3E90023D7E90001FEF7D4FBBC
:1033F00002460B46104619460BA3D3E90023FEF7FD
:1034000015FA02460B46C7E9022397ED020BFFF7B8
:1034100097FF00BF1037BD4680BD00BFAFF30080EF
:10342000EC51B81E85EB913F9A9999999999E13F92
:1034300080B586B000AF034687ED000B0A46FB81DE
:103440001346BB81BB89012B18D1524B5B79DBB290
:10345000504A43F01003DBB253714E4BDB7ADBB2C0
:103460004C4A43F01003DBB2D3724A4B5B7BDBB2B6
:10347000484A23F01003DBB2537356E0BB89022B9A
:1034800018D1444B5B79DBB2424A43F02003DBB2F4
:103490005371404BDB7ADBB23E4A43F02003DBB290
:1034A000D3723C4B5B7BDBB23A4A23F02003DBB2A6
:1034B00053733AE0BB89032B18D1364B5B79DBB2EF
:1034C000344A43F04003DBB25371324BDB7ADBB258
:1034D000304A43F04003DBB2D3722E4B5B7BDBB24E
:1034E0002C4A23F04003DBB253731EE0BB89042B4C
:1034F00018D1284B5B79DBB2264A63F07F03DBB23D
:103500005371244BDB7ADBB2224A63F07F03DBB2D8
:10351000D372204B5B7BDBB21E4A03F07F03DBB22E
:10352000537302E06FF0010330E0BB89FA891A4956
:1035300041F823204FF08042FB8953824FF08042B4
:10354000BB895B001344C0225A80BB89124A52F8DF
:1035500023301846FEF7A6FAD7E90023FEF71CFB36
:1035600002460B4610461946FEF7EEFD0346FB8267
:103570004FF08042BB8908335B001344FA8A5A80BB
:103580004FF080434FF404721A8000231846183716
:10359000BD4680BD004C00403407002080B586B099
:1035A00000AF87ED020B0346FB80FB880E4A52F802
:1035B00023301846FEF776FAD7E90223FEF7ECFA35
:1035C00002460B4610461946FEF7BEFD0346FB8237
:1035D0004FF08042FB8808335B001344FA8A5A801C
:1035E00000BF1837BD4680BD3407002080B586B0C7
:1035F00000AF034687ED000B0A46FB811346BB81F3
:10360000BB89012B55D12E4B1B79DBB22C4A43F0E1
:103610004003DBB213712A4B9B7ADBB2284A43F09A
:103620004003DBB29372264B1B7BDBB2244A23F0B0
:103630004003DBB21373BB89FA89224941F8232086
:10364000214AFB895382204ABB895B001344C02274
:103650005A80BB891B4A52F823301846FEF722FADB
:10366000D7E90023FEF798FA02460B4610461946A2
:10367000FEF76AFD0346FB82134ABB8908335B00F1
:103680001344FA8A5A80104B4FF404721A800E4B7E
:103690001B889BB20C4A43F0C0039BB213800A4BB9
:1036A0001B8C9BB2084A43F007039BB21384002390
:1036B00001E06FF0010318461837BD4680BD00BF1A
:1036C000404C0040480700200008004080B586B00C
:1036D00000AF87ED020B0346FB80FB880E4A52F8D1
:1036E00023301846FEF7DEF9D7E90223FEF754FA35
:1036F00002460B4610461946FEF726FD0346FB829E
:10370000064AFB8808335B001344FA8A5A8000BFDC
:103710001837BD4680BD00BF4807002000080040A4
:1037200080B500AF2C4B1B79DBB22B4A63F07F03D3
:10373000DBB21371284B9B78DBB2274A03F07F037F
:10374000DBB29370244B9B7ADBB2234A03F07F03F6
:10375000DBB29372204B1B7BDBB21F4A03F07F036B
:10376000DBB213731D4B1B681846FEF79BF916A3BB
:10377000D3E90023FEF73AFB02460B4610461946F2
:10378000FEF7E2FC03469BB201219FED110B1846A8
:10379000FFF74EFE114B1B681846FEF783F90AA38C
:1037A000D3E90023FEF722FB02460B4610461946DA
:1037B000FEF7CAFC03469BB202219FED050B18469B
:1037C000FFF736FE00BF80BD000000000088C34048
:1037D0000000000000000000204C004070000020AD
:1037E000B0B582B000AF87ED000B294B9B78DBB200
:1037F000274A63F07F03DBB293704FF00002254B42
:10380000D7E90001FEF73AFC0346002B05D04FF044
:103810000002204BC7E900230EE04FF000021E4BD0
:10382000D7E90001FEF748FC0346002B04D04FF017
:103830000002194BC7E900234FF000024FF00003CC
:10384000D7E90001FEF71AFC0346002B0ED03C68B6
:103850007B6883F00045012045EC104BFFF79EFE8E
:1038600002209FED090BFFF799FE09E001209FED73
:10387000060BFFF793FE022097ED000BFFF78EFE7D
:1038800000BF0837BD46B0BD0000000000000000CA
:10389000204C00400000F0BF0000F03F000000009E
:1038A00080B500AF2C4B1B79DBB22B4A43F04003B1
:1038B000DBB21371284B9B78DBB2274A23F040031D
:1038C000DBB29370244B9B7ADBB2234A23F0400394
:1038D000DBB29372204B1B7BDBB21F4A23F0400309
:1038E000DBB213731D4B1B681846FEF7DBF816A3FB
:1038F000D3E90023FEF77AFA02460B461046194632
:10390000FEF722FC03469BB203219FED110B1846E4
:10391000FFF78EFD114B1B681846FEF7C3F80AA38C
:10392000D3E90023FEF762FA02460B461046194619
:10393000FEF70AFC03469BB204219FED050B1846D7
:10394000FFF776FD00BF80BD000000000088C34087
:103950000000000000000000204C0040700000202B
:10396000B0B582B000AF87ED000B294B9B78DBB27E
:10397000274A43F04003DBB293704FF00002254B1F
:10398000D7E90001FEF77AFB0346002B05D04FF084
:103990000002204BC7E900230EE04FF000021E4B4F
:1039A000D7E90001FEF788FB0346002B04D04FF057
:1039B0000002194BC7E900234FF000024FF000034B
:1039C000D7E90001FEF75AFB0346002B0ED03C68F6
:1039D0007B6883F00045032045EC104BFFF7DEFDCC
:1039E00004209FED090BFFF7D9FD09E003209FEDAF
:1039F000060BFFF7D3FD042097ED000BFFF7CEFD7C
:103A000000BF0837BD46B0BD000000000000000048
:103A1000204C00400000F0BF0000F03F80B500AF38
:103A2000114B9B78DBB2104A23F01003DBB293708A
:103A30000D4B9B78DBB20C4A43F02003DBB2937052
:103A4000094B9B78DBB2084A43F01003DBB293705A
:103A5000054B9B78DBB2044A23F02003DBB2937062
:103A600000F0A8F800BF80BD404C004000000000FE
:103A700080B582B000AF9FED140BFFF78BFA786032
:103A8000134B9B7ADBB2124A23F02003DBB2937212
:103A90000F4B1B7BDBB20E4A23F02003DBB2137308
:103AA0000B4B1B79DBB20A4A43F02003DBB21371E4
:103AB000002279680748FFF79DFA00BF0837BD4626
:103AC00080BD00BFAFF300800400600900004940E2
:103AD000404C00401D3A000080B582B000AF9FED21
:103AE000140BFFF757FA7860134B9B7ADBB2124A3C
:103AF00023F01003DBB293720F4B1B7BDBB20E4A39
:103B000023F01003DBB213730B4B1B79DBB20A4AB1
:103B100043F01003DBB213717968084800F06AF8CB
:103B200000F058F800BF0837BD4680BDAFF30080F5
:103B300000000000006A0841404C0040413B00008A
:103B400080B582B000AF174B9B78DBB2154A83F08B
:103B50001003DBB29370134B9B78DBB203F01003BE
:103B6000002B1AD0FFF79EFB78600F4B1B687A681A
:103B700091B20E4A22F813100B4B1B6801330A4A0C
:103B80001360094B1B68802B07D1094B01221A7067
:103B900000F020F8044B00221A6000BF0837BD4631
:103BA00080BD00BF404C0040640800205C0700203E
:103BB0005C08002080B400AF054B1B68044A43F04A
:103BC0000103136000BFBD465DF8047B704700BF72
:103BD00010E000E080B400AF054B1B68044A23F0FE
:103BE0000103136000BFBD465DF8047B704700BF52
:103BF00010E000E080B584B000AF78603960002349
:103C0000FB60FFF7B3FAF860114A7B681360FFF7B7
:103C1000E1FF104A3B68013B53600E4B00229A6063
:103C20000D4B1B6823F07F430B4A43F08043136026
:103C3000084B1B68074A43F006031360FFF7BAFFFF
:103C4000F868FFF7A1FA00BF1037BD4680BD00BF7E
:103C50006808002010E000E020ED00E080B500AF33
:103C6000044B1B680133034A1360034B1B689847DE
:103C700000BF80BD6C0800206808002080B400AF41
:103C8000044B1B680133034A136000BFBD465DF857
:103C9000047B704770080020B0B59AB000AF9FED6C
:103CA000940BFFF777F90346002219469448FFF773
:103CB000F7F9944B3B65944BFB64944BBB640A232C
:103CC0007B64012387F8673000233B66904B3B649D
:103CD000002387F85F300023BB6500237B658D4B95
:103CE00007F120041D460FCD0FC495E8030084E8BA
:103CF0000300894B07F108041D460FCD0FC495E85A
:103D0000030084E80300386CFDF7EEFE02460B4624
:103D100043EC102BFFF764FD386CFDF7E5FE02461F
:103D20000B4643EC102BFFF71BFECEE000F00AFF22
:103D30000346002B00F0C980FB1D184600F016FF5B
:103D400087ED0F0AFB79002B03D03B6E01333B66F6
:103D500001E000233B663B6E322B02DD002387F837
:103D600067304FF00003BB6397F85F30002B61D0E2
:103D70006A4BDB78DBB2694A43F00403DBB2D370F1
:103D80000023BB6507F10803DFED650A97ED0F0A15
:103D9000184600F075FB87ED0E0AD7ED0E7AF0EEAF
:103DA000E77A97ED127AB4EEE77AF1EE10FA06DDD3
:103DB0007A6D7B6C9A4202DD002387F85F30D7ED85
:103DC0000E7AF1EE677A17EE903A1846FDF78CFE00
:103DD00002460B4643EC102BFFF7FEFA97ED147AE0
:103DE000D7ED0E7A27EE277AD7ED107A77EE277A7D
:103DF00017EE900AFDF778FE02460B4643EC102BB7
:103E0000FFF7EEFC97ED147AD7ED0E7A67EE277A7E
:103E100097ED107A77EE677A17EE900AFDF764FE59
:103E200002460B4643EC102BFFF79AFD7B6D0133E6
:103E30007B654AE0394BDB78DBB2384A23F0040378
:103E4000DBB2D37000237B6507F12003DFED340A7A
:103E500097ED0F0A184600F013FB87ED0E0AD7ED19
:103E60000E7AF0EEE77A97ED137AB4EEE77AF1EE98
:103E700010FA06D5BA6D7B6C9A4202DD012387F8F1
:103E80005F30D7ED0E7AF1EE677A17EE903A18466A
:103E9000FDF72AFE02460B4643EC102BFFF79CFA77
:103EA000386CFDF721FE02460B4643EC102BFFF762
:103EB00097FC386CFDF718FE02460B4643EC102BBE
:103EC000FFF74EFDBB6D0133BB6597F86730002BE4
:103ED0007FF42CAF9FED080BFFF782FC9FED060BE4
:103EE000FFF73EFD00BF6837BD46B0BDAFF30080B1
:103EF0000000000000408F400000000000000000B3
:103F00007D3C0000A69B443B000070410000F04057
:103F10009A99993EB44E0000CC4E0000004C0040EF
:103F20000AD7A33C80B400AF044B1B680133034A9B
:103F3000136000BFBD465DF8047B70477408002025
:103F4000B0B592B000AF9FED6C0BFFF723F80346BE
:103F5000002219467048FFF7A3F8704B7B634FF0BF
:103F600000033B634FF00003FB62012387F84730F7
:103F700000233B646A4BBB624FF00003FB630023EA
:103F8000BB63684B3C1D1D460FCD0FC495E8030075
:103F900084E80300BB6A3B63BB6AFB629BE000F002
:103FA000D1FD0346002B00F09680FB1C184600F064
:103FB000DDFD87ED090AFB78002B03D03B6C013354
:103FC0003B6401E000233B643B6C322B02DD0023A9
:103FD00087F84730544BDB78DBB2534A23F00403B5
:103FE000DBB2D3703B1DDFED510A97ED090A18468D
:103FF00000F046FA87ED080AD7ED097AF0EEE77A85
:1040000017EE900AFDF770FD3DA3D3E90023FDF7FD
:10401000C3FD02460B46104619463BA3D3E90023D5
:10402000FDF704FC02460B4610461946FEF7ACF8B5
:104030000346FB6197ED0D7AD7ED087A67EE277A94
:1040400097ED077A77EE277AC7ED0C7A97ED0D7A20
:10405000D7ED087A67EE277A97ED077A77EE677AD9
:10406000C7ED0B7ABB6B0133BB63FB78002B0FD022
:10407000D7ED0F7AF1EE677A17EE903A1846FDF712
:1040800033FD02460B4643EC102BFFF7A5F910E079
:10409000D7ED087AF1EE677A17EE903A1846FDF7F9
:1040A00023FD02460B4643EC102BFFF795F93B6AC4
:1040B000FB63386BFDF718FD02460B4643EC102BF3
:1040C000FFF78EFBF86AFDF70FFD02460B4643EC47
:1040D000102BFFF745FC97F84730002B7FF45FAFBC
:1040E0009FED0B0BFFF77CFB9FED090BFFF738FCF7
:1040F00000BF4837BD46B0BD0000000000408F4003
:10410000333333333333E3BFCDCCCCCCCCCCDC3FF7
:104110000000000000000000253F0000A69BC43BFB
:10412000CDCCCC3EE44E0000004C00400AD7A33C6E
:10413000B0B5A2B000AF9FEDC00BFEF72BFF03465A
:1041400000221946C248FEF7ABFFC24BBB65C24B0B
:104150007B65C24B3B650523FB643223BB640023B4
:10416000C7F884300023C7F880304FF00003FB67A6
:104170004FF00003BB67012387F8773000233B67CC
:10418000B74B7B644FF07A533B64002387F86F3062
:10419000002387F86E300023BB6614237B66002360
:1041A0003B660023FB65AF4B07F11C041D460FCD9A
:1041B0000FC495E8030084E80300AB4B3C1D1D468B
:1041C0000FCD0FC495E8030084E803007B6CFB6708
:1041D0007B6CBB671FE100F0B5FC0346002B00F0D1
:1041E0001A81FB1C184600F0C1FC87ED0F0AFB7812
:1041F000002B03D03B6F01333B6701E000233B679B
:104200003B6F322B02DD002387F877304FF000033D
:10421000BB6397F86F30002B54D0944BDB78DBB244
:10422000924A43F00403DBB2D37000233B663B1D8C
:10423000DFED8F0A97ED0F0A184600F021F987EDA0
:104240000E0AD7ED0E7AF0EEE77A97ED147AB4EE17
:10425000E77AF1EE10FA0ADDFA6DFB6C9A4206DDA0
:10426000002387F86F30D7F88430C7F88030D7ED57
:104270000E7AF1EE677A17EE903A1846FDF734FCA5
:1042800002460B4643EC102BFFF7A6F897ED167A83
:10429000D7ED0E7A67EE277A97ED107A77EE277AC8
:1042A000C7ED1F7A97ED167AD7ED0E7A67EE277A6B
:1042B00097ED107A77EE677AC7ED1E7AFB6D0133C2
:1042C000FB6575E0694BDB78DBB2684A23F00403D9
:1042D000DBB2D3700023FB6507F11C03DFED640A3A
:1042E00097ED0F0A184600F0CBF887ED0E0AD7EDD0
:1042F0000E7AF0EEE77A97ED157AB4EEE77AF1EE02
:1043000010FA3FD53A6EFB6C9A423BDD012387F8E9
:104310006F303A6EBB6C9A4234DD012387F86E3001
:10432000D7F88420D7F88030D31A7B637B6B5B424D
:104330001846FDF7B7FB4FF000024E4BFDF756FD58
:1043400002460B4643EC172BB0EE471AF0EE671A05
:104350009FED3B0BFCF7B4F851EC100B4FF0000253
:10436000454BFDF763FA02460B464FF00000434908
:10437000FDF73CFD02460B4610461946FDF7BCFE14
:1043800003467B66D7ED0E7AF1EE677A17EE903A28
:104390001846FDF7A9FB02460B4643EC102BFFF72E
:1043A0001BF87B6CFB677B6CBB673B6E01333B662A
:1043B00097F86E30002B17D0BB6E0133BB66BA6E18
:1043C0007B6E9A4204DD002387F86E300023BB66C3
:1043D000D7ED117AF1EE677AC7ED1F7AD7ED117A32
:1043E000F1EE677AC7ED1E7AF86FFDF77DFB0246A6
:1043F0000B4643EC102BFFF7F3F9B86FFDF774FB96
:1044000002460B4643EC102BFFF7AAFAD7F884308C
:104410000133C7F8843097F87730002B7FF4DBAE98
:104420009FED090BFFF7DCF99FED070BFFF798FAFB
:1044300000BF8837BD46B0BD0000000000408F407F
:1044400090F7AA9509BF0540000000000000000099
:10445000253F0000A69B443B000070410000F04057
:10446000CDCCCC3EFC4E0000144F0000004C004070
:104470000AD7A33C000034400000F03F00805640C3
:1044800080B487B000AFF86087ED020AC7ED010A7B
:10449000FB6893ED037AD7ED026AD7ED017A66EEF9
:1044A000A77A77EE277AFB68C3ED037AFB6893ED72
:1044B000037AFB68D3ED057AB4EEE77AF1EE10FAF1
:1044C00004DDFB685A69FB68DA6014E0FB6893ED71
:1044D000037AFB68D3ED057AF1EE677AB4EEE77AFA
:1044E000F1EE10FA07D5FB68D3ED057AF1EE677AA5
:1044F000FB68C3ED037AFB68D3ED047A97ED027A8B
:1045000077EE677AC7ED057AFB68BA681A61FB68CF
:1045100093ED007AD7ED027A27EE277AFB68D3ED88
:10452000016AFB68D3ED037A66EEA77A37EE277A45
:10453000FB68D3ED026AD7ED057A66EEA76AD7ED80
:10454000017A66EEA77A77EE277AB0EE670A1C3713
:10455000BD465DF8047B704780B584B000AF7860DD
:104560004FF4806200212748FBF79AFE0023FB608E
:1045700040E0FB685B007A6813441B889B01224A79
:1045800082FB03121A445213DB17D31A1846FDF7A5
:1045900099FA02460B464FF000001C49FDF744F91A
:1045A00002460B4610461946FDF7A6FD0346BB60C2
:1045B000BB683F2B01DD3F23BB60BB68002B00DAEB
:1045C0000733DB10D901FA680A440E498A5C51B2FC
:1045D000BA6802F00702012000FA02F252B20A435E
:1045E00051B2DA01FB681344C9B2064AD154FB68E0
:1045F0000133FB60FB687F2BBBDD00BF00BF1037C2
:10460000BD4680BD7C1000200900028000005040A3
:1046100080B500AF4FF4806200210248FBF740FEF6
:1046200000BF80BD7C0C002080B584B000AF034685
:10463000FB7100233B73FB797B7307F10C030221B1
:10464000184600F019FA00BF1037BD4680BD80B58E
:1046500084B000AF786000233B8140233B7200238D
:10466000FB600DE0FB687A6813441B787B7207F1EE
:1046700008030221184600F0FFF9FB680133FB60D4
:10468000FB68B3F5806FEDDB00BF00BF1037BD46A0
:1046900080BD80B584B000AF786040233B720023BA
:1046A000FB600DE0FB687A6813441B787B7207F1AE
:1046B00008030221184600F0DFF9FB680133FB60B4
:1046C000FB68B3F5806FEDDB00BF00BF1037BD4660
:1046D00080BD000080B582B000AF3C2000F07AF9C8
:1046E00000237B600DE07A6813461B019B1A464A43
:1046F00013440F2200211846FBF7D2FD7B680133DB
:104700007B607B68032BEEDD4FF4806200213F4825
:10471000FBF7C6FDAE20FFF787FFA820FFF784FF59
:104720003F20FFF781FFD320FFF77EFF0020FFF738
:104730007BFF4020FFF778FFA120FFF775FFC8201F
:10474000FFF772FFA620FFF76FFFD520FFF76CFF82
:104750008020FFF769FFDA20FFF766FF1220FFF7DE
:1047600063FF8120FFF760FF7F20FFF75DFFA4203C
:10477000FFF75AFFA620FFF757FFD920FFF754FF96
:10478000F120FFF751FFDB20FFF74EFF4020FFF73E
:104790004BFFD520FFF748FF8020FFF745FF8D2016
:1047A000FFF742FF1420FFF73FFF0020FFF73CFF19
:1047B0001020FFF739FFB020FFF736FF2020FFF76A
:1047C00033FF0020FFF730FF2120FFF72DFF0020EF
:1047D000FFF72AFF7F20FFF727FF2220FFF724FFA4
:1047E0000020FFF721FF0720FFF71EFF2E20FFF715
:1047F0001BFF00F081F800F087F800F07DF800BFA3
:104800000837BD4680BD00BF7C1400207C0C002012
:1048100080B48BB000AFF860B9601346FB71FB79D0
:10482000203B7B627B6A1B011C4A1A4407F11C0374
:104830001068516803C37B6A1B01184A134403F1D3
:10484000080207F114031068516803C3FB68013BB9
:104850001B021A46BB68013BDB001344104A134499
:104860001A4607F11C0303CB10605160FB68013B43
:104870001B021A46BB68013BDB0013448033084A25
:1048800013441A4607F1140303CB1060516000BFB4
:104890002C37BD465DF8047B704700BF74000020D4
:1048A0007C0C002080B586B000AFF860B9607A60FB
:1048B00000237B610DE0BB685A1CBA607A69796895
:1048C0000A4412781946F868FFF7A2FF7B690133A2
:1048D0007B617868FDF7B4FC02467B699A42EAD8AE
:1048E00000BF00BF1837BD4680BD80B500AFA52012
:1048F000FFF79AFE00BF80BD80B500AFAF20FFF785
:1049000093FE00BF80BD000080B500AF4FF4806211
:1049100000210448FBF7C4FC0248FFF798FE00BFE3
:1049200080BD00BF7C08002080B582B000AF7860F9
:104930007868FFF711FE0348FFF7ABFE00BF0837AA
:10494000BD4680BD7C10002080B584B000AFF8600B
:10495000B9607A60084B1B78012B08D07A68B96877
:10496000F868FFF79FFF0548FFF793FE00E000BFE0
:104970001037BD4680BD00BF780800207C0C0020A9
:1049800080B582B000AF78600F4B1B78012B17D039
:104990000E4B1B6801337A6801211846FFF782FF2E
:1049A0000B48FFF776FE094B1B6801335A4203F0B0
:1049B000030302F0030258BF5342044A136000E0AD
:1049C00000BF0837BD4680BD78080020B81400201D
:1049D0007C0C002080B483B000AF7860224B1B8831
:1049E0009BB2214A43F001039BB213801F4B9B7A79
:1049F000DBB21E4A63F03F03DBB293721B4B1B7B9F
:104A0000DBB21A4A03F03F03DBB21373164B1B8869
:104A10009AB2154941F6D17313409BB20B80124BE9
:104A20001B889BB2104A43F46D639BB21380104BFA
:104A30001B68DB090F4AA2FB03231A090A4B92B237
:104A4000DA80094B7A6892B21A84074B1B889BB2B2
:104A5000054A23F001039BB2138000BF0C37BD460B
:104A60005DF8047B704700BF00200040004C004010
:104A700070000020598B4F0180B584B000AF786082
:104A80003960224B1B889BB2204A23F001039BB262
:104A900013801E4B1B889BB21C4A43F002039BB23F
:104AA000138000BF194B9B8D9BB203F00203002BB8
:104AB000F8D00023FB6009E0FB687A6813441B7898
:104AC000184600F025F8FB680133FB60FB683A6884
:104AD0009A42F1D80D4B1B889BB20C4A43F0040359
:104AE0009BB2138000BF094B9B8D9BB203F0020366
:104AF000002BF8D0054B1B889BB2044A43F00103FE
:104B00009BB2138000BF1037BD4680BD002000401F
:104B100080B483B000AF0346FB71094BFA7992B2BF
:104B2000DA8100BF064B9B8D9BB203F00203002B82
:104B3000F8D000BF00BF0C37BD465DF8047B70475E
:104B40000020004080B400AF074B1B78012B04D13C
:104B5000054B00221A70012300E000231846BD46D1
:104B60005DF8047B704700BF5C08002080B588B00A
:104B700000AF78607B6800221A700023FB617F23FE
:104B8000BB6143F6FF733B6100237B610DE0274A65
:104B90007B6932F813301A463B69934202D17B6934
:104BA000FB6105E07B6901337B617B697F2BEEDD77
:104BB0007B69802B05D17B6801221A704FF00003BE
:104BC0002DE07F237B610DE0184A7B6932F81330BA
:104BD0001A463B69934202D17B69BB6105E07B6960
:104BE000013B7B617B69002BEEDAFA69BB691344F8
:104BF000DA0F13445B10FB60FB68403B1846FCF780
:104C000061FF4FF000020A4BFDF7F0F802460B4639
:104C100010461946FDF7B8FA0346BB60BB6807EEBD
:104C2000903AB0EE670A2037BD4680BD5C07002091
:104C30000000504080B400AF044B1B680133034AAE
:104C4000136000BFBD465DF8047B7047BC140020B4
:104C50002DE9B04392B000AF9FED750BFEF79AF9C6
:104C60000346002219467648FEF71AFA754B7B6315
:104C70004FF000033B634FF00003FB62012387F812
:104C8000473000233B64704BBB624FF00003FB6373
:104C90000023BB636D4B3C1D1D460FCD0FC495E833
:104CA000030084E80300BB6A3B63BB6AFB62AAE0C3
:104CB000FFF748FF0346002B00F0A580FB1C1846B9
:104CC000FFF754FF87ED090AFB78002B03D03B6CFC
:104CD00001333B6401E000233B643B6C322B02DD7B
:104CE000002387F847305A4BDB78DBB2584A23F071
:104CF0000403DBB2D3703B1DDFED560A97ED090AC2
:104D00001846FFF7BDFB87ED080AB86AFCF7ECFE12
:104D100004460D46D7ED097AF0EEE77A17EE900AD1
:104D2000FCF7E2FE80468946B86AFCF7DDFE0246E3
:104D30000B464FF000004849FCF776FD02460B4653
:104D400040464946FCF728FF02460B4620462946C6
:104D5000FCF76CFD02460B4610461946FDF714FAA7
:104D60000346FB6197ED0D7AD7ED087A67EE277A57
:104D700097ED077A77EE277AC7ED0C7A97ED0D7AE3
:104D8000D7ED087A67EE277A97ED077A77EE677A9C
:104D9000C7ED0B7ABB6B0133BB63FB78002B0FD0E5
:104DA000D7ED0F7AF1EE677A17EE903A1846FCF7D6
:104DB0009BFE02460B4643EC102BFEF70DFB10E06A
:104DC000D7ED087AF1EE677A17EE903A1846FCF7BD
:104DD0008BFE02460B4643EC102BFEF7FDFA3B6AB6
:104DE000FB63386BFCF780FE02460B4643EC102B4E
:104DF000FEF7F6FCF86AFCF777FE02460B4643EC3A
:104E0000102BFEF7ADFD97F84730002B7FF450AF25
:104E10009FED090BFEF7E4FC9FED070BFEF7A0FDED
:104E200000BF4837BD46BDE8B08300BFAFF3008088
:104E30000000000000408F40000000000000000063
:104E4000354C00006F12033C9A99193F2C4F00001B
:104E5000004C00400AD7A33C0000E0BF69010000FD
:104E6000F8B500BFF8BC08BC9E467047F8B500BF57
:0C4E700041010000F8BC08BC9E467047E1
:104E80003A3D0A3D0F3D243D323D023D053D133D77
:104E90000D3D0C3D233D113D263D013D173D083D97
:104EA000093D0000080000200D0A2043527573746C
:104EB000200D0A00000048420000000000401C468F
:104EC00000000000000000000000204100006442DB
:104ED00000000000000000000000000000000000D2
:104EE00000002041000058420000000000401C4625
:104EF00000000000000000000000204100004842C7
:104F00000000000000401C460000000000000000FF
:104F1000000020410000644200000000000000008A
:104F20000000000000000000000020410000584286
:104F30000000000000401C460000000000000000CF
:104F4000000020410000000000000000000030438D
:104F500000000000000030C33A3D0A3D0F3D243DF3
:104F6000323D023D053D133D0D3D0C3D233D113DC0
:0D4F7000263D013D173D083D093D000000B4
:044F8000000000002D
:084F840004B2FF7F01000000F0
:104F8C0000000000080000200000000000000000ED
:104F9C000000000000000000000000000000000005
:104FAC0000000000000000000000000000000000F5
:104FBC0000000000000000000000000000000000E5
:104FCC0000000000000000000000000000000000D5
:104FDC0000000000000000000000000000000000C5
:104FEC000000000000000000F1030000FF000000C2
:104FFC00006CDC020000000000000000000000005B
:10500C0000000000000000F8000000000000003369
:10501C003000000000100C06100C06000000000010
:10502C000000000040C07840C0784000043F0404F9
:10503C003F040400007088FC08300000001820FFBA
:10504C00211E0000F008F000E018000000211C03F5
:10505C001E211E0000F00888700000001E21232471
:10506C001927211010160E0000000000000000008F
:10507C0000000000000000E018040200000000071F
:10508C001820400000020418E00000000040201826
:10509C0007000000404080F0804040000202010FF9
:1050AC0001020200000000F0000000000101011FDD
:1050BC0001010100000000000000000080B0700041
:1050CC0000000000000000000000000000010101D1
:1050DC000101010100000000000000000030300060
:1050EC00000000000000000080601804006018063A
:1050FC000100000000E010080810E000000F102074
:10510C0020100F00001010F8000000000020203FBD
:10511C002020000000700808088870000030282447
:10512C0022213000003008888848300000182020E8
:10513C0020110E000000C02010F80000000704240D
:10514C00243F240000F80888880808000019212052
:10515C0020110E0000E0108888180000000F1120AC
:10516C0020110E0000380808C83808000000003F65
:10517C00000000000070880808887000001C2221C4
:10518C0021221C0000E010080810E0000000312271
:10519C0022110F00000000C0C00000000000003011
:1051AC003000000000000080000000000000806063
:1051BC0000000000000080402010080000010204E4
:1051CC0008102000404040404040400004040404CB
:1051DC000404040000081020408000000020100887
:1051EC0004020100007048080808F00000000030BC
:1051FC0036010000C030C828E810E000071827244A
:10520C0023140B000000C038E0000000203C2302F7
:10521C000227382008F8888888700000203F20205A
:10522C0020110E00C030080808083800071820208C
:10523C002010080008F808080810E000203F202083
:10524C0020100F0008F88888E8081000203F202064
:10525C002320180008F88888E8081000203F200058
:10526C0003000000C0300808083800000718202090
:10527C00221E020008F808000008F808203F21014F
:10528C0001213F20000808F8080800000020203FFA
:10529C002020000000000808F8080800C08080806A
:1052AC007F00000008F888C028180800203F200163
:1052BC002638200008F8080000000000203F2020BD
:1052CC002020300008F8F800F8F80800203F003FD4
:1052DC00003F200008F830C00008F808203F2000EC
:1052EC0007183F00E01008080810E0000F102020FD
:1052FC0020100F0008F808080808F000203F2101D2
:10530C0001010000E01008080810E0000F18242428
:10531C0038504F0008F8888888887000203F20009B
:10532C00030C302000708808080838000038202151
:10533C0021221C00180808F8080818000000203F5B
:10534C002000000008F808000008F808001F2020C2
:10535C0020201F000878880000C838080000073893
:10536C000E010000F80800F80008F800033C0700E4
:10537C00073C0300081868808068180820302C034C
:10538C00032C30200838C800C83808000000203F23
:10539C002000000010080808C83808002038262112
:1053AC0020201800000000FE020202000000007F16
:1053BC0040404000000C30C0000000000000000124
:1053CC000638C00000020202FE000000004040400F
:1053DC007F00000000000402020204000000000034
:1053EC0000000000000000000000000080808080B1
:1053FC008080808000020204000000000000000099
:10540C000000000000008080808000000019242231
:10541C0022223F2008F8008080000000003F11206D
:10542C0020110E000000008080800000000E112072
:10543C0020201100000000808088F800000E112050
:10544C0020103F200000808080800000001F22225E
:10545C0022221300008080F0888888180020203FCA
:10546C00202000000000808080808000006B9494DD
:10547C009493600008F8008080800000203F210099
:10548C0000203F2000809898000000000020203F62
:10549C0020200000000000809898000000C0808050
:1054AC00807F000008F8000080808000203F2402EC
:1054BC002D302000000808F8000000000020203FDC
:1054CC00202000008080808080808000203F200091
:1054DC003F20003F8080008080800000203F210022
:1054EC0000203F200000808080800000001F2020D2
:1054FC0020201F00808000808000000080FFA12001
:10550C0020110E000000008080808000000E112011
:10551C0020A0FF80808080008080800020203F21A0
:10552C002000010000008080808080000033242453
:10553C0024241900008080E0808000000000001FFF
:10554C00202000008080000000808000001F2020B0
:10555C0020103F20808080000080808000010E3071
:10556C000806010080800080008080800F300C03D2
:10557C000C300F0000808000808080000020312ED5
:10558C000E312000808080000080808080818E70B1
:10559C001806010000808080808080000021302C63
:1055AC002221300000000000807C0202000000007C
:1055BC00003F404000000000FF0000000000000021
:1055CC00FF0000000002027C800000000040403F11
:1055DC0000000000000601010202040400000000AB
:0455EC0000000000BB
:0400000300000100F8
:00000001FF
