:1000000000000120DD11000021120000211200007B
:100010002112000021120000211200000000000047
:10002000000000000000000000000000211200009D
:10003000211200000000000021120000A52900008C
:1000400021120000211200002112000021120000E4
:1000500021120000211200002112000021120000D4
:1000600021120000211200002112000021120000C4
:1000700021120000211200002112000021120000B4
:1000800021120000211200002112000021120000A4
:100090002112000021120000211200002112000094
:1000A00021120000C11D00006D1E00002112000081
:1000B0002112000021120000211200002112000074
:1000C0002112000021120000211200002112000064
:1000D0002112000021120000211200002112000054
:0400E00021120000E9
:100100000348044B834202D0034B03B118477047A6
:100110006006002060060020000000000548064937
:100120000B1AD90F01EBA301491002D0034B03B105
:10013000184770476006002060060020000000009D
:1001400010B5064C237843B9FFF7DAFF044B13B11F
:100150000448AFF300800123237010BD6006002027
:1001600000000000D437000008B5044B1BB104495F
:100170000448AFF30080BDE80840CFE7000000006E
:1001800064060020D4370000A3F5803A704700BF12
:10019000154B002B08BF114B9D46FFF7F5FF0021C3
:1001A0008B460F461148124A121A00F079F80C4B90
:1001B000002B00D098470B4B002B00D09847002015
:1001C000002104000D000B4800F016F800F044F880
:1001D0002000290001F020FA00F014F800000800C7
:1001E0000000000000000000000001206006002068
:1001F000B41400202D020000002301461A461846C0
:1002000000F0A0B808B5074B044613B1002100F078
:10021000EFF8054B1868836A03B19847204600F051
:100220004BF900BFF10300004037000038B5084B20
:10023000084D5B1B9C1007D0043B1D44013C55F846
:1002400004399847002CF9D1BDE8384003F05EBA74
:10025000000000000000000070B50D4E0D4D761B33
:10026000B61006D0002455F8043B01349847A64246
:10027000F9D1094E094D761B03F042FAB61006D0AB
:10028000002455F8043B01349847A642F9D170BDCB
:10029000000000000000000000370000FC360000F5
:1002A000830730B548D0541E002A3FD0CAB2034657
:1002B00001E0013C3AD303F8012B9D07F9D1032C4F
:1002C0002DD9CDB245EA05250F2C45EA054536D98D
:1002D000A4F1100222F00F0C03F1200EE6444FEAC5
:1002E000121C03F1100242E9045542E90255103292
:1002F0007245F8D10CF1010214F00C0F03EB02125D
:1003000004F00F0C13D0ACF1040323F00303043307
:10031000134442F8045B9342FBD10CF003042CB16C
:10032000CAB21C4403F8012B9C42FBD130BD644689
:100330001346002CF4D1F9E703461446BFE71A46EA
:10034000A446E0E7F0B5264C256885B0064605B31F
:100350006C681F2C41DCA6B1D5F8880048B3D0F8F2
:10036000007140F824204FF0010C0CFA04FC00EB63
:1003700084024CEA0707022EC0F80071C2F88030F0
:1003800010D0A31C01346C6045F82310002005B088
:10039000F0BD1448144D25600028D9D00068C5F878
:1003A0008800D5E7D0F8043143EA0C03C0F80431E3
:1003B000E7E70E480191CDE9022370B14FF4847054
:1003C000AFF3008048B10027C0E94077DDE90223A0
:1003D0006C680199C5F88800C3E74FF0FF30D6E795
:1003E00008070020000000007C060020000000003C
:1003F0002DE9F84FDFF8BCA0DAF800702DED028B84
:10040000E7B108EE100A89467D68D7F888806C1E2F
:1004100014D407EB8506043608EB8505B9F1000F07
:1004200010D0B8F1000F02D0EB6F4B450AD0013C61
:10043000631CA5F10405A6F10406EFD1BDEC028B07
:10044000BDE8F88F7B683268013BA34216BF0023EA
:100450007C603360002AEAD0D7F804B0B8F1000F0E
:100460001AD0D8F80001012303FA04F1014213D095
:10047000D8F80401014218D155F8041C18EE100AEE
:1004800090477A685A450BD1DAF80030BB42CED09B
:100490001F46002FB8D1D1E790477A685A45F3D06C
:1004A000DAF80070002FAFD1C8E755F8040C904778
:1004B000E7E700BF08070020FEE700BF70B54FF078
:1004C000FF0C4CF4E06C1CEA11541DBF1CEA1355E0
:1004D00094EA0C0F95EA0C0F00F0DEF82C4481EA48
:1004E000030621EA4C5123EA4C5350EA013518BF68
:1004F00052EA033541F4801143F4801338D0A0FB55
:1005000002CE4FF00005E1FB02E506F00042E0FB01
:1005100003E54FF00006E1FB03569CF0000F18BF07
:100520004EF0010EA4F1FF04B6F5007F64F54074AF
:1005300004D25FEA4E0E6D4146EB060642EAC62142
:1005400041EA55514FEAC52040EA5E504FEACE2EAF
:10055000B4F1FD0C88BFBCF5E06F1ED8BEF1004FB2
:1005600008BF5FEA500E50F1000041EB045170BD2E
:1005700006F0004646EA010140EA020081EA030172
:10058000B4EB5C04C2BFD4EB0C0541EA045170BD6E
:1005900041F480114FF0000E013C00F3AB8014F1E8
:1005A000360FDEBF002001F0004170BDC4F1000431
:1005B000203C35DA0C341BDC04F11404C4F12005B2
:1005C00000FA05F320FA04F001FA05F240EA02000D
:1005D00001F0004221F0004110EBD37021FA04F643
:1005E00042EB06015EEA430E08BF20EAD37070BDFD
:1005F000C4F10C04C4F1200500FA04F320FA05F05C
:1006000001FA04F240EA020001F0004110EBD3705D
:1006100041F100015EEA430E08BF20EAD37070BDCD
:10062000C4F1200500FA05F24EEA020E20FA04F3A6
:1006300001FA05F243EA020321FA04F001F0004155
:1006400021FA04F220EA020000EBD3705EEA430EC6
:1006500008BF20EAD37070BD94F0000F0FD101F0F5
:100660000046400041EB010111F4801F08BF013C2E
:10067000F7D041EA060195F0000F18BF704703F06C
:100680000046520043EB030313F4801F08BF013DF3
:10069000F7D043EA0603704794EA0C0F0CEA1355AF
:1006A00018BF95EA0C0F0CD050EA410618BF52EA69
:1006B0004306D1D181EA030101F000414FF000006F
:1006C00070BD50EA410606BF1046194652EA43067D
:1006D00019D094EA0C0F02D150EA013613D195EAF1
:1006E0000C0F05D152EA03361CBF104619460AD139
:1006F00081EA030101F0004141F0FE4141F4700143
:100700004FF0000070BD41F0FE4141F4780170BD32
:1007100081F0004102E000BF83F0004330B54FEAB2
:1007200041044FEA430594EA050F08BF90EA020F1F
:100730001FBF54EA000C55EA020C7FEA645C7FEAB2
:10074000655C00F0E2804FEA5454D4EB5555B8BFD5
:100750006D420CDD2C4480EA020281EA030382EA46
:10076000000083EA010180EA020281EA0303362DD8
:1007700088BF30BD11F0004F4FEA01314FF4801CAB
:100780004CEA113102D0404261EB410113F0004FBD
:100790004FEA03334CEA133302D0524263EB430374
:1007A00094EA050F00F0A780A4F10104D5F1200E12
:1007B0000DDB02FA0EFC22FA05F2801841F100016D
:1007C00003FA0EF2801843FA05F359410EE0A5F141
:1007D00020050EF1200E012A03FA0EFC28BF4CF072
:1007E000020C43FA05F3C01851EBE37101F0004528
:1007F00007D54FF0000EDCF1000C7EEB00006EEB35
:100800000101B1F5801F1BD3B1F5001F0CD34908BE
:100810005FEA30004FEA3C0C04F101044FEA445215
:1008200012F5800F80F09A80BCF1004F08BF5FEA9C
:10083000500C50F1000041EB045141EA050130BD7C
:100840005FEA4C0C404141EB0101013C28BFB1F58E
:10085000801FE9D291F0000F04BF01460020B1FAD9
:1008600081F308BF2033A3F10B03B3F120020CDAAC
:100870000C3208DD02F1140CC2F10C0201FA0CF08A
:1008800021FA02F10CE002F11402D8BFC2F1200CEF
:1008900001FA02F120FA0CFCDCBF41EA0C019040A5
:1008A000E41AA2BF01EB0451294330BD6FEA0404EE
:1008B0001F3C1CDA0C340EDC04F11404C4F12002D9
:1008C00020FA04F001FA02F340EA030021FA04F3EB
:1008D00045EA030130BDC4F10C04C4F1200220FA42
:1008E00002F001FA04F340EA0300294630BD21FA80
:1008F00004F0294630BD94F0000F83F4801306BF46
:1009000081F480110134013D4EE77FEA645C18BF39
:100910007FEA655C29D094EA050F08BF90EA020FD0
:1009200005D054EA000C04BF1946104630BD91EAC8
:10093000030F1EBF0021002030BD5FEA545C05D1CB
:100940004000494128BF41F0004130BD14F580040A
:100950003CBF01F5801130BD01F0004545F0FE417E
:1009600041F470014FF0000030BD7FEA645C1ABFB3
:10097000194610467FEA655C1CBF0B46024650EAEA
:10098000013406BF52EA033591EA030F41F4002116
:1009900030BD00BF90F0000F04BF0021704730B59C
:1009A0004FF4806404F132044FF000054FF0000171
:1009B00050E700BF90F0000F04BF0021704730B532
:1009C0004FF4806404F1320410F0004548BF404207
:1009D0004FF000013EE700BF42004FEAE2014FEA5C
:1009E00031014FEA02701FBF12F07F4393F07F4F37
:1009F00081F06051704732F07F4208BF704793F03A
:100A00007F4F04BF41F40021704730B54FF460744C
:100A100001F0004521F000411CE700BF50EA01024F
:100A200008BF704730B54FF000050AE050EA0102F8
:100A300008BF704730B511F0004502D5404261EB68
:100A400041014FF4806404F132045FEA915C3FF4A9
:100A5000D8AE4FF003025FEADC0C18BF03325FEA46
:100A6000DC0C18BF033202EBDC02C2F1200300FAF7
:100A700003FC20FA02F001FA03FE40EA0E0021FA1C
:100A800002F11444BDE600BF70B54FF0FF0C4CF40A
:100A9000E06C1CEA11541DBF1CEA135594EA0C0FBC
:100AA00095EA0C0F00F0DEF82C4481EA030621EAF7
:100AB0004C5123EA4C5350EA013518BF52EA033532
:100AC00041F4801143F4801338D0A0FB02CE4FF0E4
:100AD0000005E1FB02E506F00042E0FB03E54FF014
:100AE0000006E1FB03569CF0000F18BF4EF0010E0C
:100AF000A4F1FF04B6F5007F64F5407404D25FEA08
:100B00004E0E6D4146EB060642EAC62141EA5551BA
:100B10004FEAC52040EA5E504FEACE2EB4F1FD0CFC
:100B200088BFBCF5E06F1ED8BEF1004F08BF5FEA7A
:100B3000500E50F1000041EB045170BD06F000462C
:100B400046EA010140EA020081EA0301B4EB5C04D9
:100B5000C2BFD4EB0C0541EA045170BD41F48011D1
:100B60004FF0000E013C00F3AB8014F1360FDEBFF6
:100B7000002001F0004170BDC4F10004203C35DAD2
:100B80000C341BDC04F11404C4F1200500FA05F355
:100B900020FA04F001FA05F240EA020001F00042F6
:100BA00021F0004110EBD37021FA04F642EB06016C
:100BB0005EEA430E08BF20EAD37070BDC4F10C0496
:100BC000C4F1200500FA04F320FA05F001FA04F25A
:100BD00040EA020001F0004110EBD37041F1000146
:100BE0005EEA430E08BF20EAD37070BDC4F1200551
:100BF00000FA05F24EEA020E20FA04F301FA05F2B9
:100C000043EA020321FA04F001F0004121FA04F260
:100C100020EA020000EBD3705EEA430E08BF20EA30
:100C2000D37070BD94F0000F0FD101F0004640006A
:100C300041EB010111F4801F08BF013CF7D041EAEC
:100C4000060195F0000F18BF704703F000465200F0
:100C500043EB030313F4801F08BF013DF7D043EAC1
:100C60000603704794EA0C0F0CEA135518BF95EA77
:100C70000C0F0CD050EA410618BF52EA4306D1D1FE
:100C800081EA030101F000414FF0000070BD50EA1D
:100C9000410606BF1046194652EA430619D094EAA7
:100CA0000C0F02D150EA013613D195EA0C0F05D191
:100CB00052EA03361CBF104619460AD181EA0301E5
:100CC00001F0004141F0FE4141F470014FF000009D
:100CD00070BD41F0FE4141F4780170BD70B54FF038
:100CE000FF0C4CF4E06C1CEA11541DBF1CEA1355B8
:100CF00094EA0C0F95EA0C0F00F0A7F8A4EB05049A
:100D000081EA030E52EA03354FEA013100F0888090
:100D10004FEA03334FF0805545EA131343EA126359
:100D20004FEA022245EA111545EA10654FEA00260E
:100D30000EF000419D4208BF964244F1FD0404F5C7
:100D4000407402D25B084FEA3202B61A65EB030523
:100D50005B084FEA32024FF480104FF4002CB6EBE0
:100D6000020E75EB030E22BFB61A754640EA0C0060
:100D70005B084FEA3202B6EB020E75EB030E22BFA0
:100D8000B61A754640EA5C005B084FEA3202B6EBE1
:100D9000020E75EB030E22BFB61A754640EA9C00A0
:100DA0005B084FEA3202B6EB020E75EB030E22BF70
:100DB000B61A754640EADC0055EA060E18D04FEA2E
:100DC000051545EA16754FEA06164FEAC30343EACE
:100DD00052734FEAC2025FEA1C1CC0D111F4801F9B
:100DE0000BD141EA00014FF000004FF0004CB6E794
:100DF00011F4801F04BF01430020B4F1FD0C88BF33
:100E0000BCF5E06F3FF6AFAEB5EB030C04BFB6EB3D
:100E1000020C5FEA500C50F1000041EB045170BD30
:100E20000EF0004E4EEA113114EB5C04C2BFD4EB5D
:100E30000C0541EA045170BD41F480114FF0000EE1
:100E4000013C90E645EA060E8DE60CEA135594EA5D
:100E50000C0F08BF95EA0C0F3FF43BAF94EA0C0F60
:100E60000AD150EA01347FF434AF95EA0C0F7FF4D5
:100E700025AF104619462CE795EA0C0F06D152EA29
:100E800003353FF4FDAE1046194622E750EA41060D
:100E900018BF52EA43067FF4C5AE50EA41047FF41E
:100EA0000DAF52EA43057FF4EBAE12E74FF0FF3C83
:100EB00006E000BF4FF0010C02E000BF4FF0010C54
:100EC0004DF804CD4FEA410C7FEA6C5C4FEA430CCD
:100ED00018BF7FEA6C5C1BD001B050EA410C0CBF1C
:100EE00052EA430C91EA030F02BF90EA020F00207E
:100EF000704710F1000F91EA030F58BF994208BFE5
:100F000090422CBFD8176FEAE37040F001007047A1
:100F10004FEA410C7FEA6C5C02D150EA013C07D1F8
:100F20004FEA430C7FEA6C5CD6D152EA033CD3D043
:100F30005DF8040B704700BF8446104662468C463D
:100F40001946634600E000BF01B5FFF7B7FF002870
:100F500048BF10F1000F01BD4DF808EDFFF7F4FF99
:100F60000CBF012000205DF808FB00BF4DF808ED24
:100F7000FFF7EAFF34BF012000205DF808FB00BF47
:100F80004DF808EDFFF7E0FF94BF012000205DF869
:100F900008FB00BF4DF808EDFFF7CEFF94BF01201E
:100FA00000205DF808FB00BF4DF808EDFFF7C4FF17
:100FB00034BF012000205DF808FB00BF4FEA41026A
:100FC00012F5001215D211D56FF47873B3EB62529B
:100FD00012D94FEAC12343F0004343EA505311F0C2
:100FE000004F23FA02F018BF404270474FF0000054
:100FF000704750EA013005D111F0004008BF6FF092
:10100000004070474FF00000704700BF4A0011D207
:1010100012F5001211D20DD56FF47873B3EB625252
:101020000ED44FEAC12343F0004343EA505323FA5E
:1010300002F070474FF00000704750EA013002D1D3
:101040004FF0FF3070474FF0000070474FEA410209
:10105000B2F1E04324BFB3F5001CDCF1FE5C0DD916
:1010600001F0004C4FEAC0024CEA5070B2F1004F60
:1010700040EB830008BF20F00100704711F0804F63
:1010800021D113F13872BCBF01F00040704741F428
:1010900080114FEA5252C2F11802C2F1200C10FA2C
:1010A0000CF320FA02F018BF40F001004FEAC12310
:1010B0004FEAD32303FA0CFC40EA0C0023FA02F3B4
:1010C0004FEA4303CCE77FEA625307D150EA01338A
:1010D0001EBF4FF0FE4040F44000704701F000405A
:1010E00040F0FE4040F40000704700BF00000000E8
:1010F00000000000000000000000000000000000F0
:1011000090F800F06DE9024520F007016FF0000C47
:1011100010F0070491F820F040F049804FF00004EF
:101120006FF00700D1E9002391F840F000F10800CA
:1011300082FA4CF2A4FA8CF283FA4CF3A2FA8CF302
:101140004BBBD1E9022382FA4CF200F10800A4FA69
:101150008CF283FA4CF3A2FA8CF3E3B9D1E90423BD
:1011600082FA4CF200F10800A4FA8CF283FA4CF3F4
:10117000A2FA8CF37BB9D1E9062301F1200182FAAE
:101180004CF200F10800A4FA8CF283FA4CF3A2FAB4
:101190008CF3002BC6D0002A04BF04301A4612BAC2
:1011A000B2FA82F2FDE8024500EBD2007047D1E9C5
:1011B000002304F00305C4F100004FEAC50514F054
:1011C000040F91F840F00CFA05F562EA05021CBF25
:1011D00063EA050362464FF00004A9E780B582B0D8
:1011E00000AF0C4B7B600C4B3B6007E07A68131D33
:1011F0007B603B68191D396012681A603B68074ABA
:101200009342F3D300F094F9FEF7C2FF00BF083712
:10121000BD4680BDE03700000000002060060020D1
:1012200080B400AFFEE7000080B489B000AFA44BEB
:101230009B681B0C03F00703FB600122FB6802FAAA
:1012400003F3FB729E4B9B6803F007037B607B6894
:10125000052B00F2638101A252F823F07512000001
:10126000F5120000071300003513000055140000AC
:1012700065140000934B1B78DBB2002B31D0904BF0
:1012800046F65A121A608E4B1B6D8D4A43F00103CD
:1012900013658B4B01221A608A4B1B78DBB2002B43
:1012A00016D0894B1B78DBB2002B08D0FB7A4FF4A9
:1012B000FA3292FBF3F31A46844B1A602EE1FB7A62
:1012C0004FF4FA4292FBF3F31A46804B1A6025E181
:1012D000FB7A4FF4004292FBF3F31A467B4B1A6001
:1012E0001CE1FB7A4FF4004292FBF3F31A46774B72
:1012F0001A6013E1FB7A42F2107292FBF3F31A4682
:10130000724B1A600AE1704B1B78DBB2002B08D0DD
:10131000FB7A4FF4FA3292FBF3F31A466B4B1A60E6
:10132000FCE0FB7A4FF4FA4292FBF3F31A46674B68
:101330001A60F3E0624B5B681BB2C3F309037B8264
:101340005F4B5B6803F4E023B3F5A02F29D0B3F51E
:10135000A02F29D8B3F5802F20D0B3F5802F23D824
:10136000B3F5403F17D0B3F5403F1DD8B3F5003F6C
:101370000ED0B3F5003F17D8002B03D0B3F5803F54
:1013800003D011E0524B7B610EE0524B7B610BE0CE
:10139000514B7B6108E0514B7B6105E0504B7B6119
:1013A00002E0504B7B6100BFB7F91230002B03D134
:1013B000464A7B691360B1E07B8A03F48053002BBB
:1013C00005D07B8A6FEA03536FEA13537B82464B47
:1013D0001B78DBB2002B06D0444B1B68FB61444BEF
:1013E000DB6EBB6105E0434B1B68FB61404BDB6C74
:1013F000BB617B6907EE903AF8EE676AB7F9123085
:1014000007EE903AB8EEE77AD7ED077A27EE276A2B
:10141000BB69C3F5407307EE903AB8EEE77AD7EDB3
:10142000077A67EE277AB7EE007A77EE877AB2EE20
:10143000007A27EE877AC6EE077AB7EE007A37EEA3
:10144000677AC6EE877AFCEEE77A17EE902A1F4B92
:101450001A6063E0FB7A224A92FBF3F31A461B4BB5
:101460001A605BE0244B1B78DBB2002B4ED0144B90
:1014700046F65A121A60124B1B6D114A43F00203D2
:1014800013650F4B01221A601B4B1B78DBB2002B3C
:1014900034D00D4B1B78DBB2002B08D0FB7A4FF415
:1014A000FA3292FBF3F31A46084B1A6035E0FB7AE6
:1014B0004FF4FA4292FBF3F31A46044B1A602CE005
:1014C00000040140008920423C8620426C0000203C
:1014D00060E31600C0C62D00808D5B00001BB700C6
:1014E00000366E01006CDC02D8802042841020009F
:1014F000001020006410200004892042FB7A0A4A70
:1015000092FBF3F31A46094B1A6006E0FB7A064A8F
:1015100092FBF3F31A46054B1A6000BF00BF243755
:10152000BD465DF8047B7047006CDC026C00002057
:1015300080B400AF294BD3F88830284A43F47003B5
:10154000C2F88830264B4FF4B5429A81254B802251
:101550005A6100BF244B5B6803F48073002BF9D100
:10156000214B224A1A6000BF1F4B5B6803F4807353
:10157000002BF9D11E4B1B6923F470431C4A43F422
:10158000805313611A4B5B6923F47043184A43F488
:1015900080535361174B46F65A121A60154B4FF49D
:1015A000A0225A60134B9B6823F00713114A43F0A3
:1015B000030393600F4B00221A600D4B1B690C4A0A
:1015C00043F0300313610A4B5B69094A43F030036F
:1015D000536100BFBD465DF8047B704700ED00E03D
:1015E00000480040003004E00000014001005A695A
:1015F000001001400004014080B500AF054B0022FF
:101600001A7001F0D9F801F00BF900F099FC00BF55
:1016100080BD00BF5408002080B500AF00F0AFF9D6
:10162000374800F0BFF900F0D7F900F007FA00F0F2
:1016300087FA00F005FD00F017FF00F0D5FFFFF777
:10164000DBFF304BDB78DBB22E4A23F00103DBB249
:10165000D3702C4BDB78DBB22A4A23F00203DBB2D7
:10166000D370284BDB78DBB2264A23F00403DBB2CD
:10167000D37000F00DFB0346002B09D0214BDB7823
:10168000DBB2204A43F00103DBB2D37001F0A8F9CA
:1016900000F012FB0346002B09D01A4BDB78DBB2BB
:1016A000184A43F00203DBB2D37001F0EDFA154B98
:1016B000DB78DBB2134A23F00103DBB2D370114BAA
:1016C000DB78DBB20F4A23F00203DBB2D3700D4BA1
:1016D000DB78DBB20B4A23F00403DBB2D3709FED5F
:1016E000060B00F021FF9FED040B00F0DDFF9FEDE6
:1016F000020B00F015FDBCE7000000000000000038
:1017000044370000004C004080B400AF1E4B1B88E3
:101710009BB21D4A43F0C1039BB213801B4B1B6855
:101720001B4AA2FB03231A0C174B92B2DA80164B0A
:101730001B899BB2144A03F00F039BB21381154B14
:101740009B7ADBB2134A43F00C03DBB29372114B6A
:101750001B7BDBB20F4A23F00C03DBB213730A4B83
:101760001B889BB2084A23F001039BB21380064BEF
:101770005B8B9BB2044A23F00F039BB2538300BFE1
:10178000BD465DF8047B7047001000406C000020EF
:10179000C5B3A291004C004080B400AF00BF084B1D
:1017A0009B8B9BB203F00103002BF8D0044B9B8969
:1017B0009BB2DBB21846BD465DF8047B704700BFA4
:1017C0000010004080B400AF054B9B8B9BB2DBB296
:1017D00003F00103DBB21846BD465DF8047B704799
:1017E0000010004080B483B000AF0346FB7100BF1F
:1017F000084B9B8B9BB203F00203002BF8D0054BE8
:10180000FA7992B2DA8100BF0C37BD465DF8047BED
:10181000704700BF0010004080B582B000AF786014
:1018200006E07B685A1C7A601B781846FFF7DAFFDF
:101830007B681B78002BF4D100BF00BF0837BD4682
:1018400080BD000080B400AF1E4B1B889BB21D4AB8
:1018500043F0C1039BB213801B4B1B681B4AA2FBC6
:1018600003231A0C174B92B2DA80164B1B899BB2DA
:10187000144A03F00F039BB21381154B9B7ADBB222
:10188000134A43F00C03DBB29372114B1B7BDBB2A8
:101890000F4A23F00C03DBB213730A4B1B889BB275
:1018A000084A23F001039BB21380064B5B8B9BB26B
:1018B000044A23F00F039BB2538300BFBD465DF87B
:1018C000047B7047001800406C000020C5B3A29153
:1018D000204C004080B400AF00BF084B9B8B9BB2F4
:1018E00003F00103002BF8D0044B9B899BB2DBB2C1
:1018F0001846BD465DF8047B704700BF00180040E5
:1019000080B400AF054B9B8B9BB2DBB203F00103AD
:10191000DBB21846BD465DF8047B704700180040F6
:1019200080B483B000AF0346FB7100BF084B9B8BB4
:101930009BB203F00203002BF8D0054BFA7992B268
:10194000DA8100BF0C37BD465DF8047B704700BFED
:101950000018004080B582B000AF786006E07B6878
:101960005A1C7A601B781846FFF7DAFF7B681B78F1
:10197000002BF4D100BF00BF0837BD4680BD80B545
:1019800000AFFFF7C1FE00BF80BD80B582B000AFE1
:101990000346FB71FB791846FFF724FF00BF0837A9
:1019A000BD4680BD80B582B000AF78607868FFF733
:1019B00033FF00BF0837BD4680BD80B500AFFFF7DD
:1019C000EBFE0346184680BD80B500AFFFF7FAFE78
:1019D0000346184680BD000080B400AF164B9B7ACA
:1019E000DBB2154A23F00103DBB29372124B1B7B6F
:1019F000DBB2114A23F00103DBB213730E4B1B7AE7
:101A0000DBB20D4A43F00103DBB213720A4B1B79C0
:101A1000DBB2094A43F00103DBB21371064B9B783A
:101A2000DBB2054A23F00103DBB2937000BFBD4671
:101A30005DF8047B704700BF004C004080B400AFED
:101A40003E4BDB7ADBB23D4A23F00103DBB2D372BB
:101A50003A4B5B7BDBB2394A23F00103DBB25373B1
:101A6000364BDB7ADBB2354A23F00403DBB2D372A8
:101A7000324B5B7BDBB2314A23F00403DBB253739E
:101A80002E4BDB7ADBB22D4A23F00203DBB2D3729A
:101A90002A4B5B7BDBB2294A23F00203DBB2537390
:101AA000264B5B7ADBB2254A43F00103DBB253726B
:101AB000224B5B7ADBB2214A43F00203DBB2537262
:101AC0001E4B5B7ADBB21D4A43F00403DBB2537258
:101AD0001A4B5B79DBB2194A43F00103DBB2537155
:101AE000164B5B79DBB2154A43F00203DBB253714C
:101AF000124B5B79DBB2114A43F00403DBB2537142
:101B00000E4BDB78DBB20D4A23F00103DBB2D3705E
:101B10000A4BDB78DBB2094A23F00203DBB2D37055
:101B2000064BDB78DBB2054A23F00403DBB2D3704B
:101B300000BFBD465DF8047B704700BF004C00400D
:101B400080B483B000AF1223FB711E4B9B7ADBB2D3
:101B50005AB297F90730DB435BB213405AB2194BC4
:101B6000D2B29A72174B1B7BDBB25AB297F907308D
:101B7000DB435BB213405AB2124BD2B21A73114B11
:101B80001B79DBB25AB297F90730DB435BB21340E3
:101B90005AB20C4BD2B21A710A4B9B78DAB209498D
:101BA000FB791343DBB28B70064B9B79DAB20549A4
:101BB000FB791343DBB28B7100BF0C37BD465DF878
:101BC000047B7047004C004080B400AF164B9B7AFA
:101BD000DBB2154A23F00203DBB29372124B1B7B7C
:101BE000DBB2114A23F00203DBB213730E4B1B79F5
:101BF000DBB20D4A23F00203DBB213710A4B9B7870
:101C0000DBB2094A43F00203DBB29370064B9B79C7
:101C1000DBB2054A43F00203DBB2937100BFBD465D
:101C20005DF8047B704700BF004C004080B400AFFB
:101C3000164B9B7ADBB2154A23F01003DBB293728A
:101C4000124B1B7BDBB2114A23F01003DBB2137380
:101C50000E4B1B79DBB20D4A23F01003DBB213717C
:101C60000A4B9B78DBB2094A43F01003DBB2937056
:101C7000064B9B79DBB2054A43F01003DBB293714C
:101C800000BFBD465DF8047B704700BF004C0040BC
:101C900080B400AF074B1B78DBB203F00203002BCC
:101CA0000CBF01230023DBB21846BD465DF8047B60
:101CB000704700BF004C004080B400AF074B1B785A
:101CC000DBB203F01003002B0CBF01230023DBB2B7
:101CD0001846BD465DF8047B704700BF004C0040CD
:101CE00080B584B000AF87ED000B4FF000024FF0DD
:101CF0000003C7E902230B4B1B681846FEF74AFE98
:101D0000D7E90023FEF7EAFF02460B46C7E90223A4
:101D1000D7E90201FFF77AF9034618461037BD46A6
:101D200080BD00BF6C00002080B400AF034B0122D7
:101D30001A7000BFBD465DF8047B7047280700207D
:101D400080B586B000AFF860B9601346FB71154AE4
:101D5000BB68136000F0B0F87861134AFB68136049
:101D6000124A104B1B681360114B00221A60FB795A
:101D700063F01D03DAB20F4B1A600F4B1B6823F49C
:101D80007F430D4A43F4804313600C4B1B680B4A9E
:101D900043F000731360786900F09CF800BF1837B7
:101DA000BD4680BD200700201807002000C000406D
:101DB0000CC0004008C0004018E400E000E100E072
:101DC00080B500AF054B00221A60054B1B68984791
:101DD000044A054B1B68136000BF80BD0CC0004067
:101DE0001807002000C000402007002080B586B002
:101DF00000AFF860B9601346FB71154ABB68136009
:101E000000F05AF87861134AFB681360124A104BCD
:101E10001B681360114B00221A60FB7963F01D03ED
:101E2000DAB20F4B1A600F4B1B6823F47F430D4A45
:101E300043F4804313600C4B1B680B4A43F08063F0
:101E40001360786900F046F800BF1837BD4680BDC2
:101E5000240700201C07002020C000402CC00040A8
:101E600028C0004018E400E000E100E080B500AFC9
:101E7000054B00221A60054B1B689847044A054B26
:101E80001B68136000BF80BD2CC000401C070020F1
:101E900020C000402407002080B400AF72B600BF0D
:101EA000BD465DF8047B704780B400AF62B600BFEA
:101EB000BD465DF8047B704780B483B000AFEFF39C
:101EC000108372B67B607B6818460C37BD465DF8A0
:101ED000047B704780B483B000AF786080F31088D3
:101EE00000BF0C37BD465DF8047B704780B400AF7F
:101EF00030BF00BFBD465DF8047B704780B483B03F
:101F000000AF78607B68013BFDD100BF0C37BD4658
:101F10005DF8047B704780B582B000AF786006E062
:101F20004FF4FA50FFF7EAFF7B68013B7B607B6868
:101F3000002BF5D100BF00BF0837BD4680BD0000B3
:101F400080B400AF00BF264B1B889BB203F48063B4
:101F5000002BF8D1224B39221A8000BF204B1B885E
:101F60009BB203F48053002BF8D01E4B1B681D4A14
:101F700023F00203136000BF1A4B1B6803F4803385
:101F8000002BF9D1174B184A1A60164B30225A60B1
:101F9000144B4FF4C3729A61124B0022C3F83C21D8
:101FA000104B0022C3F84021104BDB7ADBB20F4A02
:101FB00063F07F03DBB2D3720C4B5B7BDBB20B4A6B
:101FC00063F07F03DBB25373064B1B68054A43F093
:101FD0000203136000BFBD465DF8047B704700BF7D
:101FE000003000400020014010332004204C00400D
:101FF00080B483B000AF00BF104B1B6803F4803384
:10200000002BF9D10D4B1B680C4A43F00103136000
:1020100000BF0A4BD3F8443103F00103002BF8D082
:10202000064BD3F89830C3F30D037B607B681846EA
:102030000C37BD465DF8047B704700BF00200140AF
:1020400080B500AF0E4B1B681846FEF7A3FC4FF09F
:1020500000020C4BFEF742FE02460B4610461946A4
:10206000FEF7D4FF03469BB201219FED030B1846F8
:1020700000F060F900BF80BD343333333333B33FF6
:102080006C0000200000A94080B584B000AF87ED4F
:10209000000B4FF000024FF00003D7E90001FEF7FC
:1020A00065FF0346002B06D04FF000024FF00003FF
:1020B000C7E900230EE04FF00002174BD7E90001FB
:1020C000FEF772FF0346002B04D04FF00002124BC4
:1020D000C7E900230EA3D3E90023D7E90001FEF7E7
:1020E000D3FC02460B461046194609A3D3E9002348
:1020F000FEF714FB02460B46C7E90223012097EDC9
:10210000020B00F087F900BF1037BD4680BD00BF4D
:102110009A9999999999A93F0000F03F0000000011
:1021200080B584B000AF87ED000B0FA3D3E9002387
:10213000D7E90001FEF7A8FC02460B4610461946F7
:102140000BA3D3E90023FEF7E9FA02460B46C7E9E1
:10215000022397ED020BFFF797FF00BF1037BD4634
:1021600080BD00BFAFF30080EC51B81E85EB913FFE
:102170009A9999999999E13F80B586B000AF034645
:1021800087ED000B0A46FB811346BB81BB89012BFF
:1021900018D1524B5B79DBB2504A43F01003DBB2EB
:1021A00053714E4BDB7ADBB24C4A43F01003DBB287
:1021B000D3724A4B5B7BDBB2484A23F01003DBB29D
:1021C000537356E0BB89022B18D1444B5B79DBB2C9
:1021D000424A43F02003DBB25371404BDB7ADBB25F
:1021E0003E4A43F02003DBB2D3723C4B5B7BDBB255
:1021F0003A4A23F02003DBB253733AE0BB89032B46
:1022000018D1364B5B79DBB2344A43F04003DBB282
:102210005371324BDB7ADBB2304A43F04003DBB21E
:10222000D3722E4B5B7BDBB22C4A23F04003DBB234
:1022300053731EE0BB89042B18D1284B5B79DBB2AA
:10224000264A63F07F03DBB25371244BDB7ADBB2A7
:10225000224A63F07F03DBB2D372204B5B7BDBB29D
:102260001E4A03F07F03DBB2537302E06FF00103F9
:1022700030E0BB89FA891A4941F823204FF08042A7
:10228000FB8953824FF08042BB895B001344C0221C
:102290005A80BB89124A52F823301846FEF77AFB5F
:1022A000D7E90023FEF7F0FB02460B46104619461D
:1022B000FEF7ACFE0346FB824FF08042BB89083339
:1022C0005B001344FA8A5A804FF080434FF4047243
:1022D0001A80002318461837BD4680BD004C0040C8
:1022E0002C07002080B586B000AF87ED020B0346B7
:1022F000FB80FB880E4A52F823301846FEF74AFB53
:10230000D7E90223FEF7C0FB02460B4610461946EA
:10231000FEF77CFE0346FB824FF08042FB880833C9
:102320005B001344FA8A5A8000BF1837BD4680BD4F
:102330002C07002080B586B000AF034687ED000B68
:102340000A46FB811346BB81BB89012B55D12E4B1D
:102350001B79DBB22C4A43F04003DBB213712A4BEA
:102360009B7ADBB2284A43F04003DBB29372264BE0
:102370001B7BDBB2244A23F04003DBB21373BB891F
:10238000FA89224941F82320214AFB895382204AB5
:10239000BB895B001344C0225A80BB891B4A52F898
:1023A00023301846FEF7F6FAD7E90023FEF76CFB58
:1023B00002460B4610461946FEF728FE0346FB82EE
:1023C000134ABB8908335B001344FA8A5A80104BC6
:1023D0004FF404721A800E4B1B889BB20C4A43F0D8
:1023E000C0039BB213800A4B1B8C9BB2084A43F07C
:1023F00007039BB21384002301E06FF0010318462A
:102400001837BD4680BD00BF404C0040400700204B
:102410000008004080B586B000AF87ED020B034690
:10242000FB80FB880E4A52F823301846FEF7B2FABA
:10243000D7E90223FEF728FB02460B461046194651
:10244000FEF7E4FD0346FB82064AFB8808335B0087
:102450001344FA8A5A8000BF1837BD4680BD00BFBA
:10246000400700200008004080B500AF2C4B1B79CE
:10247000DBB22B4A63F07F03DBB21371284B9B78EE
:10248000DBB2274A03F07F03DBB29370244B9B7AC5
:10249000DBB2234A03F07F03DBB29372204B1B7B3A
:1024A000DBB21F4A03F07F03DBB213731D4B1B68C3
:1024B0001846FEF76FFA16A3D3E90023FEF70EFCC9
:1024C00002460B4610461946FEF7A0FD03469BB296
:1024D00001219FED110B1846FFF74EFE114B1B68B3
:1024E0001846FEF757FA0AA3D3E90023FEF7F6FBD6
:1024F00002460B4610461946FEF788FD03469BB27E
:1025000002219FED050B1846FFF736FE00BF80BD88
:10251000000000000088C340000000000000000030
:10252000204C00406C000020B0B582B000AF87EDB9
:10253000000B294B9B78DBB2274A63F07F03DBB2A9
:1025400093704FF00002254BD7E90001FEF70EFD16
:102550000346002B05D04FF00002204BC7E90023B3
:102560000EE04FF000021E4BD7E90001FEF71CFD04
:102570000346002B04D04FF00002194BC7E900239B
:102580004FF000024FF00003D7E90001FEF7EEFC28
:102590000346002B0ED03C687B6883F00045012089
:1025A00045EC104BFFF79EFE02209FED090BFFF755
:1025B00099FE09E001209FED060BFFF793FE022034
:1025C00097ED000BFFF78EFE00BF0837BD46B0BD8C
:1025D0000000000000000000204C00400000F0BFA0
:1025E0000000F03F0000000080B500AF2C4B1B79CD
:1025F000DBB22B4A43F04003DBB21371284B9B78CC
:10260000DBB2274A23F04003DBB29370244B9B7A62
:10261000DBB2234A23F04003DBB29372204B1B7BD7
:10262000DBB21F4A23F04003DBB213731D4B1B6860
:102630001846FEF7AFF916A3D3E90023FEF74EFBC9
:1026400002460B4610461946FEF7E0FC03469BB2D5
:1026500003219FED110B1846FFF78EFD114B1B68F0
:102660001846FEF797F90AA3D3E90023FEF736FBD5
:1026700002460B4610461946FEF7C8FC03469BB2BD
:1026800004219FED050B1846FFF776FD00BF80BDC6
:10269000000000000088C3400000000000000000AF
:1026A000204C00406C000020B0B582B000AF87ED38
:1026B000000B294B9B78DBB2274A43F04003DBB287
:1026C00093704FF00002254BD7E90001FEF74EFC56
:1026D0000346002B05D04FF00002204BC7E9002332
:1026E0000EE04FF000021E4BD7E90001FEF75CFC44
:1026F0000346002B04D04FF00002194BC7E900231A
:102700004FF000024FF00003D7E90001FEF72EFC66
:102710000346002B0ED03C687B6883F00045032005
:1027200045EC104BFFF7DEFD04209FED090BFFF792
:10273000D9FD09E003209FED060BFFF7D3FD042030
:1027400097ED000BFFF7CEFD00BF0837BD46B0BDCB
:102750000000000000000000204C00400000F0BF1E
:102760000000F03F80B500AF114B9B78DBB2104A00
:1027700023F01003DBB293700D4B9B78DBB20C4A55
:1027800043F02003DBB29370094B9B78DBB2084A1D
:1027900043F01003DBB29370054B9B78DBB2044A25
:1027A00023F02003DBB2937000F0A8F800BF80BDD7
:1027B000404C00400000000080B582B000AF9FEDAB
:1027C000140BFFF78DFA7860134B9B7ADBB2124A39
:1027D00023F02003DBB293720F4B1B7BDBB20E4A5C
:1027E00023F02003DBB213730B4B1B79DBB20A4AD5
:1027F00043F02003DBB21371002279680748FFF72A
:102800009FFA00BF0837BD4680BD00BFAFF3008010
:102810000400600900004940404C0040652700006A
:1028200080B582B000AF9FED140BFFF759FA7860C6
:10283000134B9B7ADBB2124A23F01003DBB2937284
:102840000F4B1B7BDBB20E4A23F01003DBB213737A
:102850000B4B1B79DBB20A4A43F01003DBB2137156
:102860007968084800F06AF800F058F800BF0837A7
:10287000BD4680BDAFF3008000000000006A084143
:10288000404C00408928000080B582B000AF174B53
:102890009B78DBB2154A83F01003DBB29370134BC5
:1028A0009B78DBB203F01003002B1AD0FFF7A0FBDC
:1028B00078600F4B1B687A6891B20E4A22F81310A9
:1028C0000B4B1B6801330A4A1360094B1B68802BB2
:1028D00007D1094B01221A7000F020F8044B0022A6
:1028E0001A6000BF0837BD4680BD00BF404C0040A5
:1028F0005C080020540700205408002080B400AF7A
:10290000054B1B68044A43F00103136000BFBD463A
:102910005DF8047B704700BF10E000E080B400AFBA
:10292000054B1B68044A23F00103136000BFBD463A
:102930005DF8047B704700BF10E000E080B584B014
:1029400000AF786039600023FB60FFF7B5FAF860EC
:10295000114A7B681360FFF7E1FF104A3B68013BB7
:1029600053600E4B00229A600D4B1B6823F07F438F
:102970000B4A43F080431360084B1B68074A43F03F
:1029800006031360FFF7BAFFF868FFF7A3FA00BF6A
:102990001037BD4680BD00BF6008002010E000E099
:1029A00020ED00E080B500AF044B1B680133034A03
:1029B0001360034B1B68984700BF80BD640800206C
:1029C0006008002080B400AF044B1B680133034A49
:1029D000136000BFBD465DF8047B704768080020A7
:1029E000B0B59AB000AF9FED940BFFF779F90346AD
:1029F000002219469448FFF7F9F9944B3B65944B34
:102A0000FB64944BBB640A237B64012387F8673023
:102A100000233B66904B3B64002387F85F30002324
:102A2000BB6500237B658D4B07F120041D460FCD50
:102A30000FC495E8030084E80300894B07F10804FC
:102A40001D460FCD0FC495E8030084E80300386CE1
:102A5000FDF7C2FF02460B4643EC102BFFF764FD67
:102A6000386CFDF7B9FF02460B4643EC102BFFF71D
:102A70001BFECEE000F0CAFD0346002B00F0C9802B
:102A8000FB1D184600F0D6FD87ED0F0AFB79002BE1
:102A900003D03B6E01333B6601E000233B663B6E97
:102AA000322B02DD002387F867304FF00003BB6351
:102AB00097F85F30002B61D06A4BDB78DBB2694A54
:102AC00043F00403DBB2D3700023BB6507F10803B6
:102AD000DFED650A97ED0F0A184600F035FA87ED2D
:102AE0000E0AD7ED0E7AF0EEE77A97ED127AB4EE91
:102AF000E77AF1EE10FA06DD7A6D7B6C9A4202DD20
:102B0000002387F85F30D7ED0E7AF1EE677A17EE83
:102B1000903A1846FDF760FF02460B4643EC102B37
:102B2000FFF7FEFA97ED147AD7ED0E7A27EE277AA3
:102B3000D7ED107A77EE277A17EE900AFDF74CFF63
:102B400002460B4643EC102BFFF7EEFC97ED147A90
:102B5000D7ED0E7A67EE277A97ED107A77EE677ADF
:102B600017EE900AFDF738FF02460B4643EC102B98
:102B7000FFF79AFD7B6D01337B654AE0394BDB78CB
:102B8000DBB2384A23F00403DBB2D37000237B6549
:102B900007F12003DFED340A97ED0F0A184600F025
:102BA000D3F987ED0E0AD7ED0E7AF0EEE77A97EDBE
:102BB000137AB4EEE77AF1EE10FA06D5BA6D7B6CB3
:102BC0009A4202DD012387F85F30D7ED0E7AF1EEED
:102BD000677A17EE903A1846FDF7FEFE02460B465E
:102BE00043EC102BFFF79CFA386CFDF7F5FE02461C
:102BF0000B4643EC102BFFF797FC386CFDF7ECFE0F
:102C000002460B4643EC102BFFF74EFDBB6D013324
:102C1000BB6597F86730002B7FF42CAF9FED080B56
:102C2000FFF782FC9FED060BFFF73EFD00BF683704
:102C3000BD46B0BDAFF300800000000000408F40F3
:102C40000000000000000000C5290000A69B443BD6
:102C5000000070410000F0409A99993E5037000002
:102C600068370000004C00400AD7A33C80B400AF96
:102C7000044B1B680133034A136000BFBD465DF877
:102C8000047B70476C080020B0B5A0B000AF9FED8A
:102C9000A00BFFF725F8034600221946A048FFF7CE
:102CA000A5F8A04BFB65A04BBB65A04B7B6505233E
:102CB0003B653223FB644FF00003FB674FF00003DA
:102CC000BB67012387F8773000233B67984BBB64D1
:102CD000984B7B64002387F86F30002387F86E30B1
:102CE0000023BB6614233B6400237B6600233B6602
:102CF000914B07F120041D460FCD0FC495E803004A
:102D000084E803008D4B07F108041D460FCD0FC466
:102D100095E8030084E80300BB6CFB67BB6CBB67F2
:102D2000E5E000F073FC0346002B00F0E080FB1DA3
:102D3000184600F07FFC87ED0F0AFB79002B03D0CB
:102D40003B6F01333B6701E000233B673B6F322B56
:102D500002DD002387F877304FF00003BB6397F85C
:102D60006F30002B51D0764BDB78DBB2744A43F0E6
:102D70000403DBB2D37000237B6607F10803DFEDA9
:102D8000710A97ED0F0A184600F0DEF887ED0E0A7B
:102D9000D7ED0E7AF0EEE77A97ED157AB4EEE77A92
:102DA000F1EE10FA06DD3A6E3B6D9A4202DD002329
:102DB00087F86F30D7ED0E7AF1EE677A17EE903A1A
:102DC0001846FDF709FE02460B4643EC102BFFF7B1
:102DD000A7F997ED177AD7ED0E7A67EE277A97ED78
:102DE000117A77EE277AC7ED1F7A97ED177AD7ED2C
:102DF0000E7A67EE277A97ED117A77EE677AC7ED4C
:102E00001E7A3B6E01333B6643E04D4BDB78DBB211
:102E10004B4A23F00403DBB2D37000233B6607F177
:102E20002003DFED480A97ED0F0A184600F08CF8F2
:102E300087ED0E0AD7ED0E7AF0EEE77A97ED167A67
:102E4000B4EEE77AF1EE10FA0DD57A6E3B6D9A4248
:102E500009DD012387F86F307A6EFB6C9A4202DD40
:102E6000012387F86E30D7ED0E7AF1EE677A17EE10
:102E7000903A1846FDF7B0FD02460B4643EC102B86
:102E8000FFF74EF9BB6CFB67BB6CBB677B6E013316
:102E90007B6697F86E30002B17D0BB6E0133BB6694
:102EA000BA6E3B6C9A4204DD002387F86E30002333
:102EB000BB66D7ED127AF1EE677AC7ED1F7AD7EDD0
:102EC000127AF1EE677AC7ED1E7AF86FFDF784FD8E
:102ED00002460B4643EC102BFFF726FBB86FFDF7BD
:102EE0007BFD02460B4643EC102BFFF7DDFB97F80A
:102EF0007730002B7FF415AF9FED070BFFF714FB26
:102F00009FED050BFFF7D0FB00BF8037BD46B0BD7E
:102F10000000000000408F400000000000000000A2
:102F20006D2C0000A69B443B000070410000F04067
:102F3000CDCCCC3E9A99993E80370000983700005E
:102F4000004C00400AD7A33C80B487B000AFF860C3
:102F500087ED020AC7ED010AFB6893ED037AD7ED0E
:102F6000026AD7ED017A66EEA77A77EE277AFB68D8
:102F7000C3ED037AFB6893ED037AFB68D3ED057A22
:102F8000B4EEE77AF1EE10FA04DDFB685A69FB68EB
:102F9000DA6014E0FB6893ED037AFB68D3ED057A01
:102FA000F1EE677AB4EEE77AF1EE10FA07D5FB6836
:102FB000D3ED057AF1EE677AFB68C3ED037AFB681F
:102FC000D3ED047A97ED027A77EE677AC7ED057A4A
:102FD000FB68BA681A61FB6893ED007AD7ED027A54
:102FE00027EE277AFB68D3ED016AFB68D3ED037AFD
:102FF00066EEA77A37EE277AFB68D3ED026AD7ED43
:10300000057A66EEA76AD7ED017A66EEA77A77EEC3
:10301000277AB0EE670A1C37BD465DF8047B70471F
:1030200080B584B000AF78604FF4806200212748FB
:10303000FDF736F90023FB6040E0FB685B007A682F
:1030400013441B889B01224A82FB03121A44521329
:10305000DB17D31A1846FDF7ADFC02460B464FF0BE
:1030600000001C49FDF758FB02460B461046194666
:10307000FDF7A4FF0346BB60BB683F2B01DD3F2388
:10308000BB60BB68002B00DA0733DB10D901FA689C
:103090000A440E498A5C51B2BA6802F00702012064
:1030A00000FA02F252B20A4351B2DA01FB68134449
:1030B000C9B2064AD154FB680133FB60FB687F2B21
:1030C000BBDD00BF00BF1037BD4680BD74100020BF
:1030D000090002800000504080B500AF4FF48062CC
:1030E00000210248FDF7DCF800BF80BD740C002011
:1030F00080B584B000AF0346FB7100233B73FB79BE
:103100007B7307F10C030221184600F019FA00BF87
:103110001037BD4680BD80B584B000AF7860002315
:103120003B8140233B720023FB600DE0FB687A6823
:1031300013441B787B7207F108030221184600F044
:10314000FFF9FB680133FB60FB68B3F5806FEDDBD3
:1031500000BF00BF1037BD4680BD80B584B000AF52
:10316000786040233B720023FB600DE0FB687A68C7
:1031700013441B787B7207F108030221184600F004
:10318000DFF9FB680133FB60FB68B3F5806FEDDBB3
:1031900000BF00BF1037BD4680BD000080B582B0C3
:1031A00000AF3C2000F07AF900237B600DE07A68E4
:1031B00013461B019B1A464A13440F22002118464E
:1031C000FDF76EF87B6801337B607B68032BEEDDD7
:1031D0004FF4806200213F48FDF762F8AE20FFF710
:1031E00087FFA820FFF784FF3F20FFF781FFD32050
:1031F000FFF77EFF0020FFF77BFF4020FFF778FFFF
:10320000A120FFF775FFC820FFF772FFA620FFF788
:103210006FFFD520FFF76CFF8020FFF769FFDA20F2
:10322000FFF766FF1220FFF763FF8120FFF760FFC3
:103230007F20FFF75DFFA420FFF75AFFA620FFF7CE
:1032400057FFD920FFF754FFF120FFF751FFDB2094
:10325000FFF74EFF4020FFF74BFFD520FFF748FF59
:103260008020FFF745FF8D20FFF742FF1420FFF776
:103270003FFF0020FFF73CFF1020FFF739FFB02091
:10328000FFF736FF2020FFF733FF0020FFF730FF66
:103290002120FFF72DFF0020FFF72AFF7F20FFF7F7
:1032A00027FF2220FFF724FF0020FFF721FF072040
:1032B000FFF71EFF2E20FFF71BFF00F081F800F044
:1032C00087F800F07DF800BF0837BD4680BD00BF1D
:1032D00074140020740C002080B48BB000AFF86030
:1032E000B9601346FB71FB79203B7B627B6A1B0153
:1032F0001C4A1A4407F11C031068516803C37B6A17
:103300001B01184A134403F1080207F11403106863
:10331000516803C3FB68013B1B021A46BB68013BB3
:10332000DB001344104A13441A4607F11C0303CB75
:1033300010605160FB68013B1B021A46BB68013BF1
:10334000DB0013448033084A13441A4607F1140380
:1033500003CB1060516000BF2C37BD465DF8047B85
:10336000704700BF70000020740C002080B586B04C
:1033700000AFF860B9607A6000237B610DE0BB6844
:103380005A1CBA607A6979680A4412781946F86852
:10339000FFF7A2FF7B6901337B617868FDF7B0FE20
:1033A00002467B699A42EAD800BF00BF1837BD4683
:1033B00080BD80B500AFA520FFF79AFE00BF80BD9D
:1033C00080B500AFAF20FFF793FE00BF80BD0000C7
:1033D00080B500AF4FF4806200210448FCF760FF25
:1033E0000248FFF798FE00BF80BD00BF74080020B0
:1033F00080B582B000AF78607868FFF711FE0348AF
:10340000FFF7ABFE00BF0837BD4680BD741000203B
:1034100080B584B000AFF860B9607A60084B1B7863
:10342000012B08D07A68B968F868FFF79FFF054854
:10343000FFF793FE00E000BF1037BD4680BD00BF20
:1034400070080020740C002080B582B000AF786056
:103450000F4B1B78012B17D00E4B1B6801337A687A
:1034600001211846FFF782FF0B48FFF776FE094B54
:103470001B6801335A4203F0030302F0030258BFF2
:103480005342044A136000E000BF0837BD4680BDC8
:1034900070080020B0140020740C002080B483B0A9
:1034A00000AF7860224B1B889BB2214A43F0010396
:1034B0009BB213801F4B9B7ADBB21E4A63F03F0323
:1034C000DBB293721B4B1B7BDBB21A4A03F03F0348
:1034D000DBB21373164B1B889AB2154941F6D173B0
:1034E00013409BB20B80124B1B889BB2104A43F4D3
:1034F0006D639BB21380104B1B68DB090F4AA2FB64
:1035000003231A090A4B92B2DA80094B7A6892B205
:103510001A84074B1B889BB2054A23F001039BB218
:10352000138000BF0C37BD465DF8047B704700BFB9
:1035300000200040004C00406C000020598B4F01DF
:1035400080B584B000AF78603960224B1B889BB295
:10355000204A23F001039BB213801E4B1B889BB2B1
:103560001C4A43F002039BB2138000BF194B9B8D92
:103570009BB203F00203002BF8D00023FB6009E0AC
:10358000FB687A6813441B78184600F025F8FB683E
:103590000133FB60FB683A689A42F1D80D4B1B88F7
:1035A0009BB20C4A43F004039BB2138000BF094B4B
:1035B0009B8D9BB203F00203002BF8D0054B1B88B8
:1035C0009BB2044A43F001039BB2138000BF103743
:1035D000BD4680BD0020004080B483B000AF0346EC
:1035E000FB71094BFA7992B2DA8100BF064B9B8DD1
:1035F0009BB203F00203002BF8D000BF00BF0C37D2
:10360000BD465DF8047B70470020004080B400AFE9
:10361000074B1B78012B04D1054B00221A700123A4
:1036200000E000231846BD465DF8047B704700BFEC
:103630005408002080B588B000AF78607B68002215
:103640001A700023FB617F23BB6143F6FF733B616C
:1036500000237B610DE0274A7B6932F813301A465C
:103660003B69934202D17B69FB6105E07B690133D1
:103670007B617B697F2BEEDD7B69802B05D17B68CD
:1036800001221A704FF000032DE07F237B610DE0D3
:10369000184A7B6932F813301A463B69934202D1CB
:1036A0007B69BB6105E07B69013B7B617B69002B2A
:1036B000EEDAFA69BB691344DA0F13445B10FB605E
:1036C000FB68403B1846FDF775F94FF000020A4BC6
:1036D000FDF704FB02460B4610461946FDF7B6FC03
:1036E0000346BB60BB6807EE903AB0EE670A20372E
:1036F000BD4680BD54070020000050406901000015
:10370000F8B500BFF8BC08BC9E467047F8B500BFCE
:0C37100041010000F8BC08BC9E46704758
:10371C003A3D0A3D0F3D243D323D023D053D133DF2
:10372C000D3D0C3D233D113D263D013D173D083D12
:10373C00093D0000080000200D0A204352757374E7
:10374C00200D0A00000048420000000000401C460A
:10375C000000000000000000000020410000644256
:10376C00000000000000000000000000000000004D
:10377C0000002041000048420000000000401C46B0
:10378C000000000000000000000020410000644226
:10379C00000000000000000000000000000000001D
:1037AC00000020413A3D0A3D0F3D243D323D023D93
:1037BC00053D133D0D3D0C3D233D113D263D013D89
:0837CC00173D083D093D000016
:0437D40000000000F1
:0837D800B0C9FF7F01000000F1
:1037E00000000000080000200000000000000000B1
:1037F00000000000000000000000000000000000C9
:1038000000000000000000000000000000000000B8
:1038100000000000000000000000000000000000A8
:103820000000000000000000000000000000000098
:103830000000000000000000000000000000000088
:103840000000000000000000F1030000006CDC023A
:103850000000000000000000000000000000000068
:10386000000000F8000000000000003330000000FD
:1038700000100C06100C0600000000000000000004
:1038800040C07840C0784000043F04043F04040076
:10389000007088FC08300000001820FF211E000086
:1038A000F008F000E018000000211C031E211E009B
:1038B00000F00888700000001E2123241927211021
:1038C00010160E00000000000000000000000000C4
:1038D000000000E01804020000000007182040006B
:1038E00000020418E000000000402018070000005B
:1038F000404080F0804040000202010F01020200BF
:10390000000000F0000000000101011F01010100A2
:10391000000000000000000080B070000000000007
:103920000000000000000000000101010101010190
:103930000000000000000000003030000000000027
:1039400000000000806018040060180601000000FC
:1039500000E010080810E000000F102020100F00F9
:10396000001010F8000000000020203F2020000080
:1039700000700808088870000030282422213000D8
:1039800000300888884830000018202020110E00E0
:103990000000C02010F8000000070424243F240089
:1039A00000F80888880808000019212020110E005E
:1039B00000E0108888180000000F112020110E0070
:1039C00000380808C83808000000003F0000000068
:1039D0000070880808887000001C222121221C0029
:1039E00000E010080810E0000000312222110F0052
:1039F000000000C0C00000000000003030000000E7
:103A00000000008000000000000080600000000056
:103A1000000080402010080000010204081020006F
:103A200040404040404040000404040404040400BA
:103A3000000810204080000000201008040201004F
:103A4000007048080808F00000000030360100004F
:103A5000C030C828E810E0000718272423140B0002
:103A60000000C038E0000000203C2302022738207C
:103A700008F8888888700000203F202020110E0060
:103A8000C030080808083800071820202010080057
:103A900008F808080810E000203F202020100F0040
:103AA00008F88888E8081000203F2020232018000C
:103AB00008F88888E8081000203F20000300000074
:103AC000C03008080838000007182020221E020015
:103AD00008F808000008F808203F210101213F20D4
:103AE000000808F8080800000020203F20200000FF
:103AF00000000808F8080800C08080807F000000EF
:103B000008F888C028180800203F20012638200027
:103B100008F8080000000000203F2020202030008E
:103B200008F8F800F8F80800203F003F003F2000A8
:103B300008F830C00008F808203F200007183F00B0
:103B4000E01008080810E0000F10202020100F00DF
:103B500008F808080808F000203F210101010000D2
:103B6000E01008080810E0000F18242438504F0017
:103B700008F8888888887000203F2000030C3020D7
:103B800000708808080838000038202121221C0015
:103B9000180808F8080818000000203F200000005E
:103BA00008F808000008F808001F202020201F0047
:103BB0000878880000C83808000007380E010000A7
:103BC000F80800F80008F800033C0700073C030071
:103BD000081868808068180820302C03032C3020D7
:103BE0000838C800C83808000000203F2000000046
:103BF00010080808C838080020382621202018009E
:103C0000000000FE020202000000007F4040400071
:103C1000000C30C000000000000000010638C000A9
:103C200000020202FE000000004040407F00000051
:103C30000000040202020400000000000000000076
:103C40000000000000000000808080808080808074
:103C5000000202040000000000000000000000005C
:103C600000008080808000000019242222223F2052
:103C700008F8008080000000003F112020110E0095
:103C80000000008080800000000E11202020110024
:103C9000000000808088F800000E112020103F20D6
:103CA0000000808080800000001F2222222213005A
:103CB000008080F0888888180020203F20200000A5
:103CC0000000808080808000006B9494949360005A
:103CD00008F8008080800000203F210000203F2065
:103CE00000809898000000000020203F2020000065
:103CF000000000809898000000C08080807F000055
:103D000008F8000080808000203F24022D30200031
:103D1000000808F8000000000020203F20200000DC
:103D20008080808080808000203F20003F20003FF6
:103D30008080008080800000203F210000203F2004
:103D40000000808080800000001F202020201F00B5
:103D5000808000808000000080FFA12020110E00E4
:103D60000000008080808000000E112020A0FF80D5
:103D7000808080008080800020203F212000010082
:103D800000008080808080000033242424241900D7
:103D9000008080E0808000000000001F20200000E4
:103DA0008080000000808000001F202020103F2025
:103DB000808080000080808000010E3008060100B5
:103DC00080800080008080800F300C030C300F005A
:103DD00000808000808080000020312E0E31200085
:103DE000808080000080808080818E7018060100B5
:103DF00000808080808080000021302C22213000D3
:103E000000000000807C020200000000003F4040F3
:103E100000000000FF00000000000000FF000000A4
:103E20000002027C800000000040403F00000000D3
:103E3000000601010202040400000000000000006E
:0400000300000100F8
:00000001FF
